{
	"DADDY TATE.sol": {
		"DADDYTATEFRIEND": {
			"abi": [
				{
					"inputs": [
						{
							"internalType": "address",
							"name": "initialOwner",
							"type": "address"
						}
					],
					"stateMutability": "nonpayable",
					"type": "constructor"
				},
				{
					"inputs": [],
					"name": "ECDSAInvalidSignature",
					"type": "error"
				},
				{
					"inputs": [
						{
							"internalType": "uint256",
							"name": "length",
							"type": "uint256"
						}
					],
					"name": "ECDSAInvalidSignatureLength",
					"type": "error"
				},
				{
					"inputs": [
						{
							"internalType": "bytes32",
							"name": "s",
							"type": "bytes32"
						}
					],
					"name": "ECDSAInvalidSignatureS",
					"type": "error"
				},
				{
					"inputs": [
						{
							"internalType": "address",
							"name": "spender",
							"type": "address"
						},
						{
							"internalType": "uint256",
							"name": "allowance",
							"type": "uint256"
						},
						{
							"internalType": "uint256",
							"name": "needed",
							"type": "uint256"
						}
					],
					"name": "ERC20InsufficientAllowance",
					"type": "error"
				},
				{
					"inputs": [
						{
							"internalType": "address",
							"name": "sender",
							"type": "address"
						},
						{
							"internalType": "uint256",
							"name": "balance",
							"type": "uint256"
						},
						{
							"internalType": "uint256",
							"name": "needed",
							"type": "uint256"
						}
					],
					"name": "ERC20InsufficientBalance",
					"type": "error"
				},
				{
					"inputs": [
						{
							"internalType": "address",
							"name": "approver",
							"type": "address"
						}
					],
					"name": "ERC20InvalidApprover",
					"type": "error"
				},
				{
					"inputs": [
						{
							"internalType": "address",
							"name": "receiver",
							"type": "address"
						}
					],
					"name": "ERC20InvalidReceiver",
					"type": "error"
				},
				{
					"inputs": [
						{
							"internalType": "address",
							"name": "sender",
							"type": "address"
						}
					],
					"name": "ERC20InvalidSender",
					"type": "error"
				},
				{
					"inputs": [
						{
							"internalType": "address",
							"name": "spender",
							"type": "address"
						}
					],
					"name": "ERC20InvalidSpender",
					"type": "error"
				},
				{
					"inputs": [
						{
							"internalType": "uint256",
							"name": "deadline",
							"type": "uint256"
						}
					],
					"name": "ERC2612ExpiredSignature",
					"type": "error"
				},
				{
					"inputs": [
						{
							"internalType": "address",
							"name": "signer",
							"type": "address"
						},
						{
							"internalType": "address",
							"name": "owner",
							"type": "address"
						}
					],
					"name": "ERC2612InvalidSigner",
					"type": "error"
				},
				{
					"inputs": [
						{
							"internalType": "address",
							"name": "account",
							"type": "address"
						},
						{
							"internalType": "uint256",
							"name": "currentNonce",
							"type": "uint256"
						}
					],
					"name": "InvalidAccountNonce",
					"type": "error"
				},
				{
					"inputs": [],
					"name": "InvalidShortString",
					"type": "error"
				},
				{
					"inputs": [
						{
							"internalType": "address",
							"name": "owner",
							"type": "address"
						}
					],
					"name": "OwnableInvalidOwner",
					"type": "error"
				},
				{
					"inputs": [
						{
							"internalType": "address",
							"name": "account",
							"type": "address"
						}
					],
					"name": "OwnableUnauthorizedAccount",
					"type": "error"
				},
				{
					"inputs": [
						{
							"internalType": "string",
							"name": "str",
							"type": "string"
						}
					],
					"name": "StringTooLong",
					"type": "error"
				},
				{
					"anonymous": false,
					"inputs": [
						{
							"indexed": true,
							"internalType": "address",
							"name": "owner",
							"type": "address"
						},
						{
							"indexed": true,
							"internalType": "address",
							"name": "spender",
							"type": "address"
						},
						{
							"indexed": false,
							"internalType": "uint256",
							"name": "value",
							"type": "uint256"
						}
					],
					"name": "Approval",
					"type": "event"
				},
				{
					"anonymous": false,
					"inputs": [],
					"name": "EIP712DomainChanged",
					"type": "event"
				},
				{
					"anonymous": false,
					"inputs": [
						{
							"indexed": true,
							"internalType": "address",
							"name": "previousOwner",
							"type": "address"
						},
						{
							"indexed": true,
							"internalType": "address",
							"name": "newOwner",
							"type": "address"
						}
					],
					"name": "OwnershipTransferred",
					"type": "event"
				},
				{
					"anonymous": false,
					"inputs": [
						{
							"indexed": true,
							"internalType": "address",
							"name": "from",
							"type": "address"
						},
						{
							"indexed": true,
							"internalType": "address",
							"name": "to",
							"type": "address"
						},
						{
							"indexed": false,
							"internalType": "uint256",
							"name": "value",
							"type": "uint256"
						}
					],
					"name": "Transfer",
					"type": "event"
				},
				{
					"inputs": [],
					"name": "DOMAIN_SEPARATOR",
					"outputs": [
						{
							"internalType": "bytes32",
							"name": "",
							"type": "bytes32"
						}
					],
					"stateMutability": "view",
					"type": "function"
				},
				{
					"inputs": [
						{
							"internalType": "address",
							"name": "owner",
							"type": "address"
						},
						{
							"internalType": "address",
							"name": "spender",
							"type": "address"
						}
					],
					"name": "allowance",
					"outputs": [
						{
							"internalType": "uint256",
							"name": "",
							"type": "uint256"
						}
					],
					"stateMutability": "view",
					"type": "function"
				},
				{
					"inputs": [
						{
							"internalType": "address",
							"name": "spender",
							"type": "address"
						},
						{
							"internalType": "uint256",
							"name": "value",
							"type": "uint256"
						}
					],
					"name": "approve",
					"outputs": [
						{
							"internalType": "bool",
							"name": "",
							"type": "bool"
						}
					],
					"stateMutability": "nonpayable",
					"type": "function"
				},
				{
					"inputs": [
						{
							"internalType": "address",
							"name": "account",
							"type": "address"
						}
					],
					"name": "balanceOf",
					"outputs": [
						{
							"internalType": "uint256",
							"name": "",
							"type": "uint256"
						}
					],
					"stateMutability": "view",
					"type": "function"
				},
				{
					"inputs": [
						{
							"internalType": "uint256",
							"name": "value",
							"type": "uint256"
						}
					],
					"name": "burn",
					"outputs": [],
					"stateMutability": "nonpayable",
					"type": "function"
				},
				{
					"inputs": [
						{
							"internalType": "address",
							"name": "account",
							"type": "address"
						},
						{
							"internalType": "uint256",
							"name": "value",
							"type": "uint256"
						}
					],
					"name": "burnFrom",
					"outputs": [],
					"stateMutability": "nonpayable",
					"type": "function"
				},
				{
					"inputs": [],
					"name": "decimals",
					"outputs": [
						{
							"internalType": "uint8",
							"name": "",
							"type": "uint8"
						}
					],
					"stateMutability": "view",
					"type": "function"
				},
				{
					"inputs": [],
					"name": "eip712Domain",
					"outputs": [
						{
							"internalType": "bytes1",
							"name": "fields",
							"type": "bytes1"
						},
						{
							"internalType": "string",
							"name": "name",
							"type": "string"
						},
						{
							"internalType": "string",
							"name": "version",
							"type": "string"
						},
						{
							"internalType": "uint256",
							"name": "chainId",
							"type": "uint256"
						},
						{
							"internalType": "address",
							"name": "verifyingContract",
							"type": "address"
						},
						{
							"internalType": "bytes32",
							"name": "salt",
							"type": "bytes32"
						},
						{
							"internalType": "uint256[]",
							"name": "extensions",
							"type": "uint256[]"
						}
					],
					"stateMutability": "view",
					"type": "function"
				},
				{
					"inputs": [],
					"name": "name",
					"outputs": [
						{
							"internalType": "string",
							"name": "",
							"type": "string"
						}
					],
					"stateMutability": "view",
					"type": "function"
				},
				{
					"inputs": [
						{
							"internalType": "address",
							"name": "owner",
							"type": "address"
						}
					],
					"name": "nonces",
					"outputs": [
						{
							"internalType": "uint256",
							"name": "",
							"type": "uint256"
						}
					],
					"stateMutability": "view",
					"type": "function"
				},
				{
					"inputs": [],
					"name": "owner",
					"outputs": [
						{
							"internalType": "address",
							"name": "",
							"type": "address"
						}
					],
					"stateMutability": "view",
					"type": "function"
				},
				{
					"inputs": [
						{
							"internalType": "address",
							"name": "owner",
							"type": "address"
						},
						{
							"internalType": "address",
							"name": "spender",
							"type": "address"
						},
						{
							"internalType": "uint256",
							"name": "value",
							"type": "uint256"
						},
						{
							"internalType": "uint256",
							"name": "deadline",
							"type": "uint256"
						},
						{
							"internalType": "uint8",
							"name": "v",
							"type": "uint8"
						},
						{
							"internalType": "bytes32",
							"name": "r",
							"type": "bytes32"
						},
						{
							"internalType": "bytes32",
							"name": "s",
							"type": "bytes32"
						}
					],
					"name": "permit",
					"outputs": [],
					"stateMutability": "nonpayable",
					"type": "function"
				},
				{
					"inputs": [],
					"name": "renounceOwnership",
					"outputs": [],
					"stateMutability": "nonpayable",
					"type": "function"
				},
				{
					"inputs": [],
					"name": "symbol",
					"outputs": [
						{
							"internalType": "string",
							"name": "",
							"type": "string"
						}
					],
					"stateMutability": "view",
					"type": "function"
				},
				{
					"inputs": [],
					"name": "totalSupply",
					"outputs": [
						{
							"internalType": "uint256",
							"name": "",
							"type": "uint256"
						}
					],
					"stateMutability": "view",
					"type": "function"
				},
				{
					"inputs": [
						{
							"internalType": "address",
							"name": "to",
							"type": "address"
						},
						{
							"internalType": "uint256",
							"name": "value",
							"type": "uint256"
						}
					],
					"name": "transfer",
					"outputs": [
						{
							"internalType": "bool",
							"name": "",
							"type": "bool"
						}
					],
					"stateMutability": "nonpayable",
					"type": "function"
				},
				{
					"inputs": [
						{
							"internalType": "address",
							"name": "from",
							"type": "address"
						},
						{
							"internalType": "address",
							"name": "to",
							"type": "address"
						},
						{
							"internalType": "uint256",
							"name": "value",
							"type": "uint256"
						}
					],
					"name": "transferFrom",
					"outputs": [
						{
							"internalType": "bool",
							"name": "",
							"type": "bool"
						}
					],
					"stateMutability": "nonpayable",
					"type": "function"
				},
				{
					"inputs": [
						{
							"internalType": "address",
							"name": "newOwner",
							"type": "address"
						}
					],
					"name": "transferOwnership",
					"outputs": [],
					"stateMutability": "nonpayable",
					"type": "function"
				}
			],
			"devdoc": {
				"errors": {
					"ECDSAInvalidSignature()": [
						{
							"details": "The signature derives the `address(0)`."
						}
					],
					"ECDSAInvalidSignatureLength(uint256)": [
						{
							"details": "The signature has an invalid length."
						}
					],
					"ECDSAInvalidSignatureS(bytes32)": [
						{
							"details": "The signature has an S value that is in the upper half order."
						}
					],
					"ERC20InsufficientAllowance(address,uint256,uint256)": [
						{
							"details": "Indicates a failure with the `spender`’s `allowance`. Used in transfers.",
							"params": {
								"allowance": "Amount of tokens a `spender` is allowed to operate with.",
								"needed": "Minimum amount required to perform a transfer.",
								"spender": "Address that may be allowed to operate on tokens without being their owner."
							}
						}
					],
					"ERC20InsufficientBalance(address,uint256,uint256)": [
						{
							"details": "Indicates an error related to the current `balance` of a `sender`. Used in transfers.",
							"params": {
								"balance": "Current balance for the interacting account.",
								"needed": "Minimum amount required to perform a transfer.",
								"sender": "Address whose tokens are being transferred."
							}
						}
					],
					"ERC20InvalidApprover(address)": [
						{
							"details": "Indicates a failure with the `approver` of a token to be approved. Used in approvals.",
							"params": {
								"approver": "Address initiating an approval operation."
							}
						}
					],
					"ERC20InvalidReceiver(address)": [
						{
							"details": "Indicates a failure with the token `receiver`. Used in transfers.",
							"params": {
								"receiver": "Address to which tokens are being transferred."
							}
						}
					],
					"ERC20InvalidSender(address)": [
						{
							"details": "Indicates a failure with the token `sender`. Used in transfers.",
							"params": {
								"sender": "Address whose tokens are being transferred."
							}
						}
					],
					"ERC20InvalidSpender(address)": [
						{
							"details": "Indicates a failure with the `spender` to be approved. Used in approvals.",
							"params": {
								"spender": "Address that may be allowed to operate on tokens without being their owner."
							}
						}
					],
					"ERC2612ExpiredSignature(uint256)": [
						{
							"details": "Permit deadline has expired."
						}
					],
					"ERC2612InvalidSigner(address,address)": [
						{
							"details": "Mismatched signature."
						}
					],
					"InvalidAccountNonce(address,uint256)": [
						{
							"details": "The nonce used for an `account` is not the expected current nonce."
						}
					],
					"OwnableInvalidOwner(address)": [
						{
							"details": "The owner is not a valid owner account. (eg. `address(0)`)"
						}
					],
					"OwnableUnauthorizedAccount(address)": [
						{
							"details": "The caller account is not authorized to perform an operation."
						}
					]
				},
				"events": {
					"Approval(address,address,uint256)": {
						"details": "Emitted when the allowance of a `spender` for an `owner` is set by a call to {approve}. `value` is the new allowance."
					},
					"EIP712DomainChanged()": {
						"details": "MAY be emitted to signal that the domain could have changed."
					},
					"Transfer(address,address,uint256)": {
						"details": "Emitted when `value` tokens are moved from one account (`from`) to another (`to`). Note that `value` may be zero."
					}
				},
				"kind": "dev",
				"methods": {
					"DOMAIN_SEPARATOR()": {
						"details": "Returns the domain separator used in the encoding of the signature for {permit}, as defined by {EIP712}."
					},
					"allowance(address,address)": {
						"details": "See {IERC20-allowance}."
					},
					"approve(address,uint256)": {
						"details": "See {IERC20-approve}. NOTE: If `value` is the maximum `uint256`, the allowance is not updated on `transferFrom`. This is semantically equivalent to an infinite approval. Requirements: - `spender` cannot be the zero address."
					},
					"balanceOf(address)": {
						"details": "See {IERC20-balanceOf}."
					},
					"burn(uint256)": {
						"details": "Destroys a `value` amount of tokens from the caller. See {ERC20-_burn}."
					},
					"burnFrom(address,uint256)": {
						"details": "Destroys a `value` amount of tokens from `account`, deducting from the caller's allowance. See {ERC20-_burn} and {ERC20-allowance}. Requirements: - the caller must have allowance for ``accounts``'s tokens of at least `value`."
					},
					"decimals()": {
						"details": "Returns the number of decimals used to get its user representation. For example, if `decimals` equals `2`, a balance of `505` tokens should be displayed to a user as `5.05` (`505 / 10 ** 2`). Tokens usually opt for a value of 18, imitating the relationship between Ether and Wei. This is the default value returned by this function, unless it's overridden. NOTE: This information is only used for _display_ purposes: it in no way affects any of the arithmetic of the contract, including {IERC20-balanceOf} and {IERC20-transfer}."
					},
					"eip712Domain()": {
						"details": "See {IERC-5267}."
					},
					"name()": {
						"details": "Returns the name of the token."
					},
					"nonces(address)": {
						"details": "Returns the current nonce for `owner`. This value must be included whenever a signature is generated for {permit}. Every successful call to {permit} increases ``owner``'s nonce by one. This prevents a signature from being used multiple times."
					},
					"owner()": {
						"details": "Returns the address of the current owner."
					},
					"permit(address,address,uint256,uint256,uint8,bytes32,bytes32)": {
						"details": "Sets `value` as the allowance of `spender` over ``owner``'s tokens, given ``owner``'s signed approval. IMPORTANT: The same issues {IERC20-approve} has related to transaction ordering also apply here. Emits an {Approval} event. Requirements: - `spender` cannot be the zero address. - `deadline` must be a timestamp in the future. - `v`, `r` and `s` must be a valid `secp256k1` signature from `owner` over the EIP712-formatted function arguments. - the signature must use ``owner``'s current nonce (see {nonces}). For more information on the signature format, see the https://eips.ethereum.org/EIPS/eip-2612#specification[relevant EIP section]. CAUTION: See Security Considerations above."
					},
					"renounceOwnership()": {
						"details": "Leaves the contract without owner. It will not be possible to call `onlyOwner` functions. Can only be called by the current owner. NOTE: Renouncing ownership will leave the contract without an owner, thereby disabling any functionality that is only available to the owner."
					},
					"symbol()": {
						"details": "Returns the symbol of the token, usually a shorter version of the name."
					},
					"totalSupply()": {
						"details": "See {IERC20-totalSupply}."
					},
					"transfer(address,uint256)": {
						"details": "See {IERC20-transfer}. Requirements: - `to` cannot be the zero address. - the caller must have a balance of at least `value`."
					},
					"transferFrom(address,address,uint256)": {
						"details": "See {IERC20-transferFrom}. Emits an {Approval} event indicating the updated allowance. This is not required by the EIP. See the note at the beginning of {ERC20}. NOTE: Does not update the allowance if the current allowance is the maximum `uint256`. Requirements: - `from` and `to` cannot be the zero address. - `from` must have a balance of at least `value`. - the caller must have allowance for ``from``'s tokens of at least `value`."
					},
					"transferOwnership(address)": {
						"details": "Transfers ownership of the contract to a new account (`newOwner`). Can only be called by the current owner."
					}
				},
				"version": 1
			},
			"evm": {
				"assembly": "    /* \"DADDY TATE.sol\":398:708  contract DADDYTATEFRIEND is ERC20, ERC20Burnable, ERC20Permit, Ownable {... */\n  mstore(0x40, 0x0160)\n    /* \"DADDY TATE.sol\":476:705  constructor(address initialOwner)... */\n  callvalue\n  dup1\n  iszero\n  tag_1\n  jumpi\n  0x00\n  dup1\n  revert\ntag_1:\n  pop\n  mload(0x40)\n  sub(codesize, bytecodeSize)\n  dup1\n  bytecodeSize\n  dup4\n  codecopy\n  dup2\n  add\n  0x40\n  dup2\n  swap1\n  mstore\n  tag_2\n  swap2\n  tag_3\n  jump\t// in\ntag_2:\n    /* \"DADDY TATE.sol\":619:631  initialOwner */\n  dup1\n    /* \"@openzeppelin/contracts@5.0.2/token/ERC20/extensions/ERC20Permit.sol\":1574:1626  constructor(string memory name) EIP712(name, \"1\") {} */\n  mload(0x40)\n  dup1\n  0x40\n  add\n  0x40\n  mstore\n  dup1\n  0x11\n  dup2\n  mstore\n  0x20\n  add\n  shl(0x7a, 0x1110511116481510551148119492515391)\n  dup2\n  mstore\n  pop\n    /* \"@openzeppelin/contracts@5.0.2/token/ERC20/extensions/ERC20Permit.sol\":1613:1617  name */\n  dup1\n    /* \"@openzeppelin/contracts@5.0.2/utils/cryptography/EIP712.sol\":3328:3759  constructor(string memory name, string memory version) {... */\n  mload(0x40)\n  dup1\n  0x40\n  add\n  0x40\n  mstore\n  dup1\n  0x01\n  dup2\n  mstore\n  0x20\n  add\n  shl(0xf8, 0x31)\n  dup2\n  mstore\n  pop\n    /* \"@openzeppelin/contracts@5.0.2/token/ERC20/ERC20.sol\":1896:2009  constructor(string memory name_, string memory symbol_) {... */\n  mload(0x40)\n  dup1\n  0x40\n  add\n  0x40\n  mstore\n  dup1\n  0x11\n  dup2\n  mstore\n  0x20\n  add\n  shl(0x7a, 0x1110511116481510551148119492515391)\n  dup2\n  mstore\n  pop\n  mload(0x40)\n  dup1\n  0x40\n  add\n  0x40\n  mstore\n  dup1\n  0x0a\n  dup2\n  mstore\n  0x20\n  add\n  shl(0xb0, 0x44414444592054415445)\n  dup2\n  mstore\n  pop\n    /* \"@openzeppelin/contracts@5.0.2/token/ERC20/ERC20.sol\":1970:1975  name_ */\n  dup2\n    /* \"@openzeppelin/contracts@5.0.2/token/ERC20/ERC20.sol\":1962:1967  _name */\n  0x03\n    /* \"@openzeppelin/contracts@5.0.2/token/ERC20/ERC20.sol\":1962:1975  _name = name_ */\n  swap1\n  dup2\n  tag_10\n  swap2\n  swap1\n  tag_11\n  jump\t// in\ntag_10:\n  pop\n    /* \"@openzeppelin/contracts@5.0.2/token/ERC20/ERC20.sol\":1985:1992  _symbol */\n  0x04\n    /* \"@openzeppelin/contracts@5.0.2/token/ERC20/ERC20.sol\":1985:2002  _symbol = symbol_ */\n  tag_12\n    /* \"@openzeppelin/contracts@5.0.2/token/ERC20/ERC20.sol\":1995:2002  symbol_ */\n  dup3\n    /* \"@openzeppelin/contracts@5.0.2/token/ERC20/ERC20.sol\":1985:1992  _symbol */\n  dup3\n    /* \"@openzeppelin/contracts@5.0.2/token/ERC20/ERC20.sol\":1985:2002  _symbol = symbol_ */\n  tag_11\n  jump\t// in\ntag_12:\n  pop\n    /* \"@openzeppelin/contracts@5.0.2/utils/cryptography/EIP712.sol\":3401:3446  name.toShortStringWithFallback(_nameFallback) */\n  tag_14\n  swap2\n  pop\n    /* \"@openzeppelin/contracts@5.0.2/utils/cryptography/EIP712.sol\":3401:3405  name */\n  dup4\n  swap1\n  pop\n    /* \"@openzeppelin/contracts@5.0.2/utils/cryptography/EIP712.sol\":3432:3445  _nameFallback */\n  0x05\n    /* \"@openzeppelin/contracts@5.0.2/utils/cryptography/EIP712.sol\":3401:3431  name.toShortStringWithFallback */\n  tag_15\n    /* \"@openzeppelin/contracts@5.0.2/utils/cryptography/EIP712.sol\":3401:3446  name.toShortStringWithFallback(_nameFallback) */\n  jump\t// in\ntag_14:\n    /* \"@openzeppelin/contracts@5.0.2/utils/cryptography/EIP712.sol\":3393:3446  _name = name.toShortStringWithFallback(_nameFallback) */\n  0x0120\n  mstore\n    /* \"@openzeppelin/contracts@5.0.2/utils/cryptography/EIP712.sol\":3467:3518  version.toShortStringWithFallback(_versionFallback) */\n  tag_16\n    /* \"@openzeppelin/contracts@5.0.2/utils/cryptography/EIP712.sol\":3467:3474  version */\n  dup2\n    /* \"@openzeppelin/contracts@5.0.2/utils/cryptography/EIP712.sol\":3501:3517  _versionFallback */\n  0x06\n    /* \"@openzeppelin/contracts@5.0.2/utils/cryptography/EIP712.sol\":3467:3500  version.toShortStringWithFallback */\n  tag_15\n    /* \"@openzeppelin/contracts@5.0.2/utils/cryptography/EIP712.sol\":3467:3518  version.toShortStringWithFallback(_versionFallback) */\n  jump\t// in\ntag_16:\n    /* \"@openzeppelin/contracts@5.0.2/utils/cryptography/EIP712.sol\":3456:3518  _version = version.toShortStringWithFallback(_versionFallback) */\n  0x0140\n  mstore\n    /* \"@openzeppelin/contracts@5.0.2/utils/cryptography/EIP712.sol\":3542:3564  keccak256(bytes(name)) */\n  dup2\n  mload\n  0x20\n  dup1\n  dup5\n  add\n  swap2\n  swap1\n  swap2\n  keccak256\n    /* \"@openzeppelin/contracts@5.0.2/utils/cryptography/EIP712.sol\":3528:3564  _hashedName = keccak256(bytes(name)) */\n  0xe0\n  mstore\n    /* \"@openzeppelin/contracts@5.0.2/utils/cryptography/EIP712.sol\":3591:3616  keccak256(bytes(version)) */\n  dup2\n  mload\n  swap1\n  dup3\n  add\n  keccak256\n    /* \"@openzeppelin/contracts@5.0.2/utils/cryptography/EIP712.sol\":3574:3616  _hashedVersion = keccak256(bytes(version)) */\n  0x0100\n  mstore\n    /* \"@openzeppelin/contracts@5.0.2/utils/cryptography/EIP712.sol\":3644:3657  block.chainid */\n  chainid\n    /* \"@openzeppelin/contracts@5.0.2/utils/cryptography/EIP712.sol\":3627:3657  _cachedChainId = block.chainid */\n  0xa0\n  mstore\n    /* \"@openzeppelin/contracts@5.0.2/utils/cryptography/EIP712.sol\":3692:3715  _buildDomainSeparator() */\n  tag_17\n    /* \"@openzeppelin/contracts@5.0.2/utils/cryptography/EIP712.sol\":4226:4237  _hashedName */\n  mload(0xe0)\n    /* \"@openzeppelin/contracts@5.0.2/utils/cryptography/EIP712.sol\":4239:4253  _hashedVersion */\n  mload(0x0100)\n    /* \"@openzeppelin/contracts@5.0.2/utils/cryptography/EIP712.sol\":4204:4284  abi.encode(TYPE_HASH, _hashedName, _hashedVersion, block.chainid, address(this)) */\n  0x40\n  dup1\n  mload\n    /* \"@openzeppelin/contracts@5.0.2/utils/cryptography/EIP712.sol\":2079:2174  keccak256(\"EIP712Domain(string name,string version,uint256 chainId,address verifyingContract)\") */\n  0x8b73c3c69bb8fe3d512ecc4cf759cc79239f7b179b0ffacaa9a75d522b39400f\n    /* \"@openzeppelin/contracts@5.0.2/utils/cryptography/EIP712.sol\":4204:4284  abi.encode(TYPE_HASH, _hashedName, _hashedVersion, block.chainid, address(this)) */\n  0x20\n  dup3\n  add\n    /* \"#utility.yul\":5154:5179   */\n  mstore\n    /* \"#utility.yul\":5195:5213   */\n  swap1\n  dup2\n  add\n    /* \"#utility.yul\":5188:5222   */\n  swap3\n  swap1\n  swap3\n  mstore\n    /* \"#utility.yul\":5238:5256   */\n  0x60\n  dup3\n  add\n    /* \"#utility.yul\":5231:5265   */\n  mstore\n    /* \"@openzeppelin/contracts@5.0.2/utils/cryptography/EIP712.sol\":4255:4268  block.chainid */\n  chainid\n    /* \"#utility.yul\":5281:5299   */\n  0x80\n  dup3\n  add\n    /* \"#utility.yul\":5274:5308   */\n  mstore\n    /* \"@openzeppelin/contracts@5.0.2/utils/cryptography/EIP712.sol\":4278:4282  this */\n  address\n    /* \"#utility.yul\":5324:5343   */\n  0xa0\n  dup3\n  add\n    /* \"#utility.yul\":5317:5378   */\n  mstore\n    /* \"@openzeppelin/contracts@5.0.2/utils/cryptography/EIP712.sol\":4168:4175  bytes32 */\n  0x00\n  swap1\n    /* \"#utility.yul\":5126:5145   */\n  0xc0\n  add\n    /* \"@openzeppelin/contracts@5.0.2/utils/cryptography/EIP712.sol\":4204:4284  abi.encode(TYPE_HASH, _hashedName, _hashedVersion, block.chainid, address(this)) */\n  mload(0x40)\n  0x20\n  dup2\n  dup4\n  sub\n  sub\n  dup2\n  mstore\n  swap1\n  0x40\n  mstore\n    /* \"@openzeppelin/contracts@5.0.2/utils/cryptography/EIP712.sol\":4194:4285  keccak256(abi.encode(TYPE_HASH, _hashedName, _hashedVersion, block.chainid, address(this))) */\n  dup1\n  mload\n  swap1\n  0x20\n  add\n  keccak256\n    /* \"@openzeppelin/contracts@5.0.2/utils/cryptography/EIP712.sol\":4187:4285  return keccak256(abi.encode(TYPE_HASH, _hashedName, _hashedVersion, block.chainid, address(this))) */\n  swap1\n  pop\n    /* \"@openzeppelin/contracts@5.0.2/utils/cryptography/EIP712.sol\":4113:4292  function _buildDomainSeparator() private view returns (bytes32) {... */\n  swap1\n  jump\n    /* \"@openzeppelin/contracts@5.0.2/utils/cryptography/EIP712.sol\":3692:3715  _buildDomainSeparator() */\ntag_17:\n    /* \"@openzeppelin/contracts@5.0.2/utils/cryptography/EIP712.sol\":3667:3715  _cachedDomainSeparator = _buildDomainSeparator() */\n  0x80\n  mstore\n  pop\n  pop\n    /* \"@openzeppelin/contracts@5.0.2/utils/cryptography/EIP712.sol\":3747:3751  this */\n  address\n    /* \"@openzeppelin/contracts@5.0.2/utils/cryptography/EIP712.sol\":3725:3752  _cachedThis = address(this) */\n  0xc0\n  mstore\n  pop\n  sub(shl(0xa0, 0x01), 0x01)\n    /* \"@openzeppelin/contracts@5.0.2/access/Ownable.sol\":1273:1299  initialOwner == address(0) */\n  dup2\n  and\n    /* \"@openzeppelin/contracts@5.0.2/access/Ownable.sol\":1269:1364  if (initialOwner == address(0)) {... */\n  tag_21\n  jumpi\n    /* \"@openzeppelin/contracts@5.0.2/access/Ownable.sol\":1322:1353  OwnableInvalidOwner(address(0)) */\n  mload(0x40)\n  shl(0xe0, 0x1e4fbdf7)\n  dup2\n  mstore\n    /* \"@openzeppelin/contracts@5.0.2/access/Ownable.sol\":1350:1351  0 */\n  0x00\n    /* \"@openzeppelin/contracts@5.0.2/access/Ownable.sol\":1322:1353  OwnableInvalidOwner(address(0)) */\n  0x04\n  dup3\n  add\n    /* \"#utility.yul\":3096:3147   */\n  mstore\n    /* \"#utility.yul\":3069:3087   */\n  0x24\n  add\n    /* \"@openzeppelin/contracts@5.0.2/access/Ownable.sol\":1322:1353  OwnableInvalidOwner(address(0)) */\ntag_22:\n  mload(0x40)\n  dup1\n  swap2\n  sub\n  swap1\n  revert\n    /* \"@openzeppelin/contracts@5.0.2/access/Ownable.sol\":1269:1364  if (initialOwner == address(0)) {... */\ntag_21:\n    /* \"@openzeppelin/contracts@5.0.2/access/Ownable.sol\":1373:1405  _transferOwnership(initialOwner) */\n  tag_24\n    /* \"@openzeppelin/contracts@5.0.2/access/Ownable.sol\":1392:1404  initialOwner */\n  dup2\n    /* \"@openzeppelin/contracts@5.0.2/access/Ownable.sol\":1373:1391  _transferOwnership */\n  tag_25\n    /* \"@openzeppelin/contracts@5.0.2/access/Ownable.sol\":1373:1405  _transferOwnership(initialOwner) */\n  jump\t// in\ntag_24:\n  pop\n    /* \"DADDY TATE.sol\":649:697  _mint(msg.sender, 1000000000 * 10 ** decimals()) */\n  tag_27\n    /* \"DADDY TATE.sol\":655:665  msg.sender */\n  caller\n    /* \"DADDY TATE.sol\":680:696  10 ** decimals() */\n  tag_30\n    /* \"@openzeppelin/contracts@5.0.2/token/ERC20/ERC20.sol\":3075:3077  18 */\n  0x12\n    /* \"DADDY TATE.sol\":680:682  10 */\n  0x0a\n    /* \"DADDY TATE.sol\":680:696  10 ** decimals() */\n  tag_31\n  jump\t// in\ntag_30:\n    /* \"DADDY TATE.sol\":667:696  1000000000 * 10 ** decimals() */\n  tag_32\n  swap1\n    /* \"DADDY TATE.sol\":667:677  1000000000 */\n  0x3b9aca00\n    /* \"DADDY TATE.sol\":667:696  1000000000 * 10 ** decimals() */\n  tag_33\n  jump\t// in\ntag_32:\n    /* \"DADDY TATE.sol\":649:654  _mint */\n  tag_34\n    /* \"DADDY TATE.sol\":649:697  _mint(msg.sender, 1000000000 * 10 ** decimals()) */\n  jump\t// in\ntag_27:\n    /* \"DADDY TATE.sol\":476:705  constructor(address initialOwner)... */\n  pop\n    /* \"DADDY TATE.sol\":398:708  contract DADDYTATEFRIEND is ERC20, ERC20Burnable, ERC20Permit, Ownable {... */\n  jump(tag_81)\n    /* \"@openzeppelin/contracts@5.0.2/utils/ShortStrings.sol\":2914:3254  function toShortStringWithFallback(string memory value, string storage store) internal returns (ShortString) {... */\ntag_15:\n    /* \"@openzeppelin/contracts@5.0.2/utils/ShortStrings.sol\":3010:3021  ShortString */\n  0x00\n    /* \"@openzeppelin/contracts@5.0.2/utils/ShortStrings.sol\":3059:3061  32 */\n  0x20\n    /* \"@openzeppelin/contracts@5.0.2/utils/ShortStrings.sol\":3043:3048  value */\n  dup4\n    /* \"@openzeppelin/contracts@5.0.2/utils/ShortStrings.sol\":3037:3056  bytes(value).length */\n  mload\n    /* \"@openzeppelin/contracts@5.0.2/utils/ShortStrings.sol\":3037:3061  bytes(value).length < 32 */\n  lt\n    /* \"@openzeppelin/contracts@5.0.2/utils/ShortStrings.sol\":3033:3248  if (bytes(value).length < 32) {... */\n  iszero\n  tag_37\n  jumpi\n    /* \"@openzeppelin/contracts@5.0.2/utils/ShortStrings.sol\":3084:3104  toShortString(value) */\n  tag_38\n    /* \"@openzeppelin/contracts@5.0.2/utils/ShortStrings.sol\":3098:3103  value */\n  dup4\n    /* \"@openzeppelin/contracts@5.0.2/utils/ShortStrings.sol\":3084:3097  toShortString */\n  tag_39\n    /* \"@openzeppelin/contracts@5.0.2/utils/ShortStrings.sol\":3084:3104  toShortString(value) */\n  jump\t// in\ntag_38:\n    /* \"@openzeppelin/contracts@5.0.2/utils/ShortStrings.sol\":3077:3104  return toShortString(value) */\n  swap1\n  pop\n  jump(tag_40)\n    /* \"@openzeppelin/contracts@5.0.2/utils/ShortStrings.sol\":3033:3248  if (bytes(value).length < 32) {... */\ntag_37:\n    /* \"@openzeppelin/contracts@5.0.2/utils/ShortStrings.sol\":3161:3166  store */\n  dup2\n    /* \"@openzeppelin/contracts@5.0.2/utils/ShortStrings.sol\":3135:3181  StorageSlot.getStringSlot(store).value = value */\n  tag_43\n    /* \"@openzeppelin/contracts@5.0.2/utils/ShortStrings.sol\":3176:3181  value */\n  dup5\n    /* \"@openzeppelin/contracts@5.0.2/utils/ShortStrings.sol\":3161:3166  store */\n  dup3\n    /* \"@openzeppelin/contracts@5.0.2/utils/ShortStrings.sol\":3135:3181  StorageSlot.getStringSlot(store).value = value */\n  tag_11\n  jump\t// in\ntag_43:\n  pop\n    /* \"@openzeppelin/contracts@5.0.2/utils/ShortStrings.sol\":1390:1456  0x00000000000000000000000000000000000000000000000000000000000000FF */\n  0xff\n  swap1\n  pop\n    /* \"@openzeppelin/contracts@5.0.2/utils/ShortStrings.sol\":3033:3248  if (bytes(value).length < 32) {... */\ntag_40:\n    /* \"@openzeppelin/contracts@5.0.2/utils/ShortStrings.sol\":2914:3254  function toShortStringWithFallback(string memory value, string storage store) internal returns (ShortString) {... */\n  swap3\n  swap2\n  pop\n  pop\n  jump\t// out\n    /* \"@openzeppelin/contracts@5.0.2/access/Ownable.sol\":2912:3099  function _transferOwnership(address newOwner) internal virtual {... */\ntag_25:\n    /* \"@openzeppelin/contracts@5.0.2/access/Ownable.sol\":3004:3010  _owner */\n  0x08\n  dup1\n  sload\n  sub(shl(0xa0, 0x01), 0x01)\n    /* \"@openzeppelin/contracts@5.0.2/access/Ownable.sol\":3020:3037  _owner = newOwner */\n  dup4\n  dup2\n  and\n  not(sub(shl(0xa0, 0x01), 0x01))\n  dup4\n  and\n  dup2\n  or\n  swap1\n  swap4\n  sstore\n    /* \"@openzeppelin/contracts@5.0.2/access/Ownable.sol\":3052:3092  OwnershipTransferred(oldOwner, newOwner) */\n  mload(0x40)\n    /* \"@openzeppelin/contracts@5.0.2/access/Ownable.sol\":3004:3010  _owner */\n  swap2\n  and\n  swap2\n    /* \"@openzeppelin/contracts@5.0.2/access/Ownable.sol\":3020:3037  _owner = newOwner */\n  swap1\n    /* \"@openzeppelin/contracts@5.0.2/access/Ownable.sol\":3004:3010  _owner */\n  dup3\n  swap1\n    /* \"@openzeppelin/contracts@5.0.2/access/Ownable.sol\":3052:3092  OwnershipTransferred(oldOwner, newOwner) */\n  0x8be0079c531659141344cd1fd0a4f28419497f9722a3daafe3b4186f6b6457e0\n  swap1\n    /* \"@openzeppelin/contracts@5.0.2/access/Ownable.sol\":2985:3001  address oldOwner */\n  0x00\n  swap1\n    /* \"@openzeppelin/contracts@5.0.2/access/Ownable.sol\":3052:3092  OwnershipTransferred(oldOwner, newOwner) */\n  log3\n    /* \"@openzeppelin/contracts@5.0.2/access/Ownable.sol\":2975:3099  {... */\n  pop\n    /* \"@openzeppelin/contracts@5.0.2/access/Ownable.sol\":2912:3099  function _transferOwnership(address newOwner) internal virtual {... */\n  pop\n  jump\t// out\n    /* \"@openzeppelin/contracts@5.0.2/token/ERC20/ERC20.sol\":7721:7929  function _mint(address account, uint256 value) internal {... */\ntag_34:\n  sub(shl(0xa0, 0x01), 0x01)\n    /* \"@openzeppelin/contracts@5.0.2/token/ERC20/ERC20.sol\":7791:7812  account == address(0) */\n  dup3\n  and\n    /* \"@openzeppelin/contracts@5.0.2/token/ERC20/ERC20.sol\":7787:7878  if (account == address(0)) {... */\n  tag_50\n  jumpi\n    /* \"@openzeppelin/contracts@5.0.2/token/ERC20/ERC20.sol\":7835:7867  ERC20InvalidReceiver(address(0)) */\n  mload(0x40)\n  shl(0xe0, 0xec442f05)\n  dup2\n  mstore\n    /* \"@openzeppelin/contracts@5.0.2/token/ERC20/ERC20.sol\":7864:7865  0 */\n  0x00\n    /* \"@openzeppelin/contracts@5.0.2/token/ERC20/ERC20.sol\":7835:7867  ERC20InvalidReceiver(address(0)) */\n  0x04\n  dup3\n  add\n    /* \"#utility.yul\":3096:3147   */\n  mstore\n    /* \"#utility.yul\":3069:3087   */\n  0x24\n  add\n    /* \"@openzeppelin/contracts@5.0.2/token/ERC20/ERC20.sol\":7835:7867  ERC20InvalidReceiver(address(0)) */\n  tag_22\n    /* \"#utility.yul\":2950:3153   */\n  jump\n    /* \"@openzeppelin/contracts@5.0.2/token/ERC20/ERC20.sol\":7787:7878  if (account == address(0)) {... */\ntag_50:\n    /* \"@openzeppelin/contracts@5.0.2/token/ERC20/ERC20.sol\":7887:7922  _update(address(0), account, value) */\n  tag_52\n    /* \"@openzeppelin/contracts@5.0.2/token/ERC20/ERC20.sol\":7903:7904  0 */\n  0x00\n    /* \"@openzeppelin/contracts@5.0.2/token/ERC20/ERC20.sol\":7907:7914  account */\n  dup4\n    /* \"@openzeppelin/contracts@5.0.2/token/ERC20/ERC20.sol\":7916:7921  value */\n  dup4\n    /* \"@openzeppelin/contracts@5.0.2/token/ERC20/ERC20.sol\":7887:7894  _update */\n  tag_53\n    /* \"@openzeppelin/contracts@5.0.2/token/ERC20/ERC20.sol\":7887:7922  _update(address(0), account, value) */\n  jump\t// in\ntag_52:\n    /* \"@openzeppelin/contracts@5.0.2/token/ERC20/ERC20.sol\":7721:7929  function _mint(address account, uint256 value) internal {... */\n  pop\n  pop\n  jump\t// out\n    /* \"@openzeppelin/contracts@5.0.2/utils/ShortStrings.sol\":1708:1994  function toShortString(string memory str) internal pure returns (ShortString) {... */\ntag_39:\n    /* \"@openzeppelin/contracts@5.0.2/utils/ShortStrings.sol\":1773:1784  ShortString */\n  0x00\n    /* \"@openzeppelin/contracts@5.0.2/utils/ShortStrings.sol\":1796:1813  bytes memory bstr */\n  dup1\n    /* \"@openzeppelin/contracts@5.0.2/utils/ShortStrings.sol\":1822:1825  str */\n  dup3\n    /* \"@openzeppelin/contracts@5.0.2/utils/ShortStrings.sol\":1796:1826  bytes memory bstr = bytes(str) */\n  swap1\n  pop\n    /* \"@openzeppelin/contracts@5.0.2/utils/ShortStrings.sol\":1854:1856  31 */\n  0x1f\n    /* \"@openzeppelin/contracts@5.0.2/utils/ShortStrings.sol\":1840:1844  bstr */\n  dup2\n    /* \"@openzeppelin/contracts@5.0.2/utils/ShortStrings.sol\":1840:1851  bstr.length */\n  mload\n    /* \"@openzeppelin/contracts@5.0.2/utils/ShortStrings.sol\":1840:1856  bstr.length > 31 */\n  gt\n    /* \"@openzeppelin/contracts@5.0.2/utils/ShortStrings.sol\":1836:1908  if (bstr.length > 31) {... */\n  iszero\n  tag_55\n  jumpi\n    /* \"@openzeppelin/contracts@5.0.2/utils/ShortStrings.sol\":1893:1896  str */\n  dup3\n    /* \"@openzeppelin/contracts@5.0.2/utils/ShortStrings.sol\":1879:1897  StringTooLong(str) */\n  mload(0x40)\n  shl(0xe0, 0x305a27a9)\n  dup2\n  mstore\n  0x04\n  add\n  tag_22\n  swap2\n  swap1\n  tag_57\n  jump\t// in\n    /* \"@openzeppelin/contracts@5.0.2/utils/ShortStrings.sol\":1836:1908  if (bstr.length > 31) {... */\ntag_55:\n    /* \"@openzeppelin/contracts@5.0.2/utils/ShortStrings.sol\":1974:1985  bstr.length */\n  dup1\n  mload\n    /* \"@openzeppelin/contracts@5.0.2/utils/ShortStrings.sol\":1957:1970  bytes32(bstr) */\n  tag_58\n    /* \"@openzeppelin/contracts@5.0.2/utils/ShortStrings.sol\":1974:1978  bstr */\n  dup3\n    /* \"@openzeppelin/contracts@5.0.2/utils/ShortStrings.sol\":1957:1970  bytes32(bstr) */\n  tag_59\n  jump\t// in\ntag_58:\n    /* \"@openzeppelin/contracts@5.0.2/utils/ShortStrings.sol\":1949:1985  uint256(bytes32(bstr)) | bstr.length */\n  or\n  swap4\n    /* \"@openzeppelin/contracts@5.0.2/utils/ShortStrings.sol\":1708:1994  function toShortString(string memory str) internal pure returns (ShortString) {... */\n  swap3\n  pop\n  pop\n  pop\n  jump\t// out\n    /* \"@openzeppelin/contracts@5.0.2/token/ERC20/ERC20.sol\":6271:7378  function _update(address from, address to, uint256 value) internal virtual {... */\ntag_53:\n  sub(shl(0xa0, 0x01), 0x01)\n    /* \"@openzeppelin/contracts@5.0.2/token/ERC20/ERC20.sol\":6360:6378  from == address(0) */\n  dup4\n  and\n    /* \"@openzeppelin/contracts@5.0.2/token/ERC20/ERC20.sol\":6356:6896  if (from == address(0)) {... */\n  tag_62\n  jumpi\n    /* \"@openzeppelin/contracts@5.0.2/token/ERC20/ERC20.sol\":6512:6517  value */\n  dup1\n    /* \"@openzeppelin/contracts@5.0.2/token/ERC20/ERC20.sol\":6496:6508  _totalSupply */\n  0x02\n  0x00\n    /* \"@openzeppelin/contracts@5.0.2/token/ERC20/ERC20.sol\":6496:6517  _totalSupply += value */\n  dup3\n  dup3\n  sload\n  tag_63\n  swap2\n  swap1\n  tag_64\n  jump\t// in\ntag_63:\n  swap1\n  swap2\n  sstore\n  pop\n    /* \"@openzeppelin/contracts@5.0.2/token/ERC20/ERC20.sol\":6356:6896  if (from == address(0)) {... */\n  tag_65\n  swap1\n  pop\n  jump\ntag_62:\n  sub(shl(0xa0, 0x01), 0x01)\n    /* \"@openzeppelin/contracts@5.0.2/token/ERC20/ERC20.sol\":6570:6585  _balances[from] */\n  dup4\n  and\n    /* \"@openzeppelin/contracts@5.0.2/token/ERC20/ERC20.sol\":6548:6567  uint256 fromBalance */\n  0x00\n    /* \"@openzeppelin/contracts@5.0.2/token/ERC20/ERC20.sol\":6570:6585  _balances[from] */\n  swap1\n  dup2\n  mstore\n  0x20\n  dup2\n  swap1\n  mstore\n  0x40\n  swap1\n  keccak256\n  sload\n    /* \"@openzeppelin/contracts@5.0.2/token/ERC20/ERC20.sol\":6603:6622  fromBalance < value */\n  dup2\n  dup2\n  lt\n    /* \"@openzeppelin/contracts@5.0.2/token/ERC20/ERC20.sol\":6599:6714  if (fromBalance < value) {... */\n  iszero\n  tag_66\n  jumpi\n    /* \"@openzeppelin/contracts@5.0.2/token/ERC20/ERC20.sol\":6649:6699  ERC20InsufficientBalance(from, fromBalance, value) */\n  mload(0x40)\n  shl(0xe2, 0x391434e3)\n  dup2\n  mstore\n  sub(shl(0xa0, 0x01), 0x01)\n    /* \"#utility.yul\":6464:6496   */\n  dup6\n  and\n    /* \"@openzeppelin/contracts@5.0.2/token/ERC20/ERC20.sol\":6649:6699  ERC20InsufficientBalance(from, fromBalance, value) */\n  0x04\n  dup3\n  add\n    /* \"#utility.yul\":6446:6497   */\n  mstore\n    /* \"#utility.yul\":6513:6531   */\n  0x24\n  dup2\n  add\n    /* \"#utility.yul\":6506:6540   */\n  dup3\n  swap1\n  mstore\n    /* \"#utility.yul\":6556:6574   */\n  0x44\n  dup2\n  add\n    /* \"#utility.yul\":6549:6583   */\n  dup4\n  swap1\n  mstore\n    /* \"#utility.yul\":6419:6437   */\n  0x64\n  add\n    /* \"@openzeppelin/contracts@5.0.2/token/ERC20/ERC20.sol\":6649:6699  ERC20InsufficientBalance(from, fromBalance, value) */\n  tag_22\n    /* \"#utility.yul\":6244:6589   */\n  jump\n    /* \"@openzeppelin/contracts@5.0.2/token/ERC20/ERC20.sol\":6599:6714  if (fromBalance < value) {... */\ntag_66:\n  sub(shl(0xa0, 0x01), 0x01)\n    /* \"@openzeppelin/contracts@5.0.2/token/ERC20/ERC20.sol\":6834:6849  _balances[from] */\n  dup5\n  and\n    /* \"@openzeppelin/contracts@5.0.2/token/ERC20/ERC20.sol\":6834:6843  _balances */\n  0x00\n    /* \"@openzeppelin/contracts@5.0.2/token/ERC20/ERC20.sol\":6834:6849  _balances[from] */\n  swap1\n  dup2\n  mstore\n  0x20\n  dup2\n  swap1\n  mstore\n  0x40\n  swap1\n  keccak256\n    /* \"@openzeppelin/contracts@5.0.2/token/ERC20/ERC20.sol\":6852:6871  fromBalance - value */\n  swap1\n  dup3\n  swap1\n  sub\n    /* \"@openzeppelin/contracts@5.0.2/token/ERC20/ERC20.sol\":6834:6871  _balances[from] = fromBalance - value */\n  swap1\n  sstore\n    /* \"@openzeppelin/contracts@5.0.2/token/ERC20/ERC20.sol\":6356:6896  if (from == address(0)) {... */\ntag_65:\n  sub(shl(0xa0, 0x01), 0x01)\n    /* \"@openzeppelin/contracts@5.0.2/token/ERC20/ERC20.sol\":6910:6926  to == address(0) */\n  dup3\n  and\n    /* \"@openzeppelin/contracts@5.0.2/token/ERC20/ERC20.sol\":6906:7331  if (to == address(0)) {... */\n  tag_69\n  jumpi\n    /* \"@openzeppelin/contracts@5.0.2/token/ERC20/ERC20.sol\":7073:7085  _totalSupply */\n  0x02\n    /* \"@openzeppelin/contracts@5.0.2/token/ERC20/ERC20.sol\":7073:7094  _totalSupply -= value */\n  dup1\n  sload\n  dup3\n  swap1\n  sub\n  swap1\n  sstore\n    /* \"@openzeppelin/contracts@5.0.2/token/ERC20/ERC20.sol\":6906:7331  if (to == address(0)) {... */\n  jump(tag_70)\ntag_69:\n  sub(shl(0xa0, 0x01), 0x01)\n    /* \"@openzeppelin/contracts@5.0.2/token/ERC20/ERC20.sol\":7284:7297  _balances[to] */\n  dup3\n  and\n    /* \"@openzeppelin/contracts@5.0.2/token/ERC20/ERC20.sol\":7284:7293  _balances */\n  0x00\n    /* \"@openzeppelin/contracts@5.0.2/token/ERC20/ERC20.sol\":7284:7297  _balances[to] */\n  swap1\n  dup2\n  mstore\n  0x20\n  dup2\n  swap1\n  mstore\n  0x40\n  swap1\n  keccak256\n    /* \"@openzeppelin/contracts@5.0.2/token/ERC20/ERC20.sol\":7284:7306  _balances[to] += value */\n  dup1\n  sload\n  dup3\n  add\n  swap1\n  sstore\n    /* \"@openzeppelin/contracts@5.0.2/token/ERC20/ERC20.sol\":6906:7331  if (to == address(0)) {... */\ntag_70:\n    /* \"@openzeppelin/contracts@5.0.2/token/ERC20/ERC20.sol\":7361:7363  to */\n  dup2\n  sub(shl(0xa0, 0x01), 0x01)\n    /* \"@openzeppelin/contracts@5.0.2/token/ERC20/ERC20.sol\":7346:7371  Transfer(from, to, value) */\n  and\n    /* \"@openzeppelin/contracts@5.0.2/token/ERC20/ERC20.sol\":7355:7359  from */\n  dup4\n  sub(shl(0xa0, 0x01), 0x01)\n    /* \"@openzeppelin/contracts@5.0.2/token/ERC20/ERC20.sol\":7346:7371  Transfer(from, to, value) */\n  and\n  0xddf252ad1be2c89b69c2b068fc378daa952ba7f163c4a11628f55a4df523b3ef\n    /* \"@openzeppelin/contracts@5.0.2/token/ERC20/ERC20.sol\":7365:7370  value */\n  dup4\n    /* \"@openzeppelin/contracts@5.0.2/token/ERC20/ERC20.sol\":7346:7371  Transfer(from, to, value) */\n  mload(0x40)\n  tag_71\n  swap2\n    /* \"#utility.yul\":6740:6765   */\n  dup2\n  mstore\n    /* \"#utility.yul\":6728:6730   */\n  0x20\n    /* \"#utility.yul\":6713:6731   */\n  add\n  swap1\n    /* \"#utility.yul\":6594:6771   */\n  jump\n    /* \"@openzeppelin/contracts@5.0.2/token/ERC20/ERC20.sol\":7346:7371  Transfer(from, to, value) */\ntag_71:\n  mload(0x40)\n  dup1\n  swap2\n  sub\n  swap1\n  log3\n    /* \"@openzeppelin/contracts@5.0.2/token/ERC20/ERC20.sol\":6271:7378  function _update(address from, address to, uint256 value) internal virtual {... */\n  pop\n  pop\n  pop\n  jump\t// out\n    /* \"#utility.yul\":14:304   */\ntag_3:\n    /* \"#utility.yul\":84:90   */\n  0x00\n    /* \"#utility.yul\":137:139   */\n  0x20\n    /* \"#utility.yul\":125:134   */\n  dup3\n    /* \"#utility.yul\":116:123   */\n  dup5\n    /* \"#utility.yul\":112:135   */\n  sub\n    /* \"#utility.yul\":108:140   */\n  slt\n    /* \"#utility.yul\":105:157   */\n  iszero\n  tag_83\n  jumpi\n    /* \"#utility.yul\":153:154   */\n  0x00\n    /* \"#utility.yul\":150:151   */\n  dup1\n    /* \"#utility.yul\":143:155   */\n  revert\n    /* \"#utility.yul\":105:157   */\ntag_83:\n    /* \"#utility.yul\":179:195   */\n  dup2\n  mload\n  sub(shl(0xa0, 0x01), 0x01)\n    /* \"#utility.yul\":224:255   */\n  dup2\n  and\n    /* \"#utility.yul\":214:256   */\n  dup2\n  eq\n    /* \"#utility.yul\":204:274   */\n  tag_84\n  jumpi\n    /* \"#utility.yul\":270:271   */\n  0x00\n    /* \"#utility.yul\":267:268   */\n  dup1\n    /* \"#utility.yul\":260:272   */\n  revert\n    /* \"#utility.yul\":204:274   */\ntag_84:\n    /* \"#utility.yul\":293:298   */\n  swap4\n    /* \"#utility.yul\":14:304   */\n  swap3\n  pop\n  pop\n  pop\n  jump\t// out\n    /* \"#utility.yul\":309:436   */\ntag_73:\n    /* \"#utility.yul\":370:380   */\n  0x4e487b71\n    /* \"#utility.yul\":365:368   */\n  0xe0\n    /* \"#utility.yul\":361:381   */\n  shl\n    /* \"#utility.yul\":358:359   */\n  0x00\n    /* \"#utility.yul\":351:382   */\n  mstore\n    /* \"#utility.yul\":401:405   */\n  0x41\n    /* \"#utility.yul\":398:399   */\n  0x04\n    /* \"#utility.yul\":391:406   */\n  mstore\n    /* \"#utility.yul\":425:429   */\n  0x24\n    /* \"#utility.yul\":422:423   */\n  0x00\n    /* \"#utility.yul\":415:430   */\n  revert\n    /* \"#utility.yul\":441:821   */\ntag_74:\n    /* \"#utility.yul\":520:521   */\n  0x01\n    /* \"#utility.yul\":516:528   */\n  dup2\n  dup2\n  shr\n  swap1\n    /* \"#utility.yul\":563:575   */\n  dup3\n  and\n  dup1\n    /* \"#utility.yul\":584:645   */\n  tag_87\n  jumpi\n    /* \"#utility.yul\":638:642   */\n  0x7f\n    /* \"#utility.yul\":630:636   */\n  dup3\n    /* \"#utility.yul\":626:643   */\n  and\n    /* \"#utility.yul\":616:643   */\n  swap2\n  pop\n    /* \"#utility.yul\":584:645   */\ntag_87:\n    /* \"#utility.yul\":691:693   */\n  0x20\n    /* \"#utility.yul\":683:689   */\n  dup3\n    /* \"#utility.yul\":680:694   */\n  lt\n    /* \"#utility.yul\":660:678   */\n  dup2\n    /* \"#utility.yul\":657:695   */\n  sub\n    /* \"#utility.yul\":654:815   */\n  tag_88\n  jumpi\n    /* \"#utility.yul\":737:747   */\n  0x4e487b71\n    /* \"#utility.yul\":732:735   */\n  0xe0\n    /* \"#utility.yul\":728:748   */\n  shl\n    /* \"#utility.yul\":725:726   */\n  0x00\n    /* \"#utility.yul\":718:749   */\n  mstore\n    /* \"#utility.yul\":772:776   */\n  0x22\n    /* \"#utility.yul\":769:770   */\n  0x04\n    /* \"#utility.yul\":762:777   */\n  mstore\n    /* \"#utility.yul\":800:804   */\n  0x24\n    /* \"#utility.yul\":797:798   */\n  0x00\n    /* \"#utility.yul\":790:805   */\n  revert\n    /* \"#utility.yul\":654:815   */\ntag_88:\n  pop\n    /* \"#utility.yul\":441:821   */\n  swap2\n  swap1\n  pop\n  jump\t// out\n    /* \"#utility.yul\":952:1470   */\ntag_76:\n    /* \"#utility.yul\":1054:1056   */\n  0x1f\n    /* \"#utility.yul\":1049:1052   */\n  dup3\n    /* \"#utility.yul\":1046:1057   */\n  gt\n    /* \"#utility.yul\":1043:1464   */\n  iszero\n  tag_91\n  jumpi\n    /* \"#utility.yul\":1090:1095   */\n  dup1\n    /* \"#utility.yul\":1087:1088   */\n  0x00\n    /* \"#utility.yul\":1080:1096   */\n  mstore\n    /* \"#utility.yul\":1134:1138   */\n  0x20\n    /* \"#utility.yul\":1131:1132   */\n  0x00\n    /* \"#utility.yul\":1121:1139   */\n  keccak256\n    /* \"#utility.yul\":1204:1206   */\n  0x1f\n    /* \"#utility.yul\":1192:1202   */\n  dup5\n    /* \"#utility.yul\":1188:1207   */\n  add\n    /* \"#utility.yul\":1185:1186   */\n  0x05\n    /* \"#utility.yul\":1181:1208   */\n  shr\n    /* \"#utility.yul\":1175:1179   */\n  dup2\n    /* \"#utility.yul\":1171:1209   */\n  add\n    /* \"#utility.yul\":1240:1244   */\n  0x20\n    /* \"#utility.yul\":1228:1238   */\n  dup6\n    /* \"#utility.yul\":1225:1245   */\n  lt\n    /* \"#utility.yul\":1222:1269   */\n  iszero\n  tag_92\n  jumpi\n  pop\n    /* \"#utility.yul\":1263:1267   */\n  dup1\n    /* \"#utility.yul\":1222:1269   */\ntag_92:\n    /* \"#utility.yul\":1318:1320   */\n  0x1f\n    /* \"#utility.yul\":1313:1316   */\n  dup5\n    /* \"#utility.yul\":1309:1321   */\n  add\n    /* \"#utility.yul\":1306:1307   */\n  0x05\n    /* \"#utility.yul\":1302:1322   */\n  shr\n    /* \"#utility.yul\":1296:1300   */\n  dup3\n    /* \"#utility.yul\":1292:1323   */\n  add\n    /* \"#utility.yul\":1282:1323   */\n  swap2\n  pop\n    /* \"#utility.yul\":1373:1454   */\ntag_93:\n    /* \"#utility.yul\":1391:1393   */\n  dup2\n    /* \"#utility.yul\":1384:1389   */\n  dup2\n    /* \"#utility.yul\":1381:1394   */\n  lt\n    /* \"#utility.yul\":1373:1454   */\n  iszero\n  tag_95\n  jumpi\n    /* \"#utility.yul\":1450:1451   */\n  0x00\n    /* \"#utility.yul\":1436:1452   */\n  dup2\n  sstore\n    /* \"#utility.yul\":1417:1418   */\n  0x01\n    /* \"#utility.yul\":1406:1419   */\n  add\n    /* \"#utility.yul\":1373:1454   */\n  jump(tag_93)\ntag_95:\n    /* \"#utility.yul\":1377:1380   */\n  pop\n  pop\n    /* \"#utility.yul\":1043:1464   */\ntag_91:\n    /* \"#utility.yul\":952:1470   */\n  pop\n  pop\n  pop\n  jump\t// out\n    /* \"#utility.yul\":1646:2945   */\ntag_11:\n    /* \"#utility.yul\":1766:1776   */\n  dup2\n  mload\n  sub(shl(0x40, 0x01), 0x01)\n    /* \"#utility.yul\":1788:1818   */\n  dup2\n  gt\n    /* \"#utility.yul\":1785:1841   */\n  iszero\n  tag_99\n  jumpi\n    /* \"#utility.yul\":1821:1839   */\n  tag_99\n  tag_73\n  jump\t// in\ntag_99:\n    /* \"#utility.yul\":1850:1947   */\n  tag_100\n    /* \"#utility.yul\":1940:1946   */\n  dup2\n    /* \"#utility.yul\":1900:1938   */\n  tag_101\n    /* \"#utility.yul\":1932:1936   */\n  dup5\n    /* \"#utility.yul\":1926:1937   */\n  sload\n    /* \"#utility.yul\":1900:1938   */\n  tag_74\n  jump\t// in\ntag_101:\n    /* \"#utility.yul\":1894:1898   */\n  dup5\n    /* \"#utility.yul\":1850:1947   */\n  tag_76\n  jump\t// in\ntag_100:\n    /* \"#utility.yul\":1996:2000   */\n  0x20\n    /* \"#utility.yul\":2027:2029   */\n  0x1f\n    /* \"#utility.yul\":2016:2030   */\n  dup3\n  gt\n    /* \"#utility.yul\":2044:2045   */\n  0x01\n    /* \"#utility.yul\":2039:2688   */\n  dup2\n  eq\n  tag_103\n  jumpi\n    /* \"#utility.yul\":2732:2733   */\n  0x00\n    /* \"#utility.yul\":2749:2755   */\n  dup4\n    /* \"#utility.yul\":2746:2835   */\n  iszero\n  tag_104\n  jumpi\n  pop\n    /* \"#utility.yul\":2801:2820   */\n  dup5\n  dup3\n  add\n    /* \"#utility.yul\":2795:2821   */\n  mload\n    /* \"#utility.yul\":2746:2835   */\ntag_104:\n  not(0x00)\n    /* \"#utility.yul\":1603:1604   */\n  0x03\n    /* \"#utility.yul\":1599:1610   */\n  dup6\n  swap1\n  shl\n    /* \"#utility.yul\":1595:1619   */\n  shr\n    /* \"#utility.yul\":1591:1620   */\n  not\n    /* \"#utility.yul\":1581:1621   */\n  and\n    /* \"#utility.yul\":1627:1628   */\n  0x01\n    /* \"#utility.yul\":1623:1634   */\n  dup5\n  swap1\n  shl\n    /* \"#utility.yul\":1578:1635   */\n  or\n    /* \"#utility.yul\":2848:2929   */\n  dup5\n  sstore\n    /* \"#utility.yul\":2009:2939   */\n  jump(tag_95)\n    /* \"#utility.yul\":2039:2688   */\ntag_103:\n    /* \"#utility.yul\":899:900   */\n  0x00\n    /* \"#utility.yul\":892:906   */\n  dup5\n  dup2\n  mstore\n    /* \"#utility.yul\":936:940   */\n  0x20\n    /* \"#utility.yul\":923:941   */\n  dup2\n  keccak256\n  not(0x1f)\n    /* \"#utility.yul\":2075:2095   */\n  dup6\n  and\n  swap2\n    /* \"#utility.yul\":2193:2415   */\ntag_107:\n    /* \"#utility.yul\":2207:2214   */\n  dup3\n    /* \"#utility.yul\":2204:2205   */\n  dup2\n    /* \"#utility.yul\":2201:2215   */\n  lt\n    /* \"#utility.yul\":2193:2415   */\n  iszero\n  tag_109\n  jumpi\n    /* \"#utility.yul\":2289:2308   */\n  dup8\n  dup6\n  add\n    /* \"#utility.yul\":2283:2309   */\n  mload\n    /* \"#utility.yul\":2268:2310   */\n  dup3\n  sstore\n    /* \"#utility.yul\":2396:2400   */\n  0x20\n    /* \"#utility.yul\":2381:2401   */\n  swap5\n  dup6\n  add\n  swap5\n    /* \"#utility.yul\":2349:2350   */\n  0x01\n    /* \"#utility.yul\":2337:2351   */\n  swap1\n  swap3\n  add\n  swap2\n    /* \"#utility.yul\":2223:2235   */\n  add\n    /* \"#utility.yul\":2193:2415   */\n  jump(tag_107)\ntag_109:\n    /* \"#utility.yul\":2197:2200   */\n  pop\n    /* \"#utility.yul\":2443:2449   */\n  dup5\n    /* \"#utility.yul\":2434:2441   */\n  dup3\n    /* \"#utility.yul\":2431:2450   */\n  lt\n    /* \"#utility.yul\":2428:2629   */\n  iszero\n  tag_110\n  jumpi\n    /* \"#utility.yul\":2504:2523   */\n  dup7\n  dup5\n  add\n    /* \"#utility.yul\":2498:2524   */\n  mload\n  not(0x00)\n    /* \"#utility.yul\":2587:2588   */\n  0x03\n    /* \"#utility.yul\":2583:2597   */\n  dup8\n  swap1\n  shl\n    /* \"#utility.yul\":2599:2602   */\n  0xf8\n    /* \"#utility.yul\":2579:2603   */\n  and\n    /* \"#utility.yul\":2575:2612   */\n  shr\n    /* \"#utility.yul\":2571:2613   */\n  not\n    /* \"#utility.yul\":2556:2614   */\n  and\n    /* \"#utility.yul\":2541:2615   */\n  dup2\n  sstore\n    /* \"#utility.yul\":2428:2629   */\ntag_110:\n  pop\n  pop\n  pop\n  pop\n    /* \"#utility.yul\":2675:2676   */\n  0x01\n    /* \"#utility.yul\":2659:2673   */\n  swap1\n  dup2\n  shl\n    /* \"#utility.yul\":2655:2677   */\n  add\n    /* \"#utility.yul\":2642:2678   */\n  swap1\n  sstore\n  pop\n    /* \"#utility.yul\":1646:2945   */\n  jump\t// out\n    /* \"#utility.yul\":3158:3285   */\ntag_78:\n    /* \"#utility.yul\":3219:3229   */\n  0x4e487b71\n    /* \"#utility.yul\":3214:3217   */\n  0xe0\n    /* \"#utility.yul\":3210:3230   */\n  shl\n    /* \"#utility.yul\":3207:3208   */\n  0x00\n    /* \"#utility.yul\":3200:3231   */\n  mstore\n    /* \"#utility.yul\":3250:3254   */\n  0x11\n    /* \"#utility.yul\":3247:3248   */\n  0x04\n    /* \"#utility.yul\":3240:3255   */\n  mstore\n    /* \"#utility.yul\":3274:3278   */\n  0x24\n    /* \"#utility.yul\":3271:3272   */\n  0x00\n    /* \"#utility.yul\":3264:3279   */\n  revert\n    /* \"#utility.yul\":3290:3665   */\ntag_79:\n    /* \"#utility.yul\":3378:3379   */\n  0x01\n    /* \"#utility.yul\":3396:3401   */\n  dup2\n    /* \"#utility.yul\":3410:3659   */\ntag_114:\n    /* \"#utility.yul\":3431:3432   */\n  0x01\n    /* \"#utility.yul\":3421:3429   */\n  dup5\n    /* \"#utility.yul\":3418:3433   */\n  gt\n    /* \"#utility.yul\":3410:3659   */\n  iszero\n  tag_116\n  jumpi\n    /* \"#utility.yul\":3481:3485   */\n  dup1\n    /* \"#utility.yul\":3476:3479   */\n  dup6\n    /* \"#utility.yul\":3472:3486   */\n  div\n    /* \"#utility.yul\":3466:3470   */\n  dup2\n    /* \"#utility.yul\":3463:3487   */\n  gt\n    /* \"#utility.yul\":3460:3510   */\n  iszero\n  tag_118\n  jumpi\n    /* \"#utility.yul\":3490:3508   */\n  tag_118\n  tag_78\n  jump\t// in\ntag_118:\n    /* \"#utility.yul\":3540:3541   */\n  0x01\n    /* \"#utility.yul\":3530:3538   */\n  dup5\n    /* \"#utility.yul\":3526:3542   */\n  and\n    /* \"#utility.yul\":3523:3572   */\n  iszero\n  tag_119\n  jumpi\n    /* \"#utility.yul\":3554:3570   */\n  swap1\n  dup2\n  mul\n  swap1\n    /* \"#utility.yul\":3523:3572   */\ntag_119:\n    /* \"#utility.yul\":3637:3638   */\n  0x01\n    /* \"#utility.yul\":3633:3649   */\n  swap4\n  swap1\n  swap4\n  shr\n  swap3\n    /* \"#utility.yul\":3593:3608   */\n  dup1\n  mul\n    /* \"#utility.yul\":3410:3659   */\n  jump(tag_114)\ntag_116:\n    /* \"#utility.yul\":3290:3665   */\n  swap4\n  pop\n  swap4\n  swap2\n  pop\n  pop\n  jump\t// out\n    /* \"#utility.yul\":3670:4572   */\ntag_80:\n    /* \"#utility.yul\":3719:3724   */\n  0x00\n    /* \"#utility.yul\":3749:3757   */\n  dup3\n    /* \"#utility.yul\":3739:3819   */\n  tag_121\n  jumpi\n  pop\n    /* \"#utility.yul\":3790:3791   */\n  0x01\n    /* \"#utility.yul\":3804:3809   */\n  jump(tag_40)\n    /* \"#utility.yul\":3739:3819   */\ntag_121:\n    /* \"#utility.yul\":3838:3842   */\n  dup2\n    /* \"#utility.yul\":3828:3904   */\n  tag_122\n  jumpi\n  pop\n    /* \"#utility.yul\":3875:3876   */\n  0x00\n    /* \"#utility.yul\":3889:3894   */\n  jump(tag_40)\n    /* \"#utility.yul\":3828:3904   */\ntag_122:\n    /* \"#utility.yul\":3920:3924   */\n  dup2\n    /* \"#utility.yul\":3938:3939   */\n  0x01\n    /* \"#utility.yul\":3933:3992   */\n  dup2\n  eq\n  tag_124\n  jumpi\n    /* \"#utility.yul\":4006:4007   */\n  0x02\n    /* \"#utility.yul\":4001:4175   */\n  dup2\n  eq\n  tag_125\n  jumpi\n    /* \"#utility.yul\":3913:4175   */\n  jump(tag_123)\n    /* \"#utility.yul\":3933:3992   */\ntag_124:\n    /* \"#utility.yul\":3963:3964   */\n  0x01\n    /* \"#utility.yul\":3954:3964   */\n  swap2\n  pop\n    /* \"#utility.yul\":3977:3982   */\n  pop\n  jump(tag_40)\n    /* \"#utility.yul\":4001:4175   */\ntag_125:\n    /* \"#utility.yul\":4038:4041   */\n  0xff\n    /* \"#utility.yul\":4028:4036   */\n  dup5\n    /* \"#utility.yul\":4025:4042   */\n  gt\n    /* \"#utility.yul\":4022:4065   */\n  iszero\n  tag_127\n  jumpi\n    /* \"#utility.yul\":4045:4063   */\n  tag_127\n  tag_78\n  jump\t// in\ntag_127:\n  pop\n  pop\n    /* \"#utility.yul\":4101:4102   */\n  0x01\n    /* \"#utility.yul\":4087:4103   */\n  dup3\n  shl\n    /* \"#utility.yul\":4160:4165   */\n  jump(tag_40)\n    /* \"#utility.yul\":3913:4175   */\ntag_123:\n  pop\n    /* \"#utility.yul\":4259:4261   */\n  0x20\n    /* \"#utility.yul\":4249:4257   */\n  dup4\n    /* \"#utility.yul\":4246:4262   */\n  lt\n    /* \"#utility.yul\":4240:4243   */\n  0x0133\n    /* \"#utility.yul\":4234:4238   */\n  dup4\n    /* \"#utility.yul\":4231:4244   */\n  lt\n    /* \"#utility.yul\":4227:4263   */\n  and\n    /* \"#utility.yul\":4221:4223   */\n  0x4e\n    /* \"#utility.yul\":4211:4219   */\n  dup5\n    /* \"#utility.yul\":4208:4224   */\n  lt\n    /* \"#utility.yul\":4203:4205   */\n  0x0b\n    /* \"#utility.yul\":4197:4201   */\n  dup5\n    /* \"#utility.yul\":4194:4206   */\n  lt\n    /* \"#utility.yul\":4190:4225   */\n  and\n    /* \"#utility.yul\":4187:4264   */\n  or\n    /* \"#utility.yul\":4184:4387   */\n  iszero\n  tag_128\n  jumpi\n  pop\n    /* \"#utility.yul\":4296:4315   */\n  dup2\n  dup2\n  exp\n    /* \"#utility.yul\":4372:4377   */\n  jump(tag_40)\n    /* \"#utility.yul\":4184:4387   */\ntag_128:\n    /* \"#utility.yul\":4419:4461   */\n  tag_129\n  not(0x00)\n    /* \"#utility.yul\":4444:4452   */\n  dup5\n    /* \"#utility.yul\":4438:4442   */\n  dup5\n    /* \"#utility.yul\":4419:4461   */\n  tag_79\n  jump\t// in\ntag_129:\n    /* \"#utility.yul\":4497:4503   */\n  dup1\n    /* \"#utility.yul\":4493:4494   */\n  0x00\n    /* \"#utility.yul\":4489:4495   */\n  not\n    /* \"#utility.yul\":4485:4504   */\n  div\n    /* \"#utility.yul\":4476:4483   */\n  dup3\n    /* \"#utility.yul\":4473:4505   */\n  gt\n    /* \"#utility.yul\":4470:4528   */\n  iszero\n  tag_131\n  jumpi\n    /* \"#utility.yul\":4508:4526   */\n  tag_131\n  tag_78\n  jump\t// in\ntag_131:\n    /* \"#utility.yul\":4546:4566   */\n  mul\n  swap4\n    /* \"#utility.yul\":3670:4572   */\n  swap3\n  pop\n  pop\n  pop\n  jump\t// out\n    /* \"#utility.yul\":4577:4717   */\ntag_31:\n    /* \"#utility.yul\":4635:4640   */\n  0x00\n    /* \"#utility.yul\":4664:4711   */\n  tag_84\n    /* \"#utility.yul\":4705:4709   */\n  0xff\n    /* \"#utility.yul\":4695:4703   */\n  dup5\n    /* \"#utility.yul\":4691:4710   */\n  and\n    /* \"#utility.yul\":4685:4689   */\n  dup4\n    /* \"#utility.yul\":4664:4711   */\n  tag_80\n  jump\t// in\n    /* \"#utility.yul\":4722:4890   */\ntag_33:\n    /* \"#utility.yul\":4795:4804   */\n  dup1\n  dup3\n  mul\n    /* \"#utility.yul\":4826:4835   */\n  dup2\n  iszero\n    /* \"#utility.yul\":4843:4858   */\n  dup3\n  dup3\n  div\n    /* \"#utility.yul\":4837:4859   */\n  dup5\n  eq\n    /* \"#utility.yul\":4823:4860   */\n  or\n    /* \"#utility.yul\":4813:4884   */\n  tag_40\n  jumpi\n    /* \"#utility.yul\":4864:4882   */\n  tag_40\n  tag_78\n  jump\t// in\n    /* \"#utility.yul\":5389:5807   */\ntag_57:\n    /* \"#utility.yul\":5538:5540   */\n  0x20\n    /* \"#utility.yul\":5527:5536   */\n  dup2\n    /* \"#utility.yul\":5520:5541   */\n  mstore\n    /* \"#utility.yul\":5501:5505   */\n  0x00\n    /* \"#utility.yul\":5570:5576   */\n  dup3\n    /* \"#utility.yul\":5564:5577   */\n  mload\n    /* \"#utility.yul\":5613:5619   */\n  dup1\n    /* \"#utility.yul\":5608:5610   */\n  0x20\n    /* \"#utility.yul\":5597:5606   */\n  dup5\n    /* \"#utility.yul\":5593:5611   */\n  add\n    /* \"#utility.yul\":5586:5620   */\n  mstore\n    /* \"#utility.yul\":5672:5678   */\n  dup1\n    /* \"#utility.yul\":5667:5669   */\n  0x20\n    /* \"#utility.yul\":5659:5665   */\n  dup6\n    /* \"#utility.yul\":5655:5670   */\n  add\n    /* \"#utility.yul\":5650:5652   */\n  0x40\n    /* \"#utility.yul\":5639:5648   */\n  dup6\n    /* \"#utility.yul\":5635:5653   */\n  add\n    /* \"#utility.yul\":5629:5679   */\n  mcopy\n    /* \"#utility.yul\":5728:5729   */\n  0x00\n    /* \"#utility.yul\":5723:5725   */\n  0x40\n    /* \"#utility.yul\":5714:5720   */\n  dup3\n    /* \"#utility.yul\":5703:5712   */\n  dup6\n    /* \"#utility.yul\":5699:5721   */\n  add\n    /* \"#utility.yul\":5695:5726   */\n  add\n    /* \"#utility.yul\":5688:5730   */\n  mstore\n    /* \"#utility.yul\":5798:5800   */\n  0x40\n    /* \"#utility.yul\":5791:5793   */\n  0x1f\n    /* \"#utility.yul\":5787:5794   */\n  not\n    /* \"#utility.yul\":5782:5784   */\n  0x1f\n    /* \"#utility.yul\":5774:5780   */\n  dup4\n    /* \"#utility.yul\":5770:5785   */\n  add\n    /* \"#utility.yul\":5766:5795   */\n  and\n    /* \"#utility.yul\":5755:5764   */\n  dup5\n    /* \"#utility.yul\":5751:5796   */\n  add\n    /* \"#utility.yul\":5747:5801   */\n  add\n    /* \"#utility.yul\":5739:5801   */\n  swap2\n  pop\n  pop\n    /* \"#utility.yul\":5389:5807   */\n  swap3\n  swap2\n  pop\n  pop\n  jump\t// out\n    /* \"#utility.yul\":5812:6109   */\ntag_59:\n    /* \"#utility.yul\":5930:5942   */\n  dup1\n  mload\n    /* \"#utility.yul\":5977:5981   */\n  0x20\n    /* \"#utility.yul\":5966:5982   */\n  dup1\n  dup4\n  add\n    /* \"#utility.yul\":5960:5983   */\n  mload\n  swap2\n    /* \"#utility.yul\":5930:5942   */\n  swap1\n    /* \"#utility.yul\":5995:6011   */\n  dup2\n  lt\n    /* \"#utility.yul\":5992:6103   */\n  iszero\n  tag_88\n  jumpi\n  not(0x00)\n    /* \"#utility.yul\":6069:6073   */\n  0x20\n    /* \"#utility.yul\":6065:6082   */\n  swap2\n  swap1\n  swap2\n  sub\n    /* \"#utility.yul\":6062:6063   */\n  0x03\n    /* \"#utility.yul\":6058:6083   */\n  shl\n    /* \"#utility.yul\":6054:6092   */\n  shl\n    /* \"#utility.yul\":6043:6093   */\n  and\n  swap2\n    /* \"#utility.yul\":5812:6109   */\n  swap1\n  pop\n  jump\t// out\n    /* \"#utility.yul\":6114:6239   */\ntag_64:\n    /* \"#utility.yul\":6179:6188   */\n  dup1\n  dup3\n  add\n    /* \"#utility.yul\":6200:6210   */\n  dup1\n  dup3\n  gt\n    /* \"#utility.yul\":6197:6233   */\n  iszero\n  tag_40\n  jumpi\n    /* \"#utility.yul\":6213:6231   */\n  tag_40\n  tag_78\n  jump\t// in\n    /* \"#utility.yul\":6594:6771   */\ntag_81:\n    /* \"DADDY TATE.sol\":398:708  contract DADDYTATEFRIEND is ERC20, ERC20Burnable, ERC20Permit, Ownable {... */\n  mload(0x80)\n  mload(0xa0)\n  mload(0xc0)\n  mload(0xe0)\n  mload(0x0100)\n  mload(0x0120)\n  mload(0x0140)\n  codecopy(0x00, dataOffset(sub_0), dataSize(sub_0))\n  0x00\n  assignImmutable(\"0x88a9212fd0f7b4413dd5e22695ef38344770f45b3083970cb665e0e17dcb0bd6\")\n  0x00\n  assignImmutable(\"0x1a9d81b69a492c90d45241c17e21e75a0dfce976e6e4f4787646342d15de5831\")\n  0x00\n  assignImmutable(\"0xdf2d24c2d874d48b2dabce9e2d6532f89ac89bcd3a2fa18c072f46a075054de9\")\n  0x00\n  assignImmutable(\"0xbc3ba252f8041edd3ef6da5977b996ba149c3c4e1b7a0e1b1cfeb5ce24e1a570\")\n  0x00\n  assignImmutable(\"0xf73cad1bd82f5ecfaa44e643676c8bc2dbfff68b10bdfd2ece012251191c9803\")\n  0x00\n  assignImmutable(\"0xfd6071d659db89e8c5cd76f742b98262bad343c48d8e112fec697f28b0f6a85d\")\n  0x00\n  assignImmutable(\"0x0c33b51a7fc957312a3715e50adff78df156f236b317db19e164c2154d0c029f\")\n  return(0x00, dataSize(sub_0))\nstop\n\nsub_0: assembly {\n        /* \"DADDY TATE.sol\":398:708  contract DADDYTATEFRIEND is ERC20, ERC20Burnable, ERC20Permit, Ownable {... */\n      mstore(0x40, 0x80)\n      callvalue\n      dup1\n      iszero\n      tag_1\n      jumpi\n      0x00\n      dup1\n      revert\n    tag_1:\n      pop\n      jumpi(tag_2, lt(calldatasize, 0x04))\n      shr(0xe0, calldataload(0x00))\n      dup1\n      0x79cc6790\n      gt\n      tag_21\n      jumpi\n      dup1\n      0x95d89b41\n      gt\n      tag_22\n      jumpi\n      dup1\n      0x95d89b41\n      eq\n      tag_16\n      jumpi\n      dup1\n      0xa9059cbb\n      eq\n      tag_17\n      jumpi\n      dup1\n      0xd505accf\n      eq\n      tag_18\n      jumpi\n      dup1\n      0xdd62ed3e\n      eq\n      tag_19\n      jumpi\n      dup1\n      0xf2fde38b\n      eq\n      tag_20\n      jumpi\n      0x00\n      dup1\n      revert\n    tag_22:\n      dup1\n      0x79cc6790\n      eq\n      tag_12\n      jumpi\n      dup1\n      0x7ecebe00\n      eq\n      tag_13\n      jumpi\n      dup1\n      0x84b0196e\n      eq\n      tag_14\n      jumpi\n      dup1\n      0x8da5cb5b\n      eq\n      tag_15\n      jumpi\n      0x00\n      dup1\n      revert\n    tag_21:\n      dup1\n      0x313ce567\n      gt\n      tag_23\n      jumpi\n      dup1\n      0x313ce567\n      eq\n      tag_7\n      jumpi\n      dup1\n      0x3644e515\n      eq\n      tag_8\n      jumpi\n      dup1\n      0x42966c68\n      eq\n      tag_9\n      jumpi\n      dup1\n      0x70a08231\n      eq\n      tag_10\n      jumpi\n      dup1\n      0x715018a6\n      eq\n      tag_11\n      jumpi\n      0x00\n      dup1\n      revert\n    tag_23:\n      dup1\n      0x06fdde03\n      eq\n      tag_3\n      jumpi\n      dup1\n      0x095ea7b3\n      eq\n      tag_4\n      jumpi\n      dup1\n      0x18160ddd\n      eq\n      tag_5\n      jumpi\n      dup1\n      0x23b872dd\n      eq\n      tag_6\n      jumpi\n    tag_2:\n      0x00\n      dup1\n      revert\n        /* \"@openzeppelin/contracts@5.0.2/token/ERC20/ERC20.sol\":2074:2163  function name() public view virtual returns (string memory) {... */\n    tag_3:\n      tag_24\n      tag_25\n      jump\t// in\n    tag_24:\n      mload(0x40)\n      tag_26\n      swap2\n      swap1\n      tag_27\n      jump\t// in\n    tag_26:\n      mload(0x40)\n      dup1\n      swap2\n      sub\n      swap1\n      return\n        /* \"@openzeppelin/contracts@5.0.2/token/ERC20/ERC20.sol\":4293:4479  function approve(address spender, uint256 value) public virtual returns (bool) {... */\n    tag_4:\n      tag_28\n      tag_29\n      calldatasize\n      0x04\n      tag_30\n      jump\t// in\n    tag_29:\n      tag_31\n      jump\t// in\n    tag_28:\n      mload(0x40)\n        /* \"#utility.yul\":1181:1195   */\n      swap1\n      iszero\n        /* \"#utility.yul\":1174:1196   */\n      iszero\n        /* \"#utility.yul\":1156:1197   */\n      dup2\n      mstore\n        /* \"#utility.yul\":1144:1146   */\n      0x20\n        /* \"#utility.yul\":1129:1147   */\n      add\n        /* \"@openzeppelin/contracts@5.0.2/token/ERC20/ERC20.sol\":4293:4479  function approve(address spender, uint256 value) public virtual returns (bool) {... */\n      tag_26\n        /* \"#utility.yul\":1016:1203   */\n      jump\n        /* \"@openzeppelin/contracts@5.0.2/token/ERC20/ERC20.sol\":3144:3241  function totalSupply() public view virtual returns (uint256) {... */\n    tag_5:\n        /* \"@openzeppelin/contracts@5.0.2/token/ERC20/ERC20.sol\":3222:3234  _totalSupply */\n      sload(0x02)\n        /* \"@openzeppelin/contracts@5.0.2/token/ERC20/ERC20.sol\":3144:3241  function totalSupply() public view virtual returns (uint256) {... */\n    tag_34:\n      mload(0x40)\n        /* \"#utility.yul\":1354:1379   */\n      swap1\n      dup2\n      mstore\n        /* \"#utility.yul\":1342:1344   */\n      0x20\n        /* \"#utility.yul\":1327:1345   */\n      add\n        /* \"@openzeppelin/contracts@5.0.2/token/ERC20/ERC20.sol\":3144:3241  function totalSupply() public view virtual returns (uint256) {... */\n      tag_26\n        /* \"#utility.yul\":1208:1385   */\n      jump\n        /* \"@openzeppelin/contracts@5.0.2/token/ERC20/ERC20.sol\":5039:5283  function transferFrom(address from, address to, uint256 value) public virtual returns (bool) {... */\n    tag_6:\n      tag_28\n      tag_39\n      calldatasize\n      0x04\n      tag_40\n      jump\t// in\n    tag_39:\n      tag_41\n      jump\t// in\n        /* \"@openzeppelin/contracts@5.0.2/token/ERC20/ERC20.sol\":3002:3084  function decimals() public view virtual returns (uint8) {... */\n    tag_7:\n      mload(0x40)\n        /* \"@openzeppelin/contracts@5.0.2/token/ERC20/ERC20.sol\":3075:3077  18 */\n      0x12\n        /* \"#utility.yul\":1911:1947   */\n      dup2\n      mstore\n        /* \"#utility.yul\":1899:1901   */\n      0x20\n        /* \"#utility.yul\":1884:1902   */\n      add\n        /* \"@openzeppelin/contracts@5.0.2/token/ERC20/ERC20.sol\":3002:3084  function decimals() public view virtual returns (uint8) {... */\n      tag_26\n        /* \"#utility.yul\":1769:1953   */\n      jump\n        /* \"@openzeppelin/contracts@5.0.2/token/ERC20/extensions/ERC20Permit.sol\":2656:2768  function DOMAIN_SEPARATOR() external view virtual returns (bytes32) {... */\n    tag_8:\n      tag_34\n      tag_48\n      jump\t// in\n        /* \"@openzeppelin/contracts@5.0.2/token/ERC20/extensions/ERC20Burnable.sol\":618:705  function burn(uint256 value) public virtual {... */\n    tag_9:\n      tag_51\n      tag_52\n      calldatasize\n      0x04\n      tag_53\n      jump\t// in\n    tag_52:\n      tag_54\n      jump\t// in\n    tag_51:\n      stop\n        /* \"@openzeppelin/contracts@5.0.2/token/ERC20/ERC20.sol\":3299:3415  function balanceOf(address account) public view virtual returns (uint256) {... */\n    tag_10:\n      tag_34\n      tag_56\n      calldatasize\n      0x04\n      tag_57\n      jump\t// in\n    tag_56:\n      sub(shl(0xa0, 0x01), 0x01)\n        /* \"@openzeppelin/contracts@5.0.2/token/ERC20/ERC20.sol\":3390:3408  _balances[account] */\n      and\n        /* \"@openzeppelin/contracts@5.0.2/token/ERC20/ERC20.sol\":3364:3371  uint256 */\n      0x00\n        /* \"@openzeppelin/contracts@5.0.2/token/ERC20/ERC20.sol\":3390:3408  _balances[account] */\n      swap1\n      dup2\n      mstore\n      0x20\n      dup2\n      swap1\n      mstore\n      0x40\n      swap1\n      keccak256\n      sload\n      swap1\n        /* \"@openzeppelin/contracts@5.0.2/token/ERC20/ERC20.sol\":3299:3415  function balanceOf(address account) public view virtual returns (uint256) {... */\n      jump\n        /* \"@openzeppelin/contracts@5.0.2/access/Ownable.sol\":2293:2394  function renounceOwnership() public virtual onlyOwner {... */\n    tag_11:\n      tag_51\n      tag_61\n      jump\t// in\n        /* \"@openzeppelin/contracts@5.0.2/token/ERC20/extensions/ERC20Burnable.sol\":1021:1179  function burnFrom(address account, uint256 value) public virtual {... */\n    tag_12:\n      tag_51\n      tag_63\n      calldatasize\n      0x04\n      tag_30\n      jump\t// in\n    tag_63:\n      tag_64\n      jump\t// in\n        /* \"@openzeppelin/contracts@5.0.2/token/ERC20/extensions/ERC20Permit.sol\":2406:2549  function nonces(address owner) public view virtual override(IERC20Permit, Nonces) returns (uint256) {... */\n    tag_13:\n      tag_34\n      tag_66\n      calldatasize\n      0x04\n      tag_57\n      jump\t// in\n    tag_66:\n      tag_67\n      jump\t// in\n        /* \"@openzeppelin/contracts@5.0.2/utils/cryptography/EIP712.sol\":5144:5701  function eip712Domain()... */\n    tag_14:\n      tag_69\n      tag_70\n      jump\t// in\n    tag_69:\n      mload(0x40)\n      tag_26\n      swap8\n      swap7\n      swap6\n      swap5\n      swap4\n      swap3\n      swap2\n      swap1\n      tag_72\n      jump\t// in\n        /* \"@openzeppelin/contracts@5.0.2/access/Ownable.sol\":1638:1723  function owner() public view virtual returns (address) {... */\n    tag_15:\n        /* \"@openzeppelin/contracts@5.0.2/access/Ownable.sol\":1710:1716  _owner */\n      sload(0x08)\n        /* \"@openzeppelin/contracts@5.0.2/access/Ownable.sol\":1638:1723  function owner() public view virtual returns (address) {... */\n      mload(0x40)\n      sub(shl(0xa0, 0x01), 0x01)\n        /* \"@openzeppelin/contracts@5.0.2/access/Ownable.sol\":1710:1716  _owner */\n      swap1\n      swap2\n      and\n        /* \"#utility.yul\":3951:4002   */\n      dup2\n      mstore\n        /* \"#utility.yul\":3939:3941   */\n      0x20\n        /* \"#utility.yul\":3924:3942   */\n      add\n        /* \"@openzeppelin/contracts@5.0.2/access/Ownable.sol\":1638:1723  function owner() public view virtual returns (address) {... */\n      tag_26\n        /* \"#utility.yul\":3805:4008   */\n      jump\n        /* \"@openzeppelin/contracts@5.0.2/token/ERC20/ERC20.sol\":2276:2369  function symbol() public view virtual returns (string memory) {... */\n    tag_16:\n      tag_24\n      tag_78\n      jump\t// in\n        /* \"@openzeppelin/contracts@5.0.2/token/ERC20/ERC20.sol\":3610:3788  function transfer(address to, uint256 value) public virtual returns (bool) {... */\n    tag_17:\n      tag_28\n      tag_81\n      calldatasize\n      0x04\n      tag_30\n      jump\t// in\n    tag_81:\n      tag_82\n      jump\t// in\n        /* \"@openzeppelin/contracts@5.0.2/token/ERC20/extensions/ERC20Permit.sol\":1680:2352  function permit(... */\n    tag_18:\n      tag_51\n      tag_85\n      calldatasize\n      0x04\n      tag_86\n      jump\t// in\n    tag_85:\n      tag_87\n      jump\t// in\n        /* \"@openzeppelin/contracts@5.0.2/token/ERC20/ERC20.sol\":3846:3986  function allowance(address owner, address spender) public view virtual returns (uint256) {... */\n    tag_19:\n      tag_34\n      tag_89\n      calldatasize\n      0x04\n      tag_90\n      jump\t// in\n    tag_89:\n      sub(shl(0xa0, 0x01), 0x01)\n        /* \"@openzeppelin/contracts@5.0.2/token/ERC20/ERC20.sol\":3952:3970  _allowances[owner] */\n      swap2\n      dup3\n      and\n        /* \"@openzeppelin/contracts@5.0.2/token/ERC20/ERC20.sol\":3926:3933  uint256 */\n      0x00\n        /* \"@openzeppelin/contracts@5.0.2/token/ERC20/ERC20.sol\":3952:3970  _allowances[owner] */\n      swap1\n      dup2\n      mstore\n        /* \"@openzeppelin/contracts@5.0.2/token/ERC20/ERC20.sol\":3952:3963  _allowances */\n      0x01\n        /* \"@openzeppelin/contracts@5.0.2/token/ERC20/ERC20.sol\":3952:3970  _allowances[owner] */\n      0x20\n      swap1\n      dup2\n      mstore\n      0x40\n      dup1\n      dup4\n      keccak256\n        /* \"@openzeppelin/contracts@5.0.2/token/ERC20/ERC20.sol\":3952:3979  _allowances[owner][spender] */\n      swap4\n      swap1\n      swap5\n      and\n      dup3\n      mstore\n      swap2\n      swap1\n      swap2\n      mstore\n      keccak256\n      sload\n      swap1\n        /* \"@openzeppelin/contracts@5.0.2/token/ERC20/ERC20.sol\":3846:3986  function allowance(address owner, address spender) public view virtual returns (uint256) {... */\n      jump\n        /* \"@openzeppelin/contracts@5.0.2/access/Ownable.sol\":2543:2758  function transferOwnership(address newOwner) public virtual onlyOwner {... */\n    tag_20:\n      tag_51\n      tag_94\n      calldatasize\n      0x04\n      tag_57\n      jump\t// in\n    tag_94:\n      tag_95\n      jump\t// in\n        /* \"@openzeppelin/contracts@5.0.2/token/ERC20/ERC20.sol\":2074:2163  function name() public view virtual returns (string memory) {... */\n    tag_25:\n        /* \"@openzeppelin/contracts@5.0.2/token/ERC20/ERC20.sol\":2119:2132  string memory */\n      0x60\n        /* \"@openzeppelin/contracts@5.0.2/token/ERC20/ERC20.sol\":2151:2156  _name */\n      0x03\n        /* \"@openzeppelin/contracts@5.0.2/token/ERC20/ERC20.sol\":2144:2156  return _name */\n      dup1\n      sload\n      tag_97\n      swap1\n      tag_98\n      jump\t// in\n    tag_97:\n      dup1\n      0x1f\n      add\n      0x20\n      dup1\n      swap2\n      div\n      mul\n      0x20\n      add\n      mload(0x40)\n      swap1\n      dup2\n      add\n      0x40\n      mstore\n      dup1\n      swap3\n      swap2\n      swap1\n      dup2\n      dup2\n      mstore\n      0x20\n      add\n      dup3\n      dup1\n      sload\n      tag_99\n      swap1\n      tag_98\n      jump\t// in\n    tag_99:\n      dup1\n      iszero\n      tag_100\n      jumpi\n      dup1\n      0x1f\n      lt\n      tag_101\n      jumpi\n      0x0100\n      dup1\n      dup4\n      sload\n      div\n      mul\n      dup4\n      mstore\n      swap2\n      0x20\n      add\n      swap2\n      jump(tag_100)\n    tag_101:\n      dup3\n      add\n      swap2\n      swap1\n      0x00\n      mstore\n      keccak256(0x00, 0x20)\n      swap1\n    tag_102:\n      dup2\n      sload\n      dup2\n      mstore\n      swap1\n      0x01\n      add\n      swap1\n      0x20\n      add\n      dup1\n      dup4\n      gt\n      tag_102\n      jumpi\n      dup3\n      swap1\n      sub\n      0x1f\n      and\n      dup3\n      add\n      swap2\n    tag_100:\n      pop\n      pop\n      pop\n      pop\n      pop\n      swap1\n      pop\n        /* \"@openzeppelin/contracts@5.0.2/token/ERC20/ERC20.sol\":2074:2163  function name() public view virtual returns (string memory) {... */\n      swap1\n      jump\t// out\n        /* \"@openzeppelin/contracts@5.0.2/token/ERC20/ERC20.sol\":4293:4479  function approve(address spender, uint256 value) public virtual returns (bool) {... */\n    tag_31:\n        /* \"@openzeppelin/contracts@5.0.2/token/ERC20/ERC20.sol\":4366:4370  bool */\n      0x00\n        /* \"@openzeppelin/contracts@5.0.2/utils/Context.sol\":735:745  msg.sender */\n      caller\n        /* \"@openzeppelin/contracts@5.0.2/token/ERC20/ERC20.sol\":4420:4451  _approve(owner, spender, value) */\n      tag_106\n        /* \"@openzeppelin/contracts@5.0.2/utils/Context.sol\":735:745  msg.sender */\n      dup2\n        /* \"@openzeppelin/contracts@5.0.2/token/ERC20/ERC20.sol\":4436:4443  spender */\n      dup6\n        /* \"@openzeppelin/contracts@5.0.2/token/ERC20/ERC20.sol\":4445:4450  value */\n      dup6\n        /* \"@openzeppelin/contracts@5.0.2/token/ERC20/ERC20.sol\":4420:4428  _approve */\n      tag_107\n        /* \"@openzeppelin/contracts@5.0.2/token/ERC20/ERC20.sol\":4420:4451  _approve(owner, spender, value) */\n      jump\t// in\n    tag_106:\n        /* \"@openzeppelin/contracts@5.0.2/token/ERC20/ERC20.sol\":4468:4472  true */\n      0x01\n        /* \"@openzeppelin/contracts@5.0.2/token/ERC20/ERC20.sol\":4461:4472  return true */\n      swap2\n      pop\n      pop\n        /* \"@openzeppelin/contracts@5.0.2/token/ERC20/ERC20.sol\":4293:4479  function approve(address spender, uint256 value) public virtual returns (bool) {... */\n    tag_103:\n      swap3\n      swap2\n      pop\n      pop\n      jump\t// out\n        /* \"@openzeppelin/contracts@5.0.2/token/ERC20/ERC20.sol\":5039:5283  function transferFrom(address from, address to, uint256 value) public virtual returns (bool) {... */\n    tag_41:\n        /* \"@openzeppelin/contracts@5.0.2/token/ERC20/ERC20.sol\":5126:5130  bool */\n      0x00\n        /* \"@openzeppelin/contracts@5.0.2/utils/Context.sol\":735:745  msg.sender */\n      caller\n        /* \"@openzeppelin/contracts@5.0.2/token/ERC20/ERC20.sol\":5182:5219  _spendAllowance(from, spender, value) */\n      tag_111\n        /* \"@openzeppelin/contracts@5.0.2/token/ERC20/ERC20.sol\":5198:5202  from */\n      dup6\n        /* \"@openzeppelin/contracts@5.0.2/utils/Context.sol\":735:745  msg.sender */\n      dup3\n        /* \"@openzeppelin/contracts@5.0.2/token/ERC20/ERC20.sol\":5213:5218  value */\n      dup6\n        /* \"@openzeppelin/contracts@5.0.2/token/ERC20/ERC20.sol\":5182:5197  _spendAllowance */\n      tag_112\n        /* \"@openzeppelin/contracts@5.0.2/token/ERC20/ERC20.sol\":5182:5219  _spendAllowance(from, spender, value) */\n      jump\t// in\n    tag_111:\n        /* \"@openzeppelin/contracts@5.0.2/token/ERC20/ERC20.sol\":5229:5255  _transfer(from, to, value) */\n      tag_113\n        /* \"@openzeppelin/contracts@5.0.2/token/ERC20/ERC20.sol\":5239:5243  from */\n      dup6\n        /* \"@openzeppelin/contracts@5.0.2/token/ERC20/ERC20.sol\":5245:5247  to */\n      dup6\n        /* \"@openzeppelin/contracts@5.0.2/token/ERC20/ERC20.sol\":5249:5254  value */\n      dup6\n        /* \"@openzeppelin/contracts@5.0.2/token/ERC20/ERC20.sol\":5229:5238  _transfer */\n      tag_114\n        /* \"@openzeppelin/contracts@5.0.2/token/ERC20/ERC20.sol\":5229:5255  _transfer(from, to, value) */\n      jump\t// in\n    tag_113:\n      pop\n        /* \"@openzeppelin/contracts@5.0.2/token/ERC20/ERC20.sol\":5272:5276  true */\n      0x01\n      swap5\n        /* \"@openzeppelin/contracts@5.0.2/token/ERC20/ERC20.sol\":5039:5283  function transferFrom(address from, address to, uint256 value) public virtual returns (bool) {... */\n      swap4\n      pop\n      pop\n      pop\n      pop\n      jump\t// out\n        /* \"@openzeppelin/contracts@5.0.2/token/ERC20/extensions/ERC20Permit.sol\":2656:2768  function DOMAIN_SEPARATOR() external view virtual returns (bytes32) {... */\n    tag_48:\n        /* \"@openzeppelin/contracts@5.0.2/token/ERC20/extensions/ERC20Permit.sol\":2715:2722  bytes32 */\n      0x00\n        /* \"@openzeppelin/contracts@5.0.2/token/ERC20/extensions/ERC20Permit.sol\":2741:2761  _domainSeparatorV4() */\n      tag_117\n        /* \"@openzeppelin/contracts@5.0.2/token/ERC20/extensions/ERC20Permit.sol\":2741:2759  _domainSeparatorV4 */\n      tag_118\n        /* \"@openzeppelin/contracts@5.0.2/token/ERC20/extensions/ERC20Permit.sol\":2741:2761  _domainSeparatorV4() */\n      jump\t// in\n    tag_117:\n        /* \"@openzeppelin/contracts@5.0.2/token/ERC20/extensions/ERC20Permit.sol\":2734:2761  return _domainSeparatorV4() */\n      swap1\n      pop\n        /* \"@openzeppelin/contracts@5.0.2/token/ERC20/extensions/ERC20Permit.sol\":2656:2768  function DOMAIN_SEPARATOR() external view virtual returns (bytes32) {... */\n      swap1\n      jump\t// out\n        /* \"@openzeppelin/contracts@5.0.2/token/ERC20/extensions/ERC20Burnable.sol\":618:705  function burn(uint256 value) public virtual {... */\n    tag_54:\n        /* \"@openzeppelin/contracts@5.0.2/token/ERC20/extensions/ERC20Burnable.sol\":672:698  _burn(_msgSender(), value) */\n      tag_120\n        /* \"@openzeppelin/contracts@5.0.2/utils/Context.sol\":735:745  msg.sender */\n      caller\n        /* \"@openzeppelin/contracts@5.0.2/token/ERC20/extensions/ERC20Burnable.sol\":692:697  value */\n      dup3\n        /* \"@openzeppelin/contracts@5.0.2/token/ERC20/extensions/ERC20Burnable.sol\":672:677  _burn */\n      tag_122\n        /* \"@openzeppelin/contracts@5.0.2/token/ERC20/extensions/ERC20Burnable.sol\":672:698  _burn(_msgSender(), value) */\n      jump\t// in\n    tag_120:\n        /* \"@openzeppelin/contracts@5.0.2/token/ERC20/extensions/ERC20Burnable.sol\":618:705  function burn(uint256 value) public virtual {... */\n      pop\n      jump\t// out\n        /* \"@openzeppelin/contracts@5.0.2/access/Ownable.sol\":2293:2394  function renounceOwnership() public virtual onlyOwner {... */\n    tag_61:\n        /* \"@openzeppelin/contracts@5.0.2/access/Ownable.sol\":1531:1544  _checkOwner() */\n      tag_125\n        /* \"@openzeppelin/contracts@5.0.2/access/Ownable.sol\":1531:1542  _checkOwner */\n      tag_126\n        /* \"@openzeppelin/contracts@5.0.2/access/Ownable.sol\":1531:1544  _checkOwner() */\n      jump\t// in\n    tag_125:\n        /* \"@openzeppelin/contracts@5.0.2/access/Ownable.sol\":2357:2387  _transferOwnership(address(0)) */\n      tag_128\n        /* \"@openzeppelin/contracts@5.0.2/access/Ownable.sol\":2384:2385  0 */\n      0x00\n        /* \"@openzeppelin/contracts@5.0.2/access/Ownable.sol\":2357:2375  _transferOwnership */\n      tag_129\n        /* \"@openzeppelin/contracts@5.0.2/access/Ownable.sol\":2357:2387  _transferOwnership(address(0)) */\n      jump\t// in\n    tag_128:\n        /* \"@openzeppelin/contracts@5.0.2/access/Ownable.sol\":2293:2394  function renounceOwnership() public virtual onlyOwner {... */\n      jump\t// out\n        /* \"@openzeppelin/contracts@5.0.2/token/ERC20/extensions/ERC20Burnable.sol\":1021:1179  function burnFrom(address account, uint256 value) public virtual {... */\n    tag_64:\n        /* \"@openzeppelin/contracts@5.0.2/token/ERC20/extensions/ERC20Burnable.sol\":1096:1141  _spendAllowance(account, _msgSender(), value) */\n      tag_131\n        /* \"@openzeppelin/contracts@5.0.2/token/ERC20/extensions/ERC20Burnable.sol\":1112:1119  account */\n      dup3\n        /* \"@openzeppelin/contracts@5.0.2/utils/Context.sol\":735:745  msg.sender */\n      caller\n        /* \"@openzeppelin/contracts@5.0.2/token/ERC20/extensions/ERC20Burnable.sol\":1135:1140  value */\n      dup4\n        /* \"@openzeppelin/contracts@5.0.2/token/ERC20/extensions/ERC20Burnable.sol\":1096:1111  _spendAllowance */\n      tag_112\n        /* \"@openzeppelin/contracts@5.0.2/token/ERC20/extensions/ERC20Burnable.sol\":1096:1141  _spendAllowance(account, _msgSender(), value) */\n      jump\t// in\n    tag_131:\n        /* \"@openzeppelin/contracts@5.0.2/token/ERC20/extensions/ERC20Burnable.sol\":1151:1172  _burn(account, value) */\n      tag_133\n        /* \"@openzeppelin/contracts@5.0.2/token/ERC20/extensions/ERC20Burnable.sol\":1157:1164  account */\n      dup3\n        /* \"@openzeppelin/contracts@5.0.2/token/ERC20/extensions/ERC20Burnable.sol\":1166:1171  value */\n      dup3\n        /* \"@openzeppelin/contracts@5.0.2/token/ERC20/extensions/ERC20Burnable.sol\":1151:1156  _burn */\n      tag_122\n        /* \"@openzeppelin/contracts@5.0.2/token/ERC20/extensions/ERC20Burnable.sol\":1151:1172  _burn(account, value) */\n      jump\t// in\n    tag_133:\n        /* \"@openzeppelin/contracts@5.0.2/token/ERC20/extensions/ERC20Burnable.sol\":1021:1179  function burnFrom(address account, uint256 value) public virtual {... */\n      pop\n      pop\n      jump\t// out\n        /* \"@openzeppelin/contracts@5.0.2/token/ERC20/extensions/ERC20Permit.sol\":2406:2549  function nonces(address owner) public view virtual override(IERC20Permit, Nonces) returns (uint256) {... */\n    tag_67:\n      sub(shl(0xa0, 0x01), 0x01)\n        /* \"@openzeppelin/contracts@5.0.2/utils/Nonces.sol\":624:638  _nonces[owner] */\n      dup2\n      and\n        /* \"@openzeppelin/contracts@5.0.2/token/ERC20/extensions/ERC20Permit.sol\":2497:2504  uint256 */\n      0x00\n        /* \"@openzeppelin/contracts@5.0.2/utils/Nonces.sol\":624:638  _nonces[owner] */\n      swap1\n      dup2\n      mstore\n        /* \"@openzeppelin/contracts@5.0.2/utils/Nonces.sol\":624:631  _nonces */\n      0x07\n        /* \"@openzeppelin/contracts@5.0.2/utils/Nonces.sol\":624:638  _nonces[owner] */\n      0x20\n      mstore\n      0x40\n      dup2\n      keccak256\n      sload\n        /* \"@openzeppelin/contracts@5.0.2/token/ERC20/extensions/ERC20Permit.sol\":2523:2542  super.nonces(owner) */\n      tag_103\n        /* \"@openzeppelin/contracts@5.0.2/utils/Nonces.sol\":538:645  function nonces(address owner) public view virtual returns (uint256) {... */\n      jump\n        /* \"@openzeppelin/contracts@5.0.2/utils/cryptography/EIP712.sol\":5144:5701  function eip712Domain()... */\n    tag_70:\n        /* \"@openzeppelin/contracts@5.0.2/utils/cryptography/EIP712.sol\":5242:5255  bytes1 fields */\n      0x00\n        /* \"@openzeppelin/contracts@5.0.2/utils/cryptography/EIP712.sol\":5269:5287  string memory name */\n      0x60\n        /* \"@openzeppelin/contracts@5.0.2/utils/cryptography/EIP712.sol\":5301:5322  string memory version */\n      dup1\n        /* \"@openzeppelin/contracts@5.0.2/utils/cryptography/EIP712.sol\":5336:5351  uint256 chainId */\n      0x00\n        /* \"@openzeppelin/contracts@5.0.2/utils/cryptography/EIP712.sol\":5365:5390  address verifyingContract */\n      dup1\n        /* \"@openzeppelin/contracts@5.0.2/utils/cryptography/EIP712.sol\":5404:5416  bytes32 salt */\n      0x00\n        /* \"@openzeppelin/contracts@5.0.2/utils/cryptography/EIP712.sol\":5430:5457  uint256[] memory extensions */\n      0x60\n        /* \"@openzeppelin/contracts@5.0.2/utils/cryptography/EIP712.sol\":5533:5546  _EIP712Name() */\n      tag_138\n        /* \"@openzeppelin/contracts@5.0.2/utils/cryptography/EIP712.sol\":5533:5544  _EIP712Name */\n      tag_139\n        /* \"@openzeppelin/contracts@5.0.2/utils/cryptography/EIP712.sol\":5533:5546  _EIP712Name() */\n      jump\t// in\n    tag_138:\n        /* \"@openzeppelin/contracts@5.0.2/utils/cryptography/EIP712.sol\":5560:5576  _EIP712Version() */\n      tag_140\n        /* \"@openzeppelin/contracts@5.0.2/utils/cryptography/EIP712.sol\":5560:5574  _EIP712Version */\n      tag_141\n        /* \"@openzeppelin/contracts@5.0.2/utils/cryptography/EIP712.sol\":5560:5576  _EIP712Version() */\n      jump\t// in\n    tag_140:\n        /* \"@openzeppelin/contracts@5.0.2/utils/cryptography/EIP712.sol\":5668:5684  new uint256[](0) */\n      0x40\n      dup1\n      mload\n        /* \"@openzeppelin/contracts@5.0.2/utils/cryptography/EIP712.sol\":5652:5653  0 */\n      0x00\n        /* \"@openzeppelin/contracts@5.0.2/utils/cryptography/EIP712.sol\":5668:5684  new uint256[](0) */\n      dup1\n      dup3\n      mstore\n      0x20\n      dup3\n      add\n      swap1\n      swap3\n      mstore\n      shl(0xf8, 0x0f)\n        /* \"@openzeppelin/contracts@5.0.2/utils/cryptography/EIP712.sol\":5482:5694  return (... */\n      swap12\n      swap4\n      swap11\n      pop\n      swap2\n      swap9\n      pop\n        /* \"@openzeppelin/contracts@5.0.2/utils/cryptography/EIP712.sol\":5590:5603  block.chainid */\n      chainid\n      swap8\n      pop\n        /* \"@openzeppelin/contracts@5.0.2/utils/cryptography/EIP712.sol\":5625:5629  this */\n      address\n      swap7\n      pop\n        /* \"@openzeppelin/contracts@5.0.2/utils/cryptography/EIP712.sol\":5652:5653  0 */\n      swap5\n      pop\n        /* \"@openzeppelin/contracts@5.0.2/utils/cryptography/EIP712.sol\":5668:5684  new uint256[](0) */\n      swap3\n      pop\n        /* \"@openzeppelin/contracts@5.0.2/utils/cryptography/EIP712.sol\":5482:5694  return (... */\n      swap1\n      pop\n        /* \"@openzeppelin/contracts@5.0.2/utils/cryptography/EIP712.sol\":5144:5701  function eip712Domain()... */\n      jump\t// out\n        /* \"@openzeppelin/contracts@5.0.2/token/ERC20/ERC20.sol\":2276:2369  function symbol() public view virtual returns (string memory) {... */\n    tag_78:\n        /* \"@openzeppelin/contracts@5.0.2/token/ERC20/ERC20.sol\":2323:2336  string memory */\n      0x60\n        /* \"@openzeppelin/contracts@5.0.2/token/ERC20/ERC20.sol\":2355:2362  _symbol */\n      0x04\n        /* \"@openzeppelin/contracts@5.0.2/token/ERC20/ERC20.sol\":2348:2362  return _symbol */\n      dup1\n      sload\n      tag_97\n      swap1\n      tag_98\n      jump\t// in\n        /* \"@openzeppelin/contracts@5.0.2/token/ERC20/ERC20.sol\":3610:3788  function transfer(address to, uint256 value) public virtual returns (bool) {... */\n    tag_82:\n        /* \"@openzeppelin/contracts@5.0.2/token/ERC20/ERC20.sol\":3679:3683  bool */\n      0x00\n        /* \"@openzeppelin/contracts@5.0.2/utils/Context.sol\":735:745  msg.sender */\n      caller\n        /* \"@openzeppelin/contracts@5.0.2/token/ERC20/ERC20.sol\":3733:3760  _transfer(owner, to, value) */\n      tag_106\n        /* \"@openzeppelin/contracts@5.0.2/utils/Context.sol\":735:745  msg.sender */\n      dup2\n        /* \"@openzeppelin/contracts@5.0.2/token/ERC20/ERC20.sol\":3750:3752  to */\n      dup6\n        /* \"@openzeppelin/contracts@5.0.2/token/ERC20/ERC20.sol\":3754:3759  value */\n      dup6\n        /* \"@openzeppelin/contracts@5.0.2/token/ERC20/ERC20.sol\":3733:3742  _transfer */\n      tag_114\n        /* \"@openzeppelin/contracts@5.0.2/token/ERC20/ERC20.sol\":3733:3760  _transfer(owner, to, value) */\n      jump\t// in\n        /* \"@openzeppelin/contracts@5.0.2/token/ERC20/extensions/ERC20Permit.sol\":1680:2352  function permit(... */\n    tag_87:\n        /* \"@openzeppelin/contracts@5.0.2/token/ERC20/extensions/ERC20Permit.sol\":1901:1909  deadline */\n      dup4\n        /* \"@openzeppelin/contracts@5.0.2/token/ERC20/extensions/ERC20Permit.sol\":1883:1898  block.timestamp */\n      timestamp\n        /* \"@openzeppelin/contracts@5.0.2/token/ERC20/extensions/ERC20Permit.sol\":1883:1909  block.timestamp > deadline */\n      gt\n        /* \"@openzeppelin/contracts@5.0.2/token/ERC20/extensions/ERC20Permit.sol\":1879:1976  if (block.timestamp > deadline) {... */\n      iszero\n      tag_157\n      jumpi\n        /* \"@openzeppelin/contracts@5.0.2/token/ERC20/extensions/ERC20Permit.sol\":1932:1965  ERC2612ExpiredSignature(deadline) */\n      mload(0x40)\n      shl(0xe1, 0x313c8981)\n      dup2\n      mstore\n      0x04\n      dup2\n      add\n        /* \"#utility.yul\":1354:1379   */\n      dup6\n      swap1\n      mstore\n        /* \"#utility.yul\":1327:1345   */\n      0x24\n      add\n        /* \"@openzeppelin/contracts@5.0.2/token/ERC20/extensions/ERC20Permit.sol\":1932:1965  ERC2612ExpiredSignature(deadline) */\n    tag_158:\n      mload(0x40)\n      dup1\n      swap2\n      sub\n      swap1\n      revert\n        /* \"@openzeppelin/contracts@5.0.2/token/ERC20/extensions/ERC20Permit.sol\":1879:1976  if (block.timestamp > deadline) {... */\n    tag_157:\n        /* \"@openzeppelin/contracts@5.0.2/token/ERC20/extensions/ERC20Permit.sol\":1986:2004  bytes32 structHash */\n      0x00\n        /* \"@openzeppelin/contracts@5.0.2/token/ERC20/extensions/ERC20Permit.sol\":1022:1117  keccak256(\"Permit(address owner,address spender,uint256 value,uint256 nonce,uint256 deadline)\") */\n      0x6e71edae12b1b97f4d1f60370fef10105fa2faae0126114a169c64845d6126c9\n        /* \"@openzeppelin/contracts@5.0.2/token/ERC20/extensions/ERC20Permit.sol\":2045:2050  owner */\n      dup9\n        /* \"@openzeppelin/contracts@5.0.2/token/ERC20/extensions/ERC20Permit.sol\":2052:2059  spender */\n      dup9\n        /* \"@openzeppelin/contracts@5.0.2/token/ERC20/extensions/ERC20Permit.sol\":2061:2066  value */\n      dup9\n        /* \"@openzeppelin/contracts@5.0.2/token/ERC20/extensions/ERC20Permit.sol\":2068:2084  _useNonce(owner) */\n      tag_159\n        /* \"@openzeppelin/contracts@5.0.2/token/ERC20/extensions/ERC20Permit.sol\":2078:2083  owner */\n      dup13\n      sub(shl(0xa0, 0x01), 0x01)\n        /* \"@openzeppelin/contracts@5.0.2/utils/Nonces.sol\":1121:1135  _nonces[owner] */\n      and\n        /* \"@openzeppelin/contracts@5.0.2/utils/Nonces.sol\":819:826  uint256 */\n      0x00\n        /* \"@openzeppelin/contracts@5.0.2/utils/Nonces.sol\":1121:1135  _nonces[owner] */\n      swap1\n      dup2\n      mstore\n        /* \"@openzeppelin/contracts@5.0.2/utils/Nonces.sol\":1121:1128  _nonces */\n      0x07\n        /* \"@openzeppelin/contracts@5.0.2/utils/Nonces.sol\":1121:1135  _nonces[owner] */\n      0x20\n      mstore\n      0x40\n      swap1\n      keccak256\n        /* \"@openzeppelin/contracts@5.0.2/utils/Nonces.sol\":1121:1137  _nonces[owner]++ */\n      dup1\n      sload\n      0x01\n      dup2\n      add\n      swap1\n      swap2\n      sstore\n      swap1\n        /* \"@openzeppelin/contracts@5.0.2/utils/Nonces.sol\":759:1154  function _useNonce(address owner) internal virtual returns (uint256) {... */\n      jump\n        /* \"@openzeppelin/contracts@5.0.2/token/ERC20/extensions/ERC20Permit.sol\":2068:2084  _useNonce(owner) */\n    tag_159:\n        /* \"@openzeppelin/contracts@5.0.2/token/ERC20/extensions/ERC20Permit.sol\":2017:2095  abi.encode(PERMIT_TYPEHASH, owner, spender, value, _useNonce(owner), deadline) */\n      0x40\n      dup1\n      mload\n      0x20\n      dup2\n      add\n        /* \"#utility.yul\":5990:6015   */\n      swap7\n      swap1\n      swap7\n      mstore\n      sub(shl(0xa0, 0x01), 0x01)\n        /* \"#utility.yul\":6051:6083   */\n      swap5\n      dup6\n      and\n        /* \"#utility.yul\":6031:6049   */\n      swap1\n      dup7\n      add\n        /* \"#utility.yul\":6024:6084   */\n      mstore\n        /* \"#utility.yul\":6120:6152   */\n      swap3\n      swap1\n      swap2\n      and\n        /* \"#utility.yul\":6100:6118   */\n      0x60\n      dup5\n      add\n        /* \"#utility.yul\":6093:6153   */\n      mstore\n        /* \"#utility.yul\":6169:6187   */\n      0x80\n      dup4\n      add\n        /* \"#utility.yul\":6162:6196   */\n      mstore\n        /* \"#utility.yul\":6212:6231   */\n      0xa0\n      dup3\n      add\n        /* \"#utility.yul\":6205:6240   */\n      mstore\n        /* \"#utility.yul\":6256:6275   */\n      0xc0\n      dup2\n      add\n        /* \"#utility.yul\":6249:6284   */\n      dup7\n      swap1\n      mstore\n        /* \"#utility.yul\":5962:5981   */\n      0xe0\n      add\n        /* \"@openzeppelin/contracts@5.0.2/token/ERC20/extensions/ERC20Permit.sol\":2017:2095  abi.encode(PERMIT_TYPEHASH, owner, spender, value, _useNonce(owner), deadline) */\n      mload(0x40)\n      0x20\n      dup2\n      dup4\n      sub\n      sub\n      dup2\n      mstore\n      swap1\n      0x40\n      mstore\n        /* \"@openzeppelin/contracts@5.0.2/token/ERC20/extensions/ERC20Permit.sol\":2007:2096  keccak256(abi.encode(PERMIT_TYPEHASH, owner, spender, value, _useNonce(owner), deadline)) */\n      dup1\n      mload\n      swap1\n      0x20\n      add\n      keccak256\n        /* \"@openzeppelin/contracts@5.0.2/token/ERC20/extensions/ERC20Permit.sol\":1986:2096  bytes32 structHash = keccak256(abi.encode(PERMIT_TYPEHASH, owner, spender, value, _useNonce(owner), deadline)) */\n      swap1\n      pop\n        /* \"@openzeppelin/contracts@5.0.2/token/ERC20/extensions/ERC20Permit.sol\":2107:2119  bytes32 hash */\n      0x00\n        /* \"@openzeppelin/contracts@5.0.2/token/ERC20/extensions/ERC20Permit.sol\":2122:2150  _hashTypedDataV4(structHash) */\n      tag_163\n        /* \"@openzeppelin/contracts@5.0.2/token/ERC20/extensions/ERC20Permit.sol\":2139:2149  structHash */\n      dup3\n        /* \"@openzeppelin/contracts@5.0.2/token/ERC20/extensions/ERC20Permit.sol\":2122:2138  _hashTypedDataV4 */\n      tag_164\n        /* \"@openzeppelin/contracts@5.0.2/token/ERC20/extensions/ERC20Permit.sol\":2122:2150  _hashTypedDataV4(structHash) */\n      jump\t// in\n    tag_163:\n        /* \"@openzeppelin/contracts@5.0.2/token/ERC20/extensions/ERC20Permit.sol\":2107:2150  bytes32 hash = _hashTypedDataV4(structHash) */\n      swap1\n      pop\n        /* \"@openzeppelin/contracts@5.0.2/token/ERC20/extensions/ERC20Permit.sol\":2161:2175  address signer */\n      0x00\n        /* \"@openzeppelin/contracts@5.0.2/token/ERC20/extensions/ERC20Permit.sol\":2178:2206  ECDSA.recover(hash, v, r, s) */\n      tag_165\n        /* \"@openzeppelin/contracts@5.0.2/token/ERC20/extensions/ERC20Permit.sol\":2192:2196  hash */\n      dup3\n        /* \"@openzeppelin/contracts@5.0.2/token/ERC20/extensions/ERC20Permit.sol\":2198:2199  v */\n      dup8\n        /* \"@openzeppelin/contracts@5.0.2/token/ERC20/extensions/ERC20Permit.sol\":2201:2202  r */\n      dup8\n        /* \"@openzeppelin/contracts@5.0.2/token/ERC20/extensions/ERC20Permit.sol\":2204:2205  s */\n      dup8\n        /* \"@openzeppelin/contracts@5.0.2/token/ERC20/extensions/ERC20Permit.sol\":2178:2191  ECDSA.recover */\n      tag_166\n        /* \"@openzeppelin/contracts@5.0.2/token/ERC20/extensions/ERC20Permit.sol\":2178:2206  ECDSA.recover(hash, v, r, s) */\n      jump\t// in\n    tag_165:\n        /* \"@openzeppelin/contracts@5.0.2/token/ERC20/extensions/ERC20Permit.sol\":2161:2206  address signer = ECDSA.recover(hash, v, r, s) */\n      swap1\n      pop\n        /* \"@openzeppelin/contracts@5.0.2/token/ERC20/extensions/ERC20Permit.sol\":2230:2235  owner */\n      dup10\n      sub(shl(0xa0, 0x01), 0x01)\n        /* \"@openzeppelin/contracts@5.0.2/token/ERC20/extensions/ERC20Permit.sol\":2220:2235  signer != owner */\n      and\n        /* \"@openzeppelin/contracts@5.0.2/token/ERC20/extensions/ERC20Permit.sol\":2220:2226  signer */\n      dup2\n      sub(shl(0xa0, 0x01), 0x01)\n        /* \"@openzeppelin/contracts@5.0.2/token/ERC20/extensions/ERC20Permit.sol\":2220:2235  signer != owner */\n      and\n      eq\n        /* \"@openzeppelin/contracts@5.0.2/token/ERC20/extensions/ERC20Permit.sol\":2216:2304  if (signer != owner) {... */\n      tag_167\n      jumpi\n        /* \"@openzeppelin/contracts@5.0.2/token/ERC20/extensions/ERC20Permit.sol\":2258:2293  ERC2612InvalidSigner(signer, owner) */\n      mload(0x40)\n      shl(0xe1, 0x25c00723)\n      dup2\n      mstore\n      sub(shl(0xa0, 0x01), 0x01)\n        /* \"#utility.yul\":6487:6519   */\n      dup1\n      dup4\n      and\n        /* \"@openzeppelin/contracts@5.0.2/token/ERC20/extensions/ERC20Permit.sol\":2258:2293  ERC2612InvalidSigner(signer, owner) */\n      0x04\n      dup4\n      add\n        /* \"#utility.yul\":6469:6520   */\n      mstore\n        /* \"#utility.yul\":6556:6588   */\n      dup12\n      and\n        /* \"#utility.yul\":6536:6554   */\n      0x24\n      dup3\n      add\n        /* \"#utility.yul\":6529:6589   */\n      mstore\n        /* \"#utility.yul\":6442:6460   */\n      0x44\n      add\n        /* \"@openzeppelin/contracts@5.0.2/token/ERC20/extensions/ERC20Permit.sol\":2258:2293  ERC2612InvalidSigner(signer, owner) */\n      tag_158\n        /* \"#utility.yul\":6295:6595   */\n      jump\n        /* \"@openzeppelin/contracts@5.0.2/token/ERC20/extensions/ERC20Permit.sol\":2216:2304  if (signer != owner) {... */\n    tag_167:\n        /* \"@openzeppelin/contracts@5.0.2/token/ERC20/extensions/ERC20Permit.sol\":2314:2345  _approve(owner, spender, value) */\n      tag_170\n        /* \"@openzeppelin/contracts@5.0.2/token/ERC20/extensions/ERC20Permit.sol\":2323:2328  owner */\n      dup11\n        /* \"@openzeppelin/contracts@5.0.2/token/ERC20/extensions/ERC20Permit.sol\":2330:2337  spender */\n      dup11\n        /* \"@openzeppelin/contracts@5.0.2/token/ERC20/extensions/ERC20Permit.sol\":2339:2344  value */\n      dup11\n        /* \"@openzeppelin/contracts@5.0.2/token/ERC20/extensions/ERC20Permit.sol\":2314:2322  _approve */\n      tag_107\n        /* \"@openzeppelin/contracts@5.0.2/token/ERC20/extensions/ERC20Permit.sol\":2314:2345  _approve(owner, spender, value) */\n      jump\t// in\n    tag_170:\n        /* \"@openzeppelin/contracts@5.0.2/token/ERC20/extensions/ERC20Permit.sol\":1869:2352  {... */\n      pop\n      pop\n      pop\n        /* \"@openzeppelin/contracts@5.0.2/token/ERC20/extensions/ERC20Permit.sol\":1680:2352  function permit(... */\n      pop\n      pop\n      pop\n      pop\n      pop\n      pop\n      pop\n      jump\t// out\n        /* \"@openzeppelin/contracts@5.0.2/access/Ownable.sol\":2543:2758  function transferOwnership(address newOwner) public virtual onlyOwner {... */\n    tag_95:\n        /* \"@openzeppelin/contracts@5.0.2/access/Ownable.sol\":1531:1544  _checkOwner() */\n      tag_173\n        /* \"@openzeppelin/contracts@5.0.2/access/Ownable.sol\":1531:1542  _checkOwner */\n      tag_126\n        /* \"@openzeppelin/contracts@5.0.2/access/Ownable.sol\":1531:1544  _checkOwner() */\n      jump\t// in\n    tag_173:\n      sub(shl(0xa0, 0x01), 0x01)\n        /* \"@openzeppelin/contracts@5.0.2/access/Ownable.sol\":2627:2649  newOwner == address(0) */\n      dup2\n      and\n        /* \"@openzeppelin/contracts@5.0.2/access/Ownable.sol\":2623:2714  if (newOwner == address(0)) {... */\n      tag_175\n      jumpi\n        /* \"@openzeppelin/contracts@5.0.2/access/Ownable.sol\":2672:2703  OwnableInvalidOwner(address(0)) */\n      mload(0x40)\n      shl(0xe0, 0x1e4fbdf7)\n      dup2\n      mstore\n        /* \"@openzeppelin/contracts@5.0.2/access/Ownable.sol\":2700:2701  0 */\n      0x00\n        /* \"@openzeppelin/contracts@5.0.2/access/Ownable.sol\":2672:2703  OwnableInvalidOwner(address(0)) */\n      0x04\n      dup3\n      add\n        /* \"#utility.yul\":3951:4002   */\n      mstore\n        /* \"#utility.yul\":3924:3942   */\n      0x24\n      add\n        /* \"@openzeppelin/contracts@5.0.2/access/Ownable.sol\":2672:2703  OwnableInvalidOwner(address(0)) */\n      tag_158\n        /* \"#utility.yul\":3805:4008   */\n      jump\n        /* \"@openzeppelin/contracts@5.0.2/access/Ownable.sol\":2623:2714  if (newOwner == address(0)) {... */\n    tag_175:\n        /* \"@openzeppelin/contracts@5.0.2/access/Ownable.sol\":2723:2751  _transferOwnership(newOwner) */\n      tag_120\n        /* \"@openzeppelin/contracts@5.0.2/access/Ownable.sol\":2742:2750  newOwner */\n      dup2\n        /* \"@openzeppelin/contracts@5.0.2/access/Ownable.sol\":2723:2741  _transferOwnership */\n      tag_129\n        /* \"@openzeppelin/contracts@5.0.2/access/Ownable.sol\":2723:2751  _transferOwnership(newOwner) */\n      jump\t// in\n        /* \"@openzeppelin/contracts@5.0.2/token/ERC20/ERC20.sol\":8989:9117  function _approve(address owner, address spender, uint256 value) internal {... */\n    tag_107:\n        /* \"@openzeppelin/contracts@5.0.2/token/ERC20/ERC20.sol\":9073:9110  _approve(owner, spender, value, true) */\n      tag_180\n        /* \"@openzeppelin/contracts@5.0.2/token/ERC20/ERC20.sol\":9082:9087  owner */\n      dup4\n        /* \"@openzeppelin/contracts@5.0.2/token/ERC20/ERC20.sol\":9089:9096  spender */\n      dup4\n        /* \"@openzeppelin/contracts@5.0.2/token/ERC20/ERC20.sol\":9098:9103  value */\n      dup4\n        /* \"@openzeppelin/contracts@5.0.2/token/ERC20/ERC20.sol\":9105:9109  true */\n      0x01\n        /* \"@openzeppelin/contracts@5.0.2/token/ERC20/ERC20.sol\":9073:9081  _approve */\n      tag_181\n        /* \"@openzeppelin/contracts@5.0.2/token/ERC20/ERC20.sol\":9073:9110  _approve(owner, spender, value, true) */\n      jump\t// in\n    tag_180:\n        /* \"@openzeppelin/contracts@5.0.2/token/ERC20/ERC20.sol\":8989:9117  function _approve(address owner, address spender, uint256 value) internal {... */\n      pop\n      pop\n      pop\n      jump\t// out\n        /* \"@openzeppelin/contracts@5.0.2/token/ERC20/ERC20.sol\":10663:11140  function _spendAllowance(address owner, address spender, uint256 value) internal virtual {... */\n    tag_112:\n      sub(shl(0xa0, 0x01), 0x01)\n        /* \"@openzeppelin/contracts@5.0.2/token/ERC20/ERC20.sol\":3952:3970  _allowances[owner] */\n      dup4\n      dup2\n      and\n        /* \"@openzeppelin/contracts@5.0.2/token/ERC20/ERC20.sol\":10762:10786  uint256 currentAllowance */\n      0x00\n        /* \"@openzeppelin/contracts@5.0.2/token/ERC20/ERC20.sol\":3952:3970  _allowances[owner] */\n      swap1\n      dup2\n      mstore\n        /* \"@openzeppelin/contracts@5.0.2/token/ERC20/ERC20.sol\":3952:3963  _allowances */\n      0x01\n        /* \"@openzeppelin/contracts@5.0.2/token/ERC20/ERC20.sol\":3952:3970  _allowances[owner] */\n      0x20\n      swap1\n      dup2\n      mstore\n      0x40\n      dup1\n      dup4\n      keccak256\n        /* \"@openzeppelin/contracts@5.0.2/token/ERC20/ERC20.sol\":3952:3979  _allowances[owner][spender] */\n      swap4\n      dup7\n      and\n      dup4\n      mstore\n      swap3\n      swap1\n      mstore\n      keccak256\n      sload\n      not(0x00)\n        /* \"@openzeppelin/contracts@5.0.2/token/ERC20/ERC20.sol\":10828:10865  currentAllowance != type(uint256).max */\n      dup2\n      eq\n        /* \"@openzeppelin/contracts@5.0.2/token/ERC20/ERC20.sol\":10824:11134  if (currentAllowance != type(uint256).max) {... */\n      tag_188\n      jumpi\n        /* \"@openzeppelin/contracts@5.0.2/token/ERC20/ERC20.sol\":10904:10909  value */\n      dup2\n        /* \"@openzeppelin/contracts@5.0.2/token/ERC20/ERC20.sol\":10885:10901  currentAllowance */\n      dup2\n        /* \"@openzeppelin/contracts@5.0.2/token/ERC20/ERC20.sol\":10885:10909  currentAllowance < value */\n      lt\n        /* \"@openzeppelin/contracts@5.0.2/token/ERC20/ERC20.sol\":10881:11011  if (currentAllowance < value) {... */\n      iszero\n      tag_185\n      jumpi\n        /* \"@openzeppelin/contracts@5.0.2/token/ERC20/ERC20.sol\":10936:10996  ERC20InsufficientAllowance(spender, currentAllowance, value) */\n      mload(0x40)\n      shl(0xe1, 0x7dc7a0d9)\n      dup2\n      mstore\n      sub(shl(0xa0, 0x01), 0x01)\n        /* \"#utility.yul\":6820:6852   */\n      dup5\n      and\n        /* \"@openzeppelin/contracts@5.0.2/token/ERC20/ERC20.sol\":10936:10996  ERC20InsufficientAllowance(spender, currentAllowance, value) */\n      0x04\n      dup3\n      add\n        /* \"#utility.yul\":6802:6853   */\n      mstore\n        /* \"#utility.yul\":6869:6887   */\n      0x24\n      dup2\n      add\n        /* \"#utility.yul\":6862:6896   */\n      dup3\n      swap1\n      mstore\n        /* \"#utility.yul\":6912:6930   */\n      0x44\n      dup2\n      add\n        /* \"#utility.yul\":6905:6939   */\n      dup4\n      swap1\n      mstore\n        /* \"#utility.yul\":6775:6793   */\n      0x64\n      add\n        /* \"@openzeppelin/contracts@5.0.2/token/ERC20/ERC20.sol\":10936:10996  ERC20InsufficientAllowance(spender, currentAllowance, value) */\n      tag_158\n        /* \"#utility.yul\":6600:6945   */\n      jump\n        /* \"@openzeppelin/contracts@5.0.2/token/ERC20/ERC20.sol\":10881:11011  if (currentAllowance < value) {... */\n    tag_185:\n        /* \"@openzeppelin/contracts@5.0.2/token/ERC20/ERC20.sol\":11052:11109  _approve(owner, spender, currentAllowance - value, false) */\n      tag_188\n        /* \"@openzeppelin/contracts@5.0.2/token/ERC20/ERC20.sol\":11061:11066  owner */\n      dup5\n        /* \"@openzeppelin/contracts@5.0.2/token/ERC20/ERC20.sol\":11068:11075  spender */\n      dup5\n        /* \"@openzeppelin/contracts@5.0.2/token/ERC20/ERC20.sol\":11096:11101  value */\n      dup5\n        /* \"@openzeppelin/contracts@5.0.2/token/ERC20/ERC20.sol\":11077:11093  currentAllowance */\n      dup5\n        /* \"@openzeppelin/contracts@5.0.2/token/ERC20/ERC20.sol\":11077:11101  currentAllowance - value */\n      sub\n        /* \"@openzeppelin/contracts@5.0.2/token/ERC20/ERC20.sol\":11103:11108  false */\n      0x00\n        /* \"@openzeppelin/contracts@5.0.2/token/ERC20/ERC20.sol\":11052:11060  _approve */\n      tag_181\n        /* \"@openzeppelin/contracts@5.0.2/token/ERC20/ERC20.sol\":11052:11109  _approve(owner, spender, currentAllowance - value, false) */\n      jump\t// in\n    tag_188:\n        /* \"@openzeppelin/contracts@5.0.2/token/ERC20/ERC20.sol\":10752:11140  {... */\n      pop\n        /* \"@openzeppelin/contracts@5.0.2/token/ERC20/ERC20.sol\":10663:11140  function _spendAllowance(address owner, address spender, uint256 value) internal virtual {... */\n      pop\n      pop\n      pop\n      jump\t// out\n        /* \"@openzeppelin/contracts@5.0.2/token/ERC20/ERC20.sol\":5656:5956  function _transfer(address from, address to, uint256 value) internal {... */\n    tag_114:\n      sub(shl(0xa0, 0x01), 0x01)\n        /* \"@openzeppelin/contracts@5.0.2/token/ERC20/ERC20.sol\":5739:5757  from == address(0) */\n      dup4\n      and\n        /* \"@openzeppelin/contracts@5.0.2/token/ERC20/ERC20.sol\":5735:5821  if (from == address(0)) {... */\n      tag_190\n      jumpi\n        /* \"@openzeppelin/contracts@5.0.2/token/ERC20/ERC20.sol\":5780:5810  ERC20InvalidSender(address(0)) */\n      mload(0x40)\n      shl(0xe1, 0x4b637e8f)\n      dup2\n      mstore\n        /* \"@openzeppelin/contracts@5.0.2/token/ERC20/ERC20.sol\":5807:5808  0 */\n      0x00\n        /* \"@openzeppelin/contracts@5.0.2/token/ERC20/ERC20.sol\":5780:5810  ERC20InvalidSender(address(0)) */\n      0x04\n      dup3\n      add\n        /* \"#utility.yul\":3951:4002   */\n      mstore\n        /* \"#utility.yul\":3924:3942   */\n      0x24\n      add\n        /* \"@openzeppelin/contracts@5.0.2/token/ERC20/ERC20.sol\":5780:5810  ERC20InvalidSender(address(0)) */\n      tag_158\n        /* \"#utility.yul\":3805:4008   */\n      jump\n        /* \"@openzeppelin/contracts@5.0.2/token/ERC20/ERC20.sol\":5735:5821  if (from == address(0)) {... */\n    tag_190:\n      sub(shl(0xa0, 0x01), 0x01)\n        /* \"@openzeppelin/contracts@5.0.2/token/ERC20/ERC20.sol\":5834:5850  to == address(0) */\n      dup3\n      and\n        /* \"@openzeppelin/contracts@5.0.2/token/ERC20/ERC20.sol\":5830:5916  if (to == address(0)) {... */\n      tag_192\n      jumpi\n        /* \"@openzeppelin/contracts@5.0.2/token/ERC20/ERC20.sol\":5873:5905  ERC20InvalidReceiver(address(0)) */\n      mload(0x40)\n      shl(0xe0, 0xec442f05)\n      dup2\n      mstore\n        /* \"@openzeppelin/contracts@5.0.2/token/ERC20/ERC20.sol\":5902:5903  0 */\n      0x00\n        /* \"@openzeppelin/contracts@5.0.2/token/ERC20/ERC20.sol\":5873:5905  ERC20InvalidReceiver(address(0)) */\n      0x04\n      dup3\n      add\n        /* \"#utility.yul\":3951:4002   */\n      mstore\n        /* \"#utility.yul\":3924:3942   */\n      0x24\n      add\n        /* \"@openzeppelin/contracts@5.0.2/token/ERC20/ERC20.sol\":5873:5905  ERC20InvalidReceiver(address(0)) */\n      tag_158\n        /* \"#utility.yul\":3805:4008   */\n      jump\n        /* \"@openzeppelin/contracts@5.0.2/token/ERC20/ERC20.sol\":5830:5916  if (to == address(0)) {... */\n    tag_192:\n        /* \"@openzeppelin/contracts@5.0.2/token/ERC20/ERC20.sol\":5925:5949  _update(from, to, value) */\n      tag_180\n        /* \"@openzeppelin/contracts@5.0.2/token/ERC20/ERC20.sol\":5933:5937  from */\n      dup4\n        /* \"@openzeppelin/contracts@5.0.2/token/ERC20/ERC20.sol\":5939:5941  to */\n      dup4\n        /* \"@openzeppelin/contracts@5.0.2/token/ERC20/ERC20.sol\":5943:5948  value */\n      dup4\n        /* \"@openzeppelin/contracts@5.0.2/token/ERC20/ERC20.sol\":5925:5932  _update */\n      tag_195\n        /* \"@openzeppelin/contracts@5.0.2/token/ERC20/ERC20.sol\":5925:5949  _update(from, to, value) */\n      jump\t// in\n        /* \"@openzeppelin/contracts@5.0.2/utils/cryptography/EIP712.sol\":3845:4107  function _domainSeparatorV4() internal view returns (bytes32) {... */\n    tag_118:\n        /* \"@openzeppelin/contracts@5.0.2/utils/cryptography/EIP712.sol\":3898:3905  bytes32 */\n      0x00\n        /* \"@openzeppelin/contracts@5.0.2/utils/cryptography/EIP712.sol\":3929:3933  this */\n      address\n      sub(shl(0xa0, 0x01), 0x01)\n        /* \"@openzeppelin/contracts@5.0.2/utils/cryptography/EIP712.sol\":3938:3949  _cachedThis */\n      immutable(\"0xf73cad1bd82f5ecfaa44e643676c8bc2dbfff68b10bdfd2ece012251191c9803\")\n        /* \"@openzeppelin/contracts@5.0.2/utils/cryptography/EIP712.sol\":3921:3949  address(this) == _cachedThis */\n      and\n      eq\n        /* \"@openzeppelin/contracts@5.0.2/utils/cryptography/EIP712.sol\":3921:3984  address(this) == _cachedThis && block.chainid == _cachedChainId */\n      dup1\n      iszero\n      tag_197\n      jumpi\n      pop\n        /* \"@openzeppelin/contracts@5.0.2/utils/cryptography/EIP712.sol\":3970:3984  _cachedChainId */\n      immutable(\"0xfd6071d659db89e8c5cd76f742b98262bad343c48d8e112fec697f28b0f6a85d\")\n        /* \"@openzeppelin/contracts@5.0.2/utils/cryptography/EIP712.sol\":3953:3966  block.chainid */\n      chainid\n        /* \"@openzeppelin/contracts@5.0.2/utils/cryptography/EIP712.sol\":3953:3984  block.chainid == _cachedChainId */\n      eq\n        /* \"@openzeppelin/contracts@5.0.2/utils/cryptography/EIP712.sol\":3921:3984  address(this) == _cachedThis && block.chainid == _cachedChainId */\n    tag_197:\n        /* \"@openzeppelin/contracts@5.0.2/utils/cryptography/EIP712.sol\":3917:4101  if (address(this) == _cachedThis && block.chainid == _cachedChainId) {... */\n      iszero\n      tag_198\n      jumpi\n      pop\n        /* \"@openzeppelin/contracts@5.0.2/utils/cryptography/EIP712.sol\":4007:4029  _cachedDomainSeparator */\n      immutable(\"0x0c33b51a7fc957312a3715e50adff78df156f236b317db19e164c2154d0c029f\")\n      swap1\n        /* \"@openzeppelin/contracts@5.0.2/utils/cryptography/EIP712.sol\":3845:4107  function _domainSeparatorV4() internal view returns (bytes32) {... */\n      jump\t// out\n        /* \"@openzeppelin/contracts@5.0.2/utils/cryptography/EIP712.sol\":3917:4101  if (address(this) == _cachedThis && block.chainid == _cachedChainId) {... */\n    tag_198:\n        /* \"@openzeppelin/contracts@5.0.2/utils/cryptography/EIP712.sol\":4067:4090  _buildDomainSeparator() */\n      tag_117\n        /* \"@openzeppelin/contracts@5.0.2/utils/cryptography/EIP712.sol\":4204:4284  abi.encode(TYPE_HASH, _hashedName, _hashedVersion, block.chainid, address(this)) */\n      0x40\n      dup1\n      mload\n        /* \"@openzeppelin/contracts@5.0.2/utils/cryptography/EIP712.sol\":2079:2174  keccak256(\"EIP712Domain(string name,string version,uint256 chainId,address verifyingContract)\") */\n      0x8b73c3c69bb8fe3d512ecc4cf759cc79239f7b179b0ffacaa9a75d522b39400f\n        /* \"@openzeppelin/contracts@5.0.2/utils/cryptography/EIP712.sol\":4204:4284  abi.encode(TYPE_HASH, _hashedName, _hashedVersion, block.chainid, address(this)) */\n      0x20\n      dup3\n      add\n        /* \"#utility.yul\":7436:7461   */\n      mstore\n        /* \"@openzeppelin/contracts@5.0.2/utils/cryptography/EIP712.sol\":4226:4237  _hashedName */\n      immutable(\"0xbc3ba252f8041edd3ef6da5977b996ba149c3c4e1b7a0e1b1cfeb5ce24e1a570\")\n        /* \"#utility.yul\":7477:7495   */\n      swap2\n      dup2\n      add\n        /* \"#utility.yul\":7470:7504   */\n      swap2\n      swap1\n      swap2\n      mstore\n        /* \"@openzeppelin/contracts@5.0.2/utils/cryptography/EIP712.sol\":4239:4253  _hashedVersion */\n      immutable(\"0xdf2d24c2d874d48b2dabce9e2d6532f89ac89bcd3a2fa18c072f46a075054de9\")\n        /* \"#utility.yul\":7520:7538   */\n      0x60\n      dup3\n      add\n        /* \"#utility.yul\":7513:7547   */\n      mstore\n        /* \"@openzeppelin/contracts@5.0.2/utils/cryptography/EIP712.sol\":4255:4268  block.chainid */\n      chainid\n        /* \"#utility.yul\":7563:7581   */\n      0x80\n      dup3\n      add\n        /* \"#utility.yul\":7556:7590   */\n      mstore\n        /* \"@openzeppelin/contracts@5.0.2/utils/cryptography/EIP712.sol\":4278:4282  this */\n      address\n        /* \"#utility.yul\":7606:7625   */\n      0xa0\n      dup3\n      add\n        /* \"#utility.yul\":7599:7660   */\n      mstore\n        /* \"@openzeppelin/contracts@5.0.2/utils/cryptography/EIP712.sol\":4168:4175  bytes32 */\n      0x00\n      swap1\n        /* \"#utility.yul\":7408:7427   */\n      0xc0\n      add\n        /* \"@openzeppelin/contracts@5.0.2/utils/cryptography/EIP712.sol\":4204:4284  abi.encode(TYPE_HASH, _hashedName, _hashedVersion, block.chainid, address(this)) */\n      mload(0x40)\n      0x20\n      dup2\n      dup4\n      sub\n      sub\n      dup2\n      mstore\n      swap1\n      0x40\n      mstore\n        /* \"@openzeppelin/contracts@5.0.2/utils/cryptography/EIP712.sol\":4194:4285  keccak256(abi.encode(TYPE_HASH, _hashedName, _hashedVersion, block.chainid, address(this))) */\n      dup1\n      mload\n      swap1\n      0x20\n      add\n      keccak256\n        /* \"@openzeppelin/contracts@5.0.2/utils/cryptography/EIP712.sol\":4187:4285  return keccak256(abi.encode(TYPE_HASH, _hashedName, _hashedVersion, block.chainid, address(this))) */\n      swap1\n      pop\n        /* \"@openzeppelin/contracts@5.0.2/utils/cryptography/EIP712.sol\":4113:4292  function _buildDomainSeparator() private view returns (bytes32) {... */\n      swap1\n      jump\n        /* \"@openzeppelin/contracts@5.0.2/token/ERC20/ERC20.sol\":8247:8453  function _burn(address account, uint256 value) internal {... */\n    tag_122:\n      sub(shl(0xa0, 0x01), 0x01)\n        /* \"@openzeppelin/contracts@5.0.2/token/ERC20/ERC20.sol\":8317:8338  account == address(0) */\n      dup3\n      and\n        /* \"@openzeppelin/contracts@5.0.2/token/ERC20/ERC20.sol\":8313:8402  if (account == address(0)) {... */\n      tag_203\n      jumpi\n        /* \"@openzeppelin/contracts@5.0.2/token/ERC20/ERC20.sol\":8361:8391  ERC20InvalidSender(address(0)) */\n      mload(0x40)\n      shl(0xe1, 0x4b637e8f)\n      dup2\n      mstore\n        /* \"@openzeppelin/contracts@5.0.2/token/ERC20/ERC20.sol\":8388:8389  0 */\n      0x00\n        /* \"@openzeppelin/contracts@5.0.2/token/ERC20/ERC20.sol\":8361:8391  ERC20InvalidSender(address(0)) */\n      0x04\n      dup3\n      add\n        /* \"#utility.yul\":3951:4002   */\n      mstore\n        /* \"#utility.yul\":3924:3942   */\n      0x24\n      add\n        /* \"@openzeppelin/contracts@5.0.2/token/ERC20/ERC20.sol\":8361:8391  ERC20InvalidSender(address(0)) */\n      tag_158\n        /* \"#utility.yul\":3805:4008   */\n      jump\n        /* \"@openzeppelin/contracts@5.0.2/token/ERC20/ERC20.sol\":8313:8402  if (account == address(0)) {... */\n    tag_203:\n        /* \"@openzeppelin/contracts@5.0.2/token/ERC20/ERC20.sol\":8411:8446  _update(account, address(0), value) */\n      tag_133\n        /* \"@openzeppelin/contracts@5.0.2/token/ERC20/ERC20.sol\":8419:8426  account */\n      dup3\n        /* \"@openzeppelin/contracts@5.0.2/token/ERC20/ERC20.sol\":8436:8437  0 */\n      0x00\n        /* \"@openzeppelin/contracts@5.0.2/token/ERC20/ERC20.sol\":8440:8445  value */\n      dup4\n        /* \"@openzeppelin/contracts@5.0.2/token/ERC20/ERC20.sol\":8411:8418  _update */\n      tag_195\n        /* \"@openzeppelin/contracts@5.0.2/token/ERC20/ERC20.sol\":8411:8446  _update(account, address(0), value) */\n      jump\t// in\n        /* \"@openzeppelin/contracts@5.0.2/access/Ownable.sol\":1796:1958  function _checkOwner() internal view virtual {... */\n    tag_126:\n        /* \"@openzeppelin/contracts@5.0.2/access/Ownable.sol\":1710:1716  _owner */\n      and(sub(shl(0xa0, 0x01), 0x01), sload(0x08))\n        /* \"@openzeppelin/contracts@5.0.2/utils/Context.sol\":735:745  msg.sender */\n      caller\n        /* \"@openzeppelin/contracts@5.0.2/access/Ownable.sol\":1855:1878  owner() != _msgSender() */\n      eq\n        /* \"@openzeppelin/contracts@5.0.2/access/Ownable.sol\":1851:1952  if (owner() != _msgSender()) {... */\n      tag_128\n      jumpi\n        /* \"@openzeppelin/contracts@5.0.2/access/Ownable.sol\":1901:1941  OwnableUnauthorizedAccount(_msgSender()) */\n      mload(0x40)\n      shl(0xe0, 0x118cdaa7)\n      dup2\n      mstore\n        /* \"@openzeppelin/contracts@5.0.2/utils/Context.sol\":735:745  msg.sender */\n      caller\n        /* \"@openzeppelin/contracts@5.0.2/access/Ownable.sol\":1901:1941  OwnableUnauthorizedAccount(_msgSender()) */\n      0x04\n      dup3\n      add\n        /* \"#utility.yul\":3951:4002   */\n      mstore\n        /* \"#utility.yul\":3924:3942   */\n      0x24\n      add\n        /* \"@openzeppelin/contracts@5.0.2/access/Ownable.sol\":1901:1941  OwnableUnauthorizedAccount(_msgSender()) */\n      tag_158\n        /* \"#utility.yul\":3805:4008   */\n      jump\n        /* \"@openzeppelin/contracts@5.0.2/access/Ownable.sol\":2912:3099  function _transferOwnership(address newOwner) internal virtual {... */\n    tag_129:\n        /* \"@openzeppelin/contracts@5.0.2/access/Ownable.sol\":3004:3010  _owner */\n      0x08\n      dup1\n      sload\n      sub(shl(0xa0, 0x01), 0x01)\n        /* \"@openzeppelin/contracts@5.0.2/access/Ownable.sol\":3020:3037  _owner = newOwner */\n      dup4\n      dup2\n      and\n      not(sub(shl(0xa0, 0x01), 0x01))\n      dup4\n      and\n      dup2\n      or\n      swap1\n      swap4\n      sstore\n        /* \"@openzeppelin/contracts@5.0.2/access/Ownable.sol\":3052:3092  OwnershipTransferred(oldOwner, newOwner) */\n      mload(0x40)\n        /* \"@openzeppelin/contracts@5.0.2/access/Ownable.sol\":3004:3010  _owner */\n      swap2\n      and\n      swap2\n        /* \"@openzeppelin/contracts@5.0.2/access/Ownable.sol\":3020:3037  _owner = newOwner */\n      swap1\n        /* \"@openzeppelin/contracts@5.0.2/access/Ownable.sol\":3004:3010  _owner */\n      dup3\n      swap1\n        /* \"@openzeppelin/contracts@5.0.2/access/Ownable.sol\":3052:3092  OwnershipTransferred(oldOwner, newOwner) */\n      0x8be0079c531659141344cd1fd0a4f28419497f9722a3daafe3b4186f6b6457e0\n      swap1\n        /* \"@openzeppelin/contracts@5.0.2/access/Ownable.sol\":2985:3001  address oldOwner */\n      0x00\n      swap1\n        /* \"@openzeppelin/contracts@5.0.2/access/Ownable.sol\":3052:3092  OwnershipTransferred(oldOwner, newOwner) */\n      log3\n        /* \"@openzeppelin/contracts@5.0.2/access/Ownable.sol\":2975:3099  {... */\n      pop\n        /* \"@openzeppelin/contracts@5.0.2/access/Ownable.sol\":2912:3099  function _transferOwnership(address newOwner) internal virtual {... */\n      pop\n      jump\t// out\n        /* \"@openzeppelin/contracts@5.0.2/utils/cryptography/EIP712.sol\":6021:6147  function _EIP712Name() internal view returns (string memory) {... */\n    tag_139:\n        /* \"@openzeppelin/contracts@5.0.2/utils/cryptography/EIP712.sol\":6067:6080  string memory */\n      0x60\n        /* \"@openzeppelin/contracts@5.0.2/utils/cryptography/EIP712.sol\":6099:6140  _name.toStringWithFallback(_nameFallback) */\n      tag_117\n        /* \"@openzeppelin/contracts@5.0.2/utils/cryptography/EIP712.sol\":6099:6104  _name */\n      immutable(\"0x1a9d81b69a492c90d45241c17e21e75a0dfce976e6e4f4787646342d15de5831\")\n        /* \"@openzeppelin/contracts@5.0.2/utils/cryptography/EIP712.sol\":6126:6139  _nameFallback */\n      0x05\n        /* \"@openzeppelin/contracts@5.0.2/utils/cryptography/EIP712.sol\":6099:6125  _name.toStringWithFallback */\n      tag_216\n        /* \"@openzeppelin/contracts@5.0.2/utils/cryptography/EIP712.sol\":6099:6140  _name.toStringWithFallback(_nameFallback) */\n      jump\t// in\n        /* \"@openzeppelin/contracts@5.0.2/utils/cryptography/EIP712.sol\":6473:6608  function _EIP712Version() internal view returns (string memory) {... */\n    tag_141:\n        /* \"@openzeppelin/contracts@5.0.2/utils/cryptography/EIP712.sol\":6522:6535  string memory */\n      0x60\n        /* \"@openzeppelin/contracts@5.0.2/utils/cryptography/EIP712.sol\":6554:6601  _version.toStringWithFallback(_versionFallback) */\n      tag_117\n        /* \"@openzeppelin/contracts@5.0.2/utils/cryptography/EIP712.sol\":6554:6562  _version */\n      immutable(\"0x88a9212fd0f7b4413dd5e22695ef38344770f45b3083970cb665e0e17dcb0bd6\")\n        /* \"@openzeppelin/contracts@5.0.2/utils/cryptography/EIP712.sol\":6584:6600  _versionFallback */\n      0x06\n        /* \"@openzeppelin/contracts@5.0.2/utils/cryptography/EIP712.sol\":6554:6583  _version.toStringWithFallback */\n      tag_216\n        /* \"@openzeppelin/contracts@5.0.2/utils/cryptography/EIP712.sol\":6554:6601  _version.toStringWithFallback(_versionFallback) */\n      jump\t// in\n        /* \"@openzeppelin/contracts@5.0.2/utils/cryptography/EIP712.sol\":4917:5093  function _hashTypedDataV4(bytes32 structHash) internal view virtual returns (bytes32) {... */\n    tag_164:\n        /* \"@openzeppelin/contracts@5.0.2/utils/cryptography/EIP712.sol\":4994:5001  bytes32 */\n      0x00\n        /* \"@openzeppelin/contracts@5.0.2/utils/cryptography/EIP712.sol\":5020:5086  MessageHashUtils.toTypedDataHash(_domainSeparatorV4(), structHash) */\n      tag_103\n        /* \"@openzeppelin/contracts@5.0.2/utils/cryptography/EIP712.sol\":5053:5073  _domainSeparatorV4() */\n      tag_222\n        /* \"@openzeppelin/contracts@5.0.2/utils/cryptography/EIP712.sol\":5053:5071  _domainSeparatorV4 */\n      tag_118\n        /* \"@openzeppelin/contracts@5.0.2/utils/cryptography/EIP712.sol\":5053:5073  _domainSeparatorV4() */\n      jump\t// in\n    tag_222:\n        /* \"@openzeppelin/contracts@5.0.2/utils/cryptography/EIP712.sol\":5075:5085  structHash */\n      dup4\n        /* \"@openzeppelin/contracts@5.0.2/utils/cryptography/MessageHashUtils.sol\":3555:3559  0x40 */\n      0x40\n        /* \"@openzeppelin/contracts@5.0.2/utils/cryptography/MessageHashUtils.sol\":3549:3560  mload(0x40) */\n      mload\n      shl(0xf0, 0x1901)\n        /* \"@openzeppelin/contracts@5.0.2/utils/cryptography/MessageHashUtils.sol\":3573:3596  mstore(ptr, hex\"19_01\") */\n      dup2\n      mstore\n        /* \"@openzeppelin/contracts@5.0.2/utils/cryptography/MessageHashUtils.sol\":3625:3629  0x02 */\n      0x02\n        /* \"@openzeppelin/contracts@5.0.2/utils/cryptography/MessageHashUtils.sol\":3616:3630  add(ptr, 0x02) */\n      dup2\n      add\n        /* \"@openzeppelin/contracts@5.0.2/utils/cryptography/MessageHashUtils.sol\":3609:3648  mstore(add(ptr, 0x02), domainSeparator) */\n      swap3\n      swap1\n      swap3\n      mstore\n        /* \"@openzeppelin/contracts@5.0.2/utils/cryptography/MessageHashUtils.sol\":3677:3681  0x22 */\n      0x22\n        /* \"@openzeppelin/contracts@5.0.2/utils/cryptography/MessageHashUtils.sol\":3668:3682  add(ptr, 0x22) */\n      dup3\n      add\n        /* \"@openzeppelin/contracts@5.0.2/utils/cryptography/MessageHashUtils.sol\":3661:3695  mstore(add(ptr, 0x22), structHash) */\n      mstore\n        /* \"@openzeppelin/contracts@5.0.2/utils/cryptography/MessageHashUtils.sol\":3733:3737  0x42 */\n      0x42\n        /* \"@openzeppelin/contracts@5.0.2/utils/cryptography/MessageHashUtils.sol\":3718:3738  keccak256(ptr, 0x42) */\n      swap1\n      keccak256\n      swap1\n        /* \"@openzeppelin/contracts@5.0.2/utils/cryptography/MessageHashUtils.sol\":3353:3754  function toTypedDataHash(bytes32 domainSeparator, bytes32 structHash) internal pure returns (bytes32 digest) {... */\n      jump\n        /* \"@openzeppelin/contracts@5.0.2/utils/cryptography/ECDSA.sol\":6803:7063  function recover(bytes32 hash, uint8 v, bytes32 r, bytes32 s) internal pure returns (address) {... */\n    tag_166:\n        /* \"@openzeppelin/contracts@5.0.2/utils/cryptography/ECDSA.sol\":6888:6895  address */\n      0x00\n        /* \"@openzeppelin/contracts@5.0.2/utils/cryptography/ECDSA.sol\":6908:6925  address recovered */\n      dup1\n        /* \"@openzeppelin/contracts@5.0.2/utils/cryptography/ECDSA.sol\":6927:6945  RecoverError error */\n      0x00\n        /* \"@openzeppelin/contracts@5.0.2/utils/cryptography/ECDSA.sol\":6947:6963  bytes32 errorArg */\n      dup1\n        /* \"@openzeppelin/contracts@5.0.2/utils/cryptography/ECDSA.sol\":6967:6992  tryRecover(hash, v, r, s) */\n      tag_225\n        /* \"@openzeppelin/contracts@5.0.2/utils/cryptography/ECDSA.sol\":6978:6982  hash */\n      dup9\n        /* \"@openzeppelin/contracts@5.0.2/utils/cryptography/ECDSA.sol\":6984:6985  v */\n      dup9\n        /* \"@openzeppelin/contracts@5.0.2/utils/cryptography/ECDSA.sol\":6987:6988  r */\n      dup9\n        /* \"@openzeppelin/contracts@5.0.2/utils/cryptography/ECDSA.sol\":6990:6991  s */\n      dup9\n        /* \"@openzeppelin/contracts@5.0.2/utils/cryptography/ECDSA.sol\":6967:6977  tryRecover */\n      tag_226\n        /* \"@openzeppelin/contracts@5.0.2/utils/cryptography/ECDSA.sol\":6967:6992  tryRecover(hash, v, r, s) */\n      jump\t// in\n    tag_225:\n        /* \"@openzeppelin/contracts@5.0.2/utils/cryptography/ECDSA.sol\":6907:6992  (address recovered, RecoverError error, bytes32 errorArg) = tryRecover(hash, v, r, s) */\n      swap3\n      pop\n      swap3\n      pop\n      swap3\n      pop\n        /* \"@openzeppelin/contracts@5.0.2/utils/cryptography/ECDSA.sol\":7002:7030  _throwError(error, errorArg) */\n      tag_227\n        /* \"@openzeppelin/contracts@5.0.2/utils/cryptography/ECDSA.sol\":7014:7019  error */\n      dup3\n        /* \"@openzeppelin/contracts@5.0.2/utils/cryptography/ECDSA.sol\":7021:7029  errorArg */\n      dup3\n        /* \"@openzeppelin/contracts@5.0.2/utils/cryptography/ECDSA.sol\":7002:7013  _throwError */\n      tag_228\n        /* \"@openzeppelin/contracts@5.0.2/utils/cryptography/ECDSA.sol\":7002:7030  _throwError(error, errorArg) */\n      jump\t// in\n    tag_227:\n      pop\n        /* \"@openzeppelin/contracts@5.0.2/utils/cryptography/ECDSA.sol\":7047:7056  recovered */\n      swap1\n      swap7\n        /* \"@openzeppelin/contracts@5.0.2/utils/cryptography/ECDSA.sol\":6803:7063  function recover(bytes32 hash, uint8 v, bytes32 r, bytes32 s) internal pure returns (address) {... */\n      swap6\n      pop\n      pop\n      pop\n      pop\n      pop\n      pop\n      jump\t// out\n        /* \"@openzeppelin/contracts@5.0.2/token/ERC20/ERC20.sol\":9949:10381  function _approve(address owner, address spender, uint256 value, bool emitEvent) internal virtual {... */\n    tag_181:\n      sub(shl(0xa0, 0x01), 0x01)\n        /* \"@openzeppelin/contracts@5.0.2/token/ERC20/ERC20.sol\":10061:10080  owner == address(0) */\n      dup5\n      and\n        /* \"@openzeppelin/contracts@5.0.2/token/ERC20/ERC20.sol\":10057:10146  if (owner == address(0)) {... */\n      tag_230\n      jumpi\n        /* \"@openzeppelin/contracts@5.0.2/token/ERC20/ERC20.sol\":10103:10135  ERC20InvalidApprover(address(0)) */\n      mload(0x40)\n      shl(0xe0, 0xe602df05)\n      dup2\n      mstore\n        /* \"@openzeppelin/contracts@5.0.2/token/ERC20/ERC20.sol\":10132:10133  0 */\n      0x00\n        /* \"@openzeppelin/contracts@5.0.2/token/ERC20/ERC20.sol\":10103:10135  ERC20InvalidApprover(address(0)) */\n      0x04\n      dup3\n      add\n        /* \"#utility.yul\":3951:4002   */\n      mstore\n        /* \"#utility.yul\":3924:3942   */\n      0x24\n      add\n        /* \"@openzeppelin/contracts@5.0.2/token/ERC20/ERC20.sol\":10103:10135  ERC20InvalidApprover(address(0)) */\n      tag_158\n        /* \"#utility.yul\":3805:4008   */\n      jump\n        /* \"@openzeppelin/contracts@5.0.2/token/ERC20/ERC20.sol\":10057:10146  if (owner == address(0)) {... */\n    tag_230:\n      sub(shl(0xa0, 0x01), 0x01)\n        /* \"@openzeppelin/contracts@5.0.2/token/ERC20/ERC20.sol\":10159:10180  spender == address(0) */\n      dup4\n      and\n        /* \"@openzeppelin/contracts@5.0.2/token/ERC20/ERC20.sol\":10155:10245  if (spender == address(0)) {... */\n      tag_232\n      jumpi\n        /* \"@openzeppelin/contracts@5.0.2/token/ERC20/ERC20.sol\":10203:10234  ERC20InvalidSpender(address(0)) */\n      mload(0x40)\n      shl(0xe1, 0x4a1406b1)\n      dup2\n      mstore\n        /* \"@openzeppelin/contracts@5.0.2/token/ERC20/ERC20.sol\":10231:10232  0 */\n      0x00\n        /* \"@openzeppelin/contracts@5.0.2/token/ERC20/ERC20.sol\":10203:10234  ERC20InvalidSpender(address(0)) */\n      0x04\n      dup3\n      add\n        /* \"#utility.yul\":3951:4002   */\n      mstore\n        /* \"#utility.yul\":3924:3942   */\n      0x24\n      add\n        /* \"@openzeppelin/contracts@5.0.2/token/ERC20/ERC20.sol\":10203:10234  ERC20InvalidSpender(address(0)) */\n      tag_158\n        /* \"#utility.yul\":3805:4008   */\n      jump\n        /* \"@openzeppelin/contracts@5.0.2/token/ERC20/ERC20.sol\":10155:10245  if (spender == address(0)) {... */\n    tag_232:\n      sub(shl(0xa0, 0x01), 0x01)\n        /* \"@openzeppelin/contracts@5.0.2/token/ERC20/ERC20.sol\":10254:10272  _allowances[owner] */\n      dup1\n      dup6\n      and\n      0x00\n      swap1\n      dup2\n      mstore\n        /* \"@openzeppelin/contracts@5.0.2/token/ERC20/ERC20.sol\":10254:10265  _allowances */\n      0x01\n        /* \"@openzeppelin/contracts@5.0.2/token/ERC20/ERC20.sol\":10254:10272  _allowances[owner] */\n      0x20\n      swap1\n      dup2\n      mstore\n      0x40\n      dup1\n      dup4\n      keccak256\n        /* \"@openzeppelin/contracts@5.0.2/token/ERC20/ERC20.sol\":10254:10281  _allowances[owner][spender] */\n      swap4\n      dup8\n      and\n      dup4\n      mstore\n      swap3\n      swap1\n      mstore\n      keccak256\n        /* \"@openzeppelin/contracts@5.0.2/token/ERC20/ERC20.sol\":10254:10289  _allowances[owner][spender] = value */\n      dup3\n      swap1\n      sstore\n        /* \"@openzeppelin/contracts@5.0.2/token/ERC20/ERC20.sol\":10299:10375  if (emitEvent) {... */\n      dup1\n      iszero\n      tag_188\n      jumpi\n        /* \"@openzeppelin/contracts@5.0.2/token/ERC20/ERC20.sol\":10349:10356  spender */\n      dup3\n      sub(shl(0xa0, 0x01), 0x01)\n        /* \"@openzeppelin/contracts@5.0.2/token/ERC20/ERC20.sol\":10333:10364  Approval(owner, spender, value) */\n      and\n        /* \"@openzeppelin/contracts@5.0.2/token/ERC20/ERC20.sol\":10342:10347  owner */\n      dup5\n      sub(shl(0xa0, 0x01), 0x01)\n        /* \"@openzeppelin/contracts@5.0.2/token/ERC20/ERC20.sol\":10333:10364  Approval(owner, spender, value) */\n      and\n      0x8c5be1e5ebec7d5bd14f71427d1e84f3dd0314c0f7b2291e5b200ac8c7c3b925\n        /* \"@openzeppelin/contracts@5.0.2/token/ERC20/ERC20.sol\":10358:10363  value */\n      dup5\n        /* \"@openzeppelin/contracts@5.0.2/token/ERC20/ERC20.sol\":10333:10364  Approval(owner, spender, value) */\n      mload(0x40)\n      tag_235\n      swap2\n        /* \"#utility.yul\":1354:1379   */\n      dup2\n      mstore\n        /* \"#utility.yul\":1342:1344   */\n      0x20\n        /* \"#utility.yul\":1327:1345   */\n      add\n      swap1\n        /* \"#utility.yul\":1208:1385   */\n      jump\n        /* \"@openzeppelin/contracts@5.0.2/token/ERC20/ERC20.sol\":10333:10364  Approval(owner, spender, value) */\n    tag_235:\n      mload(0x40)\n      dup1\n      swap2\n      sub\n      swap1\n      log3\n        /* \"@openzeppelin/contracts@5.0.2/token/ERC20/ERC20.sol\":9949:10381  function _approve(address owner, address spender, uint256 value, bool emitEvent) internal virtual {... */\n      pop\n      pop\n      pop\n      pop\n      jump\t// out\n        /* \"@openzeppelin/contracts@5.0.2/token/ERC20/ERC20.sol\":6271:7378  function _update(address from, address to, uint256 value) internal virtual {... */\n    tag_195:\n      sub(shl(0xa0, 0x01), 0x01)\n        /* \"@openzeppelin/contracts@5.0.2/token/ERC20/ERC20.sol\":6360:6378  from == address(0) */\n      dup4\n      and\n        /* \"@openzeppelin/contracts@5.0.2/token/ERC20/ERC20.sol\":6356:6896  if (from == address(0)) {... */\n      tag_237\n      jumpi\n        /* \"@openzeppelin/contracts@5.0.2/token/ERC20/ERC20.sol\":6512:6517  value */\n      dup1\n        /* \"@openzeppelin/contracts@5.0.2/token/ERC20/ERC20.sol\":6496:6508  _totalSupply */\n      0x02\n      0x00\n        /* \"@openzeppelin/contracts@5.0.2/token/ERC20/ERC20.sol\":6496:6517  _totalSupply += value */\n      dup3\n      dup3\n      sload\n      tag_238\n      swap2\n      swap1\n      tag_239\n      jump\t// in\n    tag_238:\n      swap1\n      swap2\n      sstore\n      pop\n        /* \"@openzeppelin/contracts@5.0.2/token/ERC20/ERC20.sol\":6356:6896  if (from == address(0)) {... */\n      tag_240\n      swap1\n      pop\n      jump\n    tag_237:\n      sub(shl(0xa0, 0x01), 0x01)\n        /* \"@openzeppelin/contracts@5.0.2/token/ERC20/ERC20.sol\":6570:6585  _balances[from] */\n      dup4\n      and\n        /* \"@openzeppelin/contracts@5.0.2/token/ERC20/ERC20.sol\":6548:6567  uint256 fromBalance */\n      0x00\n        /* \"@openzeppelin/contracts@5.0.2/token/ERC20/ERC20.sol\":6570:6585  _balances[from] */\n      swap1\n      dup2\n      mstore\n      0x20\n      dup2\n      swap1\n      mstore\n      0x40\n      swap1\n      keccak256\n      sload\n        /* \"@openzeppelin/contracts@5.0.2/token/ERC20/ERC20.sol\":6603:6622  fromBalance < value */\n      dup2\n      dup2\n      lt\n        /* \"@openzeppelin/contracts@5.0.2/token/ERC20/ERC20.sol\":6599:6714  if (fromBalance < value) {... */\n      iszero\n      tag_241\n      jumpi\n        /* \"@openzeppelin/contracts@5.0.2/token/ERC20/ERC20.sol\":6649:6699  ERC20InsufficientBalance(from, fromBalance, value) */\n      mload(0x40)\n      shl(0xe2, 0x391434e3)\n      dup2\n      mstore\n      sub(shl(0xa0, 0x01), 0x01)\n        /* \"#utility.yul\":6820:6852   */\n      dup6\n      and\n        /* \"@openzeppelin/contracts@5.0.2/token/ERC20/ERC20.sol\":6649:6699  ERC20InsufficientBalance(from, fromBalance, value) */\n      0x04\n      dup3\n      add\n        /* \"#utility.yul\":6802:6853   */\n      mstore\n        /* \"#utility.yul\":6869:6887   */\n      0x24\n      dup2\n      add\n        /* \"#utility.yul\":6862:6896   */\n      dup3\n      swap1\n      mstore\n        /* \"#utility.yul\":6912:6930   */\n      0x44\n      dup2\n      add\n        /* \"#utility.yul\":6905:6939   */\n      dup4\n      swap1\n      mstore\n        /* \"#utility.yul\":6775:6793   */\n      0x64\n      add\n        /* \"@openzeppelin/contracts@5.0.2/token/ERC20/ERC20.sol\":6649:6699  ERC20InsufficientBalance(from, fromBalance, value) */\n      tag_158\n        /* \"#utility.yul\":6600:6945   */\n      jump\n        /* \"@openzeppelin/contracts@5.0.2/token/ERC20/ERC20.sol\":6599:6714  if (fromBalance < value) {... */\n    tag_241:\n      sub(shl(0xa0, 0x01), 0x01)\n        /* \"@openzeppelin/contracts@5.0.2/token/ERC20/ERC20.sol\":6834:6849  _balances[from] */\n      dup5\n      and\n        /* \"@openzeppelin/contracts@5.0.2/token/ERC20/ERC20.sol\":6834:6843  _balances */\n      0x00\n        /* \"@openzeppelin/contracts@5.0.2/token/ERC20/ERC20.sol\":6834:6849  _balances[from] */\n      swap1\n      dup2\n      mstore\n      0x20\n      dup2\n      swap1\n      mstore\n      0x40\n      swap1\n      keccak256\n        /* \"@openzeppelin/contracts@5.0.2/token/ERC20/ERC20.sol\":6852:6871  fromBalance - value */\n      swap1\n      dup3\n      swap1\n      sub\n        /* \"@openzeppelin/contracts@5.0.2/token/ERC20/ERC20.sol\":6834:6871  _balances[from] = fromBalance - value */\n      swap1\n      sstore\n        /* \"@openzeppelin/contracts@5.0.2/token/ERC20/ERC20.sol\":6356:6896  if (from == address(0)) {... */\n    tag_240:\n      sub(shl(0xa0, 0x01), 0x01)\n        /* \"@openzeppelin/contracts@5.0.2/token/ERC20/ERC20.sol\":6910:6926  to == address(0) */\n      dup3\n      and\n        /* \"@openzeppelin/contracts@5.0.2/token/ERC20/ERC20.sol\":6906:7331  if (to == address(0)) {... */\n      tag_243\n      jumpi\n        /* \"@openzeppelin/contracts@5.0.2/token/ERC20/ERC20.sol\":7073:7085  _totalSupply */\n      0x02\n        /* \"@openzeppelin/contracts@5.0.2/token/ERC20/ERC20.sol\":7073:7094  _totalSupply -= value */\n      dup1\n      sload\n      dup3\n      swap1\n      sub\n      swap1\n      sstore\n        /* \"@openzeppelin/contracts@5.0.2/token/ERC20/ERC20.sol\":6906:7331  if (to == address(0)) {... */\n      jump(tag_244)\n    tag_243:\n      sub(shl(0xa0, 0x01), 0x01)\n        /* \"@openzeppelin/contracts@5.0.2/token/ERC20/ERC20.sol\":7284:7297  _balances[to] */\n      dup3\n      and\n        /* \"@openzeppelin/contracts@5.0.2/token/ERC20/ERC20.sol\":7284:7293  _balances */\n      0x00\n        /* \"@openzeppelin/contracts@5.0.2/token/ERC20/ERC20.sol\":7284:7297  _balances[to] */\n      swap1\n      dup2\n      mstore\n      0x20\n      dup2\n      swap1\n      mstore\n      0x40\n      swap1\n      keccak256\n        /* \"@openzeppelin/contracts@5.0.2/token/ERC20/ERC20.sol\":7284:7306  _balances[to] += value */\n      dup1\n      sload\n      dup3\n      add\n      swap1\n      sstore\n        /* \"@openzeppelin/contracts@5.0.2/token/ERC20/ERC20.sol\":6906:7331  if (to == address(0)) {... */\n    tag_244:\n        /* \"@openzeppelin/contracts@5.0.2/token/ERC20/ERC20.sol\":7361:7363  to */\n      dup2\n      sub(shl(0xa0, 0x01), 0x01)\n        /* \"@openzeppelin/contracts@5.0.2/token/ERC20/ERC20.sol\":7346:7371  Transfer(from, to, value) */\n      and\n        /* \"@openzeppelin/contracts@5.0.2/token/ERC20/ERC20.sol\":7355:7359  from */\n      dup4\n      sub(shl(0xa0, 0x01), 0x01)\n        /* \"@openzeppelin/contracts@5.0.2/token/ERC20/ERC20.sol\":7346:7371  Transfer(from, to, value) */\n      and\n      0xddf252ad1be2c89b69c2b068fc378daa952ba7f163c4a11628f55a4df523b3ef\n        /* \"@openzeppelin/contracts@5.0.2/token/ERC20/ERC20.sol\":7365:7370  value */\n      dup4\n        /* \"@openzeppelin/contracts@5.0.2/token/ERC20/ERC20.sol\":7346:7371  Transfer(from, to, value) */\n      mload(0x40)\n      tag_245\n      swap2\n        /* \"#utility.yul\":1354:1379   */\n      dup2\n      mstore\n        /* \"#utility.yul\":1342:1344   */\n      0x20\n        /* \"#utility.yul\":1327:1345   */\n      add\n      swap1\n        /* \"#utility.yul\":1208:1385   */\n      jump\n        /* \"@openzeppelin/contracts@5.0.2/token/ERC20/ERC20.sol\":7346:7371  Transfer(from, to, value) */\n    tag_245:\n      mload(0x40)\n      dup1\n      swap2\n      sub\n      swap1\n      log3\n        /* \"@openzeppelin/contracts@5.0.2/token/ERC20/ERC20.sol\":6271:7378  function _update(address from, address to, uint256 value) internal virtual {... */\n      pop\n      pop\n      pop\n      jump\t// out\n        /* \"@openzeppelin/contracts@5.0.2/utils/ShortStrings.sol\":3385:3652  function toStringWithFallback(ShortString value, string storage store) internal pure returns (string memory) {... */\n    tag_216:\n        /* \"@openzeppelin/contracts@5.0.2/utils/ShortStrings.sol\":3479:3492  string memory */\n      0x60\n        /* \"@openzeppelin/contracts@5.0.2/utils/ShortStrings.sol\":1390:1456  0x00000000000000000000000000000000000000000000000000000000000000FF */\n      0xff\n        /* \"@openzeppelin/contracts@5.0.2/utils/ShortStrings.sol\":3508:3554  ShortString.unwrap(value) != FALLBACK_SENTINEL */\n      dup4\n      eq\n        /* \"@openzeppelin/contracts@5.0.2/utils/ShortStrings.sol\":3504:3646  if (ShortString.unwrap(value) != FALLBACK_SENTINEL) {... */\n      tag_250\n      jumpi\n        /* \"@openzeppelin/contracts@5.0.2/utils/ShortStrings.sol\":3577:3592  toString(value) */\n      tag_251\n        /* \"@openzeppelin/contracts@5.0.2/utils/ShortStrings.sol\":3586:3591  value */\n      dup4\n        /* \"@openzeppelin/contracts@5.0.2/utils/ShortStrings.sol\":3577:3585  toString */\n      tag_252\n        /* \"@openzeppelin/contracts@5.0.2/utils/ShortStrings.sol\":3577:3592  toString(value) */\n      jump\t// in\n    tag_251:\n        /* \"@openzeppelin/contracts@5.0.2/utils/ShortStrings.sol\":3570:3592  return toString(value) */\n      swap1\n      pop\n      jump(tag_103)\n        /* \"@openzeppelin/contracts@5.0.2/utils/ShortStrings.sol\":3504:3646  if (ShortString.unwrap(value) != FALLBACK_SENTINEL) {... */\n    tag_250:\n        /* \"@openzeppelin/contracts@5.0.2/utils/ShortStrings.sol\":3630:3635  store */\n      dup2\n        /* \"@openzeppelin/contracts@5.0.2/utils/ShortStrings.sol\":3623:3635  return store */\n      dup1\n      sload\n      tag_254\n      swap1\n      tag_98\n      jump\t// in\n    tag_254:\n      dup1\n      0x1f\n      add\n      0x20\n      dup1\n      swap2\n      div\n      mul\n      0x20\n      add\n      mload(0x40)\n      swap1\n      dup2\n      add\n      0x40\n      mstore\n      dup1\n      swap3\n      swap2\n      swap1\n      dup2\n      dup2\n      mstore\n      0x20\n      add\n      dup3\n      dup1\n      sload\n      tag_255\n      swap1\n      tag_98\n      jump\t// in\n    tag_255:\n      dup1\n      iszero\n      tag_256\n      jumpi\n      dup1\n      0x1f\n      lt\n      tag_257\n      jumpi\n      0x0100\n      dup1\n      dup4\n      sload\n      div\n      mul\n      dup4\n      mstore\n      swap2\n      0x20\n      add\n      swap2\n      jump(tag_256)\n    tag_257:\n      dup3\n      add\n      swap2\n      swap1\n      0x00\n      mstore\n      keccak256(0x00, 0x20)\n      swap1\n    tag_258:\n      dup2\n      sload\n      dup2\n      mstore\n      swap1\n      0x01\n      add\n      swap1\n      0x20\n      add\n      dup1\n      dup4\n      gt\n      tag_258\n      jumpi\n      dup3\n      swap1\n      sub\n      0x1f\n      and\n      dup3\n      add\n      swap2\n    tag_256:\n      pop\n      pop\n      pop\n      pop\n      pop\n      swap1\n      pop\n      jump(tag_103)\n        /* \"@openzeppelin/contracts@5.0.2/utils/cryptography/ECDSA.sol\":5140:6670  function tryRecover(... */\n    tag_226:\n        /* \"@openzeppelin/contracts@5.0.2/utils/cryptography/ECDSA.sol\":5266:5273  address */\n      0x00\n      dup1\n      dup1\n        /* \"@openzeppelin/contracts@5.0.2/utils/cryptography/ECDSA.sol\":6199:6265  0x7FFFFFFFFFFFFFFFFFFFFFFFFFFFFFFF5D576E7357A4501DDFE92F46681B20A0 */\n      0x7fffffffffffffffffffffffffffffff5d576e7357a4501ddfe92f46681b20a0\n        /* \"@openzeppelin/contracts@5.0.2/utils/cryptography/ECDSA.sol\":6186:6265  uint256(s) > 0x7FFFFFFFFFFFFFFFFFFFFFFFFFFFFFFF5D576E7357A4501DDFE92F46681B20A0 */\n      dup5\n      gt\n        /* \"@openzeppelin/contracts@5.0.2/utils/cryptography/ECDSA.sol\":6182:6346  if (uint256(s) > 0x7FFFFFFFFFFFFFFFFFFFFFFFFFFFFFFF5D576E7357A4501DDFE92F46681B20A0) {... */\n      iszero\n      tag_261\n      jumpi\n      pop\n        /* \"@openzeppelin/contracts@5.0.2/utils/cryptography/ECDSA.sol\":6297:6298  0 */\n      0x00\n      swap2\n      pop\n        /* \"@openzeppelin/contracts@5.0.2/utils/cryptography/ECDSA.sol\":6301:6331  RecoverError.InvalidSignatureS */\n      0x03\n      swap1\n      pop\n        /* \"@openzeppelin/contracts@5.0.2/utils/cryptography/ECDSA.sol\":6333:6334  s */\n      dup3\n        /* \"@openzeppelin/contracts@5.0.2/utils/cryptography/ECDSA.sol\":6281:6335  return (address(0), RecoverError.InvalidSignatureS, s) */\n      jump(tag_260)\n        /* \"@openzeppelin/contracts@5.0.2/utils/cryptography/ECDSA.sol\":6182:6346  if (uint256(s) > 0x7FFFFFFFFFFFFFFFFFFFFFFFFFFFFFFF5D576E7357A4501DDFE92F46681B20A0) {... */\n    tag_261:\n        /* \"@openzeppelin/contracts@5.0.2/utils/cryptography/ECDSA.sol\":6457:6481  ecrecover(hash, v, r, s) */\n      0x40\n      dup1\n      mload\n        /* \"@openzeppelin/contracts@5.0.2/utils/cryptography/ECDSA.sol\":6440:6454  address signer */\n      0x00\n        /* \"@openzeppelin/contracts@5.0.2/utils/cryptography/ECDSA.sol\":6457:6481  ecrecover(hash, v, r, s) */\n      dup1\n      dup3\n      mstore\n      0x20\n      dup3\n      add\n      dup1\n      dup5\n      mstore\n        /* \"#utility.yul\":7898:7923   */\n      dup11\n      swap1\n      mstore\n        /* \"#utility.yul\":7971:7975   */\n      0xff\n        /* \"#utility.yul\":7959:7976   */\n      dup10\n      and\n        /* \"#utility.yul\":7939:7957   */\n      swap3\n      dup3\n      add\n        /* \"#utility.yul\":7932:7977   */\n      swap3\n      swap1\n      swap3\n      mstore\n        /* \"#utility.yul\":7993:8011   */\n      0x60\n      dup2\n      add\n        /* \"#utility.yul\":7986:8020   */\n      dup8\n      swap1\n      mstore\n        /* \"#utility.yul\":8036:8054   */\n      0x80\n      dup2\n      add\n        /* \"#utility.yul\":8029:8063   */\n      dup7\n      swap1\n      mstore\n        /* \"@openzeppelin/contracts@5.0.2/utils/cryptography/ECDSA.sol\":6457:6481  ecrecover(hash, v, r, s) */\n      0x01\n      swap1\n        /* \"#utility.yul\":7870:7889   */\n      0xa0\n      add\n        /* \"@openzeppelin/contracts@5.0.2/utils/cryptography/ECDSA.sol\":6457:6481  ecrecover(hash, v, r, s) */\n      0x20\n      mload(0x40)\n      0x20\n      dup2\n      sub\n      swap1\n      dup1\n      dup5\n      sub\n      swap1\n      dup6\n      gas\n      staticcall\n      iszero\n      dup1\n      iszero\n      tag_265\n      jumpi\n      returndatasize\n      0x00\n      dup1\n      returndatacopy\n      revert(0x00, returndatasize)\n    tag_265:\n      pop\n      pop\n      mload(add(not(0x1f), mload(0x40)))\n      swap2\n      pop\n      pop\n      sub(shl(0xa0, 0x01), 0x01)\n        /* \"@openzeppelin/contracts@5.0.2/utils/cryptography/ECDSA.sol\":6495:6515  signer == address(0) */\n      dup2\n      and\n        /* \"@openzeppelin/contracts@5.0.2/utils/cryptography/ECDSA.sol\":6491:6604  if (signer == address(0)) {... */\n      tag_266\n      jumpi\n      pop\n        /* \"@openzeppelin/contracts@5.0.2/utils/cryptography/ECDSA.sol\":6547:6548  0 */\n      0x00\n      swap3\n      pop\n        /* \"@openzeppelin/contracts@5.0.2/utils/cryptography/ECDSA.sol\":6551:6580  RecoverError.InvalidSignature */\n      0x01\n      swap2\n      pop\n        /* \"@openzeppelin/contracts@5.0.2/utils/cryptography/ECDSA.sol\":6547:6548  0 */\n      dup3\n      swap1\n      pop\n        /* \"@openzeppelin/contracts@5.0.2/utils/cryptography/ECDSA.sol\":6531:6593  return (address(0), RecoverError.InvalidSignature, bytes32(0)) */\n      jump(tag_260)\n        /* \"@openzeppelin/contracts@5.0.2/utils/cryptography/ECDSA.sol\":6491:6604  if (signer == address(0)) {... */\n    tag_266:\n        /* \"@openzeppelin/contracts@5.0.2/utils/cryptography/ECDSA.sol\":6622:6628  signer */\n      swap3\n      pop\n        /* \"@openzeppelin/contracts@5.0.2/utils/cryptography/ECDSA.sol\":6630:6650  RecoverError.NoError */\n      0x00\n      swap2\n      pop\n      dup2\n      swap1\n      pop\n        /* \"@openzeppelin/contracts@5.0.2/utils/cryptography/ECDSA.sol\":5140:6670  function tryRecover(... */\n    tag_260:\n      swap5\n      pop\n      swap5\n      pop\n      swap5\n      swap2\n      pop\n      pop\n      jump\t// out\n        /* \"@openzeppelin/contracts@5.0.2/utils/cryptography/ECDSA.sol\":7196:7728  function _throwError(RecoverError error, bytes32 errorArg) private pure {... */\n    tag_228:\n        /* \"@openzeppelin/contracts@5.0.2/utils/cryptography/ECDSA.sol\":7291:7311  RecoverError.NoError */\n      0x00\n        /* \"@openzeppelin/contracts@5.0.2/utils/cryptography/ECDSA.sol\":7282:7287  error */\n      dup3\n        /* \"@openzeppelin/contracts@5.0.2/utils/cryptography/ECDSA.sol\":7282:7311  error == RecoverError.NoError */\n      0x03\n      dup2\n      gt\n      iszero\n      tag_272\n      jumpi\n      tag_272\n      tag_270\n      jump\t// in\n    tag_272:\n      sub\n        /* \"@openzeppelin/contracts@5.0.2/utils/cryptography/ECDSA.sol\":7278:7722  if (error == RecoverError.NoError) {... */\n      tag_273\n      jumpi\n        /* \"@openzeppelin/contracts@5.0.2/utils/cryptography/ECDSA.sol\":7196:7728  function _throwError(RecoverError error, bytes32 errorArg) private pure {... */\n      pop\n      pop\n      jump\t// out\n        /* \"@openzeppelin/contracts@5.0.2/utils/cryptography/ECDSA.sol\":7278:7722  if (error == RecoverError.NoError) {... */\n    tag_273:\n        /* \"@openzeppelin/contracts@5.0.2/utils/cryptography/ECDSA.sol\":7387:7416  RecoverError.InvalidSignature */\n      0x01\n        /* \"@openzeppelin/contracts@5.0.2/utils/cryptography/ECDSA.sol\":7378:7383  error */\n      dup3\n        /* \"@openzeppelin/contracts@5.0.2/utils/cryptography/ECDSA.sol\":7378:7416  error == RecoverError.InvalidSignature */\n      0x03\n      dup2\n      gt\n      iszero\n      tag_278\n      jumpi\n      tag_278\n      tag_270\n      jump\t// in\n    tag_278:\n      sub\n        /* \"@openzeppelin/contracts@5.0.2/utils/cryptography/ECDSA.sol\":7374:7722  if (error == RecoverError.InvalidSignature) {... */\n      tag_279\n      jumpi\n        /* \"@openzeppelin/contracts@5.0.2/utils/cryptography/ECDSA.sol\":7439:7462  ECDSAInvalidSignature() */\n      mload(0x40)\n      shl(0xe0, 0xf645eedf)\n      dup2\n      mstore\n      0x04\n      add\n      mload(0x40)\n      dup1\n      swap2\n      sub\n      swap1\n      revert\n        /* \"@openzeppelin/contracts@5.0.2/utils/cryptography/ECDSA.sol\":7374:7722  if (error == RecoverError.InvalidSignature) {... */\n    tag_279:\n        /* \"@openzeppelin/contracts@5.0.2/utils/cryptography/ECDSA.sol\":7492:7527  RecoverError.InvalidSignatureLength */\n      0x02\n        /* \"@openzeppelin/contracts@5.0.2/utils/cryptography/ECDSA.sol\":7483:7488  error */\n      dup3\n        /* \"@openzeppelin/contracts@5.0.2/utils/cryptography/ECDSA.sol\":7483:7527  error == RecoverError.InvalidSignatureLength */\n      0x03\n      dup2\n      gt\n      iszero\n      tag_284\n      jumpi\n      tag_284\n      tag_270\n      jump\t// in\n    tag_284:\n      sub\n        /* \"@openzeppelin/contracts@5.0.2/utils/cryptography/ECDSA.sol\":7479:7722  if (error == RecoverError.InvalidSignatureLength) {... */\n      tag_285\n      jumpi\n        /* \"@openzeppelin/contracts@5.0.2/utils/cryptography/ECDSA.sol\":7550:7596  ECDSAInvalidSignatureLength(uint256(errorArg)) */\n      mload(0x40)\n      shl(0xe0, 0xfce698f7)\n      dup2\n      mstore\n      0x04\n      dup2\n      add\n        /* \"#utility.yul\":1354:1379   */\n      dup3\n      swap1\n      mstore\n        /* \"#utility.yul\":1327:1345   */\n      0x24\n      add\n        /* \"@openzeppelin/contracts@5.0.2/utils/cryptography/ECDSA.sol\":7550:7596  ECDSAInvalidSignatureLength(uint256(errorArg)) */\n      tag_158\n        /* \"#utility.yul\":1208:1385   */\n      jump\n        /* \"@openzeppelin/contracts@5.0.2/utils/cryptography/ECDSA.sol\":7479:7722  if (error == RecoverError.InvalidSignatureLength) {... */\n    tag_285:\n        /* \"@openzeppelin/contracts@5.0.2/utils/cryptography/ECDSA.sol\":7626:7656  RecoverError.InvalidSignatureS */\n      0x03\n        /* \"@openzeppelin/contracts@5.0.2/utils/cryptography/ECDSA.sol\":7617:7622  error */\n      dup3\n        /* \"@openzeppelin/contracts@5.0.2/utils/cryptography/ECDSA.sol\":7617:7656  error == RecoverError.InvalidSignatureS */\n      0x03\n      dup2\n      gt\n      iszero\n      tag_291\n      jumpi\n      tag_291\n      tag_270\n      jump\t// in\n    tag_291:\n      sub\n        /* \"@openzeppelin/contracts@5.0.2/utils/cryptography/ECDSA.sol\":7613:7722  if (error == RecoverError.InvalidSignatureS) {... */\n      tag_133\n      jumpi\n        /* \"@openzeppelin/contracts@5.0.2/utils/cryptography/ECDSA.sol\":7679:7711  ECDSAInvalidSignatureS(errorArg) */\n      mload(0x40)\n      shl(0xe2, 0x35e2f383)\n      dup2\n      mstore\n      0x04\n      dup2\n      add\n        /* \"#utility.yul\":1354:1379   */\n      dup3\n      swap1\n      mstore\n        /* \"#utility.yul\":1327:1345   */\n      0x24\n      add\n        /* \"@openzeppelin/contracts@5.0.2/utils/cryptography/ECDSA.sol\":7679:7711  ECDSAInvalidSignatureS(errorArg) */\n      tag_158\n        /* \"#utility.yul\":1208:1385   */\n      jump\n        /* \"@openzeppelin/contracts@5.0.2/utils/ShortStrings.sol\":2078:2483  function toString(ShortString sstr) internal pure returns (string memory) {... */\n    tag_252:\n        /* \"@openzeppelin/contracts@5.0.2/utils/ShortStrings.sol\":2137:2150  string memory */\n      0x60\n        /* \"@openzeppelin/contracts@5.0.2/utils/ShortStrings.sol\":2162:2173  uint256 len */\n      0x00\n        /* \"@openzeppelin/contracts@5.0.2/utils/ShortStrings.sol\":2176:2192  byteLength(sstr) */\n      tag_295\n        /* \"@openzeppelin/contracts@5.0.2/utils/ShortStrings.sol\":2187:2191  sstr */\n      dup4\n        /* \"@openzeppelin/contracts@5.0.2/utils/ShortStrings.sol\":2176:2186  byteLength */\n      tag_296\n        /* \"@openzeppelin/contracts@5.0.2/utils/ShortStrings.sol\":2176:2192  byteLength(sstr) */\n      jump\t// in\n    tag_295:\n        /* \"@openzeppelin/contracts@5.0.2/utils/ShortStrings.sol\":2300:2314  new string(32) */\n      0x40\n      dup1\n      mload\n        /* \"@openzeppelin/contracts@5.0.2/utils/ShortStrings.sol\":2311:2313  32 */\n      0x20\n        /* \"@openzeppelin/contracts@5.0.2/utils/ShortStrings.sol\":2300:2314  new string(32) */\n      dup1\n      dup3\n      mstore\n      dup2\n      dup4\n      add\n      swap1\n      swap3\n      mstore\n        /* \"@openzeppelin/contracts@5.0.2/utils/ShortStrings.sol\":2162:2192  uint256 len = byteLength(sstr) */\n      swap2\n      swap3\n      pop\n        /* \"@openzeppelin/contracts@5.0.2/utils/ShortStrings.sol\":2280:2297  string memory str */\n      0x00\n      swap2\n        /* \"@openzeppelin/contracts@5.0.2/utils/ShortStrings.sol\":2300:2314  new string(32) */\n      swap1\n      0x20\n      dup3\n      add\n      dup2\n      dup1\n      calldatasize\n      dup4\n      calldatacopy\n      pop\n      pop\n      pop\n        /* \"@openzeppelin/contracts@5.0.2/utils/ShortStrings.sol\":2390:2406  mstore(str, len) */\n      swap2\n      dup3\n      mstore\n      pop\n        /* \"@openzeppelin/contracts@5.0.2/utils/ShortStrings.sol\":2435:2439  0x20 */\n      0x20\n        /* \"@openzeppelin/contracts@5.0.2/utils/ShortStrings.sol\":2426:2440  add(str, 0x20) */\n      dup2\n      add\n        /* \"@openzeppelin/contracts@5.0.2/utils/ShortStrings.sol\":2419:2447  mstore(add(str, 0x20), sstr) */\n      swap3\n      swap1\n      swap3\n      mstore\n      pop\n        /* \"@openzeppelin/contracts@5.0.2/utils/ShortStrings.sol\":2390:2406  mstore(str, len) */\n      swap1\n        /* \"@openzeppelin/contracts@5.0.2/utils/ShortStrings.sol\":2078:2483  function toString(ShortString sstr) internal pure returns (string memory) {... */\n      jump\t// out\n        /* \"@openzeppelin/contracts@5.0.2/utils/ShortStrings.sol\":2555:2800  function byteLength(ShortString sstr) internal pure returns (uint256) {... */\n    tag_296:\n        /* \"@openzeppelin/contracts@5.0.2/utils/ShortStrings.sol\":2616:2623  uint256 */\n      0x00\n        /* \"@openzeppelin/contracts@5.0.2/utils/ShortStrings.sol\":2688:2692  0xFF */\n      0xff\n        /* \"@openzeppelin/contracts@5.0.2/utils/ShortStrings.sol\":2652:2692  uint256(ShortString.unwrap(sstr)) & 0xFF */\n      dup3\n      and\n        /* \"@openzeppelin/contracts@5.0.2/utils/ShortStrings.sol\":2715:2717  31 */\n      0x1f\n        /* \"@openzeppelin/contracts@5.0.2/utils/ShortStrings.sol\":2706:2717  result > 31 */\n      dup2\n      gt\n        /* \"@openzeppelin/contracts@5.0.2/utils/ShortStrings.sol\":2702:2771  if (result > 31) {... */\n      iszero\n      tag_103\n      jumpi\n        /* \"@openzeppelin/contracts@5.0.2/utils/ShortStrings.sol\":2740:2760  InvalidShortString() */\n      mload(0x40)\n      shl(0xe2, 0x2cd44ac3)\n      dup2\n      mstore\n      0x04\n      add\n      mload(0x40)\n      dup1\n      swap2\n      sub\n      swap1\n      revert\n        /* \"#utility.yul\":14:303   */\n    tag_302:\n        /* \"#utility.yul\":56:59   */\n      0x00\n        /* \"#utility.yul\":94:99   */\n      dup2\n        /* \"#utility.yul\":88:100   */\n      mload\n        /* \"#utility.yul\":121:127   */\n      dup1\n        /* \"#utility.yul\":116:119   */\n      dup5\n        /* \"#utility.yul\":109:128   */\n      mstore\n        /* \"#utility.yul\":177:183   */\n      dup1\n        /* \"#utility.yul\":170:174   */\n      0x20\n        /* \"#utility.yul\":163:168   */\n      dup5\n        /* \"#utility.yul\":159:175   */\n      add\n        /* \"#utility.yul\":152:156   */\n      0x20\n        /* \"#utility.yul\":147:150   */\n      dup7\n        /* \"#utility.yul\":143:157   */\n      add\n        /* \"#utility.yul\":137:184   */\n      mcopy\n        /* \"#utility.yul\":229:230   */\n      0x00\n        /* \"#utility.yul\":222:226   */\n      0x20\n        /* \"#utility.yul\":213:219   */\n      dup3\n        /* \"#utility.yul\":208:211   */\n      dup7\n        /* \"#utility.yul\":204:220   */\n      add\n        /* \"#utility.yul\":200:227   */\n      add\n        /* \"#utility.yul\":193:231   */\n      mstore\n        /* \"#utility.yul\":292:296   */\n      0x20\n        /* \"#utility.yul\":285:287   */\n      0x1f\n        /* \"#utility.yul\":281:288   */\n      not\n        /* \"#utility.yul\":276:278   */\n      0x1f\n        /* \"#utility.yul\":268:274   */\n      dup4\n        /* \"#utility.yul\":264:279   */\n      add\n        /* \"#utility.yul\":260:289   */\n      and\n        /* \"#utility.yul\":255:258   */\n      dup6\n        /* \"#utility.yul\":251:290   */\n      add\n        /* \"#utility.yul\":247:297   */\n      add\n        /* \"#utility.yul\":240:297   */\n      swap2\n      pop\n      pop\n        /* \"#utility.yul\":14:303   */\n      swap3\n      swap2\n      pop\n      pop\n      jump\t// out\n        /* \"#utility.yul\":308:528   */\n    tag_27:\n        /* \"#utility.yul\":457:459   */\n      0x20\n        /* \"#utility.yul\":446:455   */\n      dup2\n        /* \"#utility.yul\":439:460   */\n      mstore\n        /* \"#utility.yul\":420:424   */\n      0x00\n        /* \"#utility.yul\":477:522   */\n      tag_307\n        /* \"#utility.yul\":518:520   */\n      0x20\n        /* \"#utility.yul\":507:516   */\n      dup4\n        /* \"#utility.yul\":503:521   */\n      add\n        /* \"#utility.yul\":495:501   */\n      dup5\n        /* \"#utility.yul\":477:522   */\n      tag_302\n      jump\t// in\n    tag_307:\n        /* \"#utility.yul\":469:522   */\n      swap4\n        /* \"#utility.yul\":308:528   */\n      swap3\n      pop\n      pop\n      pop\n      jump\t// out\n        /* \"#utility.yul\":533:706   */\n    tag_303:\n        /* \"#utility.yul\":601:621   */\n      dup1\n      calldataload\n      sub(shl(0xa0, 0x01), 0x01)\n        /* \"#utility.yul\":650:681   */\n      dup2\n      and\n        /* \"#utility.yul\":640:682   */\n      dup2\n      eq\n        /* \"#utility.yul\":630:700   */\n      tag_309\n      jumpi\n        /* \"#utility.yul\":696:697   */\n      0x00\n        /* \"#utility.yul\":693:694   */\n      dup1\n        /* \"#utility.yul\":686:698   */\n      revert\n        /* \"#utility.yul\":630:700   */\n    tag_309:\n        /* \"#utility.yul\":533:706   */\n      swap2\n      swap1\n      pop\n      jump\t// out\n        /* \"#utility.yul\":711:1011   */\n    tag_30:\n        /* \"#utility.yul\":779:785   */\n      0x00\n        /* \"#utility.yul\":787:793   */\n      dup1\n        /* \"#utility.yul\":840:842   */\n      0x40\n        /* \"#utility.yul\":828:837   */\n      dup4\n        /* \"#utility.yul\":819:826   */\n      dup6\n        /* \"#utility.yul\":815:838   */\n      sub\n        /* \"#utility.yul\":811:843   */\n      slt\n        /* \"#utility.yul\":808:860   */\n      iszero\n      tag_311\n      jumpi\n        /* \"#utility.yul\":856:857   */\n      0x00\n        /* \"#utility.yul\":853:854   */\n      dup1\n        /* \"#utility.yul\":846:858   */\n      revert\n        /* \"#utility.yul\":808:860   */\n    tag_311:\n        /* \"#utility.yul\":879:908   */\n      tag_312\n        /* \"#utility.yul\":898:907   */\n      dup4\n        /* \"#utility.yul\":879:908   */\n      tag_303\n      jump\t// in\n    tag_312:\n        /* \"#utility.yul\":869:908   */\n      swap5\n        /* \"#utility.yul\":977:979   */\n      0x20\n        /* \"#utility.yul\":962:980   */\n      swap4\n      swap1\n      swap4\n      add\n        /* \"#utility.yul\":949:981   */\n      calldataload\n      swap4\n      pop\n      pop\n      pop\n        /* \"#utility.yul\":711:1011   */\n      jump\t// out\n        /* \"#utility.yul\":1390:1764   */\n    tag_40:\n        /* \"#utility.yul\":1467:1473   */\n      0x00\n        /* \"#utility.yul\":1475:1481   */\n      dup1\n        /* \"#utility.yul\":1483:1489   */\n      0x00\n        /* \"#utility.yul\":1536:1538   */\n      0x60\n        /* \"#utility.yul\":1524:1533   */\n      dup5\n        /* \"#utility.yul\":1515:1522   */\n      dup7\n        /* \"#utility.yul\":1511:1534   */\n      sub\n        /* \"#utility.yul\":1507:1539   */\n      slt\n        /* \"#utility.yul\":1504:1556   */\n      iszero\n      tag_316\n      jumpi\n        /* \"#utility.yul\":1552:1553   */\n      0x00\n        /* \"#utility.yul\":1549:1550   */\n      dup1\n        /* \"#utility.yul\":1542:1554   */\n      revert\n        /* \"#utility.yul\":1504:1556   */\n    tag_316:\n        /* \"#utility.yul\":1575:1604   */\n      tag_317\n        /* \"#utility.yul\":1594:1603   */\n      dup5\n        /* \"#utility.yul\":1575:1604   */\n      tag_303\n      jump\t// in\n    tag_317:\n        /* \"#utility.yul\":1565:1604   */\n      swap3\n      pop\n        /* \"#utility.yul\":1623:1661   */\n      tag_318\n        /* \"#utility.yul\":1657:1659   */\n      0x20\n        /* \"#utility.yul\":1646:1655   */\n      dup6\n        /* \"#utility.yul\":1642:1660   */\n      add\n        /* \"#utility.yul\":1623:1661   */\n      tag_303\n      jump\t// in\n    tag_318:\n        /* \"#utility.yul\":1390:1764   */\n      swap3\n      swap6\n        /* \"#utility.yul\":1613:1661   */\n      swap3\n      swap5\n      pop\n      pop\n      pop\n        /* \"#utility.yul\":1730:1732   */\n      0x40\n        /* \"#utility.yul\":1715:1733   */\n      swap2\n      swap1\n      swap2\n      add\n        /* \"#utility.yul\":1702:1734   */\n      calldataload\n      swap1\n        /* \"#utility.yul\":1390:1764   */\n      jump\t// out\n        /* \"#utility.yul\":2140:2366   */\n    tag_53:\n        /* \"#utility.yul\":2199:2205   */\n      0x00\n        /* \"#utility.yul\":2252:2254   */\n      0x20\n        /* \"#utility.yul\":2240:2249   */\n      dup3\n        /* \"#utility.yul\":2231:2238   */\n      dup5\n        /* \"#utility.yul\":2227:2250   */\n      sub\n        /* \"#utility.yul\":2223:2255   */\n      slt\n        /* \"#utility.yul\":2220:2272   */\n      iszero\n      tag_322\n      jumpi\n        /* \"#utility.yul\":2268:2269   */\n      0x00\n        /* \"#utility.yul\":2265:2266   */\n      dup1\n        /* \"#utility.yul\":2258:2270   */\n      revert\n        /* \"#utility.yul\":2220:2272   */\n    tag_322:\n      pop\n        /* \"#utility.yul\":2313:2336   */\n      calldataload\n      swap2\n        /* \"#utility.yul\":2140:2366   */\n      swap1\n      pop\n      jump\t// out\n        /* \"#utility.yul\":2371:2557   */\n    tag_57:\n        /* \"#utility.yul\":2430:2436   */\n      0x00\n        /* \"#utility.yul\":2483:2485   */\n      0x20\n        /* \"#utility.yul\":2471:2480   */\n      dup3\n        /* \"#utility.yul\":2462:2469   */\n      dup5\n        /* \"#utility.yul\":2458:2481   */\n      sub\n        /* \"#utility.yul\":2454:2486   */\n      slt\n        /* \"#utility.yul\":2451:2503   */\n      iszero\n      tag_324\n      jumpi\n        /* \"#utility.yul\":2499:2500   */\n      0x00\n        /* \"#utility.yul\":2496:2497   */\n      dup1\n        /* \"#utility.yul\":2489:2501   */\n      revert\n        /* \"#utility.yul\":2451:2503   */\n    tag_324:\n        /* \"#utility.yul\":2522:2551   */\n      tag_307\n        /* \"#utility.yul\":2541:2550   */\n      dup3\n        /* \"#utility.yul\":2522:2551   */\n      tag_303\n      jump\t// in\n        /* \"#utility.yul\":2562:3800   */\n    tag_72:\n        /* \"#utility.yul\":2968:2971   */\n      0xff\n        /* \"#utility.yul\":2963:2966   */\n      0xf8\n        /* \"#utility.yul\":2959:2972   */\n      shl\n        /* \"#utility.yul\":2951:2957   */\n      dup9\n        /* \"#utility.yul\":2947:2973   */\n      and\n        /* \"#utility.yul\":2936:2945   */\n      dup2\n        /* \"#utility.yul\":2929:2974   */\n      mstore\n        /* \"#utility.yul\":3010:3013   */\n      0xe0\n        /* \"#utility.yul\":3005:3007   */\n      0x20\n        /* \"#utility.yul\":2994:3003   */\n      dup3\n        /* \"#utility.yul\":2990:3008   */\n      add\n        /* \"#utility.yul\":2983:3014   */\n      mstore\n        /* \"#utility.yul\":2910:2914   */\n      0x00\n        /* \"#utility.yul\":3037:3083   */\n      tag_327\n        /* \"#utility.yul\":3078:3081   */\n      0xe0\n        /* \"#utility.yul\":3067:3076   */\n      dup4\n        /* \"#utility.yul\":3063:3082   */\n      add\n        /* \"#utility.yul\":3055:3061   */\n      dup10\n        /* \"#utility.yul\":3037:3083   */\n      tag_302\n      jump\t// in\n    tag_327:\n        /* \"#utility.yul\":3131:3140   */\n      dup3\n        /* \"#utility.yul\":3123:3129   */\n      dup2\n        /* \"#utility.yul\":3119:3141   */\n      sub\n        /* \"#utility.yul\":3114:3116   */\n      0x40\n        /* \"#utility.yul\":3103:3112   */\n      dup5\n        /* \"#utility.yul\":3099:3117   */\n      add\n        /* \"#utility.yul\":3092:3142   */\n      mstore\n        /* \"#utility.yul\":3165:3198   */\n      tag_328\n        /* \"#utility.yul\":3191:3197   */\n      dup2\n        /* \"#utility.yul\":3183:3189   */\n      dup10\n        /* \"#utility.yul\":3165:3198   */\n      tag_302\n      jump\t// in\n    tag_328:\n        /* \"#utility.yul\":3229:3231   */\n      0x60\n        /* \"#utility.yul\":3214:3232   */\n      dup5\n      add\n        /* \"#utility.yul\":3207:3241   */\n      dup9\n      swap1\n      mstore\n      sub(shl(0xa0, 0x01), 0x01)\n        /* \"#utility.yul\":3278:3310   */\n      dup8\n      and\n        /* \"#utility.yul\":3272:3275   */\n      0x80\n        /* \"#utility.yul\":3257:3276   */\n      dup6\n      add\n        /* \"#utility.yul\":3250:3311   */\n      mstore\n        /* \"#utility.yul\":3298:3301   */\n      0xa0\n        /* \"#utility.yul\":3327:3346   */\n      dup5\n      add\n        /* \"#utility.yul\":3320:3355   */\n      dup7\n      swap1\n      mstore\n        /* \"#utility.yul\":3392:3414   */\n      dup4\n      dup2\n      sub\n        /* \"#utility.yul\":3386:3389   */\n      0xc0\n        /* \"#utility.yul\":3371:3390   */\n      dup6\n      add\n        /* \"#utility.yul\":3364:3415   */\n      mstore\n        /* \"#utility.yul\":3464:3477   */\n      dup5\n      mload\n        /* \"#utility.yul\":3486:3508   */\n      dup1\n      dup3\n      mstore\n        /* \"#utility.yul\":3536:3538   */\n      0x20\n        /* \"#utility.yul\":3562:3577   */\n      dup1\n      dup8\n      add\n      swap4\n      pop\n        /* \"#utility.yul\":3524:3539   */\n      swap1\n      swap2\n      add\n      swap1\n      0x00\n        /* \"#utility.yul\":3605:3774   */\n    tag_329:\n        /* \"#utility.yul\":3619:3625   */\n      dup2\n        /* \"#utility.yul\":3616:3617   */\n      dup2\n        /* \"#utility.yul\":3613:3626   */\n      lt\n        /* \"#utility.yul\":3605:3774   */\n      iszero\n      tag_331\n      jumpi\n        /* \"#utility.yul\":3680:3693   */\n      dup4\n      mload\n        /* \"#utility.yul\":3668:3694   */\n      dup4\n      mstore\n        /* \"#utility.yul\":3723:3725   */\n      0x20\n        /* \"#utility.yul\":3749:3764   */\n      swap4\n      dup5\n      add\n      swap4\n        /* \"#utility.yul\":3714:3726   */\n      swap1\n      swap3\n      add\n      swap2\n        /* \"#utility.yul\":3641:3642   */\n      0x01\n        /* \"#utility.yul\":3634:3643   */\n      add\n        /* \"#utility.yul\":3605:3774   */\n      jump(tag_329)\n    tag_331:\n      pop\n        /* \"#utility.yul\":3791:3794   */\n      swap1\n      swap12\n        /* \"#utility.yul\":2562:3800   */\n      swap11\n      pop\n      pop\n      pop\n      pop\n      pop\n      pop\n      pop\n      pop\n      pop\n      pop\n      pop\n      jump\t// out\n        /* \"#utility.yul\":4013:4916   */\n    tag_86:\n        /* \"#utility.yul\":4124:4130   */\n      0x00\n        /* \"#utility.yul\":4132:4138   */\n      dup1\n        /* \"#utility.yul\":4140:4146   */\n      0x00\n        /* \"#utility.yul\":4148:4154   */\n      dup1\n        /* \"#utility.yul\":4156:4162   */\n      0x00\n        /* \"#utility.yul\":4164:4170   */\n      dup1\n        /* \"#utility.yul\":4172:4178   */\n      0x00\n        /* \"#utility.yul\":4225:4228   */\n      0xe0\n        /* \"#utility.yul\":4213:4222   */\n      dup9\n        /* \"#utility.yul\":4204:4211   */\n      dup11\n        /* \"#utility.yul\":4200:4223   */\n      sub\n        /* \"#utility.yul\":4196:4229   */\n      slt\n        /* \"#utility.yul\":4193:4246   */\n      iszero\n      tag_334\n      jumpi\n        /* \"#utility.yul\":4242:4243   */\n      0x00\n        /* \"#utility.yul\":4239:4240   */\n      dup1\n        /* \"#utility.yul\":4232:4244   */\n      revert\n        /* \"#utility.yul\":4193:4246   */\n    tag_334:\n        /* \"#utility.yul\":4265:4294   */\n      tag_335\n        /* \"#utility.yul\":4284:4293   */\n      dup9\n        /* \"#utility.yul\":4265:4294   */\n      tag_303\n      jump\t// in\n    tag_335:\n        /* \"#utility.yul\":4255:4294   */\n      swap7\n      pop\n        /* \"#utility.yul\":4313:4351   */\n      tag_336\n        /* \"#utility.yul\":4347:4349   */\n      0x20\n        /* \"#utility.yul\":4336:4345   */\n      dup10\n        /* \"#utility.yul\":4332:4350   */\n      add\n        /* \"#utility.yul\":4313:4351   */\n      tag_303\n      jump\t// in\n    tag_336:\n        /* \"#utility.yul\":4303:4351   */\n      swap6\n      pop\n        /* \"#utility.yul\":4420:4422   */\n      0x40\n        /* \"#utility.yul\":4405:4423   */\n      dup9\n      add\n        /* \"#utility.yul\":4392:4424   */\n      calldataload\n      swap5\n      pop\n        /* \"#utility.yul\":4521:4523   */\n      0x60\n        /* \"#utility.yul\":4506:4524   */\n      dup9\n      add\n        /* \"#utility.yul\":4493:4525   */\n      calldataload\n      swap4\n      pop\n        /* \"#utility.yul\":4603:4606   */\n      0x80\n        /* \"#utility.yul\":4588:4607   */\n      dup9\n      add\n        /* \"#utility.yul\":4575:4608   */\n      calldataload\n        /* \"#utility.yul\":4652:4656   */\n      0xff\n        /* \"#utility.yul\":4639:4657   */\n      dup2\n      and\n        /* \"#utility.yul\":4627:4658   */\n      dup2\n      eq\n        /* \"#utility.yul\":4617:4676   */\n      tag_337\n      jumpi\n        /* \"#utility.yul\":4672:4673   */\n      0x00\n        /* \"#utility.yul\":4669:4670   */\n      dup1\n        /* \"#utility.yul\":4662:4674   */\n      revert\n        /* \"#utility.yul\":4617:4676   */\n    tag_337:\n        /* \"#utility.yul\":4013:4916   */\n      swap7\n      swap10\n      swap6\n      swap9\n      pop\n      swap4\n      swap7\n      swap3\n      swap6\n        /* \"#utility.yul\":4695:4702   */\n      swap5\n        /* \"#utility.yul\":4775:4778   */\n      0xa0\n        /* \"#utility.yul\":4760:4779   */\n      dup5\n      add\n        /* \"#utility.yul\":4747:4780   */\n      calldataload\n      swap5\n      pop\n        /* \"#utility.yul\":4879:4882   */\n      0xc0\n        /* \"#utility.yul\":4864:4883   */\n      swap1\n      swap4\n      add\n        /* \"#utility.yul\":4851:4884   */\n      calldataload\n      swap3\n        /* \"#utility.yul\":4013:4916   */\n      swap2\n      pop\n      pop\n      jump\t// out\n        /* \"#utility.yul\":4921:5181   */\n    tag_90:\n        /* \"#utility.yul\":4989:4995   */\n      0x00\n        /* \"#utility.yul\":4997:5003   */\n      dup1\n        /* \"#utility.yul\":5050:5052   */\n      0x40\n        /* \"#utility.yul\":5038:5047   */\n      dup4\n        /* \"#utility.yul\":5029:5036   */\n      dup6\n        /* \"#utility.yul\":5025:5048   */\n      sub\n        /* \"#utility.yul\":5021:5053   */\n      slt\n        /* \"#utility.yul\":5018:5070   */\n      iszero\n      tag_339\n      jumpi\n        /* \"#utility.yul\":5066:5067   */\n      0x00\n        /* \"#utility.yul\":5063:5064   */\n      dup1\n        /* \"#utility.yul\":5056:5068   */\n      revert\n        /* \"#utility.yul\":5018:5070   */\n    tag_339:\n        /* \"#utility.yul\":5089:5118   */\n      tag_340\n        /* \"#utility.yul\":5108:5117   */\n      dup4\n        /* \"#utility.yul\":5089:5118   */\n      tag_303\n      jump\t// in\n    tag_340:\n        /* \"#utility.yul\":5079:5118   */\n      swap2\n      pop\n        /* \"#utility.yul\":5137:5175   */\n      tag_341\n        /* \"#utility.yul\":5171:5173   */\n      0x20\n        /* \"#utility.yul\":5160:5169   */\n      dup5\n        /* \"#utility.yul\":5156:5174   */\n      add\n        /* \"#utility.yul\":5137:5175   */\n      tag_303\n      jump\t// in\n    tag_341:\n        /* \"#utility.yul\":5127:5175   */\n      swap1\n      pop\n        /* \"#utility.yul\":4921:5181   */\n      swap3\n      pop\n      swap3\n      swap1\n      pop\n      jump\t// out\n        /* \"#utility.yul\":5186:5566   */\n    tag_98:\n        /* \"#utility.yul\":5265:5266   */\n      0x01\n        /* \"#utility.yul\":5261:5273   */\n      dup2\n      dup2\n      shr\n      swap1\n        /* \"#utility.yul\":5308:5320   */\n      dup3\n      and\n      dup1\n        /* \"#utility.yul\":5329:5390   */\n      tag_343\n      jumpi\n        /* \"#utility.yul\":5383:5387   */\n      0x7f\n        /* \"#utility.yul\":5375:5381   */\n      dup3\n        /* \"#utility.yul\":5371:5388   */\n      and\n        /* \"#utility.yul\":5361:5388   */\n      swap2\n      pop\n        /* \"#utility.yul\":5329:5390   */\n    tag_343:\n        /* \"#utility.yul\":5436:5438   */\n      0x20\n        /* \"#utility.yul\":5428:5434   */\n      dup3\n        /* \"#utility.yul\":5425:5439   */\n      lt\n        /* \"#utility.yul\":5405:5423   */\n      dup2\n        /* \"#utility.yul\":5402:5440   */\n      sub\n        /* \"#utility.yul\":5399:5560   */\n      tag_344\n      jumpi\n        /* \"#utility.yul\":5482:5492   */\n      0x4e487b71\n        /* \"#utility.yul\":5477:5480   */\n      0xe0\n        /* \"#utility.yul\":5473:5493   */\n      shl\n        /* \"#utility.yul\":5470:5471   */\n      0x00\n        /* \"#utility.yul\":5463:5494   */\n      mstore\n        /* \"#utility.yul\":5517:5521   */\n      0x22\n        /* \"#utility.yul\":5514:5515   */\n      0x04\n        /* \"#utility.yul\":5507:5522   */\n      mstore\n        /* \"#utility.yul\":5545:5549   */\n      0x24\n        /* \"#utility.yul\":5542:5543   */\n      0x00\n        /* \"#utility.yul\":5535:5550   */\n      revert\n        /* \"#utility.yul\":5399:5560   */\n    tag_344:\n      pop\n        /* \"#utility.yul\":5186:5566   */\n      swap2\n      swap1\n      pop\n      jump\t// out\n        /* \"#utility.yul\":6950:7172   */\n    tag_239:\n        /* \"#utility.yul\":7015:7024   */\n      dup1\n      dup3\n      add\n        /* \"#utility.yul\":7036:7046   */\n      dup1\n      dup3\n      gt\n        /* \"#utility.yul\":7033:7166   */\n      iszero\n      tag_103\n      jumpi\n        /* \"#utility.yul\":7088:7098   */\n      0x4e487b71\n        /* \"#utility.yul\":7083:7086   */\n      0xe0\n        /* \"#utility.yul\":7079:7099   */\n      shl\n        /* \"#utility.yul\":7076:7077   */\n      0x00\n        /* \"#utility.yul\":7069:7100   */\n      mstore\n        /* \"#utility.yul\":7123:7127   */\n      0x11\n        /* \"#utility.yul\":7120:7121   */\n      0x04\n        /* \"#utility.yul\":7113:7128   */\n      mstore\n        /* \"#utility.yul\":7151:7155   */\n      0x24\n        /* \"#utility.yul\":7148:7149   */\n      0x00\n        /* \"#utility.yul\":7141:7156   */\n      revert\n        /* \"#utility.yul\":8074:8201   */\n    tag_270:\n        /* \"#utility.yul\":8135:8145   */\n      0x4e487b71\n        /* \"#utility.yul\":8130:8133   */\n      0xe0\n        /* \"#utility.yul\":8126:8146   */\n      shl\n        /* \"#utility.yul\":8123:8124   */\n      0x00\n        /* \"#utility.yul\":8116:8147   */\n      mstore\n        /* \"#utility.yul\":8166:8170   */\n      0x21\n        /* \"#utility.yul\":8163:8164   */\n      0x04\n        /* \"#utility.yul\":8156:8171   */\n      mstore\n        /* \"#utility.yul\":8190:8194   */\n      0x24\n        /* \"#utility.yul\":8187:8188   */\n      0x00\n        /* \"#utility.yul\":8180:8195   */\n      revert\n\n    auxdata: 0xa26469706673582212206435f0c322ac2d37a1fd9833cd6122a3b386d3e3e64627f975ddf49afa2aa46b64736f6c634300081a0033\n}\n",
				"bytecode": {
					"linkReferences": {},
					"object": "610160604052348015610010575f80fd5b506040516117dd3803806117dd83398101604081905261002f91610412565b80604051806040016040528060118152602001701110511116481510551148119492515391607a1b81525080604051806040016040528060018152602001603160f81b815250604051806040016040528060118152602001701110511116481510551148119492515391607a1b8152506040518060400160405280600a8152602001694441444459205441544560b01b81525081600390816100d191906104d7565b5060046100de82826104d7565b506100ee915083905060056101f4565b610120526100fd8160066101f4565b61014052815160208084019190912060e052815190820120610100524660a05261018960e05161010051604080517f8b73c3c69bb8fe3d512ecc4cf759cc79239f7b179b0ffacaa9a75d522b39400f60208201529081019290925260608201524660808201523060a08201525f9060c00160405160208183030381529060405280519060200120905090565b60805250503060c052506001600160a01b0381166101c157604051631e4fbdf760e01b81525f60048201526024015b60405180910390fd5b6101ca81610226565b506101ee336101db6012600a610688565b6101e990633b9aca00610696565b610277565b50610718565b5f60208351101561020f57610208836102af565b9050610220565b8161021a84826104d7565b5060ff90505b92915050565b600880546001600160a01b038381166001600160a01b0319831681179093556040519116919082907f8be0079c531659141344cd1fd0a4f28419497f9722a3daafe3b4186f6b6457e0905f90a35050565b6001600160a01b0382166102a05760405163ec442f0560e01b81525f60048201526024016101b8565b6102ab5f83836102ec565b5050565b5f80829050601f815111156102d9578260405163305a27a960e01b81526004016101b891906106ad565b80516102e4826106e2565b179392505050565b6001600160a01b038316610316578060025f82825461030b9190610705565b909155506103869050565b6001600160a01b0383165f90815260208190526040902054818110156103685760405163391434e360e21b81526001600160a01b038516600482015260248101829052604481018390526064016101b8565b6001600160a01b0384165f9081526020819052604090209082900390555b6001600160a01b0382166103a2576002805482900390556103c0565b6001600160a01b0382165f9081526020819052604090208054820190555b816001600160a01b0316836001600160a01b03167fddf252ad1be2c89b69c2b068fc378daa952ba7f163c4a11628f55a4df523b3ef8360405161040591815260200190565b60405180910390a3505050565b5f60208284031215610422575f80fd5b81516001600160a01b0381168114610438575f80fd5b9392505050565b634e487b7160e01b5f52604160045260245ffd5b600181811c9082168061046757607f821691505b60208210810361048557634e487b7160e01b5f52602260045260245ffd5b50919050565b601f8211156104d257805f5260205f20601f840160051c810160208510156104b05750805b601f840160051c820191505b818110156104cf575f81556001016104bc565b50505b505050565b81516001600160401b038111156104f0576104f061043f565b610504816104fe8454610453565b8461048b565b6020601f821160018114610536575f831561051f5750848201515b5f19600385901b1c1916600184901b1784556104cf565b5f84815260208120601f198516915b828110156105655787850151825560209485019460019092019101610545565b508482101561058257868401515f19600387901b60f8161c191681555b50505050600190811b01905550565b634e487b7160e01b5f52601160045260245ffd5b6001815b60018411156105e0578085048111156105c4576105c4610591565b60018416156105d257908102905b60019390931c9280026105a9565b935093915050565b5f826105f657506001610220565b8161060257505f610220565b816001811461061857600281146106225761063e565b6001915050610220565b60ff84111561063357610633610591565b50506001821b610220565b5060208310610133831016604e8410600b8410161715610661575081810a610220565b61066d5f1984846105a5565b805f190482111561068057610680610591565b029392505050565b5f61043860ff8416836105e8565b808202811582820484141761022057610220610591565b602081525f82518060208401528060208501604085015e5f604082850101526040601f19601f83011684010191505092915050565b80516020808301519190811015610485575f1960209190910360031b1b16919050565b8082018082111561022057610220610591565b60805160a05160c05160e0516101005161012051610140516110746107695f395f6108a801525f61087b01525f61077201525f61074a01525f6106a501525f6106cf01525f6106f901526110745ff3fe608060405234801561000f575f80fd5b5060043610610111575f3560e01c806379cc67901161009e57806395d89b411161006e57806395d89b4114610233578063a9059cbb1461023b578063d505accf1461024e578063dd62ed3e14610261578063f2fde38b14610299575f80fd5b806379cc6790146101d75780637ecebe00146101ea57806384b0196e146101fd5780638da5cb5b14610218575f80fd5b8063313ce567116100e4578063313ce5671461017b5780633644e5151461018a57806342966c681461019257806370a08231146101a7578063715018a6146101cf575f80fd5b806306fdde0314610115578063095ea7b31461013357806318160ddd1461015657806323b872dd14610168575b5f80fd5b61011d6102ac565b60405161012a9190610dd9565b60405180910390f35b610146610141366004610e0d565b61033c565b604051901515815260200161012a565b6002545b60405190815260200161012a565b610146610176366004610e35565b610355565b6040516012815260200161012a565b61015a610378565b6101a56101a0366004610e6f565b610386565b005b61015a6101b5366004610e86565b6001600160a01b03165f9081526020819052604090205490565b6101a5610393565b6101a56101e5366004610e0d565b6103a6565b61015a6101f8366004610e86565b6103bf565b6102056103dc565b60405161012a9796959493929190610e9f565b6008546040516001600160a01b03909116815260200161012a565b61011d61041e565b610146610249366004610e0d565b61042d565b6101a561025c366004610f35565b61043a565b61015a61026f366004610fa2565b6001600160a01b039182165f90815260016020908152604080832093909416825291909152205490565b6101a56102a7366004610e86565b610575565b6060600380546102bb90610fd3565b80601f01602080910402602001604051908101604052809291908181526020018280546102e790610fd3565b80156103325780601f1061030957610100808354040283529160200191610332565b820191905f5260205f20905b81548152906001019060200180831161031557829003601f168201915b5050505050905090565b5f336103498185856105af565b60019150505b92915050565b5f336103628582856105c1565b61036d85858561063c565b506001949350505050565b5f610381610699565b905090565b61039033826107c2565b50565b61039b6107f6565b6103a45f610823565b565b6103b18233836105c1565b6103bb82826107c2565b5050565b6001600160a01b0381165f9081526007602052604081205461034f565b5f6060805f805f60606103ed610874565b6103f56108a1565b604080515f80825260208201909252600f60f81b9b939a50919850469750309650945092509050565b6060600480546102bb90610fd3565b5f3361034981858561063c565b834211156104635760405163313c898160e11b8152600481018590526024015b60405180910390fd5b5f7f6e71edae12b1b97f4d1f60370fef10105fa2faae0126114a169c64845d6126c98888886104ae8c6001600160a01b03165f90815260076020526040902080546001810190915590565b6040805160208101969096526001600160a01b0394851690860152929091166060840152608083015260a082015260c0810186905260e0016040516020818303038152906040528051906020012090505f610508826108ce565b90505f610517828787876108fa565b9050896001600160a01b0316816001600160a01b03161461055e576040516325c0072360e11b81526001600160a01b0380831660048301528b16602482015260440161045a565b6105698a8a8a6105af565b50505050505050505050565b61057d6107f6565b6001600160a01b0381166105a657604051631e4fbdf760e01b81525f600482015260240161045a565b61039081610823565b6105bc8383836001610926565b505050565b6001600160a01b038381165f908152600160209081526040808320938616835292905220545f198114610636578181101561062857604051637dc7a0d960e11b81526001600160a01b0384166004820152602481018290526044810183905260640161045a565b61063684848484035f610926565b50505050565b6001600160a01b03831661066557604051634b637e8f60e11b81525f600482015260240161045a565b6001600160a01b03821661068e5760405163ec442f0560e01b81525f600482015260240161045a565b6105bc8383836109f8565b5f306001600160a01b037f0000000000000000000000000000000000000000000000000000000000000000161480156106f157507f000000000000000000000000000000000000000000000000000000000000000046145b1561071b57507f000000000000000000000000000000000000000000000000000000000000000090565b610381604080517f8b73c3c69bb8fe3d512ecc4cf759cc79239f7b179b0ffacaa9a75d522b39400f60208201527f0000000000000000000000000000000000000000000000000000000000000000918101919091527f000000000000000000000000000000000000000000000000000000000000000060608201524660808201523060a08201525f9060c00160405160208183030381529060405280519060200120905090565b6001600160a01b0382166107eb57604051634b637e8f60e11b81525f600482015260240161045a565b6103bb825f836109f8565b6008546001600160a01b031633146103a45760405163118cdaa760e01b815233600482015260240161045a565b600880546001600160a01b038381166001600160a01b0319831681179093556040519116919082907f8be0079c531659141344cd1fd0a4f28419497f9722a3daafe3b4186f6b6457e0905f90a35050565b60606103817f00000000000000000000000000000000000000000000000000000000000000006005610b1e565b60606103817f00000000000000000000000000000000000000000000000000000000000000006006610b1e565b5f61034f6108da610699565b8360405161190160f01b8152600281019290925260228201526042902090565b5f805f8061090a88888888610bc7565b92509250925061091a8282610c8f565b50909695505050505050565b6001600160a01b03841661094f5760405163e602df0560e01b81525f600482015260240161045a565b6001600160a01b03831661097857604051634a1406b160e11b81525f600482015260240161045a565b6001600160a01b038085165f908152600160209081526040808320938716835292905220829055801561063657826001600160a01b0316846001600160a01b03167f8c5be1e5ebec7d5bd14f71427d1e84f3dd0314c0f7b2291e5b200ac8c7c3b925846040516109ea91815260200190565b60405180910390a350505050565b6001600160a01b038316610a22578060025f828254610a17919061100b565b90915550610a929050565b6001600160a01b0383165f9081526020819052604090205481811015610a745760405163391434e360e21b81526001600160a01b0385166004820152602481018290526044810183905260640161045a565b6001600160a01b0384165f9081526020819052604090209082900390555b6001600160a01b038216610aae57600280548290039055610acc565b6001600160a01b0382165f9081526020819052604090208054820190555b816001600160a01b0316836001600160a01b03167fddf252ad1be2c89b69c2b068fc378daa952ba7f163c4a11628f55a4df523b3ef83604051610b1191815260200190565b60405180910390a3505050565b606060ff8314610b3857610b3183610d47565b905061034f565b818054610b4490610fd3565b80601f0160208091040260200160405190810160405280929190818152602001828054610b7090610fd3565b8015610bbb5780601f10610b9257610100808354040283529160200191610bbb565b820191905f5260205f20905b815481529060010190602001808311610b9e57829003601f168201915b5050505050905061034f565b5f80807f7fffffffffffffffffffffffffffffff5d576e7357a4501ddfe92f46681b20a0841115610c0057505f91506003905082610c85565b604080515f808252602082018084528a905260ff891692820192909252606081018790526080810186905260019060a0016020604051602081039080840390855afa158015610c51573d5f803e3d5ffd5b5050604051601f1901519150506001600160a01b038116610c7c57505f925060019150829050610c85565b92505f91508190505b9450945094915050565b5f826003811115610ca257610ca261102a565b03610cab575050565b6001826003811115610cbf57610cbf61102a565b03610cdd5760405163f645eedf60e01b815260040160405180910390fd5b6002826003811115610cf157610cf161102a565b03610d125760405163fce698f760e01b81526004810182905260240161045a565b6003826003811115610d2657610d2661102a565b036103bb576040516335e2f38360e21b81526004810182905260240161045a565b60605f610d5383610d84565b6040805160208082528183019092529192505f91906020820181803683375050509182525060208101929092525090565b5f60ff8216601f81111561034f57604051632cd44ac360e21b815260040160405180910390fd5b5f81518084528060208401602086015e5f602082860101526020601f19601f83011685010191505092915050565b602081525f610deb6020830184610dab565b9392505050565b80356001600160a01b0381168114610e08575f80fd5b919050565b5f8060408385031215610e1e575f80fd5b610e2783610df2565b946020939093013593505050565b5f805f60608486031215610e47575f80fd5b610e5084610df2565b9250610e5e60208501610df2565b929592945050506040919091013590565b5f60208284031215610e7f575f80fd5b5035919050565b5f60208284031215610e96575f80fd5b610deb82610df2565b60ff60f81b8816815260e060208201525f610ebd60e0830189610dab565b8281036040840152610ecf8189610dab565b606084018890526001600160a01b038716608085015260a0840186905283810360c0850152845180825260208087019350909101905f5b81811015610f24578351835260209384019390920191600101610f06565b50909b9a5050505050505050505050565b5f805f805f805f60e0888a031215610f4b575f80fd5b610f5488610df2565b9650610f6260208901610df2565b95506040880135945060608801359350608088013560ff81168114610f85575f80fd5b9699959850939692959460a0840135945060c09093013592915050565b5f8060408385031215610fb3575f80fd5b610fbc83610df2565b9150610fca60208401610df2565b90509250929050565b600181811c90821680610fe757607f821691505b60208210810361100557634e487b7160e01b5f52602260045260245ffd5b50919050565b8082018082111561034f57634e487b7160e01b5f52601160045260245ffd5b634e487b7160e01b5f52602160045260245ffdfea26469706673582212206435f0c322ac2d37a1fd9833cd6122a3b386d3e3e64627f975ddf49afa2aa46b64736f6c634300081a0033",
					"opcodes": "PUSH2 0x160 PUSH1 0x40 MSTORE CALLVALUE DUP1 ISZERO PUSH2 0x10 JUMPI PUSH0 DUP1 REVERT JUMPDEST POP PUSH1 0x40 MLOAD PUSH2 0x17DD CODESIZE SUB DUP1 PUSH2 0x17DD DUP4 CODECOPY DUP2 ADD PUSH1 0x40 DUP2 SWAP1 MSTORE PUSH2 0x2F SWAP2 PUSH2 0x412 JUMP JUMPDEST DUP1 PUSH1 0x40 MLOAD DUP1 PUSH1 0x40 ADD PUSH1 0x40 MSTORE DUP1 PUSH1 0x11 DUP2 MSTORE PUSH1 0x20 ADD PUSH17 0x1110511116481510551148119492515391 PUSH1 0x7A SHL DUP2 MSTORE POP DUP1 PUSH1 0x40 MLOAD DUP1 PUSH1 0x40 ADD PUSH1 0x40 MSTORE DUP1 PUSH1 0x1 DUP2 MSTORE PUSH1 0x20 ADD PUSH1 0x31 PUSH1 0xF8 SHL DUP2 MSTORE POP PUSH1 0x40 MLOAD DUP1 PUSH1 0x40 ADD PUSH1 0x40 MSTORE DUP1 PUSH1 0x11 DUP2 MSTORE PUSH1 0x20 ADD PUSH17 0x1110511116481510551148119492515391 PUSH1 0x7A SHL DUP2 MSTORE POP PUSH1 0x40 MLOAD DUP1 PUSH1 0x40 ADD PUSH1 0x40 MSTORE DUP1 PUSH1 0xA DUP2 MSTORE PUSH1 0x20 ADD PUSH10 0x44414444592054415445 PUSH1 0xB0 SHL DUP2 MSTORE POP DUP2 PUSH1 0x3 SWAP1 DUP2 PUSH2 0xD1 SWAP2 SWAP1 PUSH2 0x4D7 JUMP JUMPDEST POP PUSH1 0x4 PUSH2 0xDE DUP3 DUP3 PUSH2 0x4D7 JUMP JUMPDEST POP PUSH2 0xEE SWAP2 POP DUP4 SWAP1 POP PUSH1 0x5 PUSH2 0x1F4 JUMP JUMPDEST PUSH2 0x120 MSTORE PUSH2 0xFD DUP2 PUSH1 0x6 PUSH2 0x1F4 JUMP JUMPDEST PUSH2 0x140 MSTORE DUP2 MLOAD PUSH1 0x20 DUP1 DUP5 ADD SWAP2 SWAP1 SWAP2 KECCAK256 PUSH1 0xE0 MSTORE DUP2 MLOAD SWAP1 DUP3 ADD KECCAK256 PUSH2 0x100 MSTORE CHAINID PUSH1 0xA0 MSTORE PUSH2 0x189 PUSH1 0xE0 MLOAD PUSH2 0x100 MLOAD PUSH1 0x40 DUP1 MLOAD PUSH32 0x8B73C3C69BB8FE3D512ECC4CF759CC79239F7B179B0FFACAA9A75D522B39400F PUSH1 0x20 DUP3 ADD MSTORE SWAP1 DUP2 ADD SWAP3 SWAP1 SWAP3 MSTORE PUSH1 0x60 DUP3 ADD MSTORE CHAINID PUSH1 0x80 DUP3 ADD MSTORE ADDRESS PUSH1 0xA0 DUP3 ADD MSTORE PUSH0 SWAP1 PUSH1 0xC0 ADD PUSH1 0x40 MLOAD PUSH1 0x20 DUP2 DUP4 SUB SUB DUP2 MSTORE SWAP1 PUSH1 0x40 MSTORE DUP1 MLOAD SWAP1 PUSH1 0x20 ADD KECCAK256 SWAP1 POP SWAP1 JUMP JUMPDEST PUSH1 0x80 MSTORE POP POP ADDRESS PUSH1 0xC0 MSTORE POP PUSH1 0x1 PUSH1 0x1 PUSH1 0xA0 SHL SUB DUP2 AND PUSH2 0x1C1 JUMPI PUSH1 0x40 MLOAD PUSH4 0x1E4FBDF7 PUSH1 0xE0 SHL DUP2 MSTORE PUSH0 PUSH1 0x4 DUP3 ADD MSTORE PUSH1 0x24 ADD JUMPDEST PUSH1 0x40 MLOAD DUP1 SWAP2 SUB SWAP1 REVERT JUMPDEST PUSH2 0x1CA DUP2 PUSH2 0x226 JUMP JUMPDEST POP PUSH2 0x1EE CALLER PUSH2 0x1DB PUSH1 0x12 PUSH1 0xA PUSH2 0x688 JUMP JUMPDEST PUSH2 0x1E9 SWAP1 PUSH4 0x3B9ACA00 PUSH2 0x696 JUMP JUMPDEST PUSH2 0x277 JUMP JUMPDEST POP PUSH2 0x718 JUMP JUMPDEST PUSH0 PUSH1 0x20 DUP4 MLOAD LT ISZERO PUSH2 0x20F JUMPI PUSH2 0x208 DUP4 PUSH2 0x2AF JUMP JUMPDEST SWAP1 POP PUSH2 0x220 JUMP JUMPDEST DUP2 PUSH2 0x21A DUP5 DUP3 PUSH2 0x4D7 JUMP JUMPDEST POP PUSH1 0xFF SWAP1 POP JUMPDEST SWAP3 SWAP2 POP POP JUMP JUMPDEST PUSH1 0x8 DUP1 SLOAD PUSH1 0x1 PUSH1 0x1 PUSH1 0xA0 SHL SUB DUP4 DUP2 AND PUSH1 0x1 PUSH1 0x1 PUSH1 0xA0 SHL SUB NOT DUP4 AND DUP2 OR SWAP1 SWAP4 SSTORE PUSH1 0x40 MLOAD SWAP2 AND SWAP2 SWAP1 DUP3 SWAP1 PUSH32 0x8BE0079C531659141344CD1FD0A4F28419497F9722A3DAAFE3B4186F6B6457E0 SWAP1 PUSH0 SWAP1 LOG3 POP POP JUMP JUMPDEST PUSH1 0x1 PUSH1 0x1 PUSH1 0xA0 SHL SUB DUP3 AND PUSH2 0x2A0 JUMPI PUSH1 0x40 MLOAD PUSH4 0xEC442F05 PUSH1 0xE0 SHL DUP2 MSTORE PUSH0 PUSH1 0x4 DUP3 ADD MSTORE PUSH1 0x24 ADD PUSH2 0x1B8 JUMP JUMPDEST PUSH2 0x2AB PUSH0 DUP4 DUP4 PUSH2 0x2EC JUMP JUMPDEST POP POP JUMP JUMPDEST PUSH0 DUP1 DUP3 SWAP1 POP PUSH1 0x1F DUP2 MLOAD GT ISZERO PUSH2 0x2D9 JUMPI DUP3 PUSH1 0x40 MLOAD PUSH4 0x305A27A9 PUSH1 0xE0 SHL DUP2 MSTORE PUSH1 0x4 ADD PUSH2 0x1B8 SWAP2 SWAP1 PUSH2 0x6AD JUMP JUMPDEST DUP1 MLOAD PUSH2 0x2E4 DUP3 PUSH2 0x6E2 JUMP JUMPDEST OR SWAP4 SWAP3 POP POP POP JUMP JUMPDEST PUSH1 0x1 PUSH1 0x1 PUSH1 0xA0 SHL SUB DUP4 AND PUSH2 0x316 JUMPI DUP1 PUSH1 0x2 PUSH0 DUP3 DUP3 SLOAD PUSH2 0x30B SWAP2 SWAP1 PUSH2 0x705 JUMP JUMPDEST SWAP1 SWAP2 SSTORE POP PUSH2 0x386 SWAP1 POP JUMP JUMPDEST PUSH1 0x1 PUSH1 0x1 PUSH1 0xA0 SHL SUB DUP4 AND PUSH0 SWAP1 DUP2 MSTORE PUSH1 0x20 DUP2 SWAP1 MSTORE PUSH1 0x40 SWAP1 KECCAK256 SLOAD DUP2 DUP2 LT ISZERO PUSH2 0x368 JUMPI PUSH1 0x40 MLOAD PUSH4 0x391434E3 PUSH1 0xE2 SHL DUP2 MSTORE PUSH1 0x1 PUSH1 0x1 PUSH1 0xA0 SHL SUB DUP6 AND PUSH1 0x4 DUP3 ADD MSTORE PUSH1 0x24 DUP2 ADD DUP3 SWAP1 MSTORE PUSH1 0x44 DUP2 ADD DUP4 SWAP1 MSTORE PUSH1 0x64 ADD PUSH2 0x1B8 JUMP JUMPDEST PUSH1 0x1 PUSH1 0x1 PUSH1 0xA0 SHL SUB DUP5 AND PUSH0 SWAP1 DUP2 MSTORE PUSH1 0x20 DUP2 SWAP1 MSTORE PUSH1 0x40 SWAP1 KECCAK256 SWAP1 DUP3 SWAP1 SUB SWAP1 SSTORE JUMPDEST PUSH1 0x1 PUSH1 0x1 PUSH1 0xA0 SHL SUB DUP3 AND PUSH2 0x3A2 JUMPI PUSH1 0x2 DUP1 SLOAD DUP3 SWAP1 SUB SWAP1 SSTORE PUSH2 0x3C0 JUMP JUMPDEST PUSH1 0x1 PUSH1 0x1 PUSH1 0xA0 SHL SUB DUP3 AND PUSH0 SWAP1 DUP2 MSTORE PUSH1 0x20 DUP2 SWAP1 MSTORE PUSH1 0x40 SWAP1 KECCAK256 DUP1 SLOAD DUP3 ADD SWAP1 SSTORE JUMPDEST DUP2 PUSH1 0x1 PUSH1 0x1 PUSH1 0xA0 SHL SUB AND DUP4 PUSH1 0x1 PUSH1 0x1 PUSH1 0xA0 SHL SUB AND PUSH32 0xDDF252AD1BE2C89B69C2B068FC378DAA952BA7F163C4A11628F55A4DF523B3EF DUP4 PUSH1 0x40 MLOAD PUSH2 0x405 SWAP2 DUP2 MSTORE PUSH1 0x20 ADD SWAP1 JUMP JUMPDEST PUSH1 0x40 MLOAD DUP1 SWAP2 SUB SWAP1 LOG3 POP POP POP JUMP JUMPDEST PUSH0 PUSH1 0x20 DUP3 DUP5 SUB SLT ISZERO PUSH2 0x422 JUMPI PUSH0 DUP1 REVERT JUMPDEST DUP2 MLOAD PUSH1 0x1 PUSH1 0x1 PUSH1 0xA0 SHL SUB DUP2 AND DUP2 EQ PUSH2 0x438 JUMPI PUSH0 DUP1 REVERT JUMPDEST SWAP4 SWAP3 POP POP POP JUMP JUMPDEST PUSH4 0x4E487B71 PUSH1 0xE0 SHL PUSH0 MSTORE PUSH1 0x41 PUSH1 0x4 MSTORE PUSH1 0x24 PUSH0 REVERT JUMPDEST PUSH1 0x1 DUP2 DUP2 SHR SWAP1 DUP3 AND DUP1 PUSH2 0x467 JUMPI PUSH1 0x7F DUP3 AND SWAP2 POP JUMPDEST PUSH1 0x20 DUP3 LT DUP2 SUB PUSH2 0x485 JUMPI PUSH4 0x4E487B71 PUSH1 0xE0 SHL PUSH0 MSTORE PUSH1 0x22 PUSH1 0x4 MSTORE PUSH1 0x24 PUSH0 REVERT JUMPDEST POP SWAP2 SWAP1 POP JUMP JUMPDEST PUSH1 0x1F DUP3 GT ISZERO PUSH2 0x4D2 JUMPI DUP1 PUSH0 MSTORE PUSH1 0x20 PUSH0 KECCAK256 PUSH1 0x1F DUP5 ADD PUSH1 0x5 SHR DUP2 ADD PUSH1 0x20 DUP6 LT ISZERO PUSH2 0x4B0 JUMPI POP DUP1 JUMPDEST PUSH1 0x1F DUP5 ADD PUSH1 0x5 SHR DUP3 ADD SWAP2 POP JUMPDEST DUP2 DUP2 LT ISZERO PUSH2 0x4CF JUMPI PUSH0 DUP2 SSTORE PUSH1 0x1 ADD PUSH2 0x4BC JUMP JUMPDEST POP POP JUMPDEST POP POP POP JUMP JUMPDEST DUP2 MLOAD PUSH1 0x1 PUSH1 0x1 PUSH1 0x40 SHL SUB DUP2 GT ISZERO PUSH2 0x4F0 JUMPI PUSH2 0x4F0 PUSH2 0x43F JUMP JUMPDEST PUSH2 0x504 DUP2 PUSH2 0x4FE DUP5 SLOAD PUSH2 0x453 JUMP JUMPDEST DUP5 PUSH2 0x48B JUMP JUMPDEST PUSH1 0x20 PUSH1 0x1F DUP3 GT PUSH1 0x1 DUP2 EQ PUSH2 0x536 JUMPI PUSH0 DUP4 ISZERO PUSH2 0x51F JUMPI POP DUP5 DUP3 ADD MLOAD JUMPDEST PUSH0 NOT PUSH1 0x3 DUP6 SWAP1 SHL SHR NOT AND PUSH1 0x1 DUP5 SWAP1 SHL OR DUP5 SSTORE PUSH2 0x4CF JUMP JUMPDEST PUSH0 DUP5 DUP2 MSTORE PUSH1 0x20 DUP2 KECCAK256 PUSH1 0x1F NOT DUP6 AND SWAP2 JUMPDEST DUP3 DUP2 LT ISZERO PUSH2 0x565 JUMPI DUP8 DUP6 ADD MLOAD DUP3 SSTORE PUSH1 0x20 SWAP5 DUP6 ADD SWAP5 PUSH1 0x1 SWAP1 SWAP3 ADD SWAP2 ADD PUSH2 0x545 JUMP JUMPDEST POP DUP5 DUP3 LT ISZERO PUSH2 0x582 JUMPI DUP7 DUP5 ADD MLOAD PUSH0 NOT PUSH1 0x3 DUP8 SWAP1 SHL PUSH1 0xF8 AND SHR NOT AND DUP2 SSTORE JUMPDEST POP POP POP POP PUSH1 0x1 SWAP1 DUP2 SHL ADD SWAP1 SSTORE POP JUMP JUMPDEST PUSH4 0x4E487B71 PUSH1 0xE0 SHL PUSH0 MSTORE PUSH1 0x11 PUSH1 0x4 MSTORE PUSH1 0x24 PUSH0 REVERT JUMPDEST PUSH1 0x1 DUP2 JUMPDEST PUSH1 0x1 DUP5 GT ISZERO PUSH2 0x5E0 JUMPI DUP1 DUP6 DIV DUP2 GT ISZERO PUSH2 0x5C4 JUMPI PUSH2 0x5C4 PUSH2 0x591 JUMP JUMPDEST PUSH1 0x1 DUP5 AND ISZERO PUSH2 0x5D2 JUMPI SWAP1 DUP2 MUL SWAP1 JUMPDEST PUSH1 0x1 SWAP4 SWAP1 SWAP4 SHR SWAP3 DUP1 MUL PUSH2 0x5A9 JUMP JUMPDEST SWAP4 POP SWAP4 SWAP2 POP POP JUMP JUMPDEST PUSH0 DUP3 PUSH2 0x5F6 JUMPI POP PUSH1 0x1 PUSH2 0x220 JUMP JUMPDEST DUP2 PUSH2 0x602 JUMPI POP PUSH0 PUSH2 0x220 JUMP JUMPDEST DUP2 PUSH1 0x1 DUP2 EQ PUSH2 0x618 JUMPI PUSH1 0x2 DUP2 EQ PUSH2 0x622 JUMPI PUSH2 0x63E JUMP JUMPDEST PUSH1 0x1 SWAP2 POP POP PUSH2 0x220 JUMP JUMPDEST PUSH1 0xFF DUP5 GT ISZERO PUSH2 0x633 JUMPI PUSH2 0x633 PUSH2 0x591 JUMP JUMPDEST POP POP PUSH1 0x1 DUP3 SHL PUSH2 0x220 JUMP JUMPDEST POP PUSH1 0x20 DUP4 LT PUSH2 0x133 DUP4 LT AND PUSH1 0x4E DUP5 LT PUSH1 0xB DUP5 LT AND OR ISZERO PUSH2 0x661 JUMPI POP DUP2 DUP2 EXP PUSH2 0x220 JUMP JUMPDEST PUSH2 0x66D PUSH0 NOT DUP5 DUP5 PUSH2 0x5A5 JUMP JUMPDEST DUP1 PUSH0 NOT DIV DUP3 GT ISZERO PUSH2 0x680 JUMPI PUSH2 0x680 PUSH2 0x591 JUMP JUMPDEST MUL SWAP4 SWAP3 POP POP POP JUMP JUMPDEST PUSH0 PUSH2 0x438 PUSH1 0xFF DUP5 AND DUP4 PUSH2 0x5E8 JUMP JUMPDEST DUP1 DUP3 MUL DUP2 ISZERO DUP3 DUP3 DIV DUP5 EQ OR PUSH2 0x220 JUMPI PUSH2 0x220 PUSH2 0x591 JUMP JUMPDEST PUSH1 0x20 DUP2 MSTORE PUSH0 DUP3 MLOAD DUP1 PUSH1 0x20 DUP5 ADD MSTORE DUP1 PUSH1 0x20 DUP6 ADD PUSH1 0x40 DUP6 ADD MCOPY PUSH0 PUSH1 0x40 DUP3 DUP6 ADD ADD MSTORE PUSH1 0x40 PUSH1 0x1F NOT PUSH1 0x1F DUP4 ADD AND DUP5 ADD ADD SWAP2 POP POP SWAP3 SWAP2 POP POP JUMP JUMPDEST DUP1 MLOAD PUSH1 0x20 DUP1 DUP4 ADD MLOAD SWAP2 SWAP1 DUP2 LT ISZERO PUSH2 0x485 JUMPI PUSH0 NOT PUSH1 0x20 SWAP2 SWAP1 SWAP2 SUB PUSH1 0x3 SHL SHL AND SWAP2 SWAP1 POP JUMP JUMPDEST DUP1 DUP3 ADD DUP1 DUP3 GT ISZERO PUSH2 0x220 JUMPI PUSH2 0x220 PUSH2 0x591 JUMP JUMPDEST PUSH1 0x80 MLOAD PUSH1 0xA0 MLOAD PUSH1 0xC0 MLOAD PUSH1 0xE0 MLOAD PUSH2 0x100 MLOAD PUSH2 0x120 MLOAD PUSH2 0x140 MLOAD PUSH2 0x1074 PUSH2 0x769 PUSH0 CODECOPY PUSH0 PUSH2 0x8A8 ADD MSTORE PUSH0 PUSH2 0x87B ADD MSTORE PUSH0 PUSH2 0x772 ADD MSTORE PUSH0 PUSH2 0x74A ADD MSTORE PUSH0 PUSH2 0x6A5 ADD MSTORE PUSH0 PUSH2 0x6CF ADD MSTORE PUSH0 PUSH2 0x6F9 ADD MSTORE PUSH2 0x1074 PUSH0 RETURN INVALID PUSH1 0x80 PUSH1 0x40 MSTORE CALLVALUE DUP1 ISZERO PUSH2 0xF JUMPI PUSH0 DUP1 REVERT JUMPDEST POP PUSH1 0x4 CALLDATASIZE LT PUSH2 0x111 JUMPI PUSH0 CALLDATALOAD PUSH1 0xE0 SHR DUP1 PUSH4 0x79CC6790 GT PUSH2 0x9E JUMPI DUP1 PUSH4 0x95D89B41 GT PUSH2 0x6E JUMPI DUP1 PUSH4 0x95D89B41 EQ PUSH2 0x233 JUMPI DUP1 PUSH4 0xA9059CBB EQ PUSH2 0x23B JUMPI DUP1 PUSH4 0xD505ACCF EQ PUSH2 0x24E JUMPI DUP1 PUSH4 0xDD62ED3E EQ PUSH2 0x261 JUMPI DUP1 PUSH4 0xF2FDE38B EQ PUSH2 0x299 JUMPI PUSH0 DUP1 REVERT JUMPDEST DUP1 PUSH4 0x79CC6790 EQ PUSH2 0x1D7 JUMPI DUP1 PUSH4 0x7ECEBE00 EQ PUSH2 0x1EA JUMPI DUP1 PUSH4 0x84B0196E EQ PUSH2 0x1FD JUMPI DUP1 PUSH4 0x8DA5CB5B EQ PUSH2 0x218 JUMPI PUSH0 DUP1 REVERT JUMPDEST DUP1 PUSH4 0x313CE567 GT PUSH2 0xE4 JUMPI DUP1 PUSH4 0x313CE567 EQ PUSH2 0x17B JUMPI DUP1 PUSH4 0x3644E515 EQ PUSH2 0x18A JUMPI DUP1 PUSH4 0x42966C68 EQ PUSH2 0x192 JUMPI DUP1 PUSH4 0x70A08231 EQ PUSH2 0x1A7 JUMPI DUP1 PUSH4 0x715018A6 EQ PUSH2 0x1CF JUMPI PUSH0 DUP1 REVERT JUMPDEST DUP1 PUSH4 0x6FDDE03 EQ PUSH2 0x115 JUMPI DUP1 PUSH4 0x95EA7B3 EQ PUSH2 0x133 JUMPI DUP1 PUSH4 0x18160DDD EQ PUSH2 0x156 JUMPI DUP1 PUSH4 0x23B872DD EQ PUSH2 0x168 JUMPI JUMPDEST PUSH0 DUP1 REVERT JUMPDEST PUSH2 0x11D PUSH2 0x2AC JUMP JUMPDEST PUSH1 0x40 MLOAD PUSH2 0x12A SWAP2 SWAP1 PUSH2 0xDD9 JUMP JUMPDEST PUSH1 0x40 MLOAD DUP1 SWAP2 SUB SWAP1 RETURN JUMPDEST PUSH2 0x146 PUSH2 0x141 CALLDATASIZE PUSH1 0x4 PUSH2 0xE0D JUMP JUMPDEST PUSH2 0x33C JUMP JUMPDEST PUSH1 0x40 MLOAD SWAP1 ISZERO ISZERO DUP2 MSTORE PUSH1 0x20 ADD PUSH2 0x12A JUMP JUMPDEST PUSH1 0x2 SLOAD JUMPDEST PUSH1 0x40 MLOAD SWAP1 DUP2 MSTORE PUSH1 0x20 ADD PUSH2 0x12A JUMP JUMPDEST PUSH2 0x146 PUSH2 0x176 CALLDATASIZE PUSH1 0x4 PUSH2 0xE35 JUMP JUMPDEST PUSH2 0x355 JUMP JUMPDEST PUSH1 0x40 MLOAD PUSH1 0x12 DUP2 MSTORE PUSH1 0x20 ADD PUSH2 0x12A JUMP JUMPDEST PUSH2 0x15A PUSH2 0x378 JUMP JUMPDEST PUSH2 0x1A5 PUSH2 0x1A0 CALLDATASIZE PUSH1 0x4 PUSH2 0xE6F JUMP JUMPDEST PUSH2 0x386 JUMP JUMPDEST STOP JUMPDEST PUSH2 0x15A PUSH2 0x1B5 CALLDATASIZE PUSH1 0x4 PUSH2 0xE86 JUMP JUMPDEST PUSH1 0x1 PUSH1 0x1 PUSH1 0xA0 SHL SUB AND PUSH0 SWAP1 DUP2 MSTORE PUSH1 0x20 DUP2 SWAP1 MSTORE PUSH1 0x40 SWAP1 KECCAK256 SLOAD SWAP1 JUMP JUMPDEST PUSH2 0x1A5 PUSH2 0x393 JUMP JUMPDEST PUSH2 0x1A5 PUSH2 0x1E5 CALLDATASIZE PUSH1 0x4 PUSH2 0xE0D JUMP JUMPDEST PUSH2 0x3A6 JUMP JUMPDEST PUSH2 0x15A PUSH2 0x1F8 CALLDATASIZE PUSH1 0x4 PUSH2 0xE86 JUMP JUMPDEST PUSH2 0x3BF JUMP JUMPDEST PUSH2 0x205 PUSH2 0x3DC JUMP JUMPDEST PUSH1 0x40 MLOAD PUSH2 0x12A SWAP8 SWAP7 SWAP6 SWAP5 SWAP4 SWAP3 SWAP2 SWAP1 PUSH2 0xE9F JUMP JUMPDEST PUSH1 0x8 SLOAD PUSH1 0x40 MLOAD PUSH1 0x1 PUSH1 0x1 PUSH1 0xA0 SHL SUB SWAP1 SWAP2 AND DUP2 MSTORE PUSH1 0x20 ADD PUSH2 0x12A JUMP JUMPDEST PUSH2 0x11D PUSH2 0x41E JUMP JUMPDEST PUSH2 0x146 PUSH2 0x249 CALLDATASIZE PUSH1 0x4 PUSH2 0xE0D JUMP JUMPDEST PUSH2 0x42D JUMP JUMPDEST PUSH2 0x1A5 PUSH2 0x25C CALLDATASIZE PUSH1 0x4 PUSH2 0xF35 JUMP JUMPDEST PUSH2 0x43A JUMP JUMPDEST PUSH2 0x15A PUSH2 0x26F CALLDATASIZE PUSH1 0x4 PUSH2 0xFA2 JUMP JUMPDEST PUSH1 0x1 PUSH1 0x1 PUSH1 0xA0 SHL SUB SWAP2 DUP3 AND PUSH0 SWAP1 DUP2 MSTORE PUSH1 0x1 PUSH1 0x20 SWAP1 DUP2 MSTORE PUSH1 0x40 DUP1 DUP4 KECCAK256 SWAP4 SWAP1 SWAP5 AND DUP3 MSTORE SWAP2 SWAP1 SWAP2 MSTORE KECCAK256 SLOAD SWAP1 JUMP JUMPDEST PUSH2 0x1A5 PUSH2 0x2A7 CALLDATASIZE PUSH1 0x4 PUSH2 0xE86 JUMP JUMPDEST PUSH2 0x575 JUMP JUMPDEST PUSH1 0x60 PUSH1 0x3 DUP1 SLOAD PUSH2 0x2BB SWAP1 PUSH2 0xFD3 JUMP JUMPDEST DUP1 PUSH1 0x1F ADD PUSH1 0x20 DUP1 SWAP2 DIV MUL PUSH1 0x20 ADD PUSH1 0x40 MLOAD SWAP1 DUP2 ADD PUSH1 0x40 MSTORE DUP1 SWAP3 SWAP2 SWAP1 DUP2 DUP2 MSTORE PUSH1 0x20 ADD DUP3 DUP1 SLOAD PUSH2 0x2E7 SWAP1 PUSH2 0xFD3 JUMP JUMPDEST DUP1 ISZERO PUSH2 0x332 JUMPI DUP1 PUSH1 0x1F LT PUSH2 0x309 JUMPI PUSH2 0x100 DUP1 DUP4 SLOAD DIV MUL DUP4 MSTORE SWAP2 PUSH1 0x20 ADD SWAP2 PUSH2 0x332 JUMP JUMPDEST DUP3 ADD SWAP2 SWAP1 PUSH0 MSTORE PUSH1 0x20 PUSH0 KECCAK256 SWAP1 JUMPDEST DUP2 SLOAD DUP2 MSTORE SWAP1 PUSH1 0x1 ADD SWAP1 PUSH1 0x20 ADD DUP1 DUP4 GT PUSH2 0x315 JUMPI DUP3 SWAP1 SUB PUSH1 0x1F AND DUP3 ADD SWAP2 JUMPDEST POP POP POP POP POP SWAP1 POP SWAP1 JUMP JUMPDEST PUSH0 CALLER PUSH2 0x349 DUP2 DUP6 DUP6 PUSH2 0x5AF JUMP JUMPDEST PUSH1 0x1 SWAP2 POP POP JUMPDEST SWAP3 SWAP2 POP POP JUMP JUMPDEST PUSH0 CALLER PUSH2 0x362 DUP6 DUP3 DUP6 PUSH2 0x5C1 JUMP JUMPDEST PUSH2 0x36D DUP6 DUP6 DUP6 PUSH2 0x63C JUMP JUMPDEST POP PUSH1 0x1 SWAP5 SWAP4 POP POP POP POP JUMP JUMPDEST PUSH0 PUSH2 0x381 PUSH2 0x699 JUMP JUMPDEST SWAP1 POP SWAP1 JUMP JUMPDEST PUSH2 0x390 CALLER DUP3 PUSH2 0x7C2 JUMP JUMPDEST POP JUMP JUMPDEST PUSH2 0x39B PUSH2 0x7F6 JUMP JUMPDEST PUSH2 0x3A4 PUSH0 PUSH2 0x823 JUMP JUMPDEST JUMP JUMPDEST PUSH2 0x3B1 DUP3 CALLER DUP4 PUSH2 0x5C1 JUMP JUMPDEST PUSH2 0x3BB DUP3 DUP3 PUSH2 0x7C2 JUMP JUMPDEST POP POP JUMP JUMPDEST PUSH1 0x1 PUSH1 0x1 PUSH1 0xA0 SHL SUB DUP2 AND PUSH0 SWAP1 DUP2 MSTORE PUSH1 0x7 PUSH1 0x20 MSTORE PUSH1 0x40 DUP2 KECCAK256 SLOAD PUSH2 0x34F JUMP JUMPDEST PUSH0 PUSH1 0x60 DUP1 PUSH0 DUP1 PUSH0 PUSH1 0x60 PUSH2 0x3ED PUSH2 0x874 JUMP JUMPDEST PUSH2 0x3F5 PUSH2 0x8A1 JUMP JUMPDEST PUSH1 0x40 DUP1 MLOAD PUSH0 DUP1 DUP3 MSTORE PUSH1 0x20 DUP3 ADD SWAP1 SWAP3 MSTORE PUSH1 0xF PUSH1 0xF8 SHL SWAP12 SWAP4 SWAP11 POP SWAP2 SWAP9 POP CHAINID SWAP8 POP ADDRESS SWAP7 POP SWAP5 POP SWAP3 POP SWAP1 POP JUMP JUMPDEST PUSH1 0x60 PUSH1 0x4 DUP1 SLOAD PUSH2 0x2BB SWAP1 PUSH2 0xFD3 JUMP JUMPDEST PUSH0 CALLER PUSH2 0x349 DUP2 DUP6 DUP6 PUSH2 0x63C JUMP JUMPDEST DUP4 TIMESTAMP GT ISZERO PUSH2 0x463 JUMPI PUSH1 0x40 MLOAD PUSH4 0x313C8981 PUSH1 0xE1 SHL DUP2 MSTORE PUSH1 0x4 DUP2 ADD DUP6 SWAP1 MSTORE PUSH1 0x24 ADD JUMPDEST PUSH1 0x40 MLOAD DUP1 SWAP2 SUB SWAP1 REVERT JUMPDEST PUSH0 PUSH32 0x6E71EDAE12B1B97F4D1F60370FEF10105FA2FAAE0126114A169C64845D6126C9 DUP9 DUP9 DUP9 PUSH2 0x4AE DUP13 PUSH1 0x1 PUSH1 0x1 PUSH1 0xA0 SHL SUB AND PUSH0 SWAP1 DUP2 MSTORE PUSH1 0x7 PUSH1 0x20 MSTORE PUSH1 0x40 SWAP1 KECCAK256 DUP1 SLOAD PUSH1 0x1 DUP2 ADD SWAP1 SWAP2 SSTORE SWAP1 JUMP JUMPDEST PUSH1 0x40 DUP1 MLOAD PUSH1 0x20 DUP2 ADD SWAP7 SWAP1 SWAP7 MSTORE PUSH1 0x1 PUSH1 0x1 PUSH1 0xA0 SHL SUB SWAP5 DUP6 AND SWAP1 DUP7 ADD MSTORE SWAP3 SWAP1 SWAP2 AND PUSH1 0x60 DUP5 ADD MSTORE PUSH1 0x80 DUP4 ADD MSTORE PUSH1 0xA0 DUP3 ADD MSTORE PUSH1 0xC0 DUP2 ADD DUP7 SWAP1 MSTORE PUSH1 0xE0 ADD PUSH1 0x40 MLOAD PUSH1 0x20 DUP2 DUP4 SUB SUB DUP2 MSTORE SWAP1 PUSH1 0x40 MSTORE DUP1 MLOAD SWAP1 PUSH1 0x20 ADD KECCAK256 SWAP1 POP PUSH0 PUSH2 0x508 DUP3 PUSH2 0x8CE JUMP JUMPDEST SWAP1 POP PUSH0 PUSH2 0x517 DUP3 DUP8 DUP8 DUP8 PUSH2 0x8FA JUMP JUMPDEST SWAP1 POP DUP10 PUSH1 0x1 PUSH1 0x1 PUSH1 0xA0 SHL SUB AND DUP2 PUSH1 0x1 PUSH1 0x1 PUSH1 0xA0 SHL SUB AND EQ PUSH2 0x55E JUMPI PUSH1 0x40 MLOAD PUSH4 0x25C00723 PUSH1 0xE1 SHL DUP2 MSTORE PUSH1 0x1 PUSH1 0x1 PUSH1 0xA0 SHL SUB DUP1 DUP4 AND PUSH1 0x4 DUP4 ADD MSTORE DUP12 AND PUSH1 0x24 DUP3 ADD MSTORE PUSH1 0x44 ADD PUSH2 0x45A JUMP JUMPDEST PUSH2 0x569 DUP11 DUP11 DUP11 PUSH2 0x5AF JUMP JUMPDEST POP POP POP POP POP POP POP POP POP POP JUMP JUMPDEST PUSH2 0x57D PUSH2 0x7F6 JUMP JUMPDEST PUSH1 0x1 PUSH1 0x1 PUSH1 0xA0 SHL SUB DUP2 AND PUSH2 0x5A6 JUMPI PUSH1 0x40 MLOAD PUSH4 0x1E4FBDF7 PUSH1 0xE0 SHL DUP2 MSTORE PUSH0 PUSH1 0x4 DUP3 ADD MSTORE PUSH1 0x24 ADD PUSH2 0x45A JUMP JUMPDEST PUSH2 0x390 DUP2 PUSH2 0x823 JUMP JUMPDEST PUSH2 0x5BC DUP4 DUP4 DUP4 PUSH1 0x1 PUSH2 0x926 JUMP JUMPDEST POP POP POP JUMP JUMPDEST PUSH1 0x1 PUSH1 0x1 PUSH1 0xA0 SHL SUB DUP4 DUP2 AND PUSH0 SWAP1 DUP2 MSTORE PUSH1 0x1 PUSH1 0x20 SWAP1 DUP2 MSTORE PUSH1 0x40 DUP1 DUP4 KECCAK256 SWAP4 DUP7 AND DUP4 MSTORE SWAP3 SWAP1 MSTORE KECCAK256 SLOAD PUSH0 NOT DUP2 EQ PUSH2 0x636 JUMPI DUP2 DUP2 LT ISZERO PUSH2 0x628 JUMPI PUSH1 0x40 MLOAD PUSH4 0x7DC7A0D9 PUSH1 0xE1 SHL DUP2 MSTORE PUSH1 0x1 PUSH1 0x1 PUSH1 0xA0 SHL SUB DUP5 AND PUSH1 0x4 DUP3 ADD MSTORE PUSH1 0x24 DUP2 ADD DUP3 SWAP1 MSTORE PUSH1 0x44 DUP2 ADD DUP4 SWAP1 MSTORE PUSH1 0x64 ADD PUSH2 0x45A JUMP JUMPDEST PUSH2 0x636 DUP5 DUP5 DUP5 DUP5 SUB PUSH0 PUSH2 0x926 JUMP JUMPDEST POP POP POP POP JUMP JUMPDEST PUSH1 0x1 PUSH1 0x1 PUSH1 0xA0 SHL SUB DUP4 AND PUSH2 0x665 JUMPI PUSH1 0x40 MLOAD PUSH4 0x4B637E8F PUSH1 0xE1 SHL DUP2 MSTORE PUSH0 PUSH1 0x4 DUP3 ADD MSTORE PUSH1 0x24 ADD PUSH2 0x45A JUMP JUMPDEST PUSH1 0x1 PUSH1 0x1 PUSH1 0xA0 SHL SUB DUP3 AND PUSH2 0x68E JUMPI PUSH1 0x40 MLOAD PUSH4 0xEC442F05 PUSH1 0xE0 SHL DUP2 MSTORE PUSH0 PUSH1 0x4 DUP3 ADD MSTORE PUSH1 0x24 ADD PUSH2 0x45A JUMP JUMPDEST PUSH2 0x5BC DUP4 DUP4 DUP4 PUSH2 0x9F8 JUMP JUMPDEST PUSH0 ADDRESS PUSH1 0x1 PUSH1 0x1 PUSH1 0xA0 SHL SUB PUSH32 0x0 AND EQ DUP1 ISZERO PUSH2 0x6F1 JUMPI POP PUSH32 0x0 CHAINID EQ JUMPDEST ISZERO PUSH2 0x71B JUMPI POP PUSH32 0x0 SWAP1 JUMP JUMPDEST PUSH2 0x381 PUSH1 0x40 DUP1 MLOAD PUSH32 0x8B73C3C69BB8FE3D512ECC4CF759CC79239F7B179B0FFACAA9A75D522B39400F PUSH1 0x20 DUP3 ADD MSTORE PUSH32 0x0 SWAP2 DUP2 ADD SWAP2 SWAP1 SWAP2 MSTORE PUSH32 0x0 PUSH1 0x60 DUP3 ADD MSTORE CHAINID PUSH1 0x80 DUP3 ADD MSTORE ADDRESS PUSH1 0xA0 DUP3 ADD MSTORE PUSH0 SWAP1 PUSH1 0xC0 ADD PUSH1 0x40 MLOAD PUSH1 0x20 DUP2 DUP4 SUB SUB DUP2 MSTORE SWAP1 PUSH1 0x40 MSTORE DUP1 MLOAD SWAP1 PUSH1 0x20 ADD KECCAK256 SWAP1 POP SWAP1 JUMP JUMPDEST PUSH1 0x1 PUSH1 0x1 PUSH1 0xA0 SHL SUB DUP3 AND PUSH2 0x7EB JUMPI PUSH1 0x40 MLOAD PUSH4 0x4B637E8F PUSH1 0xE1 SHL DUP2 MSTORE PUSH0 PUSH1 0x4 DUP3 ADD MSTORE PUSH1 0x24 ADD PUSH2 0x45A JUMP JUMPDEST PUSH2 0x3BB DUP3 PUSH0 DUP4 PUSH2 0x9F8 JUMP JUMPDEST PUSH1 0x8 SLOAD PUSH1 0x1 PUSH1 0x1 PUSH1 0xA0 SHL SUB AND CALLER EQ PUSH2 0x3A4 JUMPI PUSH1 0x40 MLOAD PUSH4 0x118CDAA7 PUSH1 0xE0 SHL DUP2 MSTORE CALLER PUSH1 0x4 DUP3 ADD MSTORE PUSH1 0x24 ADD PUSH2 0x45A JUMP JUMPDEST PUSH1 0x8 DUP1 SLOAD PUSH1 0x1 PUSH1 0x1 PUSH1 0xA0 SHL SUB DUP4 DUP2 AND PUSH1 0x1 PUSH1 0x1 PUSH1 0xA0 SHL SUB NOT DUP4 AND DUP2 OR SWAP1 SWAP4 SSTORE PUSH1 0x40 MLOAD SWAP2 AND SWAP2 SWAP1 DUP3 SWAP1 PUSH32 0x8BE0079C531659141344CD1FD0A4F28419497F9722A3DAAFE3B4186F6B6457E0 SWAP1 PUSH0 SWAP1 LOG3 POP POP JUMP JUMPDEST PUSH1 0x60 PUSH2 0x381 PUSH32 0x0 PUSH1 0x5 PUSH2 0xB1E JUMP JUMPDEST PUSH1 0x60 PUSH2 0x381 PUSH32 0x0 PUSH1 0x6 PUSH2 0xB1E JUMP JUMPDEST PUSH0 PUSH2 0x34F PUSH2 0x8DA PUSH2 0x699 JUMP JUMPDEST DUP4 PUSH1 0x40 MLOAD PUSH2 0x1901 PUSH1 0xF0 SHL DUP2 MSTORE PUSH1 0x2 DUP2 ADD SWAP3 SWAP1 SWAP3 MSTORE PUSH1 0x22 DUP3 ADD MSTORE PUSH1 0x42 SWAP1 KECCAK256 SWAP1 JUMP JUMPDEST PUSH0 DUP1 PUSH0 DUP1 PUSH2 0x90A DUP9 DUP9 DUP9 DUP9 PUSH2 0xBC7 JUMP JUMPDEST SWAP3 POP SWAP3 POP SWAP3 POP PUSH2 0x91A DUP3 DUP3 PUSH2 0xC8F JUMP JUMPDEST POP SWAP1 SWAP7 SWAP6 POP POP POP POP POP POP JUMP JUMPDEST PUSH1 0x1 PUSH1 0x1 PUSH1 0xA0 SHL SUB DUP5 AND PUSH2 0x94F JUMPI PUSH1 0x40 MLOAD PUSH4 0xE602DF05 PUSH1 0xE0 SHL DUP2 MSTORE PUSH0 PUSH1 0x4 DUP3 ADD MSTORE PUSH1 0x24 ADD PUSH2 0x45A JUMP JUMPDEST PUSH1 0x1 PUSH1 0x1 PUSH1 0xA0 SHL SUB DUP4 AND PUSH2 0x978 JUMPI PUSH1 0x40 MLOAD PUSH4 0x4A1406B1 PUSH1 0xE1 SHL DUP2 MSTORE PUSH0 PUSH1 0x4 DUP3 ADD MSTORE PUSH1 0x24 ADD PUSH2 0x45A JUMP JUMPDEST PUSH1 0x1 PUSH1 0x1 PUSH1 0xA0 SHL SUB DUP1 DUP6 AND PUSH0 SWAP1 DUP2 MSTORE PUSH1 0x1 PUSH1 0x20 SWAP1 DUP2 MSTORE PUSH1 0x40 DUP1 DUP4 KECCAK256 SWAP4 DUP8 AND DUP4 MSTORE SWAP3 SWAP1 MSTORE KECCAK256 DUP3 SWAP1 SSTORE DUP1 ISZERO PUSH2 0x636 JUMPI DUP3 PUSH1 0x1 PUSH1 0x1 PUSH1 0xA0 SHL SUB AND DUP5 PUSH1 0x1 PUSH1 0x1 PUSH1 0xA0 SHL SUB AND PUSH32 0x8C5BE1E5EBEC7D5BD14F71427D1E84F3DD0314C0F7B2291E5B200AC8C7C3B925 DUP5 PUSH1 0x40 MLOAD PUSH2 0x9EA SWAP2 DUP2 MSTORE PUSH1 0x20 ADD SWAP1 JUMP JUMPDEST PUSH1 0x40 MLOAD DUP1 SWAP2 SUB SWAP1 LOG3 POP POP POP POP JUMP JUMPDEST PUSH1 0x1 PUSH1 0x1 PUSH1 0xA0 SHL SUB DUP4 AND PUSH2 0xA22 JUMPI DUP1 PUSH1 0x2 PUSH0 DUP3 DUP3 SLOAD PUSH2 0xA17 SWAP2 SWAP1 PUSH2 0x100B JUMP JUMPDEST SWAP1 SWAP2 SSTORE POP PUSH2 0xA92 SWAP1 POP JUMP JUMPDEST PUSH1 0x1 PUSH1 0x1 PUSH1 0xA0 SHL SUB DUP4 AND PUSH0 SWAP1 DUP2 MSTORE PUSH1 0x20 DUP2 SWAP1 MSTORE PUSH1 0x40 SWAP1 KECCAK256 SLOAD DUP2 DUP2 LT ISZERO PUSH2 0xA74 JUMPI PUSH1 0x40 MLOAD PUSH4 0x391434E3 PUSH1 0xE2 SHL DUP2 MSTORE PUSH1 0x1 PUSH1 0x1 PUSH1 0xA0 SHL SUB DUP6 AND PUSH1 0x4 DUP3 ADD MSTORE PUSH1 0x24 DUP2 ADD DUP3 SWAP1 MSTORE PUSH1 0x44 DUP2 ADD DUP4 SWAP1 MSTORE PUSH1 0x64 ADD PUSH2 0x45A JUMP JUMPDEST PUSH1 0x1 PUSH1 0x1 PUSH1 0xA0 SHL SUB DUP5 AND PUSH0 SWAP1 DUP2 MSTORE PUSH1 0x20 DUP2 SWAP1 MSTORE PUSH1 0x40 SWAP1 KECCAK256 SWAP1 DUP3 SWAP1 SUB SWAP1 SSTORE JUMPDEST PUSH1 0x1 PUSH1 0x1 PUSH1 0xA0 SHL SUB DUP3 AND PUSH2 0xAAE JUMPI PUSH1 0x2 DUP1 SLOAD DUP3 SWAP1 SUB SWAP1 SSTORE PUSH2 0xACC JUMP JUMPDEST PUSH1 0x1 PUSH1 0x1 PUSH1 0xA0 SHL SUB DUP3 AND PUSH0 SWAP1 DUP2 MSTORE PUSH1 0x20 DUP2 SWAP1 MSTORE PUSH1 0x40 SWAP1 KECCAK256 DUP1 SLOAD DUP3 ADD SWAP1 SSTORE JUMPDEST DUP2 PUSH1 0x1 PUSH1 0x1 PUSH1 0xA0 SHL SUB AND DUP4 PUSH1 0x1 PUSH1 0x1 PUSH1 0xA0 SHL SUB AND PUSH32 0xDDF252AD1BE2C89B69C2B068FC378DAA952BA7F163C4A11628F55A4DF523B3EF DUP4 PUSH1 0x40 MLOAD PUSH2 0xB11 SWAP2 DUP2 MSTORE PUSH1 0x20 ADD SWAP1 JUMP JUMPDEST PUSH1 0x40 MLOAD DUP1 SWAP2 SUB SWAP1 LOG3 POP POP POP JUMP JUMPDEST PUSH1 0x60 PUSH1 0xFF DUP4 EQ PUSH2 0xB38 JUMPI PUSH2 0xB31 DUP4 PUSH2 0xD47 JUMP JUMPDEST SWAP1 POP PUSH2 0x34F JUMP JUMPDEST DUP2 DUP1 SLOAD PUSH2 0xB44 SWAP1 PUSH2 0xFD3 JUMP JUMPDEST DUP1 PUSH1 0x1F ADD PUSH1 0x20 DUP1 SWAP2 DIV MUL PUSH1 0x20 ADD PUSH1 0x40 MLOAD SWAP1 DUP2 ADD PUSH1 0x40 MSTORE DUP1 SWAP3 SWAP2 SWAP1 DUP2 DUP2 MSTORE PUSH1 0x20 ADD DUP3 DUP1 SLOAD PUSH2 0xB70 SWAP1 PUSH2 0xFD3 JUMP JUMPDEST DUP1 ISZERO PUSH2 0xBBB JUMPI DUP1 PUSH1 0x1F LT PUSH2 0xB92 JUMPI PUSH2 0x100 DUP1 DUP4 SLOAD DIV MUL DUP4 MSTORE SWAP2 PUSH1 0x20 ADD SWAP2 PUSH2 0xBBB JUMP JUMPDEST DUP3 ADD SWAP2 SWAP1 PUSH0 MSTORE PUSH1 0x20 PUSH0 KECCAK256 SWAP1 JUMPDEST DUP2 SLOAD DUP2 MSTORE SWAP1 PUSH1 0x1 ADD SWAP1 PUSH1 0x20 ADD DUP1 DUP4 GT PUSH2 0xB9E JUMPI DUP3 SWAP1 SUB PUSH1 0x1F AND DUP3 ADD SWAP2 JUMPDEST POP POP POP POP POP SWAP1 POP PUSH2 0x34F JUMP JUMPDEST PUSH0 DUP1 DUP1 PUSH32 0x7FFFFFFFFFFFFFFFFFFFFFFFFFFFFFFF5D576E7357A4501DDFE92F46681B20A0 DUP5 GT ISZERO PUSH2 0xC00 JUMPI POP PUSH0 SWAP2 POP PUSH1 0x3 SWAP1 POP DUP3 PUSH2 0xC85 JUMP JUMPDEST PUSH1 0x40 DUP1 MLOAD PUSH0 DUP1 DUP3 MSTORE PUSH1 0x20 DUP3 ADD DUP1 DUP5 MSTORE DUP11 SWAP1 MSTORE PUSH1 0xFF DUP10 AND SWAP3 DUP3 ADD SWAP3 SWAP1 SWAP3 MSTORE PUSH1 0x60 DUP2 ADD DUP8 SWAP1 MSTORE PUSH1 0x80 DUP2 ADD DUP7 SWAP1 MSTORE PUSH1 0x1 SWAP1 PUSH1 0xA0 ADD PUSH1 0x20 PUSH1 0x40 MLOAD PUSH1 0x20 DUP2 SUB SWAP1 DUP1 DUP5 SUB SWAP1 DUP6 GAS STATICCALL ISZERO DUP1 ISZERO PUSH2 0xC51 JUMPI RETURNDATASIZE PUSH0 DUP1 RETURNDATACOPY RETURNDATASIZE PUSH0 REVERT JUMPDEST POP POP PUSH1 0x40 MLOAD PUSH1 0x1F NOT ADD MLOAD SWAP2 POP POP PUSH1 0x1 PUSH1 0x1 PUSH1 0xA0 SHL SUB DUP2 AND PUSH2 0xC7C JUMPI POP PUSH0 SWAP3 POP PUSH1 0x1 SWAP2 POP DUP3 SWAP1 POP PUSH2 0xC85 JUMP JUMPDEST SWAP3 POP PUSH0 SWAP2 POP DUP2 SWAP1 POP JUMPDEST SWAP5 POP SWAP5 POP SWAP5 SWAP2 POP POP JUMP JUMPDEST PUSH0 DUP3 PUSH1 0x3 DUP2 GT ISZERO PUSH2 0xCA2 JUMPI PUSH2 0xCA2 PUSH2 0x102A JUMP JUMPDEST SUB PUSH2 0xCAB JUMPI POP POP JUMP JUMPDEST PUSH1 0x1 DUP3 PUSH1 0x3 DUP2 GT ISZERO PUSH2 0xCBF JUMPI PUSH2 0xCBF PUSH2 0x102A JUMP JUMPDEST SUB PUSH2 0xCDD JUMPI PUSH1 0x40 MLOAD PUSH4 0xF645EEDF PUSH1 0xE0 SHL DUP2 MSTORE PUSH1 0x4 ADD PUSH1 0x40 MLOAD DUP1 SWAP2 SUB SWAP1 REVERT JUMPDEST PUSH1 0x2 DUP3 PUSH1 0x3 DUP2 GT ISZERO PUSH2 0xCF1 JUMPI PUSH2 0xCF1 PUSH2 0x102A JUMP JUMPDEST SUB PUSH2 0xD12 JUMPI PUSH1 0x40 MLOAD PUSH4 0xFCE698F7 PUSH1 0xE0 SHL DUP2 MSTORE PUSH1 0x4 DUP2 ADD DUP3 SWAP1 MSTORE PUSH1 0x24 ADD PUSH2 0x45A JUMP JUMPDEST PUSH1 0x3 DUP3 PUSH1 0x3 DUP2 GT ISZERO PUSH2 0xD26 JUMPI PUSH2 0xD26 PUSH2 0x102A JUMP JUMPDEST SUB PUSH2 0x3BB JUMPI PUSH1 0x40 MLOAD PUSH4 0x35E2F383 PUSH1 0xE2 SHL DUP2 MSTORE PUSH1 0x4 DUP2 ADD DUP3 SWAP1 MSTORE PUSH1 0x24 ADD PUSH2 0x45A JUMP JUMPDEST PUSH1 0x60 PUSH0 PUSH2 0xD53 DUP4 PUSH2 0xD84 JUMP JUMPDEST PUSH1 0x40 DUP1 MLOAD PUSH1 0x20 DUP1 DUP3 MSTORE DUP2 DUP4 ADD SWAP1 SWAP3 MSTORE SWAP2 SWAP3 POP PUSH0 SWAP2 SWAP1 PUSH1 0x20 DUP3 ADD DUP2 DUP1 CALLDATASIZE DUP4 CALLDATACOPY POP POP POP SWAP2 DUP3 MSTORE POP PUSH1 0x20 DUP2 ADD SWAP3 SWAP1 SWAP3 MSTORE POP SWAP1 JUMP JUMPDEST PUSH0 PUSH1 0xFF DUP3 AND PUSH1 0x1F DUP2 GT ISZERO PUSH2 0x34F JUMPI PUSH1 0x40 MLOAD PUSH4 0x2CD44AC3 PUSH1 0xE2 SHL DUP2 MSTORE PUSH1 0x4 ADD PUSH1 0x40 MLOAD DUP1 SWAP2 SUB SWAP1 REVERT JUMPDEST PUSH0 DUP2 MLOAD DUP1 DUP5 MSTORE DUP1 PUSH1 0x20 DUP5 ADD PUSH1 0x20 DUP7 ADD MCOPY PUSH0 PUSH1 0x20 DUP3 DUP7 ADD ADD MSTORE PUSH1 0x20 PUSH1 0x1F NOT PUSH1 0x1F DUP4 ADD AND DUP6 ADD ADD SWAP2 POP POP SWAP3 SWAP2 POP POP JUMP JUMPDEST PUSH1 0x20 DUP2 MSTORE PUSH0 PUSH2 0xDEB PUSH1 0x20 DUP4 ADD DUP5 PUSH2 0xDAB JUMP JUMPDEST SWAP4 SWAP3 POP POP POP JUMP JUMPDEST DUP1 CALLDATALOAD PUSH1 0x1 PUSH1 0x1 PUSH1 0xA0 SHL SUB DUP2 AND DUP2 EQ PUSH2 0xE08 JUMPI PUSH0 DUP1 REVERT JUMPDEST SWAP2 SWAP1 POP JUMP JUMPDEST PUSH0 DUP1 PUSH1 0x40 DUP4 DUP6 SUB SLT ISZERO PUSH2 0xE1E JUMPI PUSH0 DUP1 REVERT JUMPDEST PUSH2 0xE27 DUP4 PUSH2 0xDF2 JUMP JUMPDEST SWAP5 PUSH1 0x20 SWAP4 SWAP1 SWAP4 ADD CALLDATALOAD SWAP4 POP POP POP JUMP JUMPDEST PUSH0 DUP1 PUSH0 PUSH1 0x60 DUP5 DUP7 SUB SLT ISZERO PUSH2 0xE47 JUMPI PUSH0 DUP1 REVERT JUMPDEST PUSH2 0xE50 DUP5 PUSH2 0xDF2 JUMP JUMPDEST SWAP3 POP PUSH2 0xE5E PUSH1 0x20 DUP6 ADD PUSH2 0xDF2 JUMP JUMPDEST SWAP3 SWAP6 SWAP3 SWAP5 POP POP POP PUSH1 0x40 SWAP2 SWAP1 SWAP2 ADD CALLDATALOAD SWAP1 JUMP JUMPDEST PUSH0 PUSH1 0x20 DUP3 DUP5 SUB SLT ISZERO PUSH2 0xE7F JUMPI PUSH0 DUP1 REVERT JUMPDEST POP CALLDATALOAD SWAP2 SWAP1 POP JUMP JUMPDEST PUSH0 PUSH1 0x20 DUP3 DUP5 SUB SLT ISZERO PUSH2 0xE96 JUMPI PUSH0 DUP1 REVERT JUMPDEST PUSH2 0xDEB DUP3 PUSH2 0xDF2 JUMP JUMPDEST PUSH1 0xFF PUSH1 0xF8 SHL DUP9 AND DUP2 MSTORE PUSH1 0xE0 PUSH1 0x20 DUP3 ADD MSTORE PUSH0 PUSH2 0xEBD PUSH1 0xE0 DUP4 ADD DUP10 PUSH2 0xDAB JUMP JUMPDEST DUP3 DUP2 SUB PUSH1 0x40 DUP5 ADD MSTORE PUSH2 0xECF DUP2 DUP10 PUSH2 0xDAB JUMP JUMPDEST PUSH1 0x60 DUP5 ADD DUP9 SWAP1 MSTORE PUSH1 0x1 PUSH1 0x1 PUSH1 0xA0 SHL SUB DUP8 AND PUSH1 0x80 DUP6 ADD MSTORE PUSH1 0xA0 DUP5 ADD DUP7 SWAP1 MSTORE DUP4 DUP2 SUB PUSH1 0xC0 DUP6 ADD MSTORE DUP5 MLOAD DUP1 DUP3 MSTORE PUSH1 0x20 DUP1 DUP8 ADD SWAP4 POP SWAP1 SWAP2 ADD SWAP1 PUSH0 JUMPDEST DUP2 DUP2 LT ISZERO PUSH2 0xF24 JUMPI DUP4 MLOAD DUP4 MSTORE PUSH1 0x20 SWAP4 DUP5 ADD SWAP4 SWAP1 SWAP3 ADD SWAP2 PUSH1 0x1 ADD PUSH2 0xF06 JUMP JUMPDEST POP SWAP1 SWAP12 SWAP11 POP POP POP POP POP POP POP POP POP POP POP JUMP JUMPDEST PUSH0 DUP1 PUSH0 DUP1 PUSH0 DUP1 PUSH0 PUSH1 0xE0 DUP9 DUP11 SUB SLT ISZERO PUSH2 0xF4B JUMPI PUSH0 DUP1 REVERT JUMPDEST PUSH2 0xF54 DUP9 PUSH2 0xDF2 JUMP JUMPDEST SWAP7 POP PUSH2 0xF62 PUSH1 0x20 DUP10 ADD PUSH2 0xDF2 JUMP JUMPDEST SWAP6 POP PUSH1 0x40 DUP9 ADD CALLDATALOAD SWAP5 POP PUSH1 0x60 DUP9 ADD CALLDATALOAD SWAP4 POP PUSH1 0x80 DUP9 ADD CALLDATALOAD PUSH1 0xFF DUP2 AND DUP2 EQ PUSH2 0xF85 JUMPI PUSH0 DUP1 REVERT JUMPDEST SWAP7 SWAP10 SWAP6 SWAP9 POP SWAP4 SWAP7 SWAP3 SWAP6 SWAP5 PUSH1 0xA0 DUP5 ADD CALLDATALOAD SWAP5 POP PUSH1 0xC0 SWAP1 SWAP4 ADD CALLDATALOAD SWAP3 SWAP2 POP POP JUMP JUMPDEST PUSH0 DUP1 PUSH1 0x40 DUP4 DUP6 SUB SLT ISZERO PUSH2 0xFB3 JUMPI PUSH0 DUP1 REVERT JUMPDEST PUSH2 0xFBC DUP4 PUSH2 0xDF2 JUMP JUMPDEST SWAP2 POP PUSH2 0xFCA PUSH1 0x20 DUP5 ADD PUSH2 0xDF2 JUMP JUMPDEST SWAP1 POP SWAP3 POP SWAP3 SWAP1 POP JUMP JUMPDEST PUSH1 0x1 DUP2 DUP2 SHR SWAP1 DUP3 AND DUP1 PUSH2 0xFE7 JUMPI PUSH1 0x7F DUP3 AND SWAP2 POP JUMPDEST PUSH1 0x20 DUP3 LT DUP2 SUB PUSH2 0x1005 JUMPI PUSH4 0x4E487B71 PUSH1 0xE0 SHL PUSH0 MSTORE PUSH1 0x22 PUSH1 0x4 MSTORE PUSH1 0x24 PUSH0 REVERT JUMPDEST POP SWAP2 SWAP1 POP JUMP JUMPDEST DUP1 DUP3 ADD DUP1 DUP3 GT ISZERO PUSH2 0x34F JUMPI PUSH4 0x4E487B71 PUSH1 0xE0 SHL PUSH0 MSTORE PUSH1 0x11 PUSH1 0x4 MSTORE PUSH1 0x24 PUSH0 REVERT JUMPDEST PUSH4 0x4E487B71 PUSH1 0xE0 SHL PUSH0 MSTORE PUSH1 0x21 PUSH1 0x4 MSTORE PUSH1 0x24 PUSH0 REVERT INVALID LOG2 PUSH5 0x6970667358 0x22 SLT KECCAK256 PUSH5 0x35F0C322AC 0x2D CALLDATACOPY LOG1 REVERT SWAP9 CALLER 0xCD PUSH2 0x22A3 0xB3 DUP7 0xD3 0xE3 0xE6 CHAINID 0x27 0xF9 PUSH22 0xDDF49AFA2AA46B64736F6C634300081A003300000000 "
				},
				"gasEstimates": {
					"creation": {
						"codeDepositCost": "842400",
						"executionCost": "infinite",
						"totalCost": "infinite"
					},
					"external": {
						"DOMAIN_SEPARATOR()": "infinite",
						"allowance(address,address)": "infinite",
						"approve(address,uint256)": "24758",
						"balanceOf(address)": "2626",
						"burn(uint256)": "50983",
						"burnFrom(address,uint256)": "infinite",
						"decimals()": "199",
						"eip712Domain()": "infinite",
						"name()": "infinite",
						"nonces(address)": "2613",
						"owner()": "2389",
						"permit(address,address,uint256,uint256,uint8,bytes32,bytes32)": "infinite",
						"renounceOwnership()": "infinite",
						"symbol()": "infinite",
						"totalSupply()": "2348",
						"transfer(address,uint256)": "51260",
						"transferFrom(address,address,uint256)": "infinite",
						"transferOwnership(address)": "28443"
					}
				},
				"methodIdentifiers": {
					"DOMAIN_SEPARATOR()": "3644e515",
					"allowance(address,address)": "dd62ed3e",
					"approve(address,uint256)": "095ea7b3",
					"balanceOf(address)": "70a08231",
					"burn(uint256)": "42966c68",
					"burnFrom(address,uint256)": "79cc6790",
					"decimals()": "313ce567",
					"eip712Domain()": "84b0196e",
					"name()": "06fdde03",
					"nonces(address)": "7ecebe00",
					"owner()": "8da5cb5b",
					"permit(address,address,uint256,uint256,uint8,bytes32,bytes32)": "d505accf",
					"renounceOwnership()": "715018a6",
					"symbol()": "95d89b41",
					"totalSupply()": "18160ddd",
					"transfer(address,uint256)": "a9059cbb",
					"transferFrom(address,address,uint256)": "23b872dd",
					"transferOwnership(address)": "f2fde38b"
				}
			},
			"storageLayout": {
				"storage": [
					{
						"astId": 332,
						"contract": "DADDY TATE.sol:DADDYTATEFRIEND",
						"label": "_balances",
						"offset": 0,
						"slot": "0",
						"type": "t_mapping(t_address,t_uint256)"
					},
					{
						"astId": 338,
						"contract": "DADDY TATE.sol:DADDYTATEFRIEND",
						"label": "_allowances",
						"offset": 0,
						"slot": "1",
						"type": "t_mapping(t_address,t_mapping(t_address,t_uint256))"
					},
					{
						"astId": 340,
						"contract": "DADDY TATE.sol:DADDYTATEFRIEND",
						"label": "_totalSupply",
						"offset": 0,
						"slot": "2",
						"type": "t_uint256"
					},
					{
						"astId": 342,
						"contract": "DADDY TATE.sol:DADDYTATEFRIEND",
						"label": "_name",
						"offset": 0,
						"slot": "3",
						"type": "t_string_storage"
					},
					{
						"astId": 344,
						"contract": "DADDY TATE.sol:DADDYTATEFRIEND",
						"label": "_symbol",
						"offset": 0,
						"slot": "4",
						"type": "t_string_storage"
					},
					{
						"astId": 2229,
						"contract": "DADDY TATE.sol:DADDYTATEFRIEND",
						"label": "_nameFallback",
						"offset": 0,
						"slot": "5",
						"type": "t_string_storage"
					},
					{
						"astId": 2231,
						"contract": "DADDY TATE.sol:DADDYTATEFRIEND",
						"label": "_versionFallback",
						"offset": 0,
						"slot": "6",
						"type": "t_string_storage"
					},
					{
						"astId": 1208,
						"contract": "DADDY TATE.sol:DADDYTATEFRIEND",
						"label": "_nonces",
						"offset": 0,
						"slot": "7",
						"type": "t_mapping(t_address,t_uint256)"
					},
					{
						"astId": 8,
						"contract": "DADDY TATE.sol:DADDYTATEFRIEND",
						"label": "_owner",
						"offset": 0,
						"slot": "8",
						"type": "t_address"
					}
				],
				"types": {
					"t_address": {
						"encoding": "inplace",
						"label": "address",
						"numberOfBytes": "20"
					},
					"t_mapping(t_address,t_mapping(t_address,t_uint256))": {
						"encoding": "mapping",
						"key": "t_address",
						"label": "mapping(address => mapping(address => uint256))",
						"numberOfBytes": "32",
						"value": "t_mapping(t_address,t_uint256)"
					},
					"t_mapping(t_address,t_uint256)": {
						"encoding": "mapping",
						"key": "t_address",
						"label": "mapping(address => uint256)",
						"numberOfBytes": "32",
						"value": "t_uint256"
					},
					"t_string_storage": {
						"encoding": "bytes",
						"label": "string",
						"numberOfBytes": "32"
					},
					"t_uint256": {
						"encoding": "inplace",
						"label": "uint256",
						"numberOfBytes": "32"
					}
				}
			},
			"userdoc": {
				"kind": "user",
				"methods": {},
				"version": 1
			}
		}
	}
}