{
	"maldives.sol": {
		"MALDIVES": {
			"abi": [
				{
					"inputs": [],
					"stateMutability": "nonpayable",
					"type": "constructor"
				},
				{
					"anonymous": false,
					"inputs": [
						{
							"indexed": true,
							"internalType": "address",
							"name": "owner",
							"type": "address"
						},
						{
							"indexed": true,
							"internalType": "address",
							"name": "spender",
							"type": "address"
						},
						{
							"indexed": false,
							"internalType": "uint256",
							"name": "value",
							"type": "uint256"
						}
					],
					"name": "Approval",
					"type": "event"
				},
				{
					"anonymous": false,
					"inputs": [
						{
							"indexed": true,
							"internalType": "address",
							"name": "previousOwner",
							"type": "address"
						},
						{
							"indexed": true,
							"internalType": "address",
							"name": "newOwner",
							"type": "address"
						}
					],
					"name": "OwnershipTransferred",
					"type": "event"
				},
				{
					"anonymous": false,
					"inputs": [
						{
							"indexed": true,
							"internalType": "address",
							"name": "from",
							"type": "address"
						},
						{
							"indexed": true,
							"internalType": "address",
							"name": "to",
							"type": "address"
						},
						{
							"indexed": false,
							"internalType": "uint256",
							"name": "value",
							"type": "uint256"
						}
					],
					"name": "Transfer",
					"type": "event"
				},
				{
					"inputs": [
						{
							"internalType": "address",
							"name": "owner",
							"type": "address"
						},
						{
							"internalType": "address",
							"name": "spender",
							"type": "address"
						}
					],
					"name": "allowance",
					"outputs": [
						{
							"internalType": "uint256",
							"name": "",
							"type": "uint256"
						}
					],
					"stateMutability": "view",
					"type": "function"
				},
				{
					"inputs": [
						{
							"internalType": "address",
							"name": "spender",
							"type": "address"
						},
						{
							"internalType": "uint256",
							"name": "amount",
							"type": "uint256"
						}
					],
					"name": "approve",
					"outputs": [
						{
							"internalType": "bool",
							"name": "",
							"type": "bool"
						}
					],
					"stateMutability": "nonpayable",
					"type": "function"
				},
				{
					"inputs": [
						{
							"internalType": "address",
							"name": "account",
							"type": "address"
						}
					],
					"name": "balanceOf",
					"outputs": [
						{
							"internalType": "uint256",
							"name": "",
							"type": "uint256"
						}
					],
					"stateMutability": "view",
					"type": "function"
				},
				{
					"inputs": [
						{
							"internalType": "uint256",
							"name": "amount",
							"type": "uint256"
						}
					],
					"name": "burn",
					"outputs": [],
					"stateMutability": "nonpayable",
					"type": "function"
				},
				{
					"inputs": [
						{
							"internalType": "address",
							"name": "account",
							"type": "address"
						},
						{
							"internalType": "uint256",
							"name": "amount",
							"type": "uint256"
						}
					],
					"name": "burnFrom",
					"outputs": [],
					"stateMutability": "nonpayable",
					"type": "function"
				},
				{
					"inputs": [],
					"name": "decimals",
					"outputs": [
						{
							"internalType": "uint8",
							"name": "",
							"type": "uint8"
						}
					],
					"stateMutability": "view",
					"type": "function"
				},
				{
					"inputs": [
						{
							"internalType": "address",
							"name": "spender",
							"type": "address"
						},
						{
							"internalType": "uint256",
							"name": "subtractedValue",
							"type": "uint256"
						}
					],
					"name": "decreaseAllowance",
					"outputs": [
						{
							"internalType": "bool",
							"name": "",
							"type": "bool"
						}
					],
					"stateMutability": "nonpayable",
					"type": "function"
				},
				{
					"inputs": [
						{
							"internalType": "address",
							"name": "distributionWallet",
							"type": "address"
						}
					],
					"name": "distributeTokens",
					"outputs": [],
					"stateMutability": "nonpayable",
					"type": "function"
				},
				{
					"inputs": [
						{
							"internalType": "address",
							"name": "spender",
							"type": "address"
						},
						{
							"internalType": "uint256",
							"name": "addedValue",
							"type": "uint256"
						}
					],
					"name": "increaseAllowance",
					"outputs": [
						{
							"internalType": "bool",
							"name": "",
							"type": "bool"
						}
					],
					"stateMutability": "nonpayable",
					"type": "function"
				},
				{
					"inputs": [],
					"name": "name",
					"outputs": [
						{
							"internalType": "string",
							"name": "",
							"type": "string"
						}
					],
					"stateMutability": "view",
					"type": "function"
				},
				{
					"inputs": [],
					"name": "owner",
					"outputs": [
						{
							"internalType": "address",
							"name": "",
							"type": "address"
						}
					],
					"stateMutability": "view",
					"type": "function"
				},
				{
					"inputs": [],
					"name": "renounceOwnership",
					"outputs": [],
					"stateMutability": "nonpayable",
					"type": "function"
				},
				{
					"inputs": [],
					"name": "symbol",
					"outputs": [
						{
							"internalType": "string",
							"name": "",
							"type": "string"
						}
					],
					"stateMutability": "view",
					"type": "function"
				},
				{
					"inputs": [],
					"name": "totalSupply",
					"outputs": [
						{
							"internalType": "uint256",
							"name": "",
							"type": "uint256"
						}
					],
					"stateMutability": "view",
					"type": "function"
				},
				{
					"inputs": [
						{
							"internalType": "address",
							"name": "to",
							"type": "address"
						},
						{
							"internalType": "uint256",
							"name": "amount",
							"type": "uint256"
						}
					],
					"name": "transfer",
					"outputs": [
						{
							"internalType": "bool",
							"name": "",
							"type": "bool"
						}
					],
					"stateMutability": "nonpayable",
					"type": "function"
				},
				{
					"inputs": [
						{
							"internalType": "address",
							"name": "from",
							"type": "address"
						},
						{
							"internalType": "address",
							"name": "to",
							"type": "address"
						},
						{
							"internalType": "uint256",
							"name": "amount",
							"type": "uint256"
						}
					],
					"name": "transferFrom",
					"outputs": [
						{
							"internalType": "bool",
							"name": "",
							"type": "bool"
						}
					],
					"stateMutability": "nonpayable",
					"type": "function"
				},
				{
					"inputs": [
						{
							"internalType": "address",
							"name": "newOwner",
							"type": "address"
						}
					],
					"name": "transferOwnership",
					"outputs": [],
					"stateMutability": "nonpayable",
					"type": "function"
				}
			],
			"devdoc": {
				"kind": "dev",
				"methods": {
					"allowance(address,address)": {
						"details": "See {IERC20-allowance}."
					},
					"approve(address,uint256)": {
						"details": "See {IERC20-approve}. NOTE: If `amount` is the maximum `uint256`, the allowance is not updated on `transferFrom`. This is semantically equivalent to an infinite approval. Requirements: - `spender` cannot be the zero address."
					},
					"balanceOf(address)": {
						"details": "See {IERC20-balanceOf}."
					},
					"burn(uint256)": {
						"details": "Destroys `amount` tokens from the caller. See {ERC20-_burn}."
					},
					"burnFrom(address,uint256)": {
						"details": "Destroys `amount` tokens from `account`, deducting from the caller's allowance. See {ERC20-_burn} and {ERC20-allowance}. Requirements: - the caller must have allowance for ``accounts``'s tokens of at least `amount`."
					},
					"decimals()": {
						"details": "Returns the number of decimals used to get its user representation. For example, if `decimals` equals `2`, a balance of `505` tokens should be displayed to a user as `5.05` (`505 / 10 ** 2`). Tokens usually opt for a value of 18, imitating the relationship between Ether and Wei. This is the value {ERC20} uses, unless this function is overridden; NOTE: This information is only used for _display_ purposes: it in no way affects any of the arithmetic of the contract, including {IERC20-balanceOf} and {IERC20-transfer}."
					},
					"decreaseAllowance(address,uint256)": {
						"details": "Atomically decreases the allowance granted to `spender` by the caller. This is an alternative to {approve} that can be used as a mitigation for problems described in {IERC20-approve}. Emits an {Approval} event indicating the updated allowance. Requirements: - `spender` cannot be the zero address. - `spender` must have allowance for the caller of at least `subtractedValue`."
					},
					"increaseAllowance(address,uint256)": {
						"details": "Atomically increases the allowance granted to `spender` by the caller. This is an alternative to {approve} that can be used as a mitigation for problems described in {IERC20-approve}. Emits an {Approval} event indicating the updated allowance. Requirements: - `spender` cannot be the zero address."
					},
					"name()": {
						"details": "Returns the name of the token."
					},
					"owner()": {
						"details": "Returns the address of the current owner."
					},
					"renounceOwnership()": {
						"details": "Leaves the contract without owner. It will not be possible to call `onlyOwner` functions anymore. Can only be called by the current owner. NOTE: Renouncing ownership will leave the contract without an owner, thereby removing any functionality that is only available to the owner."
					},
					"symbol()": {
						"details": "Returns the symbol of the token, usually a shorter version of the name."
					},
					"totalSupply()": {
						"details": "See {IERC20-totalSupply}."
					},
					"transfer(address,uint256)": {
						"details": "See {IERC20-transfer}. Requirements: - `to` cannot be the zero address. - the caller must have a balance of at least `amount`."
					},
					"transferFrom(address,address,uint256)": {
						"details": "See {IERC20-transferFrom}. Emits an {Approval} event indicating the updated allowance. This is not required by the EIP. See the note at the beginning of {ERC20}. NOTE: Does not update the allowance if the current allowance is the maximum `uint256`. Requirements: - `from` and `to` cannot be the zero address. - `from` must have a balance of at least `amount`. - the caller must have allowance for ``from``'s tokens of at least `amount`."
					},
					"transferOwnership(address)": {
						"details": "Transfers ownership of the contract to a new account (`newOwner`). Can only be called by the current owner."
					}
				},
				"version": 1
			},
			"evm": {
				"assembly": "    /* \"maldives.sol\":22128:22625  contract MALDIVES is ERC20, ERC20Burnable, Ownable {\r... */\n  mstore(0x40, 0x80)\n    /* \"maldives.sol\":22257:22348  constructor() ERC20(\"MALDIVES\", \"MVR\") {\r... */\n  callvalue\n  dup1\n  iszero\n  tag_1\n  jumpi\n  0x00\n  dup1\n  revert\ntag_1:\n  pop\n    /* \"maldives.sol\":9517:9633  constructor(string memory name_, string memory symbol_) {\r... */\n  mload(0x40)\n  dup1\n  0x40\n  add\n  0x40\n  mstore\n  dup1\n  0x08\n  dup2\n  mstore\n  0x20\n  add\n  shl(0xc0, 0x4d414c4449564553)\n  dup2\n  mstore\n  pop\n  mload(0x40)\n  dup1\n  0x40\n  add\n  0x40\n  mstore\n  dup1\n  0x03\n  dup2\n  mstore\n  0x20\n  add\n  shl(0xe9, 0x26ab29)\n  dup2\n  mstore\n  pop\n    /* \"maldives.sol\":9592:9597  name_ */\n  dup2\n    /* \"maldives.sol\":9584:9589  _name */\n  0x03\n    /* \"maldives.sol\":9584:9597  _name = name_ */\n  swap1\n  dup1\n  mload\n  swap1\n  0x20\n  add\n  swap1\n  tag_6\n  swap3\n  swap2\n  swap1\n  tag_7\n  jump\t// in\ntag_6:\n  pop\n    /* \"maldives.sol\":9608:9625  _symbol = symbol_ */\n  dup1\n  mload\n  tag_8\n  swap1\n    /* \"maldives.sol\":9608:9615  _symbol */\n  0x04\n  swap1\n    /* \"maldives.sol\":9608:9625  _symbol = symbol_ */\n  0x20\n  dup5\n  add\n  swap1\n  tag_7\n  jump\t// in\ntag_8:\n  pop\n    /* \"maldives.sol\":9517:9633  constructor(string memory name_, string memory symbol_) {\r... */\n  pop\n  pop\n    /* \"maldives.sol\":1884:1916  _transferOwnership(_msgSender()) */\n  tag_10\n    /* \"maldives.sol\":1903:1915  _msgSender() */\n  tag_11\n    /* \"maldives.sol\":1903:1913  _msgSender */\n  shl(0x20, tag_12)\n    /* \"maldives.sol\":1903:1915  _msgSender() */\n  0x20\n  shr\n  jump\t// in\ntag_11:\n    /* \"maldives.sol\":1884:1902  _transferOwnership */\n  tag_13\n    /* \"maldives.sol\":1884:1916  _transferOwnership(_msgSender()) */\n  jump\t// in\ntag_10:\n    /* \"maldives.sol\":22307:22340  _mint(msg.sender, INITIAL_SUPPLY) */\n  tag_15\n    /* \"maldives.sol\":22313:22323  msg.sender */\n  caller\n    /* \"maldives.sol\":22228:22248  10000000000 * 10**18 */\n  0x204fce5e3e25026110000000\n    /* \"maldives.sol\":22307:22312  _mint */\n  tag_16\n    /* \"maldives.sol\":22307:22340  _mint(msg.sender, INITIAL_SUPPLY) */\n  jump\t// in\ntag_15:\n    /* \"maldives.sol\":22128:22625  contract MALDIVES is ERC20, ERC20Burnable, Ownable {\r... */\n  jump(tag_45)\n    /* \"maldives.sol\":714:812  function _msgSender() internal view virtual returns (address) {\r... */\ntag_12:\n    /* \"maldives.sol\":794:804  msg.sender */\n  caller\n    /* \"maldives.sol\":714:812  function _msgSender() internal view virtual returns (address) {\r... */\n  swap1\n  jump\t// out\n    /* \"maldives.sol\":3430:3621  function _transferOwnership(address newOwner) internal virtual {\r... */\ntag_13:\n    /* \"maldives.sol\":3523:3529  _owner */\n  0x0e\n  dup1\n  sload\n  sub(shl(0xa0, 0x01), 0x01)\n    /* \"maldives.sol\":3540:3557  _owner = newOwner */\n  dup4\n  dup2\n  and\n  not(sub(shl(0xa0, 0x01), 0x01))\n  dup4\n  and\n  dup2\n  or\n  swap1\n  swap4\n  sstore\n    /* \"maldives.sol\":3573:3613  OwnershipTransferred(oldOwner, newOwner) */\n  mload(0x40)\n    /* \"maldives.sol\":3523:3529  _owner */\n  swap2\n  and\n  swap2\n    /* \"maldives.sol\":3540:3557  _owner = newOwner */\n  swap1\n    /* \"maldives.sol\":3523:3529  _owner */\n  dup3\n  swap1\n    /* \"maldives.sol\":3573:3613  OwnershipTransferred(oldOwner, newOwner) */\n  0x8be0079c531659141344cd1fd0a4f28419497f9722a3daafe3b4186f6b6457e0\n  swap1\n    /* \"maldives.sol\":3504:3520  address oldOwner */\n  0x00\n  swap1\n    /* \"maldives.sol\":3573:3613  OwnershipTransferred(oldOwner, newOwner) */\n  log3\n    /* \"maldives.sol\":3430:3621  function _transferOwnership(address newOwner) internal virtual {\r... */\n  pop\n  pop\n  jump\t// out\n    /* \"maldives.sol\":16313:16861  function _mint(address account, uint256 amount) internal virtual {\r... */\ntag_16:\n  sub(shl(0xa0, 0x01), 0x01)\n    /* \"maldives.sol\":16397:16418  account != address(0) */\n  dup3\n  and\n    /* \"maldives.sol\":16389:16454  require(account != address(0), \"ERC20: mint to the zero address\") */\n  tag_21\n  jumpi\n  mload(0x40)\n  shl(0xe5, 0x461bcd)\n  dup2\n  mstore\n  0x04\n  add\n  tag_22\n  swap1\n  tag_23\n  jump\t// in\ntag_22:\n  mload(0x40)\n  dup1\n  swap2\n  sub\n  swap1\n  revert\ntag_21:\n    /* \"maldives.sol\":16467:16516  _beforeTokenTransfer(address(0), account, amount) */\n  tag_24\n    /* \"maldives.sol\":16496:16497  0 */\n  0x00\n    /* \"maldives.sol\":16500:16507  account */\n  dup4\n    /* \"maldives.sol\":16509:16515  amount */\n  dup4\n    /* \"maldives.sol\":16467:16487  _beforeTokenTransfer */\n  tag_25\n    /* \"maldives.sol\":16467:16516  _beforeTokenTransfer(address(0), account, amount) */\n  jump\t// in\ntag_24:\n    /* \"maldives.sol\":16545:16551  amount */\n  dup1\n    /* \"maldives.sol\":16529:16541  _totalSupply */\n  0x02\n  0x00\n    /* \"maldives.sol\":16529:16551  _totalSupply += amount */\n  dup3\n  dup3\n  sload\n  tag_26\n  swap2\n  swap1\n  tag_27\n  jump\t// in\ntag_26:\n  swap1\n  swap2\n  sstore\n  pop\n  pop\n  sub(shl(0xa0, 0x01), 0x01)\n    /* \"maldives.sol\":16700:16718  _balances[account] */\n  dup3\n  and\n    /* \"maldives.sol\":16700:16709  _balances */\n  0x00\n    /* \"maldives.sol\":16700:16718  _balances[account] */\n  dup2\n  dup2\n  mstore\n  0x20\n  dup2\n  swap1\n  mstore\n  0x40\n  dup1\n  dup3\n  keccak256\n    /* \"maldives.sol\":16700:16728  _balances[account] += amount */\n  dup1\n  sload\n  dup6\n  add\n  swap1\n  sstore\n    /* \"maldives.sol\":16755:16792  Transfer(address(0), account, amount) */\n  mload\n  0xddf252ad1be2c89b69c2b068fc378daa952ba7f163c4a11628f55a4df523b3ef\n  swap1\n  tag_28\n  swap1\n    /* \"maldives.sol\":16722:16728  amount */\n  dup6\n  swap1\n    /* \"maldives.sol\":16755:16792  Transfer(address(0), account, amount) */\n  tag_29\n  jump\t// in\ntag_28:\n  mload(0x40)\n  dup1\n  swap2\n  sub\n  swap1\n  log3\n    /* \"maldives.sol\":16805:16853  _afterTokenTransfer(address(0), account, amount) */\n  tag_30\n    /* \"maldives.sol\":16833:16834  0 */\n  0x00\n    /* \"maldives.sol\":16837:16844  account */\n  dup4\n    /* \"maldives.sol\":16846:16852  amount */\n  dup4\n    /* \"maldives.sol\":16805:16824  _afterTokenTransfer */\n  tag_25\n    /* \"maldives.sol\":16805:16853  _afterTokenTransfer(address(0), account, amount) */\n  jump\t// in\ntag_30:\n    /* \"maldives.sol\":16313:16861  function _mint(address account, uint256 amount) internal virtual {\r... */\n  pop\n  pop\n  jump\t// out\n    /* \"maldives.sol\":20031:20156  function _beforeTokenTransfer(\r... */\ntag_25:\n  pop\n  pop\n  pop\n  jump\t// out\n    /* \"maldives.sol\":22128:22625  contract MALDIVES is ERC20, ERC20Burnable, Ownable {\r... */\ntag_7:\n  dup3\n  dup1\n  sload\n  tag_34\n  swap1\n  tag_35\n  jump\t// in\ntag_34:\n  swap1\n  0x00\n  mstore\n  keccak256(0x00, 0x20)\n  swap1\n  0x1f\n  add\n  0x20\n  swap1\n  div\n  dup2\n  add\n  swap3\n  dup3\n  tag_37\n  jumpi\n  0x00\n  dup6\n  sstore\n  jump(tag_40)\ntag_37:\n  dup3\n  0x1f\n  lt\n  tag_38\n  jumpi\n  dup1\n  mload\n  not(0xff)\n  and\n  dup4\n  dup1\n  add\n  or\n  dup6\n  sstore\n  jump(tag_40)\ntag_38:\n  dup3\n  dup1\n  add\n  0x01\n  add\n  dup6\n  sstore\n  dup3\n  iszero\n  tag_40\n  jumpi\n  swap2\n  dup3\n  add\ntag_39:\n  dup3\n  dup2\n  gt\n  iszero\n  tag_40\n  jumpi\n  dup3\n  mload\n  dup3\n  sstore\n  swap2\n  0x20\n  add\n  swap2\n  swap1\n  0x01\n  add\n  swap1\n  jump(tag_39)\ntag_40:\n  pop\n  tag_41\n  swap3\n  swap2\n  pop\n  tag_42\n  jump\t// in\ntag_41:\n  pop\n  swap1\n  jump\t// out\ntag_42:\ntag_43:\n  dup1\n  dup3\n  gt\n  iszero\n  tag_41\n  jumpi\n  0x00\n  dup2\n  sstore\n  0x01\n  add\n  jump(tag_43)\n    /* \"#utility.yul\":14:369   */\ntag_23:\n    /* \"#utility.yul\":216:218   */\n  0x20\n    /* \"#utility.yul\":198:219   */\n  dup1\n  dup3\n  mstore\n    /* \"#utility.yul\":255:257   */\n  0x1f\n    /* \"#utility.yul\":235:253   */\n  swap1\n  dup3\n  add\n    /* \"#utility.yul\":228:258   */\n  mstore\n    /* \"#utility.yul\":294:327   */\n  0x45524332303a206d696e7420746f20746865207a65726f206164647265737300\n    /* \"#utility.yul\":289:291   */\n  0x40\n    /* \"#utility.yul\":274:292   */\n  dup3\n  add\n    /* \"#utility.yul\":267:328   */\n  mstore\n    /* \"#utility.yul\":360:362   */\n  0x60\n    /* \"#utility.yul\":345:363   */\n  add\n  swap1\n    /* \"#utility.yul\":188:369   */\n  jump\t// out\n    /* \"#utility.yul\":374:551   */\ntag_29:\n    /* \"#utility.yul\":520:545   */\n  swap1\n  dup2\n  mstore\n    /* \"#utility.yul\":508:510   */\n  0x20\n    /* \"#utility.yul\":493:511   */\n  add\n  swap1\n    /* \"#utility.yul\":475:551   */\n  jump\t// out\n    /* \"#utility.yul\":556:785   */\ntag_27:\n  0x00\n    /* \"#utility.yul\":627:628   */\n  dup3\n    /* \"#utility.yul\":623:629   */\n  not\n    /* \"#utility.yul\":620:621   */\n  dup3\n    /* \"#utility.yul\":617:630   */\n  gt\n    /* \"#utility.yul\":614:616   */\n  iszero\n  tag_49\n  jumpi\n  shl(0xe0, 0x4e487b71)\n    /* \"#utility.yul\":653:686   */\n  dup2\n  mstore\n    /* \"#utility.yul\":709:713   */\n  0x11\n    /* \"#utility.yul\":706:707   */\n  0x04\n    /* \"#utility.yul\":699:714   */\n  mstore\n    /* \"#utility.yul\":739:743   */\n  0x24\n    /* \"#utility.yul\":660:663   */\n  dup2\n    /* \"#utility.yul\":727:744   */\n  revert\n    /* \"#utility.yul\":614:616   */\ntag_49:\n  pop\n    /* \"#utility.yul\":770:779   */\n  add\n  swap1\n    /* \"#utility.yul\":604:785   */\n  jump\t// out\n    /* \"#utility.yul\":790:1170   */\ntag_35:\n    /* \"#utility.yul\":875:876   */\n  0x02\n    /* \"#utility.yul\":865:877   */\n  dup2\n  div\n    /* \"#utility.yul\":922:923   */\n  0x01\n    /* \"#utility.yul\":912:924   */\n  dup3\n  and\n  dup1\n    /* \"#utility.yul\":933:935   */\n  tag_51\n  jumpi\n    /* \"#utility.yul\":987:991   */\n  0x7f\n    /* \"#utility.yul\":979:985   */\n  dup3\n    /* \"#utility.yul\":975:992   */\n  and\n    /* \"#utility.yul\":965:992   */\n  swap2\n  pop\n    /* \"#utility.yul\":933:935   */\ntag_51:\n    /* \"#utility.yul\":1040:1042   */\n  0x20\n    /* \"#utility.yul\":1032:1038   */\n  dup3\n    /* \"#utility.yul\":1029:1043   */\n  lt\n    /* \"#utility.yul\":1009:1027   */\n  dup2\n    /* \"#utility.yul\":1006:1044   */\n  eq\n    /* \"#utility.yul\":1003:1005   */\n  iszero\n  tag_52\n  jumpi\n    /* \"#utility.yul\":1086:1096   */\n  0x4e487b71\n    /* \"#utility.yul\":1081:1084   */\n  0xe0\n    /* \"#utility.yul\":1077:1097   */\n  shl\n    /* \"#utility.yul\":1074:1075   */\n  0x00\n    /* \"#utility.yul\":1067:1098   */\n  mstore\n    /* \"#utility.yul\":1121:1125   */\n  0x22\n    /* \"#utility.yul\":1118:1119   */\n  0x04\n    /* \"#utility.yul\":1111:1126   */\n  mstore\n    /* \"#utility.yul\":1149:1153   */\n  0x24\n    /* \"#utility.yul\":1146:1147   */\n  0x00\n    /* \"#utility.yul\":1139:1154   */\n  revert\n    /* \"#utility.yul\":1003:1005   */\ntag_52:\n  pop\n    /* \"#utility.yul\":845:1170   */\n  swap2\n  swap1\n  pop\n  jump\t// out\ntag_45:\n    /* \"maldives.sol\":22128:22625  contract MALDIVES is ERC20, ERC20Burnable, Ownable {\r... */\n  dataSize(sub_0)\n  dup1\n  dataOffset(sub_0)\n  0x00\n  codecopy\n  0x00\n  return\nstop\n\nsub_0: assembly {\n        /* \"maldives.sol\":22128:22625  contract MALDIVES is ERC20, ERC20Burnable, Ownable {\r... */\n      mstore(0x40, 0x80)\n      callvalue\n      dup1\n      iszero\n      tag_1\n      jumpi\n      0x00\n      dup1\n      revert\n    tag_1:\n      pop\n      jumpi(tag_2, lt(calldatasize, 0x04))\n      shr(0xe0, calldataload(0x00))\n      dup1\n      0x715018a6\n      gt\n      tag_20\n      jumpi\n      dup1\n      0xa457c2d7\n      gt\n      tag_21\n      jumpi\n      dup1\n      0xa457c2d7\n      eq\n      tag_15\n      jumpi\n      dup1\n      0xa9059cbb\n      eq\n      tag_16\n      jumpi\n      dup1\n      0xb1d17c98\n      eq\n      tag_17\n      jumpi\n      dup1\n      0xdd62ed3e\n      eq\n      tag_18\n      jumpi\n      dup1\n      0xf2fde38b\n      eq\n      tag_19\n      jumpi\n      jump(tag_2)\n    tag_21:\n      dup1\n      0x715018a6\n      eq\n      tag_11\n      jumpi\n      dup1\n      0x79cc6790\n      eq\n      tag_12\n      jumpi\n      dup1\n      0x8da5cb5b\n      eq\n      tag_13\n      jumpi\n      dup1\n      0x95d89b41\n      eq\n      tag_14\n      jumpi\n      jump(tag_2)\n    tag_20:\n      dup1\n      0x313ce567\n      gt\n      tag_22\n      jumpi\n      dup1\n      0x313ce567\n      eq\n      tag_7\n      jumpi\n      dup1\n      0x39509351\n      eq\n      tag_8\n      jumpi\n      dup1\n      0x42966c68\n      eq\n      tag_9\n      jumpi\n      dup1\n      0x70a08231\n      eq\n      tag_10\n      jumpi\n      jump(tag_2)\n    tag_22:\n      dup1\n      0x06fdde03\n      eq\n      tag_3\n      jumpi\n      dup1\n      0x095ea7b3\n      eq\n      tag_4\n      jumpi\n      dup1\n      0x18160ddd\n      eq\n      tag_5\n      jumpi\n      dup1\n      0x23b872dd\n      eq\n      tag_6\n      jumpi\n    tag_2:\n      0x00\n      dup1\n      revert\n        /* \"maldives.sol\":9703:9803  function name() public view virtual override returns (string memory) {\r... */\n    tag_3:\n      tag_23\n      tag_24\n      jump\t// in\n    tag_23:\n      mload(0x40)\n      tag_25\n      swap2\n      swap1\n      tag_26\n      jump\t// in\n    tag_25:\n      mload(0x40)\n      dup1\n      swap2\n      sub\n      swap1\n      return\n        /* \"maldives.sol\":12054:12255  function approve(address spender, uint256 amount) public virtual override returns (bool) {\r... */\n    tag_4:\n      tag_27\n      tag_28\n      calldatasize\n      0x04\n      tag_29\n      jump\t// in\n    tag_28:\n      tag_30\n      jump\t// in\n    tag_27:\n      mload(0x40)\n      tag_25\n      swap2\n      swap1\n      tag_32\n      jump\t// in\n        /* \"maldives.sol\":10823:10931  function totalSupply() public view virtual override returns (uint256) {\r... */\n    tag_5:\n      tag_33\n      tag_34\n      jump\t// in\n    tag_33:\n      mload(0x40)\n      tag_25\n      swap2\n      swap1\n      tag_36\n      jump\t// in\n        /* \"maldives.sol\":12835:13130  function transferFrom(\r... */\n    tag_6:\n      tag_27\n      tag_38\n      calldatasize\n      0x04\n      tag_39\n      jump\t// in\n    tag_38:\n      tag_40\n      jump\t// in\n        /* \"maldives.sol\":10665:10758  function decimals() public view virtual override returns (uint8) {\r... */\n    tag_7:\n      tag_42\n      tag_43\n      jump\t// in\n    tag_42:\n      mload(0x40)\n      tag_25\n      swap2\n      swap1\n      tag_45\n      jump\t// in\n        /* \"maldives.sol\":13539:13777  function increaseAllowance(address spender, uint256 addedValue) public virtual returns (bool) {\r... */\n    tag_8:\n      tag_27\n      tag_47\n      calldatasize\n      0x04\n      tag_29\n      jump\t// in\n    tag_47:\n      tag_48\n      jump\t// in\n        /* \"maldives.sol\":21474:21565  function burn(uint256 amount) public virtual {\r... */\n    tag_9:\n      tag_50\n      tag_51\n      calldatasize\n      0x04\n      tag_52\n      jump\t// in\n    tag_51:\n      tag_53\n      jump\t// in\n    tag_50:\n      stop\n        /* \"maldives.sol\":10994:11121  function balanceOf(address account) public view virtual override returns (uint256) {\r... */\n    tag_10:\n      tag_33\n      tag_55\n      calldatasize\n      0x04\n      tag_56\n      jump\t// in\n    tag_55:\n      tag_57\n      jump\t// in\n        /* \"maldives.sol\":2811:2914  function renounceOwnership() public virtual onlyOwner {\r... */\n    tag_11:\n      tag_50\n      tag_60\n      jump\t// in\n        /* \"maldives.sol\":21884:22048  function burnFrom(address account, uint256 amount) public virtual {\r... */\n    tag_12:\n      tag_50\n      tag_62\n      calldatasize\n      0x04\n      tag_29\n      jump\t// in\n    tag_62:\n      tag_63\n      jump\t// in\n        /* \"maldives.sol\":2163:2250  function owner() public view virtual returns (address) {\r... */\n    tag_13:\n      tag_64\n      tag_65\n      jump\t// in\n    tag_64:\n      mload(0x40)\n      tag_25\n      swap2\n      swap1\n      tag_67\n      jump\t// in\n        /* \"maldives.sol\":9922:10026  function symbol() public view virtual override returns (string memory) {\r... */\n    tag_14:\n      tag_23\n      tag_69\n      jump\t// in\n        /* \"maldives.sol\":14280:14716  function decreaseAllowance(address spender, uint256 subtractedValue) public virtual returns (bool) {\r... */\n    tag_15:\n      tag_27\n      tag_72\n      calldatasize\n      0x04\n      tag_29\n      jump\t// in\n    tag_72:\n      tag_73\n      jump\t// in\n        /* \"maldives.sol\":11327:11520  function transfer(address to, uint256 amount) public virtual override returns (bool) {\r... */\n    tag_16:\n      tag_27\n      tag_76\n      calldatasize\n      0x04\n      tag_29\n      jump\t// in\n    tag_76:\n      tag_77\n      jump\t// in\n        /* \"maldives.sol\":22356:22622  function distributeTokens(address distributionWallet) external onlyOwner {\r... */\n    tag_17:\n      tag_50\n      tag_80\n      calldatasize\n      0x04\n      tag_56\n      jump\t// in\n    tag_80:\n      tag_81\n      jump\t// in\n        /* \"maldives.sol\":11583:11734  function allowance(address owner, address spender) public view virtual override returns (uint256) {\r... */\n    tag_18:\n      tag_33\n      tag_83\n      calldatasize\n      0x04\n      tag_84\n      jump\t// in\n    tag_83:\n      tag_85\n      jump\t// in\n        /* \"maldives.sol\":3069:3270  function transferOwnership(address newOwner) public virtual onlyOwner {\r... */\n    tag_19:\n      tag_50\n      tag_88\n      calldatasize\n      0x04\n      tag_56\n      jump\t// in\n    tag_88:\n      tag_89\n      jump\t// in\n        /* \"maldives.sol\":9703:9803  function name() public view virtual override returns (string memory) {\r... */\n    tag_24:\n        /* \"maldives.sol\":9757:9770  string memory */\n      0x60\n        /* \"maldives.sol\":9790:9795  _name */\n      0x03\n        /* \"maldives.sol\":9783:9795  return _name */\n      dup1\n      sload\n      tag_91\n      swap1\n      tag_92\n      jump\t// in\n    tag_91:\n      dup1\n      0x1f\n      add\n      0x20\n      dup1\n      swap2\n      div\n      mul\n      0x20\n      add\n      mload(0x40)\n      swap1\n      dup2\n      add\n      0x40\n      mstore\n      dup1\n      swap3\n      swap2\n      swap1\n      dup2\n      dup2\n      mstore\n      0x20\n      add\n      dup3\n      dup1\n      sload\n      tag_93\n      swap1\n      tag_92\n      jump\t// in\n    tag_93:\n      dup1\n      iszero\n      tag_94\n      jumpi\n      dup1\n      0x1f\n      lt\n      tag_95\n      jumpi\n      0x0100\n      dup1\n      dup4\n      sload\n      div\n      mul\n      dup4\n      mstore\n      swap2\n      0x20\n      add\n      swap2\n      jump(tag_94)\n    tag_95:\n      dup3\n      add\n      swap2\n      swap1\n      0x00\n      mstore\n      keccak256(0x00, 0x20)\n      swap1\n    tag_96:\n      dup2\n      sload\n      dup2\n      mstore\n      swap1\n      0x01\n      add\n      swap1\n      0x20\n      add\n      dup1\n      dup4\n      gt\n      tag_96\n      jumpi\n      dup3\n      swap1\n      sub\n      0x1f\n      and\n      dup3\n      add\n      swap2\n    tag_94:\n      pop\n      pop\n      pop\n      pop\n      pop\n      swap1\n      pop\n        /* \"maldives.sol\":9703:9803  function name() public view virtual override returns (string memory) {\r... */\n      swap1\n      jump\t// out\n        /* \"maldives.sol\":12054:12255  function approve(address spender, uint256 amount) public virtual override returns (bool) {\r... */\n    tag_30:\n        /* \"maldives.sol\":12137:12141  bool */\n      0x00\n        /* \"maldives.sol\":12154:12167  address owner */\n      dup1\n        /* \"maldives.sol\":12170:12182  _msgSender() */\n      tag_98\n        /* \"maldives.sol\":12170:12180  _msgSender */\n      tag_99\n        /* \"maldives.sol\":12170:12182  _msgSender() */\n      jump\t// in\n    tag_98:\n        /* \"maldives.sol\":12154:12182  address owner = _msgSender() */\n      swap1\n      pop\n        /* \"maldives.sol\":12193:12225  _approve(owner, spender, amount) */\n      tag_100\n        /* \"maldives.sol\":12202:12207  owner */\n      dup2\n        /* \"maldives.sol\":12209:12216  spender */\n      dup6\n        /* \"maldives.sol\":12218:12224  amount */\n      dup6\n        /* \"maldives.sol\":12193:12201  _approve */\n      tag_101\n        /* \"maldives.sol\":12193:12225  _approve(owner, spender, amount) */\n      jump\t// in\n    tag_100:\n      pop\n        /* \"maldives.sol\":12243:12247  true */\n      0x01\n      swap4\n        /* \"maldives.sol\":12054:12255  function approve(address spender, uint256 amount) public virtual override returns (bool) {\r... */\n      swap3\n      pop\n      pop\n      pop\n      jump\t// out\n        /* \"maldives.sol\":10823:10931  function totalSupply() public view virtual override returns (uint256) {\r... */\n    tag_34:\n        /* \"maldives.sol\":10911:10923  _totalSupply */\n      sload(0x02)\n        /* \"maldives.sol\":10823:10931  function totalSupply() public view virtual override returns (uint256) {\r... */\n      swap1\n      jump\t// out\n        /* \"maldives.sol\":12835:13130  function transferFrom(\r... */\n    tag_40:\n        /* \"maldives.sol\":12966:12970  bool */\n      0x00\n        /* \"maldives.sol\":12983:12998  address spender */\n      dup1\n        /* \"maldives.sol\":13001:13013  _msgSender() */\n      tag_104\n        /* \"maldives.sol\":13001:13011  _msgSender */\n      tag_99\n        /* \"maldives.sol\":13001:13013  _msgSender() */\n      jump\t// in\n    tag_104:\n        /* \"maldives.sol\":12983:13013  address spender = _msgSender() */\n      swap1\n      pop\n        /* \"maldives.sol\":13024:13062  _spendAllowance(from, spender, amount) */\n      tag_105\n        /* \"maldives.sol\":13040:13044  from */\n      dup6\n        /* \"maldives.sol\":13046:13053  spender */\n      dup3\n        /* \"maldives.sol\":13055:13061  amount */\n      dup6\n        /* \"maldives.sol\":13024:13039  _spendAllowance */\n      tag_106\n        /* \"maldives.sol\":13024:13062  _spendAllowance(from, spender, amount) */\n      jump\t// in\n    tag_105:\n        /* \"maldives.sol\":13073:13100  _transfer(from, to, amount) */\n      tag_107\n        /* \"maldives.sol\":13083:13087  from */\n      dup6\n        /* \"maldives.sol\":13089:13091  to */\n      dup6\n        /* \"maldives.sol\":13093:13099  amount */\n      dup6\n        /* \"maldives.sol\":13073:13082  _transfer */\n      tag_108\n        /* \"maldives.sol\":13073:13100  _transfer(from, to, amount) */\n      jump\t// in\n    tag_107:\n      pop\n        /* \"maldives.sol\":13118:13122  true */\n      0x01\n      swap5\n        /* \"maldives.sol\":12835:13130  function transferFrom(\r... */\n      swap4\n      pop\n      pop\n      pop\n      pop\n      jump\t// out\n        /* \"maldives.sol\":10665:10758  function decimals() public view virtual override returns (uint8) {\r... */\n    tag_43:\n        /* \"maldives.sol\":10748:10750  18 */\n      0x12\n        /* \"maldives.sol\":10665:10758  function decimals() public view virtual override returns (uint8) {\r... */\n      swap1\n      jump\t// out\n        /* \"maldives.sol\":13539:13777  function increaseAllowance(address spender, uint256 addedValue) public virtual returns (bool) {\r... */\n    tag_48:\n        /* \"maldives.sol\":13627:13631  bool */\n      0x00\n        /* \"maldives.sol\":13644:13657  address owner */\n      dup1\n        /* \"maldives.sol\":13660:13672  _msgSender() */\n      tag_111\n        /* \"maldives.sol\":13660:13670  _msgSender */\n      tag_99\n        /* \"maldives.sol\":13660:13672  _msgSender() */\n      jump\t// in\n    tag_111:\n        /* \"maldives.sol\":13644:13672  address owner = _msgSender() */\n      swap1\n      pop\n        /* \"maldives.sol\":13683:13747  _approve(owner, spender, allowance(owner, spender) + addedValue) */\n      tag_100\n        /* \"maldives.sol\":13692:13697  owner */\n      dup2\n        /* \"maldives.sol\":13699:13706  spender */\n      dup6\n        /* \"maldives.sol\":13736:13746  addedValue */\n      dup6\n        /* \"maldives.sol\":13708:13733  allowance(owner, spender) */\n      tag_113\n        /* \"maldives.sol\":13718:13723  owner */\n      dup6\n        /* \"maldives.sol\":13725:13732  spender */\n      dup10\n        /* \"maldives.sol\":13708:13717  allowance */\n      tag_85\n        /* \"maldives.sol\":13708:13733  allowance(owner, spender) */\n      jump\t// in\n    tag_113:\n        /* \"maldives.sol\":13708:13746  allowance(owner, spender) + addedValue */\n      tag_114\n      swap2\n      swap1\n      tag_115\n      jump\t// in\n    tag_114:\n        /* \"maldives.sol\":13683:13691  _approve */\n      tag_101\n        /* \"maldives.sol\":13683:13747  _approve(owner, spender, allowance(owner, spender) + addedValue) */\n      jump\t// in\n        /* \"maldives.sol\":21474:21565  function burn(uint256 amount) public virtual {\r... */\n    tag_53:\n        /* \"maldives.sol\":21530:21557  _burn(_msgSender(), amount) */\n      tag_117\n        /* \"maldives.sol\":21536:21548  _msgSender() */\n      tag_118\n        /* \"maldives.sol\":21536:21546  _msgSender */\n      tag_99\n        /* \"maldives.sol\":21536:21548  _msgSender() */\n      jump\t// in\n    tag_118:\n        /* \"maldives.sol\":21550:21556  amount */\n      dup3\n        /* \"maldives.sol\":21530:21535  _burn */\n      tag_119\n        /* \"maldives.sol\":21530:21557  _burn(_msgSender(), amount) */\n      jump\t// in\n    tag_117:\n        /* \"maldives.sol\":21474:21565  function burn(uint256 amount) public virtual {\r... */\n      pop\n      jump\t// out\n        /* \"maldives.sol\":10994:11121  function balanceOf(address account) public view virtual override returns (uint256) {\r... */\n    tag_57:\n      sub(shl(0xa0, 0x01), 0x01)\n        /* \"maldives.sol\":11095:11113  _balances[account] */\n      dup2\n      and\n        /* \"maldives.sol\":11068:11075  uint256 */\n      0x00\n        /* \"maldives.sol\":11095:11113  _balances[account] */\n      swap1\n      dup2\n      mstore\n      0x20\n      dup2\n      swap1\n      mstore\n      0x40\n      swap1\n      keccak256\n      sload\n        /* \"maldives.sol\":10994:11121  function balanceOf(address account) public view virtual override returns (uint256) {\r... */\n    tag_120:\n      swap2\n      swap1\n      pop\n      jump\t// out\n        /* \"maldives.sol\":2811:2914  function renounceOwnership() public virtual onlyOwner {\r... */\n    tag_60:\n        /* \"maldives.sol\":2049:2062  _checkOwner() */\n      tag_122\n        /* \"maldives.sol\":2049:2060  _checkOwner */\n      tag_123\n        /* \"maldives.sol\":2049:2062  _checkOwner() */\n      jump\t// in\n    tag_122:\n        /* \"maldives.sol\":2876:2906  _transferOwnership(address(0)) */\n      tag_125\n        /* \"maldives.sol\":2903:2904  0 */\n      0x00\n        /* \"maldives.sol\":2876:2894  _transferOwnership */\n      tag_126\n        /* \"maldives.sol\":2876:2906  _transferOwnership(address(0)) */\n      jump\t// in\n    tag_125:\n        /* \"maldives.sol\":2811:2914  function renounceOwnership() public virtual onlyOwner {\r... */\n      jump\t// out\n        /* \"maldives.sol\":21884:22048  function burnFrom(address account, uint256 amount) public virtual {\r... */\n    tag_63:\n        /* \"maldives.sol\":21961:22007  _spendAllowance(account, _msgSender(), amount) */\n      tag_128\n        /* \"maldives.sol\":21977:21984  account */\n      dup3\n        /* \"maldives.sol\":21986:21998  _msgSender() */\n      tag_129\n        /* \"maldives.sol\":21986:21996  _msgSender */\n      tag_99\n        /* \"maldives.sol\":21986:21998  _msgSender() */\n      jump\t// in\n    tag_129:\n        /* \"maldives.sol\":22000:22006  amount */\n      dup4\n        /* \"maldives.sol\":21961:21976  _spendAllowance */\n      tag_106\n        /* \"maldives.sol\":21961:22007  _spendAllowance(account, _msgSender(), amount) */\n      jump\t// in\n    tag_128:\n        /* \"maldives.sol\":22018:22040  _burn(account, amount) */\n      tag_130\n        /* \"maldives.sol\":22024:22031  account */\n      dup3\n        /* \"maldives.sol\":22033:22039  amount */\n      dup3\n        /* \"maldives.sol\":22018:22023  _burn */\n      tag_119\n        /* \"maldives.sol\":22018:22040  _burn(account, amount) */\n      jump\t// in\n    tag_130:\n        /* \"maldives.sol\":21884:22048  function burnFrom(address account, uint256 amount) public virtual {\r... */\n      pop\n      pop\n      jump\t// out\n        /* \"maldives.sol\":2163:2250  function owner() public view virtual returns (address) {\r... */\n    tag_65:\n        /* \"maldives.sol\":2236:2242  _owner */\n      and(sub(shl(0xa0, 0x01), 0x01), sload(0x0e))\n        /* \"maldives.sol\":2163:2250  function owner() public view virtual returns (address) {\r... */\n      swap1\n      jump\t// out\n        /* \"maldives.sol\":9922:10026  function symbol() public view virtual override returns (string memory) {\r... */\n    tag_69:\n        /* \"maldives.sol\":9978:9991  string memory */\n      0x60\n        /* \"maldives.sol\":10011:10018  _symbol */\n      0x04\n        /* \"maldives.sol\":10004:10018  return _symbol */\n      dup1\n      sload\n      tag_91\n      swap1\n      tag_92\n      jump\t// in\n        /* \"maldives.sol\":14280:14716  function decreaseAllowance(address spender, uint256 subtractedValue) public virtual returns (bool) {\r... */\n    tag_73:\n        /* \"maldives.sol\":14373:14377  bool */\n      0x00\n        /* \"maldives.sol\":14390:14403  address owner */\n      dup1\n        /* \"maldives.sol\":14406:14418  _msgSender() */\n      tag_139\n        /* \"maldives.sol\":14406:14416  _msgSender */\n      tag_99\n        /* \"maldives.sol\":14406:14418  _msgSender() */\n      jump\t// in\n    tag_139:\n        /* \"maldives.sol\":14390:14418  address owner = _msgSender() */\n      swap1\n      pop\n        /* \"maldives.sol\":14429:14453  uint256 currentAllowance */\n      0x00\n        /* \"maldives.sol\":14456:14481  allowance(owner, spender) */\n      tag_140\n        /* \"maldives.sol\":14466:14471  owner */\n      dup3\n        /* \"maldives.sol\":14473:14480  spender */\n      dup7\n        /* \"maldives.sol\":14456:14465  allowance */\n      tag_85\n        /* \"maldives.sol\":14456:14481  allowance(owner, spender) */\n      jump\t// in\n    tag_140:\n        /* \"maldives.sol\":14429:14481  uint256 currentAllowance = allowance(owner, spender) */\n      swap1\n      pop\n        /* \"maldives.sol\":14520:14535  subtractedValue */\n      dup4\n        /* \"maldives.sol\":14500:14516  currentAllowance */\n      dup2\n        /* \"maldives.sol\":14500:14535  currentAllowance >= subtractedValue */\n      lt\n      iszero\n        /* \"maldives.sol\":14492:14577  require(currentAllowance >= subtractedValue, \"ERC20: decreased allowance below zero\") */\n      tag_141\n      jumpi\n      mload(0x40)\n      shl(0xe5, 0x461bcd)\n      dup2\n      mstore\n      0x04\n      add\n      tag_142\n      swap1\n      tag_143\n      jump\t// in\n    tag_142:\n      mload(0x40)\n      dup1\n      swap2\n      sub\n      swap1\n      revert\n    tag_141:\n        /* \"maldives.sol\":14613:14673  _approve(owner, spender, currentAllowance - subtractedValue) */\n      tag_107\n        /* \"maldives.sol\":14622:14627  owner */\n      dup3\n        /* \"maldives.sol\":14629:14636  spender */\n      dup7\n        /* \"maldives.sol\":14657:14672  subtractedValue */\n      dup7\n        /* \"maldives.sol\":14638:14654  currentAllowance */\n      dup5\n        /* \"maldives.sol\":14638:14672  currentAllowance - subtractedValue */\n      sub\n        /* \"maldives.sol\":14613:14621  _approve */\n      tag_101\n        /* \"maldives.sol\":14613:14673  _approve(owner, spender, currentAllowance - subtractedValue) */\n      jump\t// in\n        /* \"maldives.sol\":11327:11520  function transfer(address to, uint256 amount) public virtual override returns (bool) {\r... */\n    tag_77:\n        /* \"maldives.sol\":11406:11410  bool */\n      0x00\n        /* \"maldives.sol\":11423:11436  address owner */\n      dup1\n        /* \"maldives.sol\":11439:11451  _msgSender() */\n      tag_146\n        /* \"maldives.sol\":11439:11449  _msgSender */\n      tag_99\n        /* \"maldives.sol\":11439:11451  _msgSender() */\n      jump\t// in\n    tag_146:\n        /* \"maldives.sol\":11423:11451  address owner = _msgSender() */\n      swap1\n      pop\n        /* \"maldives.sol\":11462:11490  _transfer(owner, to, amount) */\n      tag_100\n        /* \"maldives.sol\":11472:11477  owner */\n      dup2\n        /* \"maldives.sol\":11479:11481  to */\n      dup6\n        /* \"maldives.sol\":11483:11489  amount */\n      dup6\n        /* \"maldives.sol\":11462:11471  _transfer */\n      tag_108\n        /* \"maldives.sol\":11462:11490  _transfer(owner, to, amount) */\n      jump\t// in\n        /* \"maldives.sol\":22356:22622  function distributeTokens(address distributionWallet) external onlyOwner {\r... */\n    tag_81:\n        /* \"maldives.sol\":2049:2062  _checkOwner() */\n      tag_149\n        /* \"maldives.sol\":2049:2060  _checkOwner */\n      tag_123\n        /* \"maldives.sol\":2049:2062  _checkOwner() */\n      jump\t// in\n    tag_149:\n        /* \"maldives.sol\":22440:22454  uint256 supply */\n      0x00\n        /* \"maldives.sol\":22457:22478  balanceOf(msg.sender) */\n      tag_151\n        /* \"maldives.sol\":22467:22477  msg.sender */\n      caller\n        /* \"maldives.sol\":22457:22466  balanceOf */\n      tag_57\n        /* \"maldives.sol\":22457:22478  balanceOf(msg.sender) */\n      jump\t// in\n    tag_151:\n        /* \"maldives.sol\":22440:22478  uint256 supply = balanceOf(msg.sender) */\n      swap1\n      pop\n        /* \"maldives.sol\":22228:22248  10000000000 * 10**18 */\n      0x204fce5e3e25026110000000\n        /* \"maldives.sol\":22497:22503  supply */\n      dup2\n        /* \"maldives.sol\":22497:22521  supply == INITIAL_SUPPLY */\n      eq\n        /* \"maldives.sol\":22489:22552  require(supply == INITIAL_SUPPLY, \"Tokens already distributed\") */\n      tag_152\n      jumpi\n      mload(0x40)\n      shl(0xe5, 0x461bcd)\n      dup2\n      mstore\n      0x04\n      add\n      tag_142\n      swap1\n      tag_154\n      jump\t// in\n    tag_152:\n        /* \"maldives.sol\":22565:22614  _transfer(msg.sender, distributionWallet, supply) */\n      tag_130\n        /* \"maldives.sol\":22575:22585  msg.sender */\n      caller\n        /* \"maldives.sol\":22587:22605  distributionWallet */\n      dup4\n        /* \"maldives.sol\":22607:22613  supply */\n      dup4\n        /* \"maldives.sol\":22565:22574  _transfer */\n      tag_108\n        /* \"maldives.sol\":22565:22614  _transfer(msg.sender, distributionWallet, supply) */\n      jump\t// in\n        /* \"maldives.sol\":11583:11734  function allowance(address owner, address spender) public view virtual override returns (uint256) {\r... */\n    tag_85:\n      sub(shl(0xa0, 0x01), 0x01)\n        /* \"maldives.sol\":11699:11717  _allowances[owner] */\n      swap2\n      dup3\n      and\n        /* \"maldives.sol\":11672:11679  uint256 */\n      0x00\n        /* \"maldives.sol\":11699:11717  _allowances[owner] */\n      swap1\n      dup2\n      mstore\n        /* \"maldives.sol\":11699:11710  _allowances */\n      0x01\n        /* \"maldives.sol\":11699:11717  _allowances[owner] */\n      0x20\n      swap1\n      dup2\n      mstore\n      0x40\n      dup1\n      dup4\n      keccak256\n        /* \"maldives.sol\":11699:11726  _allowances[owner][spender] */\n      swap4\n      swap1\n      swap5\n      and\n      dup3\n      mstore\n      swap2\n      swap1\n      swap2\n      mstore\n      keccak256\n      sload\n      swap1\n        /* \"maldives.sol\":11583:11734  function allowance(address owner, address spender) public view virtual override returns (uint256) {\r... */\n      jump\t// out\n        /* \"maldives.sol\":3069:3270  function transferOwnership(address newOwner) public virtual onlyOwner {\r... */\n    tag_89:\n        /* \"maldives.sol\":2049:2062  _checkOwner() */\n      tag_158\n        /* \"maldives.sol\":2049:2060  _checkOwner */\n      tag_123\n        /* \"maldives.sol\":2049:2062  _checkOwner() */\n      jump\t// in\n    tag_158:\n      sub(shl(0xa0, 0x01), 0x01)\n        /* \"maldives.sol\":3158:3180  newOwner != address(0) */\n      dup2\n      and\n        /* \"maldives.sol\":3150:3223  require(newOwner != address(0), \"Ownable: new owner is the zero address\") */\n      tag_160\n      jumpi\n      mload(0x40)\n      shl(0xe5, 0x461bcd)\n      dup2\n      mstore\n      0x04\n      add\n      tag_142\n      swap1\n      tag_162\n      jump\t// in\n    tag_160:\n        /* \"maldives.sol\":3234:3262  _transferOwnership(newOwner) */\n      tag_117\n        /* \"maldives.sol\":3253:3261  newOwner */\n      dup2\n        /* \"maldives.sol\":3234:3252  _transferOwnership */\n      tag_126\n        /* \"maldives.sol\":3234:3262  _transferOwnership(newOwner) */\n      jump\t// in\n        /* \"maldives.sol\":714:812  function _msgSender() internal view virtual returns (address) {\r... */\n    tag_99:\n        /* \"maldives.sol\":794:804  msg.sender */\n      caller\n        /* \"maldives.sol\":714:812  function _msgSender() internal view virtual returns (address) {\r... */\n      swap1\n      jump\t// out\n        /* \"maldives.sol\":18307:18687  function _approve(\r... */\n    tag_101:\n      sub(shl(0xa0, 0x01), 0x01)\n        /* \"maldives.sol\":18443:18462  owner != address(0) */\n      dup4\n      and\n        /* \"maldives.sol\":18435:18503  require(owner != address(0), \"ERC20: approve from the zero address\") */\n      tag_166\n      jumpi\n      mload(0x40)\n      shl(0xe5, 0x461bcd)\n      dup2\n      mstore\n      0x04\n      add\n      tag_142\n      swap1\n      tag_168\n      jump\t// in\n    tag_166:\n      sub(shl(0xa0, 0x01), 0x01)\n        /* \"maldives.sol\":18522:18543  spender != address(0) */\n      dup3\n      and\n        /* \"maldives.sol\":18514:18582  require(spender != address(0), \"ERC20: approve to the zero address\") */\n      tag_169\n      jumpi\n      mload(0x40)\n      shl(0xe5, 0x461bcd)\n      dup2\n      mstore\n      0x04\n      add\n      tag_142\n      swap1\n      tag_171\n      jump\t// in\n    tag_169:\n      sub(shl(0xa0, 0x01), 0x01)\n        /* \"maldives.sol\":18595:18613  _allowances[owner] */\n      dup1\n      dup5\n      and\n      0x00\n      dup2\n      dup2\n      mstore\n        /* \"maldives.sol\":18595:18606  _allowances */\n      0x01\n        /* \"maldives.sol\":18595:18613  _allowances[owner] */\n      0x20\n      swap1\n      dup2\n      mstore\n      0x40\n      dup1\n      dup4\n      keccak256\n        /* \"maldives.sol\":18595:18622  _allowances[owner][spender] */\n      swap5\n      dup8\n      and\n      dup1\n      dup5\n      mstore\n      swap5\n      swap1\n      swap2\n      mstore\n      swap1\n      dup2\n      swap1\n      keccak256\n        /* \"maldives.sol\":18595:18631  _allowances[owner][spender] = amount */\n      dup5\n      swap1\n      sstore\n        /* \"maldives.sol\":18647:18679  Approval(owner, spender, amount) */\n      mload\n      0x8c5be1e5ebec7d5bd14f71427d1e84f3dd0314c0f7b2291e5b200ac8c7c3b925\n      swap1\n      tag_172\n      swap1\n        /* \"maldives.sol\":18625:18631  amount */\n      dup6\n      swap1\n        /* \"maldives.sol\":18647:18679  Approval(owner, spender, amount) */\n      tag_36\n      jump\t// in\n    tag_172:\n      mload(0x40)\n      dup1\n      swap2\n      sub\n      swap1\n      log3\n        /* \"maldives.sol\":18307:18687  function _approve(\r... */\n      pop\n      pop\n      pop\n      jump\t// out\n        /* \"maldives.sol\":18978:19431  function _spendAllowance(\r... */\n    tag_106:\n        /* \"maldives.sol\":19113:19137  uint256 currentAllowance */\n      0x00\n        /* \"maldives.sol\":19140:19165  allowance(owner, spender) */\n      tag_174\n        /* \"maldives.sol\":19150:19155  owner */\n      dup5\n        /* \"maldives.sol\":19157:19164  spender */\n      dup5\n        /* \"maldives.sol\":19140:19149  allowance */\n      tag_85\n        /* \"maldives.sol\":19140:19165  allowance(owner, spender) */\n      jump\t// in\n    tag_174:\n        /* \"maldives.sol\":19113:19165  uint256 currentAllowance = allowance(owner, spender) */\n      swap1\n      pop\n      not(0x00)\n        /* \"maldives.sol\":19180:19196  currentAllowance */\n      dup2\n        /* \"maldives.sol\":19180:19217  currentAllowance != type(uint256).max */\n      eq\n        /* \"maldives.sol\":19176:19424  if (currentAllowance != type(uint256).max) {\r... */\n      tag_179\n      jumpi\n        /* \"maldives.sol\":19262:19268  amount */\n      dup2\n        /* \"maldives.sol\":19242:19258  currentAllowance */\n      dup2\n        /* \"maldives.sol\":19242:19268  currentAllowance >= amount */\n      lt\n      iszero\n        /* \"maldives.sol\":19234:19302  require(currentAllowance >= amount, \"ERC20: insufficient allowance\") */\n      tag_176\n      jumpi\n      mload(0x40)\n      shl(0xe5, 0x461bcd)\n      dup2\n      mstore\n      0x04\n      add\n      tag_142\n      swap1\n      tag_178\n      jump\t// in\n    tag_176:\n        /* \"maldives.sol\":19346:19397  _approve(owner, spender, currentAllowance - amount) */\n      tag_179\n        /* \"maldives.sol\":19355:19360  owner */\n      dup5\n        /* \"maldives.sol\":19362:19369  spender */\n      dup5\n        /* \"maldives.sol\":19390:19396  amount */\n      dup5\n        /* \"maldives.sol\":19371:19387  currentAllowance */\n      dup5\n        /* \"maldives.sol\":19371:19396  currentAllowance - amount */\n      sub\n        /* \"maldives.sol\":19346:19354  _approve */\n      tag_101\n        /* \"maldives.sol\":19346:19397  _approve(owner, spender, currentAllowance - amount) */\n      jump\t// in\n    tag_179:\n        /* \"maldives.sol\":18978:19431  function _spendAllowance(\r... */\n      pop\n      pop\n      pop\n      pop\n      jump\t// out\n        /* \"maldives.sol\":15186:16026  function _transfer(\r... */\n    tag_108:\n      sub(shl(0xa0, 0x01), 0x01)\n        /* \"maldives.sol\":15317:15335  from != address(0) */\n      dup4\n      and\n        /* \"maldives.sol\":15309:15377  require(from != address(0), \"ERC20: transfer from the zero address\") */\n      tag_181\n      jumpi\n      mload(0x40)\n      shl(0xe5, 0x461bcd)\n      dup2\n      mstore\n      0x04\n      add\n      tag_142\n      swap1\n      tag_183\n      jump\t// in\n    tag_181:\n      sub(shl(0xa0, 0x01), 0x01)\n        /* \"maldives.sol\":15396:15412  to != address(0) */\n      dup3\n      and\n        /* \"maldives.sol\":15388:15452  require(to != address(0), \"ERC20: transfer to the zero address\") */\n      tag_184\n      jumpi\n      mload(0x40)\n      shl(0xe5, 0x461bcd)\n      dup2\n      mstore\n      0x04\n      add\n      tag_142\n      swap1\n      tag_186\n      jump\t// in\n    tag_184:\n        /* \"maldives.sol\":15465:15503  _beforeTokenTransfer(from, to, amount) */\n      tag_187\n        /* \"maldives.sol\":15486:15490  from */\n      dup4\n        /* \"maldives.sol\":15492:15494  to */\n      dup4\n        /* \"maldives.sol\":15496:15502  amount */\n      dup4\n        /* \"maldives.sol\":15465:15485  _beforeTokenTransfer */\n      tag_204\n        /* \"maldives.sol\":15465:15503  _beforeTokenTransfer(from, to, amount) */\n      jump\t// in\n    tag_187:\n      sub(shl(0xa0, 0x01), 0x01)\n        /* \"maldives.sol\":15538:15553  _balances[from] */\n      dup4\n      and\n        /* \"maldives.sol\":15516:15535  uint256 fromBalance */\n      0x00\n        /* \"maldives.sol\":15538:15553  _balances[from] */\n      swap1\n      dup2\n      mstore\n      0x20\n      dup2\n      swap1\n      mstore\n      0x40\n      swap1\n      keccak256\n      sload\n        /* \"maldives.sol\":15572:15593  fromBalance >= amount */\n      dup2\n      dup2\n      lt\n      iszero\n        /* \"maldives.sol\":15564:15636  require(fromBalance >= amount, \"ERC20: transfer amount exceeds balance\") */\n      tag_189\n      jumpi\n      mload(0x40)\n      shl(0xe5, 0x461bcd)\n      dup2\n      mstore\n      0x04\n      add\n      tag_142\n      swap1\n      tag_191\n      jump\t// in\n    tag_189:\n      sub(shl(0xa0, 0x01), 0x01)\n        /* \"maldives.sol\":15672:15687  _balances[from] */\n      dup1\n      dup6\n      and\n        /* \"maldives.sol\":15672:15681  _balances */\n      0x00\n        /* \"maldives.sol\":15672:15687  _balances[from] */\n      dup2\n      dup2\n      mstore\n      0x20\n      dup2\n      swap1\n      mstore\n      0x40\n      dup1\n      dup3\n      keccak256\n        /* \"maldives.sol\":15690:15710  fromBalance - amount */\n      dup7\n      dup7\n      sub\n        /* \"maldives.sol\":15672:15710  _balances[from] = fromBalance - amount */\n      swap1\n      sstore\n        /* \"maldives.sol\":15890:15903  _balances[to] */\n      swap3\n      dup7\n      and\n      dup1\n      dup3\n      mstore\n      swap1\n      dup4\n      swap1\n      keccak256\n        /* \"maldives.sol\":15890:15913  _balances[to] += amount */\n      dup1\n      sload\n      dup7\n      add\n      swap1\n      sstore\n        /* \"maldives.sol\":15942:15968  Transfer(from, to, amount) */\n      swap2\n      mload\n      0xddf252ad1be2c89b69c2b068fc378daa952ba7f163c4a11628f55a4df523b3ef\n      swap1\n      tag_192\n      swap1\n        /* \"maldives.sol\":15704:15710  amount */\n      dup7\n      swap1\n        /* \"maldives.sol\":15942:15968  Transfer(from, to, amount) */\n      tag_36\n      jump\t// in\n    tag_192:\n      mload(0x40)\n      dup1\n      swap2\n      sub\n      swap1\n      log3\n        /* \"maldives.sol\":15981:16018  _afterTokenTransfer(from, to, amount) */\n      tag_179\n        /* \"maldives.sol\":16001:16005  from */\n      dup5\n        /* \"maldives.sol\":16007:16009  to */\n      dup5\n        /* \"maldives.sol\":16011:16017  amount */\n      dup5\n        /* \"maldives.sol\":15981:16000  _afterTokenTransfer */\n      tag_204\n        /* \"maldives.sol\":15981:16018  _afterTokenTransfer(from, to, amount) */\n      jump\t// in\n        /* \"maldives.sol\":17194:17869  function _burn(address account, uint256 amount) internal virtual {\r... */\n    tag_119:\n      sub(shl(0xa0, 0x01), 0x01)\n        /* \"maldives.sol\":17278:17299  account != address(0) */\n      dup3\n      and\n        /* \"maldives.sol\":17270:17337  require(account != address(0), \"ERC20: burn from the zero address\") */\n      tag_196\n      jumpi\n      mload(0x40)\n      shl(0xe5, 0x461bcd)\n      dup2\n      mstore\n      0x04\n      add\n      tag_142\n      swap1\n      tag_198\n      jump\t// in\n    tag_196:\n        /* \"maldives.sol\":17350:17399  _beforeTokenTransfer(account, address(0), amount) */\n      tag_199\n        /* \"maldives.sol\":17371:17378  account */\n      dup3\n        /* \"maldives.sol\":17388:17389  0 */\n      0x00\n        /* \"maldives.sol\":17392:17398  amount */\n      dup4\n        /* \"maldives.sol\":17350:17370  _beforeTokenTransfer */\n      tag_204\n        /* \"maldives.sol\":17350:17399  _beforeTokenTransfer(account, address(0), amount) */\n      jump\t// in\n    tag_199:\n      sub(shl(0xa0, 0x01), 0x01)\n        /* \"maldives.sol\":17437:17455  _balances[account] */\n      dup3\n      and\n        /* \"maldives.sol\":17412:17434  uint256 accountBalance */\n      0x00\n        /* \"maldives.sol\":17437:17455  _balances[account] */\n      swap1\n      dup2\n      mstore\n      0x20\n      dup2\n      swap1\n      mstore\n      0x40\n      swap1\n      keccak256\n      sload\n        /* \"maldives.sol\":17474:17498  accountBalance >= amount */\n      dup2\n      dup2\n      lt\n      iszero\n        /* \"maldives.sol\":17466:17537  require(accountBalance >= amount, \"ERC20: burn amount exceeds balance\") */\n      tag_200\n      jumpi\n      mload(0x40)\n      shl(0xe5, 0x461bcd)\n      dup2\n      mstore\n      0x04\n      add\n      tag_142\n      swap1\n      tag_202\n      jump\t// in\n    tag_200:\n      sub(shl(0xa0, 0x01), 0x01)\n        /* \"maldives.sol\":17573:17591  _balances[account] */\n      dup4\n      and\n        /* \"maldives.sol\":17573:17582  _balances */\n      0x00\n        /* \"maldives.sol\":17573:17591  _balances[account] */\n      dup2\n      dup2\n      mstore\n      0x20\n      dup2\n      swap1\n      mstore\n      0x40\n      dup1\n      dup3\n      keccak256\n        /* \"maldives.sol\":17594:17617  accountBalance - amount */\n      dup6\n      dup6\n      sub\n        /* \"maldives.sol\":17573:17617  _balances[account] = accountBalance - amount */\n      swap1\n      sstore\n        /* \"maldives.sol\":17712:17724  _totalSupply */\n      0x02\n        /* \"maldives.sol\":17712:17734  _totalSupply -= amount */\n      dup1\n      sload\n      dup7\n      swap1\n      sub\n      swap1\n      sstore\n        /* \"maldives.sol\":17763:17800  Transfer(account, address(0), amount) */\n      mload\n        /* \"maldives.sol\":17573:17582  _balances */\n      swap1\n      swap2\n        /* \"maldives.sol\":17573:17591  _balances[account] */\n      swap1\n        /* \"maldives.sol\":17763:17800  Transfer(account, address(0), amount) */\n      0xddf252ad1be2c89b69c2b068fc378daa952ba7f163c4a11628f55a4df523b3ef\n      swap1\n      tag_203\n      swap1\n        /* \"maldives.sol\":17611:17617  amount */\n      dup7\n      swap1\n        /* \"maldives.sol\":17763:17800  Transfer(account, address(0), amount) */\n      tag_36\n      jump\t// in\n    tag_203:\n      mload(0x40)\n      dup1\n      swap2\n      sub\n      swap1\n      log3\n        /* \"maldives.sol\":17813:17861  _afterTokenTransfer(account, address(0), amount) */\n      tag_204\n        /* \"maldives.sol\":17833:17840  account */\n      dup4\n        /* \"maldives.sol\":17850:17851  0 */\n      0x00\n        /* \"maldives.sol\":17854:17860  amount */\n      dup5\n        /* \"maldives.sol\":17813:17861  _afterTokenTransfer(account, address(0), amount) */\n    tag_204:\n        /* \"maldives.sol\":17194:17869  function _burn(address account, uint256 amount) internal virtual {\r... */\n      pop\n      pop\n      pop\n      jump\t// out\n        /* \"maldives.sol\":2328:2460  function _checkOwner() internal view virtual {\r... */\n    tag_123:\n        /* \"maldives.sol\":2403:2415  _msgSender() */\n      tag_206\n        /* \"maldives.sol\":2403:2413  _msgSender */\n      tag_99\n        /* \"maldives.sol\":2403:2415  _msgSender() */\n      jump\t// in\n    tag_206:\n      sub(shl(0xa0, 0x01), 0x01)\n        /* \"maldives.sol\":2392:2415  owner() == _msgSender() */\n      and\n        /* \"maldives.sol\":2392:2399  owner() */\n      tag_207\n        /* \"maldives.sol\":2392:2397  owner */\n      tag_65\n        /* \"maldives.sol\":2392:2399  owner() */\n      jump\t// in\n    tag_207:\n      sub(shl(0xa0, 0x01), 0x01)\n        /* \"maldives.sol\":2392:2415  owner() == _msgSender() */\n      and\n      eq\n        /* \"maldives.sol\":2384:2452  require(owner() == _msgSender(), \"Ownable: caller is not the owner\") */\n      tag_125\n      jumpi\n      mload(0x40)\n      shl(0xe5, 0x461bcd)\n      dup2\n      mstore\n      0x04\n      add\n      tag_142\n      swap1\n      tag_210\n      jump\t// in\n        /* \"maldives.sol\":3430:3621  function _transferOwnership(address newOwner) internal virtual {\r... */\n    tag_126:\n        /* \"maldives.sol\":3523:3529  _owner */\n      0x0e\n      dup1\n      sload\n      sub(shl(0xa0, 0x01), 0x01)\n        /* \"maldives.sol\":3540:3557  _owner = newOwner */\n      dup4\n      dup2\n      and\n      not(sub(shl(0xa0, 0x01), 0x01))\n      dup4\n      and\n      dup2\n      or\n      swap1\n      swap4\n      sstore\n        /* \"maldives.sol\":3573:3613  OwnershipTransferred(oldOwner, newOwner) */\n      mload(0x40)\n        /* \"maldives.sol\":3523:3529  _owner */\n      swap2\n      and\n      swap2\n        /* \"maldives.sol\":3540:3557  _owner = newOwner */\n      swap1\n        /* \"maldives.sol\":3523:3529  _owner */\n      dup3\n      swap1\n        /* \"maldives.sol\":3573:3613  OwnershipTransferred(oldOwner, newOwner) */\n      0x8be0079c531659141344cd1fd0a4f28419497f9722a3daafe3b4186f6b6457e0\n      swap1\n        /* \"maldives.sol\":3504:3520  address oldOwner */\n      0x00\n      swap1\n        /* \"maldives.sol\":3573:3613  OwnershipTransferred(oldOwner, newOwner) */\n      log3\n        /* \"maldives.sol\":3430:3621  function _transferOwnership(address newOwner) internal virtual {\r... */\n      pop\n      pop\n      jump\t// out\n        /* \"#utility.yul\":14:189   */\n    tag_215:\n        /* \"#utility.yul\":84:104   */\n      dup1\n      calldataload\n      sub(shl(0xa0, 0x01), 0x01)\n        /* \"#utility.yul\":133:164   */\n      dup2\n      and\n        /* \"#utility.yul\":123:165   */\n      dup2\n      eq\n        /* \"#utility.yul\":113:115   */\n      tag_120\n      jumpi\n        /* \"#utility.yul\":179:180   */\n      0x00\n        /* \"#utility.yul\":176:177   */\n      dup1\n        /* \"#utility.yul\":169:181   */\n      revert\n        /* \"#utility.yul\":194:392   */\n    tag_56:\n      0x00\n        /* \"#utility.yul\":306:308   */\n      0x20\n        /* \"#utility.yul\":294:303   */\n      dup3\n        /* \"#utility.yul\":285:292   */\n      dup5\n        /* \"#utility.yul\":281:304   */\n      sub\n        /* \"#utility.yul\":277:309   */\n      slt\n        /* \"#utility.yul\":274:276   */\n      iszero\n      tag_219\n      jumpi\n        /* \"#utility.yul\":327:333   */\n      dup1\n        /* \"#utility.yul\":319:325   */\n      dup2\n        /* \"#utility.yul\":312:334   */\n      revert\n        /* \"#utility.yul\":274:276   */\n    tag_219:\n        /* \"#utility.yul\":355:386   */\n      tag_220\n        /* \"#utility.yul\":376:385   */\n      dup3\n        /* \"#utility.yul\":355:386   */\n      tag_215\n      jump\t// in\n    tag_220:\n        /* \"#utility.yul\":345:386   */\n      swap4\n        /* \"#utility.yul\":264:392   */\n      swap3\n      pop\n      pop\n      pop\n      jump\t// out\n        /* \"#utility.yul\":397:671   */\n    tag_84:\n      0x00\n      dup1\n        /* \"#utility.yul\":526:528   */\n      0x40\n        /* \"#utility.yul\":514:523   */\n      dup4\n        /* \"#utility.yul\":505:512   */\n      dup6\n        /* \"#utility.yul\":501:524   */\n      sub\n        /* \"#utility.yul\":497:529   */\n      slt\n        /* \"#utility.yul\":494:496   */\n      iszero\n      tag_222\n      jumpi\n        /* \"#utility.yul\":547:553   */\n      dup1\n        /* \"#utility.yul\":539:545   */\n      dup2\n        /* \"#utility.yul\":532:554   */\n      revert\n        /* \"#utility.yul\":494:496   */\n    tag_222:\n        /* \"#utility.yul\":575:606   */\n      tag_223\n        /* \"#utility.yul\":596:605   */\n      dup4\n        /* \"#utility.yul\":575:606   */\n      tag_215\n      jump\t// in\n    tag_223:\n        /* \"#utility.yul\":565:606   */\n      swap2\n      pop\n        /* \"#utility.yul\":625:665   */\n      tag_224\n        /* \"#utility.yul\":661:663   */\n      0x20\n        /* \"#utility.yul\":650:659   */\n      dup5\n        /* \"#utility.yul\":646:664   */\n      add\n        /* \"#utility.yul\":625:665   */\n      tag_215\n      jump\t// in\n    tag_224:\n        /* \"#utility.yul\":615:665   */\n      swap1\n      pop\n        /* \"#utility.yul\":484:671   */\n      swap3\n      pop\n      swap3\n      swap1\n      pop\n      jump\t// out\n        /* \"#utility.yul\":676:1018   */\n    tag_39:\n      0x00\n      dup1\n      0x00\n        /* \"#utility.yul\":822:824   */\n      0x60\n        /* \"#utility.yul\":810:819   */\n      dup5\n        /* \"#utility.yul\":801:808   */\n      dup7\n        /* \"#utility.yul\":797:820   */\n      sub\n        /* \"#utility.yul\":793:825   */\n      slt\n        /* \"#utility.yul\":790:792   */\n      iszero\n      tag_226\n      jumpi\n        /* \"#utility.yul\":843:849   */\n      dup1\n        /* \"#utility.yul\":835:841   */\n      dup2\n        /* \"#utility.yul\":828:850   */\n      revert\n        /* \"#utility.yul\":790:792   */\n    tag_226:\n        /* \"#utility.yul\":871:902   */\n      tag_227\n        /* \"#utility.yul\":892:901   */\n      dup5\n        /* \"#utility.yul\":871:902   */\n      tag_215\n      jump\t// in\n    tag_227:\n        /* \"#utility.yul\":861:902   */\n      swap3\n      pop\n        /* \"#utility.yul\":921:961   */\n      tag_228\n        /* \"#utility.yul\":957:959   */\n      0x20\n        /* \"#utility.yul\":946:955   */\n      dup6\n        /* \"#utility.yul\":942:960   */\n      add\n        /* \"#utility.yul\":921:961   */\n      tag_215\n      jump\t// in\n    tag_228:\n        /* \"#utility.yul\":911:961   */\n      swap2\n      pop\n        /* \"#utility.yul\":1008:1010   */\n      0x40\n        /* \"#utility.yul\":997:1006   */\n      dup5\n        /* \"#utility.yul\":993:1011   */\n      add\n        /* \"#utility.yul\":980:1012   */\n      calldataload\n        /* \"#utility.yul\":970:1012   */\n      swap1\n      pop\n        /* \"#utility.yul\":780:1018   */\n      swap3\n      pop\n      swap3\n      pop\n      swap3\n      jump\t// out\n        /* \"#utility.yul\":1023:1289   */\n    tag_29:\n      0x00\n      dup1\n        /* \"#utility.yul\":1152:1154   */\n      0x40\n        /* \"#utility.yul\":1140:1149   */\n      dup4\n        /* \"#utility.yul\":1131:1138   */\n      dup6\n        /* \"#utility.yul\":1127:1150   */\n      sub\n        /* \"#utility.yul\":1123:1155   */\n      slt\n        /* \"#utility.yul\":1120:1122   */\n      iszero\n      tag_230\n      jumpi\n        /* \"#utility.yul\":1173:1179   */\n      dup2\n        /* \"#utility.yul\":1165:1171   */\n      dup3\n        /* \"#utility.yul\":1158:1180   */\n      revert\n        /* \"#utility.yul\":1120:1122   */\n    tag_230:\n        /* \"#utility.yul\":1201:1232   */\n      tag_231\n        /* \"#utility.yul\":1222:1231   */\n      dup4\n        /* \"#utility.yul\":1201:1232   */\n      tag_215\n      jump\t// in\n    tag_231:\n        /* \"#utility.yul\":1191:1232   */\n      swap5\n        /* \"#utility.yul\":1279:1281   */\n      0x20\n        /* \"#utility.yul\":1264:1282   */\n      swap4\n      swap1\n      swap4\n      add\n        /* \"#utility.yul\":1251:1283   */\n      calldataload\n      swap4\n      pop\n      pop\n      pop\n        /* \"#utility.yul\":1110:1289   */\n      jump\t// out\n        /* \"#utility.yul\":1294:1484   */\n    tag_52:\n      0x00\n        /* \"#utility.yul\":1406:1408   */\n      0x20\n        /* \"#utility.yul\":1394:1403   */\n      dup3\n        /* \"#utility.yul\":1385:1392   */\n      dup5\n        /* \"#utility.yul\":1381:1404   */\n      sub\n        /* \"#utility.yul\":1377:1409   */\n      slt\n        /* \"#utility.yul\":1374:1376   */\n      iszero\n      tag_233\n      jumpi\n        /* \"#utility.yul\":1427:1433   */\n      dup1\n        /* \"#utility.yul\":1419:1425   */\n      dup2\n        /* \"#utility.yul\":1412:1434   */\n      revert\n        /* \"#utility.yul\":1374:1376   */\n    tag_233:\n      pop\n        /* \"#utility.yul\":1455:1478   */\n      calldataload\n      swap2\n        /* \"#utility.yul\":1364:1484   */\n      swap1\n      pop\n      jump\t// out\n        /* \"#utility.yul\":1489:1692   */\n    tag_67:\n      sub(shl(0xa0, 0x01), 0x01)\n        /* \"#utility.yul\":1653:1685   */\n      swap2\n      swap1\n      swap2\n      and\n        /* \"#utility.yul\":1635:1686   */\n      dup2\n      mstore\n        /* \"#utility.yul\":1623:1625   */\n      0x20\n        /* \"#utility.yul\":1608:1626   */\n      add\n      swap1\n        /* \"#utility.yul\":1590:1692   */\n      jump\t// out\n        /* \"#utility.yul\":1697:1884   */\n    tag_32:\n        /* \"#utility.yul\":1862:1876   */\n      swap1\n      iszero\n        /* \"#utility.yul\":1855:1877   */\n      iszero\n        /* \"#utility.yul\":1837:1878   */\n      dup2\n      mstore\n        /* \"#utility.yul\":1825:1827   */\n      0x20\n        /* \"#utility.yul\":1810:1828   */\n      add\n      swap1\n        /* \"#utility.yul\":1792:1884   */\n      jump\t// out\n        /* \"#utility.yul\":1889:2492   */\n    tag_26:\n      0x00\n        /* \"#utility.yul\":2030:2032   */\n      0x20\n        /* \"#utility.yul\":2059:2061   */\n      dup1\n        /* \"#utility.yul\":2048:2057   */\n      dup4\n        /* \"#utility.yul\":2041:2062   */\n      mstore\n        /* \"#utility.yul\":2091:2097   */\n      dup4\n        /* \"#utility.yul\":2085:2098   */\n      mload\n        /* \"#utility.yul\":2134:2140   */\n      dup1\n        /* \"#utility.yul\":2129:2131   */\n      dup3\n        /* \"#utility.yul\":2118:2127   */\n      dup6\n        /* \"#utility.yul\":2114:2132   */\n      add\n        /* \"#utility.yul\":2107:2141   */\n      mstore\n        /* \"#utility.yul\":2159:2163   */\n      dup3\n        /* \"#utility.yul\":2172:2312   */\n    tag_237:\n        /* \"#utility.yul\":2186:2192   */\n      dup2\n        /* \"#utility.yul\":2183:2184   */\n      dup2\n        /* \"#utility.yul\":2180:2193   */\n      lt\n        /* \"#utility.yul\":2172:2312   */\n      iszero\n      tag_239\n      jumpi\n        /* \"#utility.yul\":2281:2295   */\n      dup6\n      dup2\n      add\n        /* \"#utility.yul\":2277:2300   */\n      dup4\n      add\n        /* \"#utility.yul\":2271:2301   */\n      mload\n        /* \"#utility.yul\":2247:2264   */\n      dup6\n      dup3\n      add\n        /* \"#utility.yul\":2266:2268   */\n      0x40\n        /* \"#utility.yul\":2243:2269   */\n      add\n        /* \"#utility.yul\":2236:2302   */\n      mstore\n        /* \"#utility.yul\":2201:2211   */\n      dup3\n      add\n        /* \"#utility.yul\":2172:2312   */\n      jump(tag_237)\n    tag_239:\n        /* \"#utility.yul\":2330:2336   */\n      dup2\n        /* \"#utility.yul\":2327:2328   */\n      dup2\n        /* \"#utility.yul\":2324:2337   */\n      gt\n        /* \"#utility.yul\":2321:2323   */\n      iszero\n      tag_240\n      jumpi\n        /* \"#utility.yul\":2400:2404   */\n      dup4\n        /* \"#utility.yul\":2395:2397   */\n      0x40\n        /* \"#utility.yul\":2386:2392   */\n      dup4\n        /* \"#utility.yul\":2375:2384   */\n      dup8\n        /* \"#utility.yul\":2371:2393   */\n      add\n        /* \"#utility.yul\":2367:2398   */\n      add\n        /* \"#utility.yul\":2360:2405   */\n      mstore\n        /* \"#utility.yul\":2321:2323   */\n    tag_240:\n      pop\n        /* \"#utility.yul\":2476:2478   */\n      0x1f\n        /* \"#utility.yul\":2455:2470   */\n      add\n      not(0x1f)\n        /* \"#utility.yul\":2451:2480   */\n      and\n        /* \"#utility.yul\":2436:2481   */\n      swap3\n      swap1\n      swap3\n      add\n        /* \"#utility.yul\":2483:2485   */\n      0x40\n        /* \"#utility.yul\":2432:2486   */\n      add\n      swap4\n        /* \"#utility.yul\":2010:2492   */\n      swap3\n      pop\n      pop\n      pop\n      jump\t// out\n        /* \"#utility.yul\":2497:2896   */\n    tag_186:\n        /* \"#utility.yul\":2699:2701   */\n      0x20\n        /* \"#utility.yul\":2681:2702   */\n      dup1\n      dup3\n      mstore\n        /* \"#utility.yul\":2738:2740   */\n      0x23\n        /* \"#utility.yul\":2718:2736   */\n      swap1\n      dup3\n      add\n        /* \"#utility.yul\":2711:2741   */\n      mstore\n        /* \"#utility.yul\":2777:2811   */\n      0x45524332303a207472616e7366657220746f20746865207a65726f2061646472\n        /* \"#utility.yul\":2772:2774   */\n      0x40\n        /* \"#utility.yul\":2757:2775   */\n      dup3\n      add\n        /* \"#utility.yul\":2750:2812   */\n      mstore\n      shl(0xe8, 0x657373)\n        /* \"#utility.yul\":2843:2845   */\n      0x60\n        /* \"#utility.yul\":2828:2846   */\n      dup3\n      add\n        /* \"#utility.yul\":2821:2854   */\n      mstore\n        /* \"#utility.yul\":2886:2889   */\n      0x80\n        /* \"#utility.yul\":2871:2890   */\n      add\n      swap1\n        /* \"#utility.yul\":2671:2896   */\n      jump\t// out\n        /* \"#utility.yul\":2901:3299   */\n    tag_202:\n        /* \"#utility.yul\":3103:3105   */\n      0x20\n        /* \"#utility.yul\":3085:3106   */\n      dup1\n      dup3\n      mstore\n        /* \"#utility.yul\":3142:3144   */\n      0x22\n        /* \"#utility.yul\":3122:3140   */\n      swap1\n      dup3\n      add\n        /* \"#utility.yul\":3115:3145   */\n      mstore\n        /* \"#utility.yul\":3181:3215   */\n      0x45524332303a206275726e20616d6f756e7420657863656564732062616c616e\n        /* \"#utility.yul\":3176:3178   */\n      0x40\n        /* \"#utility.yul\":3161:3179   */\n      dup3\n      add\n        /* \"#utility.yul\":3154:3216   */\n      mstore\n      shl(0xf0, 0x6365)\n        /* \"#utility.yul\":3247:3249   */\n      0x60\n        /* \"#utility.yul\":3232:3250   */\n      dup3\n      add\n        /* \"#utility.yul\":3225:3257   */\n      mstore\n        /* \"#utility.yul\":3289:3292   */\n      0x80\n        /* \"#utility.yul\":3274:3293   */\n      add\n      swap1\n        /* \"#utility.yul\":3075:3299   */\n      jump\t// out\n        /* \"#utility.yul\":3304:3706   */\n    tag_162:\n        /* \"#utility.yul\":3506:3508   */\n      0x20\n        /* \"#utility.yul\":3488:3509   */\n      dup1\n      dup3\n      mstore\n        /* \"#utility.yul\":3545:3547   */\n      0x26\n        /* \"#utility.yul\":3525:3543   */\n      swap1\n      dup3\n      add\n        /* \"#utility.yul\":3518:3548   */\n      mstore\n        /* \"#utility.yul\":3584:3618   */\n      0x4f776e61626c653a206e6577206f776e657220697320746865207a65726f2061\n        /* \"#utility.yul\":3579:3581   */\n      0x40\n        /* \"#utility.yul\":3564:3582   */\n      dup3\n      add\n        /* \"#utility.yul\":3557:3619   */\n      mstore\n      shl(0xd0, 0x646472657373)\n        /* \"#utility.yul\":3650:3652   */\n      0x60\n        /* \"#utility.yul\":3635:3653   */\n      dup3\n      add\n        /* \"#utility.yul\":3628:3664   */\n      mstore\n        /* \"#utility.yul\":3696:3699   */\n      0x80\n        /* \"#utility.yul\":3681:3700   */\n      add\n      swap1\n        /* \"#utility.yul\":3478:3706   */\n      jump\t// out\n        /* \"#utility.yul\":3711:4109   */\n    tag_171:\n        /* \"#utility.yul\":3913:3915   */\n      0x20\n        /* \"#utility.yul\":3895:3916   */\n      dup1\n      dup3\n      mstore\n        /* \"#utility.yul\":3952:3954   */\n      0x22\n        /* \"#utility.yul\":3932:3950   */\n      swap1\n      dup3\n      add\n        /* \"#utility.yul\":3925:3955   */\n      mstore\n        /* \"#utility.yul\":3991:4025   */\n      0x45524332303a20617070726f766520746f20746865207a65726f206164647265\n        /* \"#utility.yul\":3986:3988   */\n      0x40\n        /* \"#utility.yul\":3971:3989   */\n      dup3\n      add\n        /* \"#utility.yul\":3964:4026   */\n      mstore\n      shl(0xf0, 0x7373)\n        /* \"#utility.yul\":4057:4059   */\n      0x60\n        /* \"#utility.yul\":4042:4060   */\n      dup3\n      add\n        /* \"#utility.yul\":4035:4067   */\n      mstore\n        /* \"#utility.yul\":4099:4102   */\n      0x80\n        /* \"#utility.yul\":4084:4103   */\n      add\n      swap1\n        /* \"#utility.yul\":3885:4109   */\n      jump\t// out\n        /* \"#utility.yul\":4114:4467   */\n    tag_178:\n        /* \"#utility.yul\":4316:4318   */\n      0x20\n        /* \"#utility.yul\":4298:4319   */\n      dup1\n      dup3\n      mstore\n        /* \"#utility.yul\":4355:4357   */\n      0x1d\n        /* \"#utility.yul\":4335:4353   */\n      swap1\n      dup3\n      add\n        /* \"#utility.yul\":4328:4358   */\n      mstore\n        /* \"#utility.yul\":4394:4425   */\n      0x45524332303a20696e73756666696369656e7420616c6c6f77616e6365000000\n        /* \"#utility.yul\":4389:4391   */\n      0x40\n        /* \"#utility.yul\":4374:4392   */\n      dup3\n      add\n        /* \"#utility.yul\":4367:4426   */\n      mstore\n        /* \"#utility.yul\":4458:4460   */\n      0x60\n        /* \"#utility.yul\":4443:4461   */\n      add\n      swap1\n        /* \"#utility.yul\":4288:4467   */\n      jump\t// out\n        /* \"#utility.yul\":4472:4822   */\n    tag_154:\n        /* \"#utility.yul\":4674:4676   */\n      0x20\n        /* \"#utility.yul\":4656:4677   */\n      dup1\n      dup3\n      mstore\n        /* \"#utility.yul\":4713:4715   */\n      0x1a\n        /* \"#utility.yul\":4693:4711   */\n      swap1\n      dup3\n      add\n        /* \"#utility.yul\":4686:4716   */\n      mstore\n        /* \"#utility.yul\":4752:4780   */\n      0x546f6b656e7320616c7265616479206469737472696275746564000000000000\n        /* \"#utility.yul\":4747:4749   */\n      0x40\n        /* \"#utility.yul\":4732:4750   */\n      dup3\n      add\n        /* \"#utility.yul\":4725:4781   */\n      mstore\n        /* \"#utility.yul\":4813:4815   */\n      0x60\n        /* \"#utility.yul\":4798:4816   */\n      add\n      swap1\n        /* \"#utility.yul\":4646:4822   */\n      jump\t// out\n        /* \"#utility.yul\":4827:5229   */\n    tag_191:\n        /* \"#utility.yul\":5029:5031   */\n      0x20\n        /* \"#utility.yul\":5011:5032   */\n      dup1\n      dup3\n      mstore\n        /* \"#utility.yul\":5068:5070   */\n      0x26\n        /* \"#utility.yul\":5048:5066   */\n      swap1\n      dup3\n      add\n        /* \"#utility.yul\":5041:5071   */\n      mstore\n        /* \"#utility.yul\":5107:5141   */\n      0x45524332303a207472616e7366657220616d6f756e7420657863656564732062\n        /* \"#utility.yul\":5102:5104   */\n      0x40\n        /* \"#utility.yul\":5087:5105   */\n      dup3\n      add\n        /* \"#utility.yul\":5080:5142   */\n      mstore\n      shl(0xd0, 0x616c616e6365)\n        /* \"#utility.yul\":5173:5175   */\n      0x60\n        /* \"#utility.yul\":5158:5176   */\n      dup3\n      add\n        /* \"#utility.yul\":5151:5187   */\n      mstore\n        /* \"#utility.yul\":5219:5222   */\n      0x80\n        /* \"#utility.yul\":5204:5223   */\n      add\n      swap1\n        /* \"#utility.yul\":5001:5229   */\n      jump\t// out\n        /* \"#utility.yul\":5234:5590   */\n    tag_210:\n        /* \"#utility.yul\":5436:5438   */\n      0x20\n        /* \"#utility.yul\":5418:5439   */\n      dup1\n      dup3\n      mstore\n        /* \"#utility.yul\":5455:5473   */\n      dup2\n      dup2\n      add\n        /* \"#utility.yul\":5448:5478   */\n      mstore\n        /* \"#utility.yul\":5514:5548   */\n      0x4f776e61626c653a2063616c6c6572206973206e6f7420746865206f776e6572\n        /* \"#utility.yul\":5509:5511   */\n      0x40\n        /* \"#utility.yul\":5494:5512   */\n      dup3\n      add\n        /* \"#utility.yul\":5487:5549   */\n      mstore\n        /* \"#utility.yul\":5581:5583   */\n      0x60\n        /* \"#utility.yul\":5566:5584   */\n      add\n      swap1\n        /* \"#utility.yul\":5408:5590   */\n      jump\t// out\n        /* \"#utility.yul\":5595:5992   */\n    tag_198:\n        /* \"#utility.yul\":5797:5799   */\n      0x20\n        /* \"#utility.yul\":5779:5800   */\n      dup1\n      dup3\n      mstore\n        /* \"#utility.yul\":5836:5838   */\n      0x21\n        /* \"#utility.yul\":5816:5834   */\n      swap1\n      dup3\n      add\n        /* \"#utility.yul\":5809:5839   */\n      mstore\n        /* \"#utility.yul\":5875:5909   */\n      0x45524332303a206275726e2066726f6d20746865207a65726f20616464726573\n        /* \"#utility.yul\":5870:5872   */\n      0x40\n        /* \"#utility.yul\":5855:5873   */\n      dup3\n      add\n        /* \"#utility.yul\":5848:5910   */\n      mstore\n      shl(0xf8, 0x73)\n        /* \"#utility.yul\":5941:5943   */\n      0x60\n        /* \"#utility.yul\":5926:5944   */\n      dup3\n      add\n        /* \"#utility.yul\":5919:5950   */\n      mstore\n        /* \"#utility.yul\":5982:5985   */\n      0x80\n        /* \"#utility.yul\":5967:5986   */\n      add\n      swap1\n        /* \"#utility.yul\":5769:5992   */\n      jump\t// out\n        /* \"#utility.yul\":5997:6398   */\n    tag_183:\n        /* \"#utility.yul\":6199:6201   */\n      0x20\n        /* \"#utility.yul\":6181:6202   */\n      dup1\n      dup3\n      mstore\n        /* \"#utility.yul\":6238:6240   */\n      0x25\n        /* \"#utility.yul\":6218:6236   */\n      swap1\n      dup3\n      add\n        /* \"#utility.yul\":6211:6241   */\n      mstore\n        /* \"#utility.yul\":6277:6311   */\n      0x45524332303a207472616e736665722066726f6d20746865207a65726f206164\n        /* \"#utility.yul\":6272:6274   */\n      0x40\n        /* \"#utility.yul\":6257:6275   */\n      dup3\n      add\n        /* \"#utility.yul\":6250:6312   */\n      mstore\n      shl(0xd8, 0x6472657373)\n        /* \"#utility.yul\":6343:6345   */\n      0x60\n        /* \"#utility.yul\":6328:6346   */\n      dup3\n      add\n        /* \"#utility.yul\":6321:6356   */\n      mstore\n        /* \"#utility.yul\":6388:6391   */\n      0x80\n        /* \"#utility.yul\":6373:6392   */\n      add\n      swap1\n        /* \"#utility.yul\":6171:6398   */\n      jump\t// out\n        /* \"#utility.yul\":6403:6803   */\n    tag_168:\n        /* \"#utility.yul\":6605:6607   */\n      0x20\n        /* \"#utility.yul\":6587:6608   */\n      dup1\n      dup3\n      mstore\n        /* \"#utility.yul\":6644:6646   */\n      0x24\n        /* \"#utility.yul\":6624:6642   */\n      swap1\n      dup3\n      add\n        /* \"#utility.yul\":6617:6647   */\n      mstore\n        /* \"#utility.yul\":6683:6717   */\n      0x45524332303a20617070726f76652066726f6d20746865207a65726f20616464\n        /* \"#utility.yul\":6678:6680   */\n      0x40\n        /* \"#utility.yul\":6663:6681   */\n      dup3\n      add\n        /* \"#utility.yul\":6656:6718   */\n      mstore\n      shl(0xe0, 0x72657373)\n        /* \"#utility.yul\":6749:6751   */\n      0x60\n        /* \"#utility.yul\":6734:6752   */\n      dup3\n      add\n        /* \"#utility.yul\":6727:6761   */\n      mstore\n        /* \"#utility.yul\":6793:6796   */\n      0x80\n        /* \"#utility.yul\":6778:6797   */\n      add\n      swap1\n        /* \"#utility.yul\":6577:6803   */\n      jump\t// out\n        /* \"#utility.yul\":6808:7209   */\n    tag_143:\n        /* \"#utility.yul\":7010:7012   */\n      0x20\n        /* \"#utility.yul\":6992:7013   */\n      dup1\n      dup3\n      mstore\n        /* \"#utility.yul\":7049:7051   */\n      0x25\n        /* \"#utility.yul\":7029:7047   */\n      swap1\n      dup3\n      add\n        /* \"#utility.yul\":7022:7052   */\n      mstore\n        /* \"#utility.yul\":7088:7122   */\n      0x45524332303a2064656372656173656420616c6c6f77616e63652062656c6f77\n        /* \"#utility.yul\":7083:7085   */\n      0x40\n        /* \"#utility.yul\":7068:7086   */\n      dup3\n      add\n        /* \"#utility.yul\":7061:7123   */\n      mstore\n      shl(0xd8, 0x207a65726f)\n        /* \"#utility.yul\":7154:7156   */\n      0x60\n        /* \"#utility.yul\":7139:7157   */\n      dup3\n      add\n        /* \"#utility.yul\":7132:7167   */\n      mstore\n        /* \"#utility.yul\":7199:7202   */\n      0x80\n        /* \"#utility.yul\":7184:7203   */\n      add\n      swap1\n        /* \"#utility.yul\":6982:7209   */\n      jump\t// out\n        /* \"#utility.yul\":7214:7391   */\n    tag_36:\n        /* \"#utility.yul\":7360:7385   */\n      swap1\n      dup2\n      mstore\n        /* \"#utility.yul\":7348:7350   */\n      0x20\n        /* \"#utility.yul\":7333:7351   */\n      add\n      swap1\n        /* \"#utility.yul\":7315:7391   */\n      jump\t// out\n        /* \"#utility.yul\":7396:7580   */\n    tag_45:\n        /* \"#utility.yul\":7568:7572   */\n      0xff\n        /* \"#utility.yul\":7556:7573   */\n      swap2\n      swap1\n      swap2\n      and\n        /* \"#utility.yul\":7538:7574   */\n      dup2\n      mstore\n        /* \"#utility.yul\":7526:7528   */\n      0x20\n        /* \"#utility.yul\":7511:7529   */\n      add\n      swap1\n        /* \"#utility.yul\":7493:7580   */\n      jump\t// out\n        /* \"#utility.yul\":7585:7814   */\n    tag_115:\n      0x00\n        /* \"#utility.yul\":7656:7657   */\n      dup3\n        /* \"#utility.yul\":7652:7658   */\n      not\n        /* \"#utility.yul\":7649:7650   */\n      dup3\n        /* \"#utility.yul\":7646:7659   */\n      gt\n        /* \"#utility.yul\":7643:7645   */\n      iszero\n      tag_256\n      jumpi\n      shl(0xe0, 0x4e487b71)\n        /* \"#utility.yul\":7682:7715   */\n      dup2\n      mstore\n        /* \"#utility.yul\":7738:7742   */\n      0x11\n        /* \"#utility.yul\":7735:7736   */\n      0x04\n        /* \"#utility.yul\":7728:7743   */\n      mstore\n        /* \"#utility.yul\":7768:7772   */\n      0x24\n        /* \"#utility.yul\":7689:7692   */\n      dup2\n        /* \"#utility.yul\":7756:7773   */\n      revert\n        /* \"#utility.yul\":7643:7645   */\n    tag_256:\n      pop\n        /* \"#utility.yul\":7799:7808   */\n      add\n      swap1\n        /* \"#utility.yul\":7633:7814   */\n      jump\t// out\n        /* \"#utility.yul\":7819:8199   */\n    tag_92:\n        /* \"#utility.yul\":7904:7905   */\n      0x02\n        /* \"#utility.yul\":7894:7906   */\n      dup2\n      div\n        /* \"#utility.yul\":7951:7952   */\n      0x01\n        /* \"#utility.yul\":7941:7953   */\n      dup3\n      and\n      dup1\n        /* \"#utility.yul\":7962:7964   */\n      tag_258\n      jumpi\n        /* \"#utility.yul\":8016:8020   */\n      0x7f\n        /* \"#utility.yul\":8008:8014   */\n      dup3\n        /* \"#utility.yul\":8004:8021   */\n      and\n        /* \"#utility.yul\":7994:8021   */\n      swap2\n      pop\n        /* \"#utility.yul\":7962:7964   */\n    tag_258:\n        /* \"#utility.yul\":8069:8071   */\n      0x20\n        /* \"#utility.yul\":8061:8067   */\n      dup3\n        /* \"#utility.yul\":8058:8072   */\n      lt\n        /* \"#utility.yul\":8038:8056   */\n      dup2\n        /* \"#utility.yul\":8035:8073   */\n      eq\n        /* \"#utility.yul\":8032:8034   */\n      iszero\n      tag_259\n      jumpi\n        /* \"#utility.yul\":8115:8125   */\n      0x4e487b71\n        /* \"#utility.yul\":8110:8113   */\n      0xe0\n        /* \"#utility.yul\":8106:8126   */\n      shl\n        /* \"#utility.yul\":8103:8104   */\n      0x00\n        /* \"#utility.yul\":8096:8127   */\n      mstore\n        /* \"#utility.yul\":8150:8154   */\n      0x22\n        /* \"#utility.yul\":8147:8148   */\n      0x04\n        /* \"#utility.yul\":8140:8155   */\n      mstore\n        /* \"#utility.yul\":8178:8182   */\n      0x24\n        /* \"#utility.yul\":8175:8176   */\n      0x00\n        /* \"#utility.yul\":8168:8183   */\n      revert\n        /* \"#utility.yul\":8032:8034   */\n    tag_259:\n      pop\n        /* \"#utility.yul\":7874:8199   */\n      swap2\n      swap1\n      pop\n      jump\t// out\n\n    auxdata: 0xa264697066735822122030962fe925b29f8caa10974d02cab2b593edd403ba571d3a8a7108f7769e659b64736f6c63430008000033\n}\n",
				"bytecode": {
					"linkReferences": {},
					"object": "60806040523480156200001157600080fd5b50604051806040016040528060088152602001674d414c444956455360c01b8152506040518060400160405280600381526020016226ab2960e91b815250816003908051906020019062000067929190620001d5565b5080516200007d906004906020840190620001d5565b5050506200009a62000094620000b860201b60201c565b620000bc565b620000b2336b204fce5e3e250261100000006200010e565b6200031d565b3390565b600e80546001600160a01b038381166001600160a01b0319831681179093556040519116919082907f8be0079c531659141344cd1fd0a4f28419497f9722a3daafe3b4186f6b6457e090600090a35050565b6001600160a01b038216620001405760405162461bcd60e51b815260040162000137906200027b565b60405180910390fd5b6200014e60008383620001d0565b8060026000828254620001629190620002bb565b90915550506001600160a01b038216600081815260208190526040808220805485019055517fddf252ad1be2c89b69c2b068fc378daa952ba7f163c4a11628f55a4df523b3ef90620001b6908590620002b2565b60405180910390a3620001cc60008383620001d0565b5050565b505050565b828054620001e390620002e0565b90600052602060002090601f01602090048101928262000207576000855562000252565b82601f106200022257805160ff191683800117855562000252565b8280016001018555821562000252579182015b828111156200025257825182559160200191906001019062000235565b506200026092915062000264565b5090565b5b8082111562000260576000815560010162000265565b6020808252601f908201527f45524332303a206d696e7420746f20746865207a65726f206164647265737300604082015260600190565b90815260200190565b60008219821115620002db57634e487b7160e01b81526011600452602481fd5b500190565b600281046001821680620002f557607f821691505b602082108114156200031757634e487b7160e01b600052602260045260246000fd5b50919050565b610d86806200032d6000396000f3fe608060405234801561001057600080fd5b506004361061010b5760003560e01c8063715018a6116100a2578063a457c2d711610071578063a457c2d7146101fe578063a9059cbb14610211578063b1d17c9814610224578063dd62ed3e14610237578063f2fde38b1461024a5761010b565b8063715018a6146101c657806379cc6790146101ce5780638da5cb5b146101e157806395d89b41146101f65761010b565b8063313ce567116100de578063313ce56714610176578063395093511461018b57806342966c681461019e57806370a08231146101b35761010b565b806306fdde0314610110578063095ea7b31461012e57806318160ddd1461014e57806323b872dd14610163575b600080fd5b61011861025d565b6040516101259190610982565b60405180910390f35b61014161013c366004610922565b6102ef565b6040516101259190610977565b610156610311565b6040516101259190610cda565b6101416101713660046108e7565b610317565b61017e610345565b6040516101259190610ce3565b610141610199366004610922565b61034a565b6101b16101ac36600461094b565b610376565b005b6101566101c1366004610894565b61038a565b6101b16103a9565b6101b16101dc366004610922565b6103bd565b6101e96103dd565b6040516101259190610963565b6101186103ec565b61014161020c366004610922565b6103fb565b61014161021f366004610922565b61044c565b6101b1610232366004610894565b610464565b6101566102453660046108b5565b6104af565b6101b1610258366004610894565b6104da565b60606003805461026c90610d15565b80601f016020809104026020016040519081016040528092919081815260200182805461029890610d15565b80156102e55780601f106102ba576101008083540402835291602001916102e5565b820191906000526020600020905b8154815290600101906020018083116102c857829003601f168201915b5050505050905090565b6000806102fa610511565b9050610307818585610515565b5060019392505050565b60025490565b600080610322610511565b905061032f8582856105c9565b61033a858585610613565b506001949350505050565b601290565b600080610355610511565b905061030781858561036785896104af565b6103719190610cf1565b610515565b610387610381610511565b82610714565b50565b6001600160a01b0381166000908152602081905260409020545b919050565b6103b16107ec565b6103bb600061082b565b565b6103cf826103c9610511565b836105c9565b6103d98282610714565b5050565b600e546001600160a01b031690565b60606004805461026c90610d15565b600080610406610511565b9050600061041482866104af565b90508381101561043f5760405162461bcd60e51b815260040161043690610c95565b60405180910390fd5b61033a8286868403610515565b600080610457610511565b9050610307818585610613565b61046c6107ec565b60006104773361038a565b90506b204fce5e3e2502611000000081146104a45760405162461bcd60e51b815260040161043690610b19565b6103d9338383610613565b6001600160a01b03918216600090815260016020908152604080832093909416825291909152205490565b6104e26107ec565b6001600160a01b0381166105085760405162461bcd60e51b815260040161043690610a5a565b6103878161082b565b3390565b6001600160a01b03831661053b5760405162461bcd60e51b815260040161043690610c51565b6001600160a01b0382166105615760405162461bcd60e51b815260040161043690610aa0565b6001600160a01b0380841660008181526001602090815260408083209487168084529490915290819020849055517f8c5be1e5ebec7d5bd14f71427d1e84f3dd0314c0f7b2291e5b200ac8c7c3b925906105bc908590610cda565b60405180910390a3505050565b60006105d584846104af565b9050600019811461060d57818110156106005760405162461bcd60e51b815260040161043690610ae2565b61060d8484848403610515565b50505050565b6001600160a01b0383166106395760405162461bcd60e51b815260040161043690610c0c565b6001600160a01b03821661065f5760405162461bcd60e51b8152600401610436906109d5565b61066a8383836107e7565b6001600160a01b038316600090815260208190526040902054818110156106a35760405162461bcd60e51b815260040161043690610b50565b6001600160a01b0380851660008181526020819052604080822086860390559286168082529083902080548601905591517fddf252ad1be2c89b69c2b068fc378daa952ba7f163c4a11628f55a4df523b3ef90610701908690610cda565b60405180910390a361060d8484846107e7565b6001600160a01b03821661073a5760405162461bcd60e51b815260040161043690610bcb565b610746826000836107e7565b6001600160a01b0382166000908152602081905260409020548181101561077f5760405162461bcd60e51b815260040161043690610a18565b6001600160a01b0383166000818152602081905260408082208585039055600280548690039055519091907fddf252ad1be2c89b69c2b068fc378daa952ba7f163c4a11628f55a4df523b3ef906107d7908690610cda565b60405180910390a36107e7836000845b505050565b6107f4610511565b6001600160a01b03166108056103dd565b6001600160a01b0316146103bb5760405162461bcd60e51b815260040161043690610b96565b600e80546001600160a01b038381166001600160a01b0319831681179093556040519116919082907f8be0079c531659141344cd1fd0a4f28419497f9722a3daafe3b4186f6b6457e090600090a35050565b80356001600160a01b03811681146103a457600080fd5b6000602082840312156108a5578081fd5b6108ae8261087d565b9392505050565b600080604083850312156108c7578081fd5b6108d08361087d565b91506108de6020840161087d565b90509250929050565b6000806000606084860312156108fb578081fd5b6109048461087d565b92506109126020850161087d565b9150604084013590509250925092565b60008060408385031215610934578182fd5b61093d8361087d565b946020939093013593505050565b60006020828403121561095c578081fd5b5035919050565b6001600160a01b0391909116815260200190565b901515815260200190565b6000602080835283518082850152825b818110156109ae57858101830151858201604001528201610992565b818111156109bf5783604083870101525b50601f01601f1916929092016040019392505050565b60208082526023908201527f45524332303a207472616e7366657220746f20746865207a65726f206164647260408201526265737360e81b606082015260800190565b60208082526022908201527f45524332303a206275726e20616d6f756e7420657863656564732062616c616e604082015261636560f01b606082015260800190565b60208082526026908201527f4f776e61626c653a206e6577206f776e657220697320746865207a65726f206160408201526564647265737360d01b606082015260800190565b60208082526022908201527f45524332303a20617070726f766520746f20746865207a65726f206164647265604082015261737360f01b606082015260800190565b6020808252601d908201527f45524332303a20696e73756666696369656e7420616c6c6f77616e6365000000604082015260600190565b6020808252601a908201527f546f6b656e7320616c7265616479206469737472696275746564000000000000604082015260600190565b60208082526026908201527f45524332303a207472616e7366657220616d6f756e7420657863656564732062604082015265616c616e636560d01b606082015260800190565b6020808252818101527f4f776e61626c653a2063616c6c6572206973206e6f7420746865206f776e6572604082015260600190565b60208082526021908201527f45524332303a206275726e2066726f6d20746865207a65726f206164647265736040820152607360f81b606082015260800190565b60208082526025908201527f45524332303a207472616e736665722066726f6d20746865207a65726f206164604082015264647265737360d81b606082015260800190565b60208082526024908201527f45524332303a20617070726f76652066726f6d20746865207a65726f206164646040820152637265737360e01b606082015260800190565b60208082526025908201527f45524332303a2064656372656173656420616c6c6f77616e63652062656c6f77604082015264207a65726f60d81b606082015260800190565b90815260200190565b60ff91909116815260200190565b60008219821115610d1057634e487b7160e01b81526011600452602481fd5b500190565b600281046001821680610d2957607f821691505b60208210811415610d4a57634e487b7160e01b600052602260045260246000fd5b5091905056fea264697066735822122030962fe925b29f8caa10974d02cab2b593edd403ba571d3a8a7108f7769e659b64736f6c63430008000033",
					"opcodes": "PUSH1 0x80 PUSH1 0x40 MSTORE CALLVALUE DUP1 ISZERO PUSH3 0x11 JUMPI PUSH1 0x0 DUP1 REVERT JUMPDEST POP PUSH1 0x40 MLOAD DUP1 PUSH1 0x40 ADD PUSH1 0x40 MSTORE DUP1 PUSH1 0x8 DUP2 MSTORE PUSH1 0x20 ADD PUSH8 0x4D414C4449564553 PUSH1 0xC0 SHL DUP2 MSTORE POP PUSH1 0x40 MLOAD DUP1 PUSH1 0x40 ADD PUSH1 0x40 MSTORE DUP1 PUSH1 0x3 DUP2 MSTORE PUSH1 0x20 ADD PUSH3 0x26AB29 PUSH1 0xE9 SHL DUP2 MSTORE POP DUP2 PUSH1 0x3 SWAP1 DUP1 MLOAD SWAP1 PUSH1 0x20 ADD SWAP1 PUSH3 0x67 SWAP3 SWAP2 SWAP1 PUSH3 0x1D5 JUMP JUMPDEST POP DUP1 MLOAD PUSH3 0x7D SWAP1 PUSH1 0x4 SWAP1 PUSH1 0x20 DUP5 ADD SWAP1 PUSH3 0x1D5 JUMP JUMPDEST POP POP POP PUSH3 0x9A PUSH3 0x94 PUSH3 0xB8 PUSH1 0x20 SHL PUSH1 0x20 SHR JUMP JUMPDEST PUSH3 0xBC JUMP JUMPDEST PUSH3 0xB2 CALLER PUSH12 0x204FCE5E3E25026110000000 PUSH3 0x10E JUMP JUMPDEST PUSH3 0x31D JUMP JUMPDEST CALLER SWAP1 JUMP JUMPDEST PUSH1 0xE DUP1 SLOAD PUSH1 0x1 PUSH1 0x1 PUSH1 0xA0 SHL SUB DUP4 DUP2 AND PUSH1 0x1 PUSH1 0x1 PUSH1 0xA0 SHL SUB NOT DUP4 AND DUP2 OR SWAP1 SWAP4 SSTORE PUSH1 0x40 MLOAD SWAP2 AND SWAP2 SWAP1 DUP3 SWAP1 PUSH32 0x8BE0079C531659141344CD1FD0A4F28419497F9722A3DAAFE3B4186F6B6457E0 SWAP1 PUSH1 0x0 SWAP1 LOG3 POP POP JUMP JUMPDEST PUSH1 0x1 PUSH1 0x1 PUSH1 0xA0 SHL SUB DUP3 AND PUSH3 0x140 JUMPI PUSH1 0x40 MLOAD PUSH3 0x461BCD PUSH1 0xE5 SHL DUP2 MSTORE PUSH1 0x4 ADD PUSH3 0x137 SWAP1 PUSH3 0x27B JUMP JUMPDEST PUSH1 0x40 MLOAD DUP1 SWAP2 SUB SWAP1 REVERT JUMPDEST PUSH3 0x14E PUSH1 0x0 DUP4 DUP4 PUSH3 0x1D0 JUMP JUMPDEST DUP1 PUSH1 0x2 PUSH1 0x0 DUP3 DUP3 SLOAD PUSH3 0x162 SWAP2 SWAP1 PUSH3 0x2BB JUMP JUMPDEST SWAP1 SWAP2 SSTORE POP POP PUSH1 0x1 PUSH1 0x1 PUSH1 0xA0 SHL SUB DUP3 AND PUSH1 0x0 DUP2 DUP2 MSTORE PUSH1 0x20 DUP2 SWAP1 MSTORE PUSH1 0x40 DUP1 DUP3 KECCAK256 DUP1 SLOAD DUP6 ADD SWAP1 SSTORE MLOAD PUSH32 0xDDF252AD1BE2C89B69C2B068FC378DAA952BA7F163C4A11628F55A4DF523B3EF SWAP1 PUSH3 0x1B6 SWAP1 DUP6 SWAP1 PUSH3 0x2B2 JUMP JUMPDEST PUSH1 0x40 MLOAD DUP1 SWAP2 SUB SWAP1 LOG3 PUSH3 0x1CC PUSH1 0x0 DUP4 DUP4 PUSH3 0x1D0 JUMP JUMPDEST POP POP JUMP JUMPDEST POP POP POP JUMP JUMPDEST DUP3 DUP1 SLOAD PUSH3 0x1E3 SWAP1 PUSH3 0x2E0 JUMP JUMPDEST SWAP1 PUSH1 0x0 MSTORE PUSH1 0x20 PUSH1 0x0 KECCAK256 SWAP1 PUSH1 0x1F ADD PUSH1 0x20 SWAP1 DIV DUP2 ADD SWAP3 DUP3 PUSH3 0x207 JUMPI PUSH1 0x0 DUP6 SSTORE PUSH3 0x252 JUMP JUMPDEST DUP3 PUSH1 0x1F LT PUSH3 0x222 JUMPI DUP1 MLOAD PUSH1 0xFF NOT AND DUP4 DUP1 ADD OR DUP6 SSTORE PUSH3 0x252 JUMP JUMPDEST DUP3 DUP1 ADD PUSH1 0x1 ADD DUP6 SSTORE DUP3 ISZERO PUSH3 0x252 JUMPI SWAP2 DUP3 ADD JUMPDEST DUP3 DUP2 GT ISZERO PUSH3 0x252 JUMPI DUP3 MLOAD DUP3 SSTORE SWAP2 PUSH1 0x20 ADD SWAP2 SWAP1 PUSH1 0x1 ADD SWAP1 PUSH3 0x235 JUMP JUMPDEST POP PUSH3 0x260 SWAP3 SWAP2 POP PUSH3 0x264 JUMP JUMPDEST POP SWAP1 JUMP JUMPDEST JUMPDEST DUP1 DUP3 GT ISZERO PUSH3 0x260 JUMPI PUSH1 0x0 DUP2 SSTORE PUSH1 0x1 ADD PUSH3 0x265 JUMP JUMPDEST PUSH1 0x20 DUP1 DUP3 MSTORE PUSH1 0x1F SWAP1 DUP3 ADD MSTORE PUSH32 0x45524332303A206D696E7420746F20746865207A65726F206164647265737300 PUSH1 0x40 DUP3 ADD MSTORE PUSH1 0x60 ADD SWAP1 JUMP JUMPDEST SWAP1 DUP2 MSTORE PUSH1 0x20 ADD SWAP1 JUMP JUMPDEST PUSH1 0x0 DUP3 NOT DUP3 GT ISZERO PUSH3 0x2DB JUMPI PUSH4 0x4E487B71 PUSH1 0xE0 SHL DUP2 MSTORE PUSH1 0x11 PUSH1 0x4 MSTORE PUSH1 0x24 DUP2 REVERT JUMPDEST POP ADD SWAP1 JUMP JUMPDEST PUSH1 0x2 DUP2 DIV PUSH1 0x1 DUP3 AND DUP1 PUSH3 0x2F5 JUMPI PUSH1 0x7F DUP3 AND SWAP2 POP JUMPDEST PUSH1 0x20 DUP3 LT DUP2 EQ ISZERO PUSH3 0x317 JUMPI PUSH4 0x4E487B71 PUSH1 0xE0 SHL PUSH1 0x0 MSTORE PUSH1 0x22 PUSH1 0x4 MSTORE PUSH1 0x24 PUSH1 0x0 REVERT JUMPDEST POP SWAP2 SWAP1 POP JUMP JUMPDEST PUSH2 0xD86 DUP1 PUSH3 0x32D PUSH1 0x0 CODECOPY PUSH1 0x0 RETURN INVALID PUSH1 0x80 PUSH1 0x40 MSTORE CALLVALUE DUP1 ISZERO PUSH2 0x10 JUMPI PUSH1 0x0 DUP1 REVERT JUMPDEST POP PUSH1 0x4 CALLDATASIZE LT PUSH2 0x10B JUMPI PUSH1 0x0 CALLDATALOAD PUSH1 0xE0 SHR DUP1 PUSH4 0x715018A6 GT PUSH2 0xA2 JUMPI DUP1 PUSH4 0xA457C2D7 GT PUSH2 0x71 JUMPI DUP1 PUSH4 0xA457C2D7 EQ PUSH2 0x1FE JUMPI DUP1 PUSH4 0xA9059CBB EQ PUSH2 0x211 JUMPI DUP1 PUSH4 0xB1D17C98 EQ PUSH2 0x224 JUMPI DUP1 PUSH4 0xDD62ED3E EQ PUSH2 0x237 JUMPI DUP1 PUSH4 0xF2FDE38B EQ PUSH2 0x24A JUMPI PUSH2 0x10B JUMP JUMPDEST DUP1 PUSH4 0x715018A6 EQ PUSH2 0x1C6 JUMPI DUP1 PUSH4 0x79CC6790 EQ PUSH2 0x1CE JUMPI DUP1 PUSH4 0x8DA5CB5B EQ PUSH2 0x1E1 JUMPI DUP1 PUSH4 0x95D89B41 EQ PUSH2 0x1F6 JUMPI PUSH2 0x10B JUMP JUMPDEST DUP1 PUSH4 0x313CE567 GT PUSH2 0xDE JUMPI DUP1 PUSH4 0x313CE567 EQ PUSH2 0x176 JUMPI DUP1 PUSH4 0x39509351 EQ PUSH2 0x18B JUMPI DUP1 PUSH4 0x42966C68 EQ PUSH2 0x19E JUMPI DUP1 PUSH4 0x70A08231 EQ PUSH2 0x1B3 JUMPI PUSH2 0x10B JUMP JUMPDEST DUP1 PUSH4 0x6FDDE03 EQ PUSH2 0x110 JUMPI DUP1 PUSH4 0x95EA7B3 EQ PUSH2 0x12E JUMPI DUP1 PUSH4 0x18160DDD EQ PUSH2 0x14E JUMPI DUP1 PUSH4 0x23B872DD EQ PUSH2 0x163 JUMPI JUMPDEST PUSH1 0x0 DUP1 REVERT JUMPDEST PUSH2 0x118 PUSH2 0x25D JUMP JUMPDEST PUSH1 0x40 MLOAD PUSH2 0x125 SWAP2 SWAP1 PUSH2 0x982 JUMP JUMPDEST PUSH1 0x40 MLOAD DUP1 SWAP2 SUB SWAP1 RETURN JUMPDEST PUSH2 0x141 PUSH2 0x13C CALLDATASIZE PUSH1 0x4 PUSH2 0x922 JUMP JUMPDEST PUSH2 0x2EF JUMP JUMPDEST PUSH1 0x40 MLOAD PUSH2 0x125 SWAP2 SWAP1 PUSH2 0x977 JUMP JUMPDEST PUSH2 0x156 PUSH2 0x311 JUMP JUMPDEST PUSH1 0x40 MLOAD PUSH2 0x125 SWAP2 SWAP1 PUSH2 0xCDA JUMP JUMPDEST PUSH2 0x141 PUSH2 0x171 CALLDATASIZE PUSH1 0x4 PUSH2 0x8E7 JUMP JUMPDEST PUSH2 0x317 JUMP JUMPDEST PUSH2 0x17E PUSH2 0x345 JUMP JUMPDEST PUSH1 0x40 MLOAD PUSH2 0x125 SWAP2 SWAP1 PUSH2 0xCE3 JUMP JUMPDEST PUSH2 0x141 PUSH2 0x199 CALLDATASIZE PUSH1 0x4 PUSH2 0x922 JUMP JUMPDEST PUSH2 0x34A JUMP JUMPDEST PUSH2 0x1B1 PUSH2 0x1AC CALLDATASIZE PUSH1 0x4 PUSH2 0x94B JUMP JUMPDEST PUSH2 0x376 JUMP JUMPDEST STOP JUMPDEST PUSH2 0x156 PUSH2 0x1C1 CALLDATASIZE PUSH1 0x4 PUSH2 0x894 JUMP JUMPDEST PUSH2 0x38A JUMP JUMPDEST PUSH2 0x1B1 PUSH2 0x3A9 JUMP JUMPDEST PUSH2 0x1B1 PUSH2 0x1DC CALLDATASIZE PUSH1 0x4 PUSH2 0x922 JUMP JUMPDEST PUSH2 0x3BD JUMP JUMPDEST PUSH2 0x1E9 PUSH2 0x3DD JUMP JUMPDEST PUSH1 0x40 MLOAD PUSH2 0x125 SWAP2 SWAP1 PUSH2 0x963 JUMP JUMPDEST PUSH2 0x118 PUSH2 0x3EC JUMP JUMPDEST PUSH2 0x141 PUSH2 0x20C CALLDATASIZE PUSH1 0x4 PUSH2 0x922 JUMP JUMPDEST PUSH2 0x3FB JUMP JUMPDEST PUSH2 0x141 PUSH2 0x21F CALLDATASIZE PUSH1 0x4 PUSH2 0x922 JUMP JUMPDEST PUSH2 0x44C JUMP JUMPDEST PUSH2 0x1B1 PUSH2 0x232 CALLDATASIZE PUSH1 0x4 PUSH2 0x894 JUMP JUMPDEST PUSH2 0x464 JUMP JUMPDEST PUSH2 0x156 PUSH2 0x245 CALLDATASIZE PUSH1 0x4 PUSH2 0x8B5 JUMP JUMPDEST PUSH2 0x4AF JUMP JUMPDEST PUSH2 0x1B1 PUSH2 0x258 CALLDATASIZE PUSH1 0x4 PUSH2 0x894 JUMP JUMPDEST PUSH2 0x4DA JUMP JUMPDEST PUSH1 0x60 PUSH1 0x3 DUP1 SLOAD PUSH2 0x26C SWAP1 PUSH2 0xD15 JUMP JUMPDEST DUP1 PUSH1 0x1F ADD PUSH1 0x20 DUP1 SWAP2 DIV MUL PUSH1 0x20 ADD PUSH1 0x40 MLOAD SWAP1 DUP2 ADD PUSH1 0x40 MSTORE DUP1 SWAP3 SWAP2 SWAP1 DUP2 DUP2 MSTORE PUSH1 0x20 ADD DUP3 DUP1 SLOAD PUSH2 0x298 SWAP1 PUSH2 0xD15 JUMP JUMPDEST DUP1 ISZERO PUSH2 0x2E5 JUMPI DUP1 PUSH1 0x1F LT PUSH2 0x2BA JUMPI PUSH2 0x100 DUP1 DUP4 SLOAD DIV MUL DUP4 MSTORE SWAP2 PUSH1 0x20 ADD SWAP2 PUSH2 0x2E5 JUMP JUMPDEST DUP3 ADD SWAP2 SWAP1 PUSH1 0x0 MSTORE PUSH1 0x20 PUSH1 0x0 KECCAK256 SWAP1 JUMPDEST DUP2 SLOAD DUP2 MSTORE SWAP1 PUSH1 0x1 ADD SWAP1 PUSH1 0x20 ADD DUP1 DUP4 GT PUSH2 0x2C8 JUMPI DUP3 SWAP1 SUB PUSH1 0x1F AND DUP3 ADD SWAP2 JUMPDEST POP POP POP POP POP SWAP1 POP SWAP1 JUMP JUMPDEST PUSH1 0x0 DUP1 PUSH2 0x2FA PUSH2 0x511 JUMP JUMPDEST SWAP1 POP PUSH2 0x307 DUP2 DUP6 DUP6 PUSH2 0x515 JUMP JUMPDEST POP PUSH1 0x1 SWAP4 SWAP3 POP POP POP JUMP JUMPDEST PUSH1 0x2 SLOAD SWAP1 JUMP JUMPDEST PUSH1 0x0 DUP1 PUSH2 0x322 PUSH2 0x511 JUMP JUMPDEST SWAP1 POP PUSH2 0x32F DUP6 DUP3 DUP6 PUSH2 0x5C9 JUMP JUMPDEST PUSH2 0x33A DUP6 DUP6 DUP6 PUSH2 0x613 JUMP JUMPDEST POP PUSH1 0x1 SWAP5 SWAP4 POP POP POP POP JUMP JUMPDEST PUSH1 0x12 SWAP1 JUMP JUMPDEST PUSH1 0x0 DUP1 PUSH2 0x355 PUSH2 0x511 JUMP JUMPDEST SWAP1 POP PUSH2 0x307 DUP2 DUP6 DUP6 PUSH2 0x367 DUP6 DUP10 PUSH2 0x4AF JUMP JUMPDEST PUSH2 0x371 SWAP2 SWAP1 PUSH2 0xCF1 JUMP JUMPDEST PUSH2 0x515 JUMP JUMPDEST PUSH2 0x387 PUSH2 0x381 PUSH2 0x511 JUMP JUMPDEST DUP3 PUSH2 0x714 JUMP JUMPDEST POP JUMP JUMPDEST PUSH1 0x1 PUSH1 0x1 PUSH1 0xA0 SHL SUB DUP2 AND PUSH1 0x0 SWAP1 DUP2 MSTORE PUSH1 0x20 DUP2 SWAP1 MSTORE PUSH1 0x40 SWAP1 KECCAK256 SLOAD JUMPDEST SWAP2 SWAP1 POP JUMP JUMPDEST PUSH2 0x3B1 PUSH2 0x7EC JUMP JUMPDEST PUSH2 0x3BB PUSH1 0x0 PUSH2 0x82B JUMP JUMPDEST JUMP JUMPDEST PUSH2 0x3CF DUP3 PUSH2 0x3C9 PUSH2 0x511 JUMP JUMPDEST DUP4 PUSH2 0x5C9 JUMP JUMPDEST PUSH2 0x3D9 DUP3 DUP3 PUSH2 0x714 JUMP JUMPDEST POP POP JUMP JUMPDEST PUSH1 0xE SLOAD PUSH1 0x1 PUSH1 0x1 PUSH1 0xA0 SHL SUB AND SWAP1 JUMP JUMPDEST PUSH1 0x60 PUSH1 0x4 DUP1 SLOAD PUSH2 0x26C SWAP1 PUSH2 0xD15 JUMP JUMPDEST PUSH1 0x0 DUP1 PUSH2 0x406 PUSH2 0x511 JUMP JUMPDEST SWAP1 POP PUSH1 0x0 PUSH2 0x414 DUP3 DUP7 PUSH2 0x4AF JUMP JUMPDEST SWAP1 POP DUP4 DUP2 LT ISZERO PUSH2 0x43F JUMPI PUSH1 0x40 MLOAD PUSH3 0x461BCD PUSH1 0xE5 SHL DUP2 MSTORE PUSH1 0x4 ADD PUSH2 0x436 SWAP1 PUSH2 0xC95 JUMP JUMPDEST PUSH1 0x40 MLOAD DUP1 SWAP2 SUB SWAP1 REVERT JUMPDEST PUSH2 0x33A DUP3 DUP7 DUP7 DUP5 SUB PUSH2 0x515 JUMP JUMPDEST PUSH1 0x0 DUP1 PUSH2 0x457 PUSH2 0x511 JUMP JUMPDEST SWAP1 POP PUSH2 0x307 DUP2 DUP6 DUP6 PUSH2 0x613 JUMP JUMPDEST PUSH2 0x46C PUSH2 0x7EC JUMP JUMPDEST PUSH1 0x0 PUSH2 0x477 CALLER PUSH2 0x38A JUMP JUMPDEST SWAP1 POP PUSH12 0x204FCE5E3E25026110000000 DUP2 EQ PUSH2 0x4A4 JUMPI PUSH1 0x40 MLOAD PUSH3 0x461BCD PUSH1 0xE5 SHL DUP2 MSTORE PUSH1 0x4 ADD PUSH2 0x436 SWAP1 PUSH2 0xB19 JUMP JUMPDEST PUSH2 0x3D9 CALLER DUP4 DUP4 PUSH2 0x613 JUMP JUMPDEST PUSH1 0x1 PUSH1 0x1 PUSH1 0xA0 SHL SUB SWAP2 DUP3 AND PUSH1 0x0 SWAP1 DUP2 MSTORE PUSH1 0x1 PUSH1 0x20 SWAP1 DUP2 MSTORE PUSH1 0x40 DUP1 DUP4 KECCAK256 SWAP4 SWAP1 SWAP5 AND DUP3 MSTORE SWAP2 SWAP1 SWAP2 MSTORE KECCAK256 SLOAD SWAP1 JUMP JUMPDEST PUSH2 0x4E2 PUSH2 0x7EC JUMP JUMPDEST PUSH1 0x1 PUSH1 0x1 PUSH1 0xA0 SHL SUB DUP2 AND PUSH2 0x508 JUMPI PUSH1 0x40 MLOAD PUSH3 0x461BCD PUSH1 0xE5 SHL DUP2 MSTORE PUSH1 0x4 ADD PUSH2 0x436 SWAP1 PUSH2 0xA5A JUMP JUMPDEST PUSH2 0x387 DUP2 PUSH2 0x82B JUMP JUMPDEST CALLER SWAP1 JUMP JUMPDEST PUSH1 0x1 PUSH1 0x1 PUSH1 0xA0 SHL SUB DUP4 AND PUSH2 0x53B JUMPI PUSH1 0x40 MLOAD PUSH3 0x461BCD PUSH1 0xE5 SHL DUP2 MSTORE PUSH1 0x4 ADD PUSH2 0x436 SWAP1 PUSH2 0xC51 JUMP JUMPDEST PUSH1 0x1 PUSH1 0x1 PUSH1 0xA0 SHL SUB DUP3 AND PUSH2 0x561 JUMPI PUSH1 0x40 MLOAD PUSH3 0x461BCD PUSH1 0xE5 SHL DUP2 MSTORE PUSH1 0x4 ADD PUSH2 0x436 SWAP1 PUSH2 0xAA0 JUMP JUMPDEST PUSH1 0x1 PUSH1 0x1 PUSH1 0xA0 SHL SUB DUP1 DUP5 AND PUSH1 0x0 DUP2 DUP2 MSTORE PUSH1 0x1 PUSH1 0x20 SWAP1 DUP2 MSTORE PUSH1 0x40 DUP1 DUP4 KECCAK256 SWAP5 DUP8 AND DUP1 DUP5 MSTORE SWAP5 SWAP1 SWAP2 MSTORE SWAP1 DUP2 SWAP1 KECCAK256 DUP5 SWAP1 SSTORE MLOAD PUSH32 0x8C5BE1E5EBEC7D5BD14F71427D1E84F3DD0314C0F7B2291E5B200AC8C7C3B925 SWAP1 PUSH2 0x5BC SWAP1 DUP6 SWAP1 PUSH2 0xCDA JUMP JUMPDEST PUSH1 0x40 MLOAD DUP1 SWAP2 SUB SWAP1 LOG3 POP POP POP JUMP JUMPDEST PUSH1 0x0 PUSH2 0x5D5 DUP5 DUP5 PUSH2 0x4AF JUMP JUMPDEST SWAP1 POP PUSH1 0x0 NOT DUP2 EQ PUSH2 0x60D JUMPI DUP2 DUP2 LT ISZERO PUSH2 0x600 JUMPI PUSH1 0x40 MLOAD PUSH3 0x461BCD PUSH1 0xE5 SHL DUP2 MSTORE PUSH1 0x4 ADD PUSH2 0x436 SWAP1 PUSH2 0xAE2 JUMP JUMPDEST PUSH2 0x60D DUP5 DUP5 DUP5 DUP5 SUB PUSH2 0x515 JUMP JUMPDEST POP POP POP POP JUMP JUMPDEST PUSH1 0x1 PUSH1 0x1 PUSH1 0xA0 SHL SUB DUP4 AND PUSH2 0x639 JUMPI PUSH1 0x40 MLOAD PUSH3 0x461BCD PUSH1 0xE5 SHL DUP2 MSTORE PUSH1 0x4 ADD PUSH2 0x436 SWAP1 PUSH2 0xC0C JUMP JUMPDEST PUSH1 0x1 PUSH1 0x1 PUSH1 0xA0 SHL SUB DUP3 AND PUSH2 0x65F JUMPI PUSH1 0x40 MLOAD PUSH3 0x461BCD PUSH1 0xE5 SHL DUP2 MSTORE PUSH1 0x4 ADD PUSH2 0x436 SWAP1 PUSH2 0x9D5 JUMP JUMPDEST PUSH2 0x66A DUP4 DUP4 DUP4 PUSH2 0x7E7 JUMP JUMPDEST PUSH1 0x1 PUSH1 0x1 PUSH1 0xA0 SHL SUB DUP4 AND PUSH1 0x0 SWAP1 DUP2 MSTORE PUSH1 0x20 DUP2 SWAP1 MSTORE PUSH1 0x40 SWAP1 KECCAK256 SLOAD DUP2 DUP2 LT ISZERO PUSH2 0x6A3 JUMPI PUSH1 0x40 MLOAD PUSH3 0x461BCD PUSH1 0xE5 SHL DUP2 MSTORE PUSH1 0x4 ADD PUSH2 0x436 SWAP1 PUSH2 0xB50 JUMP JUMPDEST PUSH1 0x1 PUSH1 0x1 PUSH1 0xA0 SHL SUB DUP1 DUP6 AND PUSH1 0x0 DUP2 DUP2 MSTORE PUSH1 0x20 DUP2 SWAP1 MSTORE PUSH1 0x40 DUP1 DUP3 KECCAK256 DUP7 DUP7 SUB SWAP1 SSTORE SWAP3 DUP7 AND DUP1 DUP3 MSTORE SWAP1 DUP4 SWAP1 KECCAK256 DUP1 SLOAD DUP7 ADD SWAP1 SSTORE SWAP2 MLOAD PUSH32 0xDDF252AD1BE2C89B69C2B068FC378DAA952BA7F163C4A11628F55A4DF523B3EF SWAP1 PUSH2 0x701 SWAP1 DUP7 SWAP1 PUSH2 0xCDA JUMP JUMPDEST PUSH1 0x40 MLOAD DUP1 SWAP2 SUB SWAP1 LOG3 PUSH2 0x60D DUP5 DUP5 DUP5 PUSH2 0x7E7 JUMP JUMPDEST PUSH1 0x1 PUSH1 0x1 PUSH1 0xA0 SHL SUB DUP3 AND PUSH2 0x73A JUMPI PUSH1 0x40 MLOAD PUSH3 0x461BCD PUSH1 0xE5 SHL DUP2 MSTORE PUSH1 0x4 ADD PUSH2 0x436 SWAP1 PUSH2 0xBCB JUMP JUMPDEST PUSH2 0x746 DUP3 PUSH1 0x0 DUP4 PUSH2 0x7E7 JUMP JUMPDEST PUSH1 0x1 PUSH1 0x1 PUSH1 0xA0 SHL SUB DUP3 AND PUSH1 0x0 SWAP1 DUP2 MSTORE PUSH1 0x20 DUP2 SWAP1 MSTORE PUSH1 0x40 SWAP1 KECCAK256 SLOAD DUP2 DUP2 LT ISZERO PUSH2 0x77F JUMPI PUSH1 0x40 MLOAD PUSH3 0x461BCD PUSH1 0xE5 SHL DUP2 MSTORE PUSH1 0x4 ADD PUSH2 0x436 SWAP1 PUSH2 0xA18 JUMP JUMPDEST PUSH1 0x1 PUSH1 0x1 PUSH1 0xA0 SHL SUB DUP4 AND PUSH1 0x0 DUP2 DUP2 MSTORE PUSH1 0x20 DUP2 SWAP1 MSTORE PUSH1 0x40 DUP1 DUP3 KECCAK256 DUP6 DUP6 SUB SWAP1 SSTORE PUSH1 0x2 DUP1 SLOAD DUP7 SWAP1 SUB SWAP1 SSTORE MLOAD SWAP1 SWAP2 SWAP1 PUSH32 0xDDF252AD1BE2C89B69C2B068FC378DAA952BA7F163C4A11628F55A4DF523B3EF SWAP1 PUSH2 0x7D7 SWAP1 DUP7 SWAP1 PUSH2 0xCDA JUMP JUMPDEST PUSH1 0x40 MLOAD DUP1 SWAP2 SUB SWAP1 LOG3 PUSH2 0x7E7 DUP4 PUSH1 0x0 DUP5 JUMPDEST POP POP POP JUMP JUMPDEST PUSH2 0x7F4 PUSH2 0x511 JUMP JUMPDEST PUSH1 0x1 PUSH1 0x1 PUSH1 0xA0 SHL SUB AND PUSH2 0x805 PUSH2 0x3DD JUMP JUMPDEST PUSH1 0x1 PUSH1 0x1 PUSH1 0xA0 SHL SUB AND EQ PUSH2 0x3BB JUMPI PUSH1 0x40 MLOAD PUSH3 0x461BCD PUSH1 0xE5 SHL DUP2 MSTORE PUSH1 0x4 ADD PUSH2 0x436 SWAP1 PUSH2 0xB96 JUMP JUMPDEST PUSH1 0xE DUP1 SLOAD PUSH1 0x1 PUSH1 0x1 PUSH1 0xA0 SHL SUB DUP4 DUP2 AND PUSH1 0x1 PUSH1 0x1 PUSH1 0xA0 SHL SUB NOT DUP4 AND DUP2 OR SWAP1 SWAP4 SSTORE PUSH1 0x40 MLOAD SWAP2 AND SWAP2 SWAP1 DUP3 SWAP1 PUSH32 0x8BE0079C531659141344CD1FD0A4F28419497F9722A3DAAFE3B4186F6B6457E0 SWAP1 PUSH1 0x0 SWAP1 LOG3 POP POP JUMP JUMPDEST DUP1 CALLDATALOAD PUSH1 0x1 PUSH1 0x1 PUSH1 0xA0 SHL SUB DUP2 AND DUP2 EQ PUSH2 0x3A4 JUMPI PUSH1 0x0 DUP1 REVERT JUMPDEST PUSH1 0x0 PUSH1 0x20 DUP3 DUP5 SUB SLT ISZERO PUSH2 0x8A5 JUMPI DUP1 DUP2 REVERT JUMPDEST PUSH2 0x8AE DUP3 PUSH2 0x87D JUMP JUMPDEST SWAP4 SWAP3 POP POP POP JUMP JUMPDEST PUSH1 0x0 DUP1 PUSH1 0x40 DUP4 DUP6 SUB SLT ISZERO PUSH2 0x8C7 JUMPI DUP1 DUP2 REVERT JUMPDEST PUSH2 0x8D0 DUP4 PUSH2 0x87D JUMP JUMPDEST SWAP2 POP PUSH2 0x8DE PUSH1 0x20 DUP5 ADD PUSH2 0x87D JUMP JUMPDEST SWAP1 POP SWAP3 POP SWAP3 SWAP1 POP JUMP JUMPDEST PUSH1 0x0 DUP1 PUSH1 0x0 PUSH1 0x60 DUP5 DUP7 SUB SLT ISZERO PUSH2 0x8FB JUMPI DUP1 DUP2 REVERT JUMPDEST PUSH2 0x904 DUP5 PUSH2 0x87D JUMP JUMPDEST SWAP3 POP PUSH2 0x912 PUSH1 0x20 DUP6 ADD PUSH2 0x87D JUMP JUMPDEST SWAP2 POP PUSH1 0x40 DUP5 ADD CALLDATALOAD SWAP1 POP SWAP3 POP SWAP3 POP SWAP3 JUMP JUMPDEST PUSH1 0x0 DUP1 PUSH1 0x40 DUP4 DUP6 SUB SLT ISZERO PUSH2 0x934 JUMPI DUP2 DUP3 REVERT JUMPDEST PUSH2 0x93D DUP4 PUSH2 0x87D JUMP JUMPDEST SWAP5 PUSH1 0x20 SWAP4 SWAP1 SWAP4 ADD CALLDATALOAD SWAP4 POP POP POP JUMP JUMPDEST PUSH1 0x0 PUSH1 0x20 DUP3 DUP5 SUB SLT ISZERO PUSH2 0x95C JUMPI DUP1 DUP2 REVERT JUMPDEST POP CALLDATALOAD SWAP2 SWAP1 POP JUMP JUMPDEST PUSH1 0x1 PUSH1 0x1 PUSH1 0xA0 SHL SUB SWAP2 SWAP1 SWAP2 AND DUP2 MSTORE PUSH1 0x20 ADD SWAP1 JUMP JUMPDEST SWAP1 ISZERO ISZERO DUP2 MSTORE PUSH1 0x20 ADD SWAP1 JUMP JUMPDEST PUSH1 0x0 PUSH1 0x20 DUP1 DUP4 MSTORE DUP4 MLOAD DUP1 DUP3 DUP6 ADD MSTORE DUP3 JUMPDEST DUP2 DUP2 LT ISZERO PUSH2 0x9AE JUMPI DUP6 DUP2 ADD DUP4 ADD MLOAD DUP6 DUP3 ADD PUSH1 0x40 ADD MSTORE DUP3 ADD PUSH2 0x992 JUMP JUMPDEST DUP2 DUP2 GT ISZERO PUSH2 0x9BF JUMPI DUP4 PUSH1 0x40 DUP4 DUP8 ADD ADD MSTORE JUMPDEST POP PUSH1 0x1F ADD PUSH1 0x1F NOT AND SWAP3 SWAP1 SWAP3 ADD PUSH1 0x40 ADD SWAP4 SWAP3 POP POP POP JUMP JUMPDEST PUSH1 0x20 DUP1 DUP3 MSTORE PUSH1 0x23 SWAP1 DUP3 ADD MSTORE PUSH32 0x45524332303A207472616E7366657220746F20746865207A65726F2061646472 PUSH1 0x40 DUP3 ADD MSTORE PUSH3 0x657373 PUSH1 0xE8 SHL PUSH1 0x60 DUP3 ADD MSTORE PUSH1 0x80 ADD SWAP1 JUMP JUMPDEST PUSH1 0x20 DUP1 DUP3 MSTORE PUSH1 0x22 SWAP1 DUP3 ADD MSTORE PUSH32 0x45524332303A206275726E20616D6F756E7420657863656564732062616C616E PUSH1 0x40 DUP3 ADD MSTORE PUSH2 0x6365 PUSH1 0xF0 SHL PUSH1 0x60 DUP3 ADD MSTORE PUSH1 0x80 ADD SWAP1 JUMP JUMPDEST PUSH1 0x20 DUP1 DUP3 MSTORE PUSH1 0x26 SWAP1 DUP3 ADD MSTORE PUSH32 0x4F776E61626C653A206E6577206F776E657220697320746865207A65726F2061 PUSH1 0x40 DUP3 ADD MSTORE PUSH6 0x646472657373 PUSH1 0xD0 SHL PUSH1 0x60 DUP3 ADD MSTORE PUSH1 0x80 ADD SWAP1 JUMP JUMPDEST PUSH1 0x20 DUP1 DUP3 MSTORE PUSH1 0x22 SWAP1 DUP3 ADD MSTORE PUSH32 0x45524332303A20617070726F766520746F20746865207A65726F206164647265 PUSH1 0x40 DUP3 ADD MSTORE PUSH2 0x7373 PUSH1 0xF0 SHL PUSH1 0x60 DUP3 ADD MSTORE PUSH1 0x80 ADD SWAP1 JUMP JUMPDEST PUSH1 0x20 DUP1 DUP3 MSTORE PUSH1 0x1D SWAP1 DUP3 ADD MSTORE PUSH32 0x45524332303A20696E73756666696369656E7420616C6C6F77616E6365000000 PUSH1 0x40 DUP3 ADD MSTORE PUSH1 0x60 ADD SWAP1 JUMP JUMPDEST PUSH1 0x20 DUP1 DUP3 MSTORE PUSH1 0x1A SWAP1 DUP3 ADD MSTORE PUSH32 0x546F6B656E7320616C7265616479206469737472696275746564000000000000 PUSH1 0x40 DUP3 ADD MSTORE PUSH1 0x60 ADD SWAP1 JUMP JUMPDEST PUSH1 0x20 DUP1 DUP3 MSTORE PUSH1 0x26 SWAP1 DUP3 ADD MSTORE PUSH32 0x45524332303A207472616E7366657220616D6F756E7420657863656564732062 PUSH1 0x40 DUP3 ADD MSTORE PUSH6 0x616C616E6365 PUSH1 0xD0 SHL PUSH1 0x60 DUP3 ADD MSTORE PUSH1 0x80 ADD SWAP1 JUMP JUMPDEST PUSH1 0x20 DUP1 DUP3 MSTORE DUP2 DUP2 ADD MSTORE PUSH32 0x4F776E61626C653A2063616C6C6572206973206E6F7420746865206F776E6572 PUSH1 0x40 DUP3 ADD MSTORE PUSH1 0x60 ADD SWAP1 JUMP JUMPDEST PUSH1 0x20 DUP1 DUP3 MSTORE PUSH1 0x21 SWAP1 DUP3 ADD MSTORE PUSH32 0x45524332303A206275726E2066726F6D20746865207A65726F20616464726573 PUSH1 0x40 DUP3 ADD MSTORE PUSH1 0x73 PUSH1 0xF8 SHL PUSH1 0x60 DUP3 ADD MSTORE PUSH1 0x80 ADD SWAP1 JUMP JUMPDEST PUSH1 0x20 DUP1 DUP3 MSTORE PUSH1 0x25 SWAP1 DUP3 ADD MSTORE PUSH32 0x45524332303A207472616E736665722066726F6D20746865207A65726F206164 PUSH1 0x40 DUP3 ADD MSTORE PUSH5 0x6472657373 PUSH1 0xD8 SHL PUSH1 0x60 DUP3 ADD MSTORE PUSH1 0x80 ADD SWAP1 JUMP JUMPDEST PUSH1 0x20 DUP1 DUP3 MSTORE PUSH1 0x24 SWAP1 DUP3 ADD MSTORE PUSH32 0x45524332303A20617070726F76652066726F6D20746865207A65726F20616464 PUSH1 0x40 DUP3 ADD MSTORE PUSH4 0x72657373 PUSH1 0xE0 SHL PUSH1 0x60 DUP3 ADD MSTORE PUSH1 0x80 ADD SWAP1 JUMP JUMPDEST PUSH1 0x20 DUP1 DUP3 MSTORE PUSH1 0x25 SWAP1 DUP3 ADD MSTORE PUSH32 0x45524332303A2064656372656173656420616C6C6F77616E63652062656C6F77 PUSH1 0x40 DUP3 ADD MSTORE PUSH5 0x207A65726F PUSH1 0xD8 SHL PUSH1 0x60 DUP3 ADD MSTORE PUSH1 0x80 ADD SWAP1 JUMP JUMPDEST SWAP1 DUP2 MSTORE PUSH1 0x20 ADD SWAP1 JUMP JUMPDEST PUSH1 0xFF SWAP2 SWAP1 SWAP2 AND DUP2 MSTORE PUSH1 0x20 ADD SWAP1 JUMP JUMPDEST PUSH1 0x0 DUP3 NOT DUP3 GT ISZERO PUSH2 0xD10 JUMPI PUSH4 0x4E487B71 PUSH1 0xE0 SHL DUP2 MSTORE PUSH1 0x11 PUSH1 0x4 MSTORE PUSH1 0x24 DUP2 REVERT JUMPDEST POP ADD SWAP1 JUMP JUMPDEST PUSH1 0x2 DUP2 DIV PUSH1 0x1 DUP3 AND DUP1 PUSH2 0xD29 JUMPI PUSH1 0x7F DUP3 AND SWAP2 POP JUMPDEST PUSH1 0x20 DUP3 LT DUP2 EQ ISZERO PUSH2 0xD4A JUMPI PUSH4 0x4E487B71 PUSH1 0xE0 SHL PUSH1 0x0 MSTORE PUSH1 0x22 PUSH1 0x4 MSTORE PUSH1 0x24 PUSH1 0x0 REVERT JUMPDEST POP SWAP2 SWAP1 POP JUMP INVALID LOG2 PUSH5 0x6970667358 0x22 SLT KECCAK256 ADDRESS SWAP7 0x2F 0xE9 0x25 0xB2 SWAP16 DUP13 0xAA LT SWAP8 0x4D MUL 0xCA 0xB2 0xB5 SWAP4 0xED 0xD4 SUB 0xBA JUMPI SAR GASPRICE DUP11 PUSH18 0x8F7769E659B64736F6C6343000800003300 "
				},
				"gasEstimates": {
					"creation": {
						"codeDepositCost": "692400",
						"executionCost": "infinite",
						"totalCost": "infinite"
					},
					"external": {
						"allowance(address,address)": "infinite",
						"approve(address,uint256)": "22642",
						"balanceOf(address)": "infinite",
						"burn(uint256)": "infinite",
						"burnFrom(address,uint256)": "infinite",
						"decimals()": "263",
						"decreaseAllowance(address,uint256)": "23667",
						"distributeTokens(address)": "infinite",
						"increaseAllowance(address,uint256)": "23718",
						"name()": "infinite",
						"owner()": "1137",
						"renounceOwnership()": "infinite",
						"symbol()": "infinite",
						"totalSupply()": "1096",
						"transfer(address,uint256)": "infinite",
						"transferFrom(address,address,uint256)": "infinite",
						"transferOwnership(address)": "23836"
					}
				},
				"methodIdentifiers": {
					"allowance(address,address)": "dd62ed3e",
					"approve(address,uint256)": "095ea7b3",
					"balanceOf(address)": "70a08231",
					"burn(uint256)": "42966c68",
					"burnFrom(address,uint256)": "79cc6790",
					"decimals()": "313ce567",
					"decreaseAllowance(address,uint256)": "a457c2d7",
					"distributeTokens(address)": "b1d17c98",
					"increaseAllowance(address,uint256)": "39509351",
					"name()": "06fdde03",
					"owner()": "8da5cb5b",
					"renounceOwnership()": "715018a6",
					"symbol()": "95d89b41",
					"totalSupply()": "18160ddd",
					"transfer(address,uint256)": "a9059cbb",
					"transferFrom(address,address,uint256)": "23b872dd",
					"transferOwnership(address)": "f2fde38b"
				}
			},
			"storageLayout": {
				"storage": [
					{
						"astId": 244,
						"contract": "maldives.sol:MALDIVES",
						"label": "_balances",
						"offset": 0,
						"slot": "0",
						"type": "t_mapping(t_address,t_uint256)"
					},
					{
						"astId": 250,
						"contract": "maldives.sol:MALDIVES",
						"label": "_allowances",
						"offset": 0,
						"slot": "1",
						"type": "t_mapping(t_address,t_mapping(t_address,t_uint256))"
					},
					{
						"astId": 252,
						"contract": "maldives.sol:MALDIVES",
						"label": "_totalSupply",
						"offset": 0,
						"slot": "2",
						"type": "t_uint256"
					},
					{
						"astId": 254,
						"contract": "maldives.sol:MALDIVES",
						"label": "_name",
						"offset": 0,
						"slot": "3",
						"type": "t_string_storage"
					},
					{
						"astId": 256,
						"contract": "maldives.sol:MALDIVES",
						"label": "_symbol",
						"offset": 0,
						"slot": "4",
						"type": "t_string_storage"
					},
					{
						"astId": 258,
						"contract": "maldives.sol:MALDIVES",
						"label": "_website",
						"offset": 0,
						"slot": "5",
						"type": "t_string_storage"
					},
					{
						"astId": 260,
						"contract": "maldives.sol:MALDIVES",
						"label": "_twitter",
						"offset": 0,
						"slot": "6",
						"type": "t_string_storage"
					},
					{
						"astId": 262,
						"contract": "maldives.sol:MALDIVES",
						"label": "_telegram",
						"offset": 0,
						"slot": "7",
						"type": "t_string_storage"
					},
					{
						"astId": 264,
						"contract": "maldives.sol:MALDIVES",
						"label": "_developmentWallet",
						"offset": 0,
						"slot": "8",
						"type": "t_string_storage"
					},
					{
						"astId": 266,
						"contract": "maldives.sol:MALDIVES",
						"label": "_marketingWallet",
						"offset": 0,
						"slot": "9",
						"type": "t_string_storage"
					},
					{
						"astId": 268,
						"contract": "maldives.sol:MALDIVES",
						"label": "_teamWallet",
						"offset": 0,
						"slot": "10",
						"type": "t_string_storage"
					},
					{
						"astId": 270,
						"contract": "maldives.sol:MALDIVES",
						"label": "_airdropWallet1",
						"offset": 0,
						"slot": "11",
						"type": "t_string_storage"
					},
					{
						"astId": 272,
						"contract": "maldives.sol:MALDIVES",
						"label": "_airdropWallet2",
						"offset": 0,
						"slot": "12",
						"type": "t_string_storage"
					},
					{
						"astId": 274,
						"contract": "maldives.sol:MALDIVES",
						"label": "_cexLiquidityWallet",
						"offset": 0,
						"slot": "13",
						"type": "t_string_storage"
					},
					{
						"astId": 27,
						"contract": "maldives.sol:MALDIVES",
						"label": "_owner",
						"offset": 0,
						"slot": "14",
						"type": "t_address"
					}
				],
				"types": {
					"t_address": {
						"encoding": "inplace",
						"label": "address",
						"numberOfBytes": "20"
					},
					"t_mapping(t_address,t_mapping(t_address,t_uint256))": {
						"encoding": "mapping",
						"key": "t_address",
						"label": "mapping(address => mapping(address => uint256))",
						"numberOfBytes": "32",
						"value": "t_mapping(t_address,t_uint256)"
					},
					"t_mapping(t_address,t_uint256)": {
						"encoding": "mapping",
						"key": "t_address",
						"label": "mapping(address => uint256)",
						"numberOfBytes": "32",
						"value": "t_uint256"
					},
					"t_string_storage": {
						"encoding": "bytes",
						"label": "string",
						"numberOfBytes": "32"
					},
					"t_uint256": {
						"encoding": "inplace",
						"label": "uint256",
						"numberOfBytes": "32"
					}
				}
			},
			"userdoc": {
				"kind": "user",
				"methods": {},
				"version": 1
			}
		}
	}
}